:020000041000EA
:0400000AFFA0C0DEB5
:1000000D00B5324B212058609868022188439860D2
:1000100DD860186158612E4B0021996002215961F9
:1000200D0121F02299502B49196001219960352049
:1000300D00F044F80222904214D00621196600F017
:1000400D34F8196E01211966002018661A6600F041
:1000500D2CF8196E196E196E052000F02FF801217C
:1000600D0842F9D1002199601B491960002159609E
:1000700D1A491B48016001219960EB211966A021E5
:1000800D196600F012F800219960164914480160B4
:1000900D0121996001BC002800D000471248134986
:1000A00D086003C880F30888084703B5996A0420DF
:1000B00D0142FBD001200142F8D103BD02B5186603
:1000C00D1866FFF7F2FF186E186E02BD00000240B1
:1000D00D000000180000070000035F00212200004F
:1000E00DF4000018222000A00001001008ED00E02F
:1000F00D00000000000000000000000074B24E7A05
:1001000D00200420F7010010C3010010C5010010EC
:1001100DC1010010C1010010C1010010C10100108A
:1001200DC1010010C1010010C1010010C701001074
:1001300DC1010010C1010010C9010010CB01001058
:1001400DCD010010CD010010CD010010CD0100102A
:1001500DCD010010CD010010CD010010CD0100101A
:1001600DCD010010CD010010CD010010CD0100100A
:1001700DCD010010CD010010CD010010CD010010FA
:1001800DCD010010CD010010CD010010CD010010EA
:1001900DCD010010CD010010CD010010CD010010DA
:1001A00DCD010010CD010010CD010010CD010010CA
:1001B00DCD010010CD010010CD010010CD010010BA
:1001C00D00BE00BE00BE00BE00BE00BEEFF3058047
:1001D00D103800BEF2EB8871280A0010480A001092
:1001E00D3402001090A31AE700201F49086006C8CA
:1001F00D81F3088810471D48006800282FD10DA4F1
:1002000D0ECC002902D000F012F8F9E71849194A6E
:1002100D002000E001C19142FCD1174988471749E0
:1002200D88471749884700BEFDE701C901C29A42B8
:1002300DFBD37047480A0010000000204401002045
:1002400D8C0B001000000420000004208C0B00100B
:1002500D0010042000100420000000007047094821
:1002600D00F08EFA0047000008ED00E0000000D01D
:1002700D00020020240400205D020010550600102D
:1002800D5D0300105756000006005250ABB360538B
:1002900DCF09001006005250861C0302DA09001027
:1002A00D060052505422A29DF8090010050052502C
:1002B00DDE65F4688C0B0010F8B5C0460448054B9C
:1002C00D10B5834203D0044B002B00D0984710BDCE
:1002D00D44010020440100200000000006480749A9
:1002E00D091A8B10C90FC91810B5491003D0044B4A
:1002F00D002B00D0984710BD440100204401002080
:1003000D0000000010B5074C2378002B09D1FFF732
:1003100DD5FF054B002B02D0044800E000BF0123A0
:1003200D237010BD0003002000000000A80900107C
:1003300D054B10B5002B03D00449054800E000BF64
:1003400DFFF7CCFF10BDC0460000000004030020E5
:1003500DA80900100048704719801F00FEE7FEE74E
:1003600D73B50C0016000500FFF7F4FF2C23802257
:1003700D98430F4B120418430E4B69461A600E4BEF
:1003800D07311A6801235340DB050C4ADB0D13605E
:1003900DA0238722DB05D2009E501D60596080216D
:1003A00D9C604904D86018690842FCD1985876BD04
:1003B00D1000800010200050340400503414005000
:1003C00D10B50400FFF7C6FF80220E4B1204184033
:1003D00D0D4B012118430D4B49421A600C4B1A6805
:1003E00D01235340DB050B4ADB0D1360A02387224D
:1003F00DDB05D2009950084A1C605A6040229A6071
:1004000D186110BD33F8FFFF380680001020005032
:1004100D340400503414005000020020A023862222
:1004200D0121D200DB059950802252041969114235
:1004300DFCD18722D20098587047000080230122FA
:1004400D10B5124C5B05E018FC215242FFF788FFF6
:1004500D0F4BE358984216D10E4B0F4AD968914273
:1004600D03D0D9680D4A914201D10022DA600422ED
:1004700D0B4B1A600B4BE418201C0B49086003C88A
:1004800D80F308880847002010BDC046001000000A
:1004900DFC00001000800540FB5ECD8E04A1327182
:1004A00D00E000400001001008ED00E0F7B50C0081
:1004B00DFA220021802705005200080000F0AEF955
:1004C00D314E240B7F01002C44D12E00AB68113628
:1004D00D591EFF360B0A30000193FFF771FF2A4FAB
:1004E00D019B0093009B0137FF37002B3DD100F09E
:1004F00D57F90122019B300019025242FFF730FFDC
:1005000DA04222D12E0010363000FFF759FFFFF721
:1005100D85FF80221D49520004001B4800F02CFA73
:1005200D00F03EF901228021300052424900FFF7D0
:1005300D17FFA04209D1F02380211B06E8184901BD
:1005400D00F02AFA124B134ADA608022124BD205C0
:1005500D1A60F7BD3000390000F01EFA80235B01F0
:1005600DF618013C00F01CF9ADE700F019F9FFF7A2
:1005700D55FF8022040005493800520000F0FCF9B7
:1005800D009B013BADE7C0460010000000020020BB
:1005900D00800540F24EFAE300B005400C235843AD
:1005A00D124B10B5C01880235B004360012913D096
:1005B00D0368802452015A40E02364011A40044329
:1005C00D2260032203684B401340236001238B40BC
:1005D00D82681342FCD010BDC02303249B0103434A
:1005E00D1C6083680B42FCD0E2E7C04600800040EF
:1005F00D37B50C2000F0CCF80023114DAB6700F09F
:1006000D2FF901220F4B1A606B6C012BFCD10322C9
:1006100D0D4B1A60AC6B012CFCD102250623210079
:1006200D00950A4A0A4800F02FF9290000220420FB
:1006300DFFF7B4FF002221000520FFF7AFFF37BD04
:1006400D008000403CB0004030B00040002F6859A1
:1006500D00800240F8B5404DEE682C69FFF7C8FFE9
:1006600D04233E4A3E49136018008A689043FBD12B
:1006700D3C4B9E421FD123051A0D002B22D1802108
:1006800D394B49055B18A3421CD2384BEB606A61AC
:1006900D81235B059C4221D3324B9E4202D0334BCA
:1006A00D9E4201D1FFF7CAFE314800F069F80021E2
:1006B00D0300080098472D4B9E4203D16B6901330F
:1006C00D6B61E5E7FFF7BAFE0028E1D1294B264C17
:1006D00DE418264BEB602C616861D9E72368214A49
:1006E00D934203D080235B01E418D1E7224B62686B
:1006F00D9A42F7D12700012210373800A1685242E3
:1007000DFFF72EFEE3689842ECD10122FC21380060
:1007100D5242FFF725FE23000D33FF331B6898422D
:1007200DE0D1A368154A991880220F4B090B520589
:1007300D09039B185B18A342D4D20029ACD06B6976
:1007400D022BA9D82000FFF7B1FE002132220800AC
:1007500D00F064F8FEE7C0460080054000F0004060
:1007600D00C00040FB5ECD8E0010000004A1327170
:1007700D5542000000100010A952AEC5FF0F000039
:1007800D142310B50100188804331B88984710BD39
:1007900D8023024A9B000343D362704700800540CB
:1007A00D024B1A68024B5A607047C0461C04002069
:1007B00D0080054003008020124AC00510B5124C80
:1007C00D106012480460E020114CC004002906D0CE
:1007D00D2060002B05D180231B06236010BD106007
:1007E00DF7E7FA208022C00058435204094B90428B
:1007F00D05D21860FFF7D4FF8023DB05EDE7064A2D
:1008000D1A60F7E700B00540FCFF01000820014029
:1008100D00A005401C040020FFFFFF0070B5040080
:1008200D100080220A4BD2051A600A4B002C0CD006
:1008300D0125094A2C43DA61084A62401A6259625D
:1008400D9C620021FFF7B6FF70BDDC61F9E7C04681
:1008500D00B0054000800540D3C007B02D3FF84FD4
:1008600DAA22064B12011A602F220549DA60054AA9
:1008700D11605A68002AFCDA7047C04600400240F9
:1008800D00B0FA0000600240F8B5040020481700DF
:1008900D1E000D0000F046F80100380000F042F88F
:1008A00D069A3304120313432268002A0FDA3F21FC
:1008B00D22680A40AA420AD1A2681205120D82428C
:1008C00D05D1EE21E268C9020A409A421BD0114AB5
:1008D00D944219D0802252010F49104E0A601049DE
:1008E00D0A601700B1688F43FBD1C022211D920110
:1008F00D0A4321212560A060116021680029FCDADE
:1009000DE36008231360F8BD80229201E4E7C0463E
:1009100D001BB70000C0024000E0004000C00040D6
:1009200D00F00040114A936F9B0813D21066516678
:1009300D002905D0FFE7FFE7FFE7516F106F704704
:1009400D04B5002801D00020C04300F01DF800219F
:1009500D04BDC046F0B5146E556E576F166FFFF798
:1009600DE5FF1466556657671667F0BD000000D0A9
:1009700DF8B5C0460000000001B40248844601BC31
:1009800D604700BFB900002001B40248844601BC95
:1009900D604700BF2D01002001B40248844601BC10
:1009A00D604700BF41000020312E3130000600525B
:1009B00D503ABCA911A809001052656C65617365A8
:1009C00D00626F6F74325F773235713038300031BD
:1009D00D2E352E31007069636F00696E7465726D0E
:1009E00D6564696174655F7069636F2D666C6173B1
:1009F00D686C6F61646572004F637420203720321C
:100A000D3032330006005250BBFF3CB6D509001002
:100A100D06005250E182887FC10900100600525035
:100A200DD3F07542B9090010AD090010AC020010E9
:100A300DA002001094020010040A00108802001099
:100A400D100A00101C0A0010084A10B51378002B6C
:100A500D0AD18023064807495B051C68C45004333E
:100A600D8B42FAD10123137010BDC0462004002023
:100A700D1C0300100001001010B5024B0133984704
:100A800D10BDC0461C0300208023F0B542180400A1
:100A900D0D0085B09B039A4201D900F06DF8142723
:100AA00D182638883388124998473388039011499E
:100AB00D38889847338802900F493888984733888B
:100AC00D0E490190388898470600FFF7BDFF039B3C
:100AD00D9847029B984780222000D8232900520274
:100AE00D019CA047B047FFF7C7FF05B0F0BDC0465A
:100AF00D494600004558000052450000464300009D
:100B000D8023F0B5170085B08218040003919B0374
:100B100D9A4201D900F030F81426182530882B8818
:100B200D104998472B8802900F49308898472B8899
:100B300D01900E49308898472B880D4900903088D8
:100B400D98470500FFF780FF029B9847019B984748
:100B500D3A0020000399009B9847A847FFF78CFFA8
:100B600D05B0F0BD49460000455800005250000048
:100B700D464300007047C04601B40248844601BC9C
:0C0B800D604700BF5F0300103103001040
:0600000BFFFFFFFFFFFFF5
:020000041000EA
:0400000AFFA1C0DEB4
:1010000D00B5324B212058609868022188439860C2
:1010100DD860186158612E4B0021996002215961E9
:1010200D0121F02299502B49196001219960352039
:1010300D00F044F80222904214D00621196600F007
:1010400D34F8196E01211966002018661A6600F031
:1010500D2CF8196E196E196E052000F02FF801216C
:1010600D0842F9D1002199601B491960002159608E
:1010700D1A491B48016001219960EB211966A021D5
:1010800D196600F012F800219960164914480160A4
:1010900D0121996001BC002800D000471248134976
:1010A00D086003C880F30888084703B5996A0420CF
:1010B00D0142FBD001200142F8D103BD02B51866F3
:1010C00D1866FFF7F2FF186E186E02BD00000240A1
:1010D00D000000180000070000035F00212200003F
:1010E00DF4000018222000A00001001008ED00E01F
:1010F00D00000000000000000000000074B24E7AF5
:1011000D00200420F7110010C3110010C5110010AC
:1011100DC1110010C1110010C1110010C11100103A
:1011200DC1110010C1110010C1110010C711001024
:1011300DC1110010C1110010C9110010CB11001008
:1011400DCD110010CD110010CD110010CD110010DA
:1011500DCD110010CD110010CD110010CD110010CA
:1011600DCD110010CD110010CD110010CD110010BA
:1011700DCD110010CD110010CD110010CD110010AA
:1011800DCD110010CD110010CD110010CD1100109A
:1011900DCD110010CD110010CD110010CD1100108A
:1011A00DCD110010CD110010CD110010CD1100107A
:1011B00DCD110010CD110010CD110010CD1100106A
:1011C00D00BE00BE00BE00BE00BE00BEEFF3058037
:1011D00D103800BEF2EB88719CE00010C4E00010E6
:1011E00D3412001090A31AE700201F49086006C8AA
:1011F00D81F3088810471D48006800282FD10DA4E1
:1012000D0ECC002902D000F012F8F9E71849194A5E
:1012100D002000E001C19142FCD1174988471749D0
:1012200D88471749884700BEFDE701C901C29A42A8
:1012300DFBD37047C4E00010C0000020541A0020FA
:1012400D58FA0010000004200000042058FA001085
:1012500D0010042000100420000000007047094811
:1012600D04F0C0FB0047000008ED00E0000000D0D6
:1012700D581A002030AC032081420010AD1300102D
:1012800DA94300105756000006005250ABB36053EF
:1012900DB0DD0010060052505422A29DC0DD00109A
:1012A00D05005250DE65F46858FA0010F8B5C046D6
:1012B00D0448054B10B5834203D0044B002B00D0DE
:1012C00D984710BD541A0020541A00200000000049
:1012D00D06480749091A8B10C90FC91810B54910CE
:1012E00D03D0044B002B00D0984710BD541A00209A
:1012F00D541A00200000000010B5074C2378002B75
:1013000D09D1FFF7D5FF054B002B02D0044800E0B3
:1013100D00BF0123237010BD981D002000000000A8
:1013200DC8D30010054B10B5002B03D00449054858
:1013300D00E000BFFFF7CCFF10BDC046000000006D
:1013400D9C1D0020C8D3001010B5104A104911483B
:1013500D05F0D6FC104805F031FC104805F02EFCC8
:1013600D0BF0F6FA00280CD00BF0FEFA01000C4839
:1013700D05F0C6FC0BF0FCFA01000A4805F0C0FCB4
:1013800D10BD094805F01AFCFAE7C046C8D3001095
:1013900DD0D30010E0D30010E8D3001000D400101B
:1013A00D1CD4001028D400103CD4001070B5ACB083
:1013B00D05F0B2FC434805F001FC00F08FFC424CF7
:1013C00D0100424805F09CFCE268414B9A4200D175
:1013D00D71E04049404805F093FCFFF7B5FF00F080
:1013E00D31FE00F0CFFC00F09DFE00F06DFC00F032
:1013F00D4BF93A4805F084FC6B46394C1A00210034
:1014000D61C961C2096810A81160364A364900F0F9
:1014100D9DFE0022012110A800F0C6FE01B2334846
:1014200D05F06EFC04AB22001900103261CA61C1D7
:1014300D126817A80A602B4A2D4900F087FE00227A
:1014400D002117A800F0B0FE01B22A4805F058FCA3
:1014500D08AB22001900203261CA61C112681EA8B2
:1014600D0A60204A244900F0D5FE002201211EA861
:1014700D00F0A2FF0100214805F042FC0CAB1A0060
:1014800D303423CC23C2216825A81160154A1C498C
:1014900D00F0C0FE0022012125A800F08DFF010003
:1014A00D184805F02DFC0A2005F03CFB08F084F9E6
:1014B00D00202CB070BD144805F080FB0023E360C4
:1014C00D87E7C0466CD400100080054098D400100A
:1014D00DF24EFAE301000000D4D40010F0D4001055
:1014E00D40D5001080EE360000C0034000D500103E
:1014F00D0000044010D500100000205020D5001031
:1015000D0000305030D50010B4D40010F0B5CE46E8
:1015100D474680B5050083B001200C000BF008FA9A
:1015200D264BC2021A40264BA0261A4301218723BF
:1015300DF605DB004942F150224B8701F918802353
:1015400D914680229B010B4312041A601E4BA40886
:1015500D1B689C46430098461E2342461340212299
:1015600D134362465340DB05184ADB0D1360184BDD
:1015700D9C46F358984680234246DB00134362464F
:1015800DB446B3504B46802267443D6001AD7D604B
:1015900D5204BC60FB600B681C0014401342FAD16E
:1015A00D8723DB00F5580A4BF4500BF0B9F9E843EB
:1015B00D03B0C0BCB946B046F0BDC046FDFF1FFF2D
:1015C00D19809F0010000050340400503414005056
:1015D00D34040000F0B5CE46474680B5050083B013
:1015E00D01200C000BF0A4F9214BC2021A40214B33
:1015F00DA0261A4301218723F605DB004942F1504D
:1016000D1D4B8701F9188023914680229B010B43C6
:1016100D12041A60194BA4081B689C464300984697
:1016200D1E23424613400122134362465340B446E3
:1016300D134ADB05DB0D13604B46802267443D608A
:1016400D01AD7D605204BC60FB600B681C00144052
:1016500D1342FAD18723DB00F5580A4BF4500BF0F7
:1016600D5FF9280003B0C0BCB946B046F0BDC04616
:1016700DFDFF1FFF19809F00100000503404005023
:1016800D341400503404000030B50A4885B005F01C
:1016900D95FA68460200084B32CB32C21B68102106
:1016A00D1360FFF733FF0100044805F029FB05B077
:1016B00D30BDC04680D50010ACD5001094D50010BB
:1016C00D03000020042900D070475842584162237E
:1016D00D404298436430F7E7F0B5C64600B51400B4
:1016E00D1D00C4B0002900D16FE0434E30682A00C0
:1016F00D210000F05FFA00223A21306800F01CFA58
:1017000D002205000A21306800F016FA0400854217
:1017100D65DC3A4B3A4F9846306800F0FFF9A0422D
:1017200D4CD90134200005F089F8220031680500FC
:1017300D00F088FA882200215200684605F0D4F89E
:1017400D43466A461B68694602933B88280093818D
:1017500D00F08CF8002800D100BE684600F00AF9B0
:1017600D4246029B1268934201D0424613606B467B
:1017700D3A889B899A4200D03B80280005F09CF85E
:1017800D00223A21306800F0D7F9002205000A2125
:1017900D306800F0D1F904008542BDDD306800F0FD
:1017A00DBDF98542B8D001220A21306800F0C4F994
:1017B00D0400306800F0B2F9A042B2D800200AF05F
:1017C00D53FC44B080BCB846F0BD0E4805F0F6F9A8
:1017D00D0620FF3000F08AF9074E306087E7306849
:1017E00D00F09CF9854200D193E701220A2130686F
:1017F00D00F0A2F904008CE7E8AA012024AB032035
:1018000D26AC0320BCD5001010B5044805F0D6F960
:1018100D034B0448196800F015F910BDDCD5001014
:1018200D30A801201024002000B5084B85B002938C
:1018300D0223802201931E33009305490023520099
:1018400D044807F049FE05B000BDC0469CAB03201F
:1018500DF0D50010C1000020034B10B5186800280A
:1018600D01D008F009F810BD9CAB0320F0B5D646A9
:1018700D4F464646C0B503788A46C2B0002B04D108
:1018800D1EE043780130002B1AD03A2BF9D10023FA
:1018900D99462023062498466B460027451CFF34A5
:1018A00D591E2E7830003038C0B2092811D9434660
:1018B00D1E43F0B20300613B192B08D9002F26D12E
:1018C00D002042B0E0BCBA46B146A846F0BD57383C
:1018D00DC0B26B781A00303AD2B2092A0BD8030184
:1018E00D1343DBB2A74212D00137CB554B44DBB2C9
:1018F00D99460235D5E742461343DEB23300613BCC
:1019000D192BDBD80301573E3343DBB2EAE74B46D5
:1019100D002BD5D16B461A7853461A706B4651463B
:1019200D58789B781B0203435BBA4B806B4650463D
:1019300DDD780E300D7101A904F0DCFF042D0CD003
:1019400D01200A2DBDD16B46DB79DE2B10D16B4604
:1019500D52469B885BBA9381B3E76B466A461B7907
:1019600D52791B029B1852461B0401209360A8E775
:1019700D0220A6E770B503790400042B04D00D2BCB
:1019800D0ED0012B08D070BD114805F017F9A168D4
:1019900D104805F0B5F9F6E70F4805F00FF9F2E735
:1019A00D82890E4B9A42EED10D4D21002E680D4BC2
:1019B00D300010302278C0180E3104F09BFFC0218A
:1019C00D20784902801904F067F82960DBE7C046EA
:1019D00D08D6001014D60010FCD50010A1FF000091
:1019E00D30A801201024002070B50478002C17D0E9
:1019F00D002120220D26114B00255D5F104B002983
:101A000D0FD1A54214D099690A42FCD11C6001780E
:101A100D01300D394C4261410478C9B2002CEED130
:101A200D70BD99690A42F1D099690A42F9D1EDE781
:101A300D99690A42FCD11E60E5E7C0460CAB012056
:101A400D00400340F8B5204B204E436081600400F8
:101A500D066010300D00FFF7BDFDE0601C48FFF77C
:101A600DC3FFEFF3108772B6FFF7DEFE07F0ACFC95
:101A700D1848FFF7B9FF8020174B8002E918090BB2
:101A800D09030BF059FC2A0080202100103280023E
:101A900D0BF032FCFFF7E0FE08F03EFB0F48FFF7BE
:101AA00DA3FF87F3108800200AF0DEFA0C48FFF739
:101AB00D9BFF0C4B0C4ADE601A61FA2200210020BC
:101AC00D920002F04DF9FEE7A952AEC5FB5ECD8E38
:101AD00D2CD600105CD600100F1000007CD6001024
:101AE00D9CD60010008005400000021070B5050066
:101AF00D102004F0A3FE041E08D0681CE06004F062
:101B000D9DFE2060002803D0A0606060200070BDA5
:101B100D200004F0D1FE0024F8E7C046C3684268F7
:101B200D8068013B904203D8101A181A181A704792
:101B300D801A0138FAE7C046F8B54E465746454675
:101B400DDE460368E0B514009A46C66843688268AD
:101B500D8946751E934225D39B1AEB1AEB1A9B46A9
:101B600D5346D31A984614E043463100181903F032
:101B700D93FF53465F185B46711A1D1B8D4200D9AA
:101B800D0D002A00494638000BF0AEFB00280CD1A1
:101B900D64195C45E8D35846F0BCBB46B246A9462D
:101BA00DA046F8BDD31A013BD8E7C51BAB46A344ED
:101BB00DF1E7C046F8B5036857464E464546994687
:101BC00DDE4690464468C2688368E0B58A460700E1
:101BD00D9144A34232D8013AE31AD31A9B464346A5
:101BE00D002B1FD000264B4642461B1B951B9D42CA
:101BF00D00D91D005346200099192A0004F07AFEE1
:101C000D7B6876195C197C604C4512D0B045EAD1E1
:101C100DD84507D93D68601C401BF96803F03CFFAF
:101C200D6D18BD602000F0BCBB46B246A946A0466B
:101C300DF8BD3C687C60B045D5D1E9E71B1B013B85
:101C400D9B46CCE7F8B5CE46474681460E00C868A0
:101C500D4B68896880B51700421E8B4227D35B1AEB
:101C600DD31AD31A9F4227D8336898468044002F41
:101C700D13D0002543467C1B5B1A9C4200D91C00E7
:101C800D4B462200581904F035FEB3682D19191969
:101C900DB160414506D0AF42ECD10800C0BCB94699
:101CA00DB046F8BD3168B160AF42E3D1F5E7CB1A6C
:101CB00D013BD31A9F42D7D90021EEE710B5012180
:101CC00D012004F0D9FD10BD10B5012005F00CFF69
:101CD00D014B186010BDC0463CAB032010B516205B
:101CE00D00F0CAFED02480232406DB03A362002269
:101CF00D0121162000F096FE152000F0BDFE802378
:101D000D9B03A36200220121152000F08BFE1420FD
:101D100D00F0B2FE80235B03A36200220121142098
:101D200D00F080FE0421636862686068120D800C0B
:101D300D084002390A405B021043DB0F184310BD07
:101D400D002010B508F0AEFF01200021404209F03F
:101D500D2BF8002009F0F6FDF6E7C04600B500208F
:101D600D91B009F08BFD002801D111B000BD00200C
:101D700D09F09EFD0028F8D040226946002009F0A8
:101D800DA7FDF2E730B51F2300250124C02285B041
:101D900D00930A490023029501945200084807F068
:101DA00D9BFB1E238022009306490023029501947C
:101DB00D5200054807F090FB05B030BDC8D60010A5
:101DC00D411D0010D0D600105D1D0010F0B5C646A7
:101DD00D140000B5E37892781B02050094B013430C
:101DE00D062B62D8344A9B00D3589F46334B03AE23
:101DF00D3380FFF773FFB070320021002800337875
:101E000D09F042FC14B080BCB846F0BD032321009C
:101E100D2B4A09F039FCF5E70AF0A6FD80460AF0D9
:101E200DA7FD03AE432207000021300004F05CFD46
:101E300D0E20244B4146684433800BF0CBF83620FE
:101E400D390068440BF0C6F8432332002100280006
:101E500D09F01AFCD6E701A805F06EF80E201A4B12
:101E600D03AE01A908226844338004F043FD0A2320
:101E700D32002100280009F007FCC3E7FFF71EFF21
:101E800D032303AE3370013373700378B37004F022
:101E900D13FDB1E70D4B03AA196803919B8821002F
:101EA00D9380062309F0F0FBACE702232100280004
:101EB00D074A09F0E9FBA5E7D4D600100306000098
:101EC00DFCD60010430200000A030000F0D60010FB
:101ED00DF8D60010F0B505001400012083B00129DB
:101EE00D14D113785B069B0F012B11D00020022B10
:101EF00D0CD15378022B14D0032B28D0012B05D1F4
:101F000D21002800184A363309F0BEFB03B0F0BD9E
:101F100D53780020222BF9D11100280009F09CFBE9
:101F200DF4E7637912791B021343072BEED16B464D
:101F300D0E4E9F1D31000222380004F0DBFC3200F2
:101F400D210028003B88083A09F09EFBDEE7637903
:101F500D12791B021343032BD8D122000121280033
:101F600DFFF734FFD2E7C04600D7001080D800102D
:101F700D0048704764D8001000487047F0D7001033
:101F800D00487047B4D7001070B5002826D005283A
:101F900D31D81A4B8000C65830000BF023F8C0B270
:101FA00D011C1F2815D8C9B2002821D00023144DBB
:101FB00DAA1CF05C0133DCB210800232A142F8D8C9
:101FC00DC0230131C9B249009B0019432800298063
:101FD00D70BD1F21C9B20028E8D109E0084D074B9B
:101FE00D02221968A81C04F085FCC1218900EDE7C7
:101FF00D0449034DEAE70020EAE7C046F01000204F
:1020000D4C1F00200203000010B50A4C82B00122C3
:1020100D2068524201A905F037FE0128F7D1019B36
:1020200D002019001A790AF075F800200AF038F826
:1020300DEDE7C046D8AB0320014B18687047C0468A
:1020400DD8AB032000B5002204210A2083B005F08F
:1020500D2FFC0A4B186000280CD00023802201931E
:1020600D20330093064900230648520007F0E2FE94
:1020700D03B000BD044804F043FEF9E7D8AB0320DC
:1020800DCCD9001009200010D4D9001070B584B03F
:1020900D04F02EFF0222FA201D4B40001A6007F0BB
:1020A00D53FE1C4C1C4E02AD01213068494205F017
:1020B00D79FE23685B045B0F042B08D08023226814
:1020C00DDB015340E022D2011340144A1360042275
:1020D00D0F4B1A60FC3223681342FCD0104A636820
:1020E00D2A600822EB80AA800195FFF7A5FF01A9C0
:1020F00D0023002205F012FC00230022002130688D
:1021000D05F00CFCFA20400007F01EFECCE7C0469F
:1021100D00E0044000C004403CAB032000D004406C
:1021200D3B4324DD0023802200B583B0019320338F
:1021300D0093044900235200034807F07BFE03B0CF
:1021400D00BDC046E8D900108D200010F8B50E0076
:1021500D170004000C22002104301D0004F0C4FB04
:1021600D3900300000F05CF901210700286800F00B
:1021700D41FCA868012100F03DFC6868012100F0D8
:1021800D39FCE86800F078FC0123EA6820009340F0
:1021900DD02212065362536180235B0426602761AF
:1021A00D6561A361F8BDC046F0B5C37E040083B080
:1021B00D002B29D000236846012583700570501E21
:1021C00D8241D2010901803A0A4369464A702A00C8
:1021D00D01AE3380B3706369D027DB683F069A4048
:1021E00DBA6100BE0323320020680BF0B5F86369B5
:1021F00DDB689D40C0237D6170789B000002184014
:1022000DB378184303B0F0BD014804F079FDF9E748
:1022100DF0D90010F0B5DE4657464E464546E0B5BE
:1022200D8FB01F0007AB9A460C0000230592524653
:1022300D012193600500200001F0F2FD804605208C
:1022400D00F0D2FB04F084FA544904F066FA5449C4
:1022500D8346200001F002FEBB68C2019946431C73
:1022600D1B0313434F4A796813403E680B934E4B43
:1022700DF2030B4013434D4A039013408022920505
:1022800D13434A46920213438022520313430D9384
:1022900D474B5846029601910C9304F081FA86B291
:1022A00D0020002E0ED0300004F052FA011C5846CA
:1022B00D04F02DFA8721C90504F043FA04F070FAF1
:1022C00DC0B20002360406430A9601264B46320080
:1022D00D9A403300019920008B401A439346130016
:1022E00D4146002201F01EFE3300029A4146934002
:1022F00D1A005B462000049213435A4601F064FE17
:1023000D2C4B0198E3185A1E934106339B46190036
:1023100D00F070FB5946029800F06CFB5946484698
:1023200D00F068FB4846012100F094FB210080235A
:1023300D049A38319B010B43200041461A60039AE1
:1023400D0AAB01F093FE414633008B402268F868DA
:1023500D1343236000F090FBFB6800219E40D023C7
:1023600D1B065E621C225E61280004F0BDFA534616
:1023700D42465A60524607942B1D43CA43C34346F7
:1023800D2800AB60059B6C602B616F610FB0F0BCDA
:1023900DBB46B246A946A046F0BDC04600BA5B4A50
:1023A00D70DA0010FFFFFF9FFF7FF0FFFF83FFFF3D
:1023B00D000083100000E0AFF0B5C37E040083B0D1
:1023C00D002B27D16846012583700570501E824170
:1023D00DD2010901803A0A4369464A702A0001AECA
:1023E00D3380B3706369D027DB683F069A40201DA8
:1023F00D0323BA6132000AF08FFF6369DB689D40E9
:1024000DC0237D6170789B0000021840B37818439B
:1024100D03B0F0BD014804F073FCF9E730DA0010A9
:1024200DF0B557468246484B454653445A425341B0
:1024300D8022DE464E46920294465B42E0B51B0C6E
:1024400D424A1B0463441360414A0D00414985B063
:1024500D136018008A689043FBD18146062000F076
:1024600DC3FA53465A6802231A4001925246043267
:1024700D11000292C02280468020920111430B6010
:1024800D0391EF0D02216E02AB0DAA02400005E093
:1024900D904507D392197B4181424FD00C000231F8
:1024A00D002BF5D02B008026270245463F1BA0466A
:1024B00D76001C0003E04346FF1A012E40D0390080
:1024C00D2800B346013E03F0E7FA8442F3D24446B6
:1024D00D59463302A8469946614353464A461C6104
:1024E00D1B6850465340FF221202134080225201B6
:1024F00D024313608023029C01989B011C432060C2
:1025000D02255046039E40683560564607273668BB
:1025100D28407740CF263E4016602060504624303C
:1025200D1843032303604046256003F0B5FA05B058
:1025300DF0BCBB46B246A946A046F0BD0C00B1E7C3
:1025400D44461900A846C8E70040FCBF00E0004023
:1025500D00F0004000C00040024B18688007C00F1B
:1025600D7047C04600C00640EFF3108072B6034AB4
:1025700D1368002BFCD0BFF35F8F70472C0100D088
:1025800DBFF35F8F0022024B1A6080F310887047F3
:1025900D2C0100D070B5EFF3108C72B60D4D2B6879
:1025A00D002BFCD0BFF35F8F0724CB08C618C05C8F
:1025B00D01230C40A3401C000440034207D10343F8
:1025C00D3370BFF35F8F2C608CF3108870BD1000DB
:1025D00D01F0EEFE2C0100D0F8B54746CE468846F8
:1025E00D80B5EFF3108C72B6214D2C68002CFCD009
:1025F00DBFF35F8F9A422CD8D4080727055D0619C3
:1026000D01241740BC402C421FD0072101278946C9
:1026100D09E0D408055D06194C4639001440A14067
:1026200D0C00294211D001329342F2D201204042D6
:1026300DBFF35F8F00220E4B1A608CF310880028B9
:1026400D0FDBC0BCB946B046F8BD2C43100034704A
:1026500DEEE7BFF35F8F00232B608CF31088012012
:1026600D40424346002BECD0089801F0A1FEC04635
:1026700D2C0100D030B5EFF3108C72B60A4C2368E4
:1026800D002BFCD0BFF35F8F07230122CD0819402B
:1026900D8A40435D93434355BFF35F8F002323600F
:1026A00D8CF3108830BDC0462C0100D00021044BA6
:1026B00D044ABFF35F8F02C39342FAD17047C046FD
:1026C00D000100D0800100D0044A1078431CDBB219
:1026D00D172B00D9102313707047C0460811002026
:1026E00D10B50100024A0348FFF754FF10BDC04664
:1026F00D7CDA00109823002000B5054B83B0010053
:1027000D009318221F230348FFF766FF03B000BD97
:1027100D9CDA00109823002030B50C2083B001F016
:1027200D17FBFFF719FF00280ED0994B994A1A6035
:1027300D5A609A60DA601A615A619A61DA611A62B6
:1027400D954A5A6203B030BD944CA06701F054FB1A
:1027500D0122934B1A60636C012BFCD10322914B28
:1027600D1A608E4A936B012BFCD1013301218E4AE5
:1027700D8E480093043301F09BFA05238C4A009395
:1027800D01218C4801F094FA8B4B5A68FF2A02D82C
:1027900D802252005A6080227D4C824B21691201A9
:1027A00D854D1A60002907D0606903F075F9431C47
:1027B00D5800C0180338FDD2E0217F4B02201A6863
:1027C00D1140802252012A431160196848400321AB
:1027D00D0140116004219A681142FCD080228021B1
:1027E00D92012A4309011160802252005A60734BF5
:1027F00D2361734B5968FF2900D85A600321684A39
:1028000D6F4B116002399A681142FCD0E0201A68B2
:1028100D1040802252011A4310601868484003216D
:1028200D01400220116066498A681042FCD0802266
:1028300D92011343802212011A608022614B5200D3
:1028400D4A606361604B5968FF2900D85A60802245
:1028500D5E4BE16912015C4D1A60002907D0606979
:1028600D03F01AF9431C5800C0180338FDD2E022BA
:1028700D55490B681A4080235B012B431A60802356
:1028800D80229B012B4312011A608022414B520082
:1028900D4A60E3614E4B5968FF2900D85A60802287
:1028A00D4C4B216A12014A4D1A60002907D060690C
:1028B00D03F0F2F8431C5800C0180338FDD2E02293
:1028C00D43490B681A4080235B012B431A60802318
:1028D00D80229B012B4312011A60802380225B0012
:1028E00D4B602C4BD20223623B4B5968914200D274
:1028F00D5A608022394B616A1201374D1A600029E6
:1029000D07D0606903F0C8F8431C5800C01803389D
:1029100DFDD2E02230490B681A4080235B012B4326
:1029200D1A60802380229B012B4312011A608023A1
:1029300DDB024B60184B6362294B5A68FF2A02D8A1
:1029400D802252005A608022264BA1691201244D2B
:1029500D1A60002907D0606903F09EF8431C5800E7
:1029600DC0180338FDD2E0221D490B681A408023A0
:1029700D5B012B431A60802380229B012B431201A4
:1029800D1A6080235B004B600E4BA361DAE6C046F4
:1029900D9C230020006CDC021BB70000008000406F
:1029A00D3CB0004030B00040002F6859008002401C
:1029B00D008C864700C0024030800040001BB700ED
:1029C00D3C800040405973075480004054B0004093
:1029D00D6080004060B000406C8000406CB00040F2
:1029E00D4880004048B00040014B8000C0587047FF
:1029F00D9C230020094A830094464022634410B56D
:102A000D1C68C0006240C024144080225201134350
:102A100D1C60034B9C466044416010BD04C00140E6
:102A200D004001400A4B80009C460423604400296D
:102A300D01D00C230821002A00D10B00026853405D
:102A400D0C221A4080235B01184302607047C04678
:102A500D04C00140074BC0009C4660440368090256
:102A600D5940C0239B00194080235B01184301602E
:102A700D7047C046044001400123D0228340120616
:102A800D93629361094A8300944640226344196816
:102A900DC0004A40C02111408022520113431960E9
:102AA00D034B9C46052360444360704704C00140BE
:102AB00D0040014001238340002904D0034A1360E4
:102AC00D034A13607047034A1360FBE780E200E09E
:102AD00D00E100E080E100E001228240034B1B6831
:102AE00D13405A1E9341D8B27047C04600E100E032
:102AF00D024B10309B688000C058704700ED00E01D
:102B000D70B50D00EFF3108672B60F4A1368002BE7
:102B100DFCD0BFF35F8F0D4B10309B6884001B59A9
:102B200D0B4A934203D09D4201D001F05FFC074B4D
:102B300D9B681D51BFF35F8FBFF35F8F0022024B68
:102B400D1A6086F3108870BD240100D000ED00E0FE
:102B500DCD110010F0B557464E46DE464546E0B560
:102B600D85B0060002911700EFF3108B72B6674A1D
:102B700D1368002BFCD0BFF35F8F0025644B5D57AE
:102B800D9A46002D00DAA4E06B00624C03935B19AA
:102B900D9B009846A146C1444B4652469B79103640
:102BA00D13705D4BB2009B68019299580B1B2F2B34
:102BB00D34D95A4B994200D0A4E0039B584A9C4605
:102BC00D584B6544AD006353434602336519E41811
:102BD00D554B0121043B1B1B1B055B0D13436B80E8
:102BE00D524BEF71AB80FF23AB71029BAB604B4639
:102BF00D0B431900484B019A9B689950BFF35F8FA7
:102C000DBFF35F8F0022414B1A608BF3108805B024
:102C100DF0BCBB46B246A946A046F0BD01200A0055
:102C200D8243D379BB422FD845464E4613004049C7
:102C300D1B1B5B415943090D3A4B63533A4B02350C
:102C400D6519043B5B1B1B05354D5B0D2B437380D9
:102C500D0426B446E0444444131F1B1B4C46A1718B
:102C600D02991B05A16049465B0D2B43A380314B97
:102C700DE77101431360BDE75800C01880002018AC
:102C800DC679BE422BD902000623D356002BF3DAA8
:102C900D101D82462848804604267642B446E144FB
:102CA00D50464E46361A3005400D824656461C4853
:102CB00D957106439680039A944665441D4AAD006E
:102CC00D641922604246A371029BA280E771A36042
:102CD00D90E701F08BFB002553465D5754E7101D1F
:102CE00D824690884005001584464046D444664689
:102CF00D04302018301AE0260005400D360230430E
:102D000D8046C9E701F072FB57E7C046240100D0A9
:102D100D2DAC03200C11002000ED00E0CD110010B2
:102D200D00E0FFFF00A1FFFF3C11002001BDFFFFF0
:102D300DAAAA00000148804701BD0000F0B5DE469B
:102D400D57464E464546E0B50C0083B0EFF310896B
:102D500D72B6584A1368002BFCD0BFF35F8F564BE9
:102D600D9A68030010339F00D559544A90469542F6
:102D700D32D0A54243D0524EAA1B2F2A2CD8012265
:102D800D8240924651464F4A126811400191514678
:102D900D4D4A1160BFF35F8FEFF305829346002A12
:102DA00D33D101232A009A4393689C4208D177E0DE
:102DB00D4B005B189B00F3189968A1422AD01A00AA
:102DC00D062151560029F3DA019B002B19D05246EA
:102DD00D3E4B1A603B4B1A60374B9B68DD51BFF37E
:102DE00D5F8FBFF35F8F0022324B1A6089F310881B
:102DF00D03B0F0BCBB46B246A946A046F0BD1500D7
:102E000DEAE75246304B1A60E6E79342C9D001F02B
:102E100DEDFAC6E706215956002921DB4A00501864
:102E200D800034188046A0689860E079D87106203B
:102E300D20569871002824DBA488F01A6405241507
:102E400D44440019E0240005400D240220439880DD
:102E500D52181F4B9200B6181A781970B271B3E759
:102E600D594600290FD1FF3191711A4991801849A6
:102E700D0A789A71184A9B1B5B415A43120D0A70CE
:102E800DA2E71648E3E7164A1649D21A083A500245
:102E900D400D01439980144952080A43DA8093E7A3
:102EA00D0621515613000029B8DA5A46002AEAD1F4
:102EB00D4546DCE7240100D000ED00E0CD11001007
:102EC00D0C11002000E100E080E100E080E200E074
:102ED00D2DAC032001BDFFFFAAAA000001BD00001B
:102EE00D4611002000F0FFFF00F8FFFF032310B58F
:102EF00D0400074A18409446C0009C43FC338340AD
:102F000D6444226881409A4313000B43236010BD33
:102F100D00E400E070B5EFF3058101240443EFF305
:102F200D108C72B6214A1368002BFCD0BFF35F8F53
:102F300D1F4B05001F4AED1A6D416A43120D1E4DC0
:102F400D8900AE6852B27658A6421CD00621595659
:102F500D91421CD012215956914222D01E21595610
:102F600D914220D02A2159560324914210D0134B5F
:102F700D19781A708171BFF35F8F00220B4B1A60A5
:102F800D8CF3108870BDAB680D4C5C50EFE70024DE
:102F900D6100091989005B18FF2199710949998010
:102FA00DE5E70124F4E70224F2E7C046240100D04E
:102FB00D0C110020AAAA000000ED00E02DAC0320AA
:102FC00DCD11001001BDFFFF054B064A1360064AE7
:102FD00D136053609360D3601361536193617047C5
:102FE00D8080808000E400E004E400E0024B9C4619
:102FF00D61448900016070474000003410B5040041
:1030000DFFF762FB01002000FFF7F0FF01235B4299
:1030100D6360BFF35F8F10BD10B50400FFF754FB65
:1030200D01002000FFF7E2FF01235B4263600023F4
:1030300D2372BFF35F8F10BD10B504000120FFF7A1
:1030400D5BFB044B9C46604480002060BFF35F8FA8
:1030500D10BDC0464000003483680B4810B584464F
:1030600D61446244090112019A18591854684B6859
:1030700D01209C4201D802D00020C0B210BD1268C0
:1030800D0B689A42F9D8F7E7FFFFFF0F074810B515
:1030900D0268EFF3108172B61368002BFCD0BFF3FA
:1030A00D5F8F04F015F90020002110BDF8AA012052
:1030B00DF8B557464E464546DE46E0B599460CAB4B
:1030C00D1C780DAB1B78060090469A460768002CBD
:1030D00D11D1BC7B002C42D065003B682D19033DFE
:1030E00D59194B78BB73002B00D1FB7300238B70E8
:1030F00D4B700B7004E065003B682D19033D5919A9
:1031000DB2682A4B94464246E3181B0163441A6089
:1031100D4A465A600A9A9A600B9ADA6000238B70BD
:1031200D4B700B707B7B9B46002B2BD0220059469E
:1031300DB8687B6898473A68002816D05B465846B1
:1031400D5B005B445519033BA870D118D35C002B71
:1031500D00D06B705B460C707B73A34513D0F0BC35
:1031600DBB46B246A946A046F8BD5B465B005B4434
:1031700D033BD3189C705119525D002A00D05A7030
:1031800D5B460B707C7342464B46307D00F02EFB48
:1031900D051E06D05346002B03D12100306800F0E8
:1031A00D49FD0E9B002BDAD01D70D8E7FFFFFF0FF6
:1031B00DF0B5DE4657464E4645460023E0B58BB08A
:1031C00D0893674B8200D45800239B46099000F06A
:1031D00D93FA626806000F00EFF3108572B613685C
:1031E00D002BFCD0BFF35F8F23689C465B7B994619
:1031F00D002B00D169E0A2685A4B90464B441B014D
:1032000D984443461A685B6810001900801BB94149
:1032100D002900DC63E0099800F0E8FA00230022A1
:1032200D984600230692079300239A466368BFF3DE
:1032300D5F8F5A461A6085F310885346002B08D1CC
:1032400D0028C4D10BB0F0BCBB46B246A946A0467F
:1032500DF0BD089B414618024B461843D0476268A3
:1032600D06000F00EFF3108572B61368002BFCD02B
:1032700DBFF35F8F002F50DB33003B4302D0236938
:1032800D002B61D12368D97B002907D04A00521841
:1032900D19688C4649466244033A51709A7B002A5C
:1032A00D01D14A469A734A46DA734B46E168013BAF
:1032B00DCA5C0132CA545B4623616368BFF35F8FFA
:1032C00D5A461A6085F3108881E70023002298463C
:1032D00D002306920793002300209A46A6E70029B3
:1032E00D02D1002800D096E70021604600F020FCB6
:1032F00D43461A685B680692079343469B689A4655
:1033000D4346DB689846E3684B44013B1B780893C2
:1033100D1B0203432361002088E72369002BB1D0F2
:1033200D069A079B921BBB41002B15DB5946049156
:1033300D01210391494602914146019151462000D8
:1033400D0091FFF7B5FEB6E700F0D6F932003B006D
:1033500D12184B41002BE9DA0122034B5242E5E7EB
:1033600D34A80120FFFFFF0FFFFFFF7F10B5144CA6
:1033700D6368002B04D00A211248FFF737FE10BDF9
:1033800D2300114A1021206800F0ECFA032000F010
:1033900DA7F9032000F094FA03200C4900F0E0F99E
:1033A00DFFF792F90A4B9C4603232375D0231B0686
:1033B00D1B6860446375074B80006060DC60DAE772
:1033C00D54110020F8AA012059300010B13100101D
:1033D00D4000003434A80120F0B54E464546DE4687
:1033E00D5746E0B585B0019310AB1B7806000393EB
:1033F00D00239946984600927268EFF3108B72B6CF
:1034000D1368002BFCD0BFF35F8F3568AC7B002CAD
:1034100D3DD067002B683F19033FDB195A78AA731B
:1034200D002A00D1EA73B168474A8C460098019989
:1034300DA21812016244106051600E9991600F99AB
:1034400DD16042469A705A701A706B7B9A46002B67
:1034500D67D022001900A8686B6898472A68002871
:1034600D52D0534650465B005344D719033BB870B6
:1034700DD118D35C002B00D07B7053460C706B734E
:1034800D54454FD0F3681B19013B187800E000201C
:1034900D7368BFF35F8F42461A608BF31088002C60
:1034A00D4FD04B46002B08D10002204305B0F0BC95
:1034B00DBB46B246A946A046F0BD039B002B3ED0AD
:1034C00D0E9B00200F999847030004000D000B433D
:1034D00D35D000290ADA009A019B121BAB410092EC
:1034E00D0193002B0ADB039B994685E700F004F955
:1034F00D24184D4100940195002DF4DA0123134C4D
:1035000D5B4200930194EEE753465B005344033B4B
:1035100DD3189C70D119D25D002A00D05A70534631
:1035200D0B706C73307D009A019B00F05FF9814642
:1035300D0028A7D02100306800F07CFBA2E7002016
:1035400DB4E701204042B1E7FFFFFF0FFFFFFF7F10
:1035500DF0B5EFF30583CE46474680B505000C0068
:1035600D85B0002B12D02C4A0020536A9C4203D800
:1035700D926A0130AA4204D305B0C0BCB946B04628
:1035800DF0BDE01A421E9041C0B2F5E7234E029302
:1035900D0193234B0200009330000B00FFF71CFF3B
:1035A00D031EE0DD20BF7168EFF3108772B60A6865
:1035B00D002AFCD0BFF35F8FDAB294463068427BAD
:1035C00D62451DD0FF221A40510089460168914481
:1035D00D88464946414403398978002913D0F1685A
:1035E00D1B0A88464244013A1278DBB29A420FD048
:1035F00D7368BFF35F8F00221A6087F31088B2E7FC
:1036000DFF221A40EBE732699342F1D13161EFE7C6
:1036100D614600F00FFBEBE7004005405411002020
:1036200D8D300010F0B5EFF30582D6464F46464675
:1036300D1000C0B51038EFF3108872B6214C236816
:1036400D002BFCD0BFF35F8F0123190081401E4D6D
:1036500D1F006963AA461D4D29601D4D2E78AC468D
:1036600D3500C5402F402B4209D1BFF35F8F276036
:1036700D88F31088E0BCBA46B146A846F0BD534663
:1036800D144D5F6A83005D59AF420ED3124A8E43CB
:1036900D9B5862461670BFF35F8F0022226088F33D
:1036A00D1088002BE6D09847E4E70C4B92009C461F
:1036B00D624413681360BFF35F8F0023236088F3A8
:1036C00D1088D7E7280100D0004005403C70054028
:1036D00D2EAC0320FCAA012080220020D03F054003
:1036E00D10B50100024A0348FEF754FF10BDC04655
:1036F00DB8DA00102BAC0320034B596A0A00986A04
:1037000D596A8A42FAD170470040054070B50400ED
:1037100D0D00124A536A1900966A536A8B42FAD108
:1037200D3000190024184D41AB4211D80ED02B009A
:1037300D0A494A6A9A42FCD307D1084A02E0516A03
:1037400D994202D1916AA142F9D370BDA642EED938
:1037500D012301246442E5175B42E9E7004005407F
:1037600D70B504000D00EFF3108672B61A4A136897
:1037700D002BFCD0BFF35F8F002D1BD02000FFF777
:1037800DB7F9164981420AD02000FFF7B9F9012196
:1037900D2000FFF78FF90123A340114A1360114B4D
:1037A00DA400E550BFF35F8F00220B4B1A6086F328
:1037B00D108870BD0B4BA200D5500122A2400A49C2
:1037C00D20000B7893430B700449FFF7B7FA0021E3
:1037D00D2000FFF76FF9E5E7280100D0253600102E
:1037E00D38600540802200202EAC0320F0B54F46F6
:1037F00DD6464646C0B507002C4C616A0D00A66A38
:1038000D616AA942FAD18B4208D805D00120E0BCEB
:1038100DBA46B146A846F0BDB242F7D9EFF3108AC9
:1038200D72B6234801680029FCD0BFF35F8F0125D4
:1038300DBD4020491D4C8846097889462943C9B2A7
:1038400D8C46414660460870391D1B4889006563EA
:1038500D0A51B9000B50216A0020294219D0616A22
:1038600D0800A66A616A8142FAD18B4219D801D14A
:1038700DB24216D8CC4516D00C4B1F201D625D638D
:1038800D01230740BB400D4A1E38136043464A468C
:1038900D1A70BFF35F8F0022054B1A608AF31088F0
:1038A00DB5E70020F5E70120F3E7C04600400540ED
:1038B00D280100D02EAC0320FCAA012080E200E0FC
:1038C00DEFF3108C72B60A490B68002BFCD0BFF3D6
:1038D00D5F8F01238340074A0748136202789A439A
:1038E00D0270BFF35F8F00230B608CF3108870475D
:1038F00D280100D0004005402EAC032070B5050016
:1039000D14001600002915D00C00002A12D0806872
:1039100D6B689847296800280ED073009B196200C8
:1039200D033B1219CB18033A9C7088188A5C002A45
:1039300D15D10670200070BD63001B197200033B8A
:1039400D9219CB18033A9E7088188A5C002A02D10E
:1039500D04703400EEE75A7004703400EAE75A70D0
:1039600D0670E7E730B583600023CCB243730133B3
:1039700D047342608373C4730D000068012C06D973
:1039800D421C0133DBB2137003329C42F9D1FF218B
:1039900D29404B005918002340180338437030BD9F
:1039A00DF8B5CE46474606000C0080B5002907D075
:1039B00D4D0003686D18033D5A195778002F04D137
:1039C00D2000C0BCB946B046F8BD7900C91903390D
:1039D00D884643445978894600215970517073685F
:1039E00D3A002100806898473368002814D0424679
:1039F00D9A18947059195B5D002B00D053700F709D
:103A000D270049463000FFF7CBFF39000200300098
:103A100DFFF774FF0400D3E7424641465D19AF70CE
:103A200D9A185B5C002B00D06B701470E9E7C046F0
:103A300DF0B557464546DE464E46E0B50D006B00E7
:103A400D01685B19DF1E0400C85D83B00192CA19BD
:103A500D002850D043001B18033BCB185E78B446AA
:103A600D002E1AD1019E002E42D0E67B002E04D0EE
:103A700D73009B19CB18033B5D70A37B002B00D10A
:103A800DA573E57300282FD10023537003B0F0BC4C
:103A900DBB46B246A946A046F0BD72006244033A49
:103AA00D89184A78904600224A7091465A70010052
:103AB00D32002000FFF722FF43468246002B07D03D
:103AC00D5B0021684344033BCB185A78002A16D17A
:103AD00D424651462000FFF711FF2168019BCA198C
:103AE00D002BC2D10028CFD043001B18033BCB18AD
:103AF00D00219970C8E7019B002BB6D1C4E7500097
:103B000D801803380918487883464846487058701D
:103B100D41462000FFF7F2FE594680462000FFF790
:103B200D3FFF414602002000FFF7E8FE8046CFE749
:103B300DF0B557464546DE464E46E0B583B0019199
:103B400D457B04006B0000685B19DF1EC15DC21967
:103B500D002952D04B005B18033BC3185E78B44666
:103B600D002E1CD1019E002E44D0E67B002E04D0E9
:103B700D73009B19C318033B5D70A37B002B00D111
:103B800DA573E573002931D10023280053706173AB
:103B900D03B0F0BCBB46B246A946A046F0BD7200CC
:103BA00D6244033A80184278904600224270914652
:103BB00D5A7020003200FFF7A1FE43468246002BCB
:103BC00D07D05B0021684344033BCB185A78002A89
:103BD00D17D1424651462000FFF790FE019B010090
:103BE00D2068C219002BC0D10029CDD04B005B1825
:103BF00D033BC31800209870C6E7019B002BB4D17E
:103C000DC2E75000801803380918487883464846A3
:103C100D4870587041462000FFF770FE59468046A7
:103C200D2000FFF7BDFE414602002000FFF766FEB3
:103C300D8046CEE770B5040000292CD0437B8B4223
:103C400D2ED0056848004018033828188278002ABD
:103C500D21D053009B18033BEA5CEE188A4202D137
:103C600D1BE0002A08D053009B18033BEB185A7831
:103C700D8A42F6D142785A70002301228370437034
:103C800D2000FFF7D5FE617B02002000FFF736FE16
:103C900D6073012000E0002070BD43783370EBE7C6
:103CA00D01221900FFF7C4FE60730120F4E7C0463E
:103CB00DF8B5040021481D0017000E0001F0ECFEC0
:103CC00D0100380001F0E8FE069B29041B0319438F
:103CD00D2368002B20DB1A4B1A4DE21853425A4130
:103CE00D80235B019C461203174B62441A60174BED
:103CF00D1A601700AB689F43FBD1C022231D9201B0
:103D000D1A4321232660A06013602368002BFCDA80
:103D100D0823E1601360F8BD3F2322681340B342CE
:103D200DD9D1A3681B051B0D8342D4D1EE22E368C4
:103D300DD20213408B42CED1EDE7C046001BB70037
:103D400D0040FDBF00C0004000E0004000F000401A
:103D500D8023024A9B000343D362704700800540D5
:103D600D10B5140080221B4BD2051A6000281AD002
:103D700D0123194A1843194BDA61194A42401A6254
:103D800D596298628022134BD2051A601549164A62
:103D900D1160E022D2041A60002C07D18022134B4F
:103DA00D12061A6010BD0D4BD861EBE763011B1BAA
:103DB00D9A008023121912015B049A4200D30C4A17
:103DC00D0C4B1A60054B5A608022084BD2051A60C5
:103DD00DE8E7C04600B00540D3C007B000800540FD
:103DE00D2D3FF84FFCFF01000820014000A00540C9
:103DF00DFFFFFF0028A80120AA23064A1B0113601C
:103E000D2F230549D360054B19605368002BFCDA4D
:103E100D7047C0460040024000B0FA00006002400A
:103E200D0B4B10B59C46604443425841094A8400EF
:103E300D82B0009208482200E31CFEF7CDFB8442BD
:103E400D02DC001B02B010BD01204042FAE7C04663
:103E500D0000D0AFDCDA00102CAC0320F0B5D64654
:103E600D4F4646468846C0B505240600FEF77CFB46
:103E700D43461F791C57284B8146F0184342584141
:103E800D264B9A4683009C4653466246985801221B
:103E900D2023BA40DB1B013A002C32DB9C422DDC87
:103EA00DA2401500104229D1002F1AD043465A784E
:103EB00D19781202114342469B78D2781B040B43AA
:103EC00D12061A439046002241465300C95A4B0B25
:103ED00D00D10919131912339B00013299519742E0
:103EE00DF2D85346624605439D504846FEF748FBBF
:103EF00D2000E0BCBA46B146A846F0BD084800F027
:103F000D57FA002B02DAF9E7013BF7D315009D4074
:103F100D1C000542F8D1C7E70000D0AF3C210020BE
:103F200D00DB0010F0B5DE4657464E4645468B4643
:103F300DE0B51C0085B04B0003935B44DB00C51856
:103F400D2F00DC3716003A68844600922A00CC32E6
:103F500D1268CC330192C022634492011343802234
:103F600D920202901A60002C19D08023DB049A462D
:103F700D01239946E0231B029846D835200001F015
:103F800D2BFD5246430113433B6033004A46C34069
:103F900D1340424613432B60631E1C40EED1029B1F
:103FA00D03989C465844C00060440300009ADC33DB
:103FB00D1A60019BCC30036005B0F0BCBB46B24625
:103FC00DA946A046F0BDC046F0B5DE4657464E4662
:103FD00D45468B46E0B51C0085B04B0003935B4412
:103FE00DDB00C5182F00DC3716003A6884460092B6
:103FF00D2A00CC321268CC330192C0226344920164
:1040000D13438022920202901A60002C18D0802354
:1040100DDB049A4601239946134BD8359846200068
:1040200D01F0DAFC5246430113433B6033004A462C
:1040300DC3401340424613432B60631E1C40EED118
:1040400D029B03989C465844C00060440300009AAC
:1040500DDC331A60019BCC30036005B0F0BCBB466D
:1040600DB246A946A046F0BD80E00000F0B501259E
:1040700D8D400468AC434D0004606C18E4000419D5
:1040800D2600C836002B28D01F68DC3437605F68E7
:1040900D77609F68DB68B76023606D18EB001D00CB
:1040A00D8024D035451964012C4380252D062560CB
:1040B00D256001250F4C2E008C4084600C1DA64000
:1040C00D802408318D401F21A4010443C0180A40EB
:1040D00DD830266025600260F0BD80277F023760F2
:1040E00DF8277F027760C027DC343F03B760236079
:1040F00DD3E7C04601010101F8B5CE46474604009D
:1041000D80B506200E00FEF76FFC051E51D0524BF8
:1041100D5249E21853425A418023DB039C469205D3
:1041200D4F4B62441A604F4B1A6010008B689843D6
:1041300DFBD1494B8021E3185A4253414A4A5B0057
:1041400D490099520620FEF74FFC3100C00001F0E6
:1041500DA3FCC30932D14022012190466162A362C2
:1041600D256BEB0736D427008026E36A00232C3716
:1041700D76013E43336006202563FEF735FC41464C
:1041800D800001F089FC236B05009846DB073BD4CA
:1041900D6022E36A5A406E23134033604346236323
:1041A00D802310229B013B431A60304B2363032372
:1041B00DA3642800C0BCB946B046F8BD2C4A934252
:1041C00D3FD900232B492C4A6162A362256B90468F
:1041D00DEB07C8D52200C02330329B011343234A7D
:1041E00D06201A60666AA26AB601B618FEF7FCFBD5
:1041F00D224901F051FCB6020100300001F04CFCE7
:1042000D0021FFF783FAAEE72200C02330329B0175
:1042100D1343164A06201A60636AA26A9B019946E7
:1042200D9144FEF7E1FB4B4614499B02994601F080
:1042300D33FC0100484601F02FFC0021FFF766FA20
:1042400DA6E77F22990188461040013040081900E9
:1042500D8044030082E7C0460080FCBF00C00040E0
:1042600D00E0004000F000400CAB01200103000015
:1042700DFEFF0000FFFF0000C0FF3F004E0E0000DC
:1042800D2C4B2D4A70B51A602C4A2D4B2D491A60B6
:1042900D14008B689C43FBD12B4D2C4EB54208D29C
:1042A00D013E761BB60808CD984723000134B34272
:1042B00DF9D1FEF731FA264A214B1A60214A93684B
:1042C00DDB43DB01DD09002BF9D14022214B224CD0
:1042D00D224E9A675A671A67DA66B44208D2236883
:1042E00D2000002B20D00C34FEF796FEB442F6D3FE
:1042F00D1B4E1C4CC022A168300002F0FBFAA660D8
:1043000DFEF7D4F9FEF760FEFFF730F8164C174EA6
:1043100DB44208D2013E361BB60808CC98472B0094
:1043200D01359E42F9D170BD0834FEF767FEB442E7
:1043300DD5D3DDE700E00040BFCDFBFEFE7F3C00A6
:1043400D00F0004000C00040381A0020481A00203C
:1043500DFFFFFF0100F00140281A0020381A00204D
:1043600D0000002000ED00E0481A0020541A002043
:1043700D00BEFDE7094A03001068002805D0084972
:1043800DC3188B4207D81360704706480449C318F9
:1043900D10608B42F7D901204042F5E720A401209F
:1043A00D0000042030AC032010B5FFF7E1FFC0463C
:1043B00D0FB400B5084883B002F000FC049B002B3D
:1043C00D07D005A91800019101F0E0FA034802F0A9
:1043D00DF5FB0120FFF7CCFF14DB0010B0D400106B
:1043E00D10B50148FFF7E4FF24DB001010B50148BC
:1043F00DFFF7DEFF34DB00107047C046F8B55746B7
:1044000D4E464546DE46E0B599460A9B07009A465C
:1044100D0D9B8846934615000B9E9B0710D10C9B58
:1044200D9E420DD29D1B14000E005D4422004B4692
:1044300D013431002020B847A542F7D1B0460B9E7C
:1044400D002E27D0444675195346AA1B013E985D90
:1044500D21004B46B847002EF6D123002C0098467C
:1044600D0D9B9B070FD55B46E51A0C9BAB420AD9FA
:1044700D4646984622004B46310020200135B8476C
:1044800D0134A845F6D82000F0BCBB46B246A9467B
:1044900DA046F8BD2C00E3E7F0B54F464646D6469C
:1044A00DC0B584B098460EAB1B78129F99469446C2
:1044B00D0D9C109B119EBA0725D4002E4BD19C420A
:1044C00D00D3BFE001223A4092461F2C00D9B8E03C
:1044D00D0C9A551E302201E0202C03D001342A55B0
:1044E00DA342F9D85246002A0DD0A6420BD9202C52
:1044F00D44D00C9A551E302201E0202C3ED00134C0
:1045000D2A55B442F9D1FA064DD57A053FD4002C7F
:1045100D39D10F9B102B00D179E00F9B022B00D1CD
:1045200D8AE030230C9A012413704B46002B3FD0A8
:1045300D2D230C9A135501340C9B6246009303975F
:1045400D434602960194FFF759FF04B0E0BCBA460A
:1045500DB146A846F0BD012215003D40AA463A429B
:1045600D2FD04A46002A02D10C323A4200D0013EE9
:1045700D9C42BAD21F2CABD9202E27D92024FA0663
:1045800DDAD57A0503D4A3422DD0A6422BD00F9BAA
:1045900D102B32D0022B20D0202CCDD030220C9BD2
:1045A00D1B191A700134202CC6D04B46002BBFD1DD
:1045B00D7B070DD43B07BFD520230C9A135501342F
:1045C00DBAE79C429FD21F2C00D881E720249AE79E
:1045D00D2B230C9A13550134AEE7202CACD00C9B39
:1045E00D1B1901343AE0631E012C92D00F9A102A48
:1045F00D2AD0022A2FD01C00D0E7BB060ED4202CC7
:1046000D9AD00C9B1A19013478231370C4E7BB069A
:1046100D0DD478230C9A01241370BFE7202C00D100
:1046200D8AE758220C9B1B191A700134B4E75823E2
:1046300D0C9A01241370B1E70C9A603301241370A6
:1046400DACE7202400265EE7023CBA06E9D40C9ABA
:1046500D12191C00D8E70C9A9246534462221A7024
:1046600D9AE7C04610B5002800D110BD02F05AFAE5
:1046700DFBE7C0460B0010B5002802D049681B6847
:1046800D984710BDF0B5DE4657464E464546E0B557
:1046900D9BB09B46249B89469846259B0B900C927C
:1046A00D4046424619009A4601F0BFFC002800D052
:1046B00DD8E0012240465146774B524201F0B0FC02
:1046C00D002800D0CEE0012240465146734B5242A5
:1046D00D01F090FC002800D0C4E0002200234046E9
:1046E00D514601F087FC002800D0B9E142465346FF
:1046F00D0A9209938023289ADB001A400E92289A79
:1047000D1A4201D1062326930A9A099B16001343D8
:1047100D00D0C7E0289B002500261B0500D49BE197
:1047200D00230D93269A0D9B9A4200DC9FE1D01A2F
:1047300D431E26938023289ADB001A43002300276B
:1047400D28920D93279B0024BB4200D9DC1B02232A
:1047500D289A1A400E92289A134203D07B427B412D
:1047600D5B421C400D9B002B07D00A9809992A002B
:1047700D330001F0DEFB0A90099100220023404630
:1047800D514601F037FC002805D0802000068446F4
:1047900D099961440991289A414B0B9D134004934B
:1047A00D269B0A9A0293099B039400920193494612
:1047B00D5B4628000C9A00F08BF90400002F62D0A4
:1047C00D289B220098061F23C0179843631C984608
:1047D00D49465B466530A8470D9B0025DA179C18A6
:1047E00DDB0F9A465440013F01E0202D13D00AAA59
:1047F00D94461F23200063440A2101355E1901F000
:1048000D4BF93031317020000A2101F045F92600B5
:1048100D0400092EE9D805230693002304930A33D7
:1048200D0393534605970B9F029312AB0093424699
:1048300D5B46494638000195FFF72EFE0E9B04009E
:1048400D002B20D00C9BC51A279BAB421BD91E00F9
:1048500D22005B46494620200135B8470134AE425F
:1048600DF6D810E0289B42460493279B49460393B4
:1048700D269B0B9802935346009201935B460C9A2C
:1048800D00F026F9040020001BB0F0BCBB46B24678
:1048900DA946A046F0BDC046FFFFEF7FFFFFEFFF2B
:1048A00DFFF7FFFF734B099F9C467800400D604456
:1048B00D01F0CEFB704A714B01F059FB704A714B00
:1048C00D01F02EFB3B03704A1B0B1A4304000D0035
:1048D00D300011006D4B002201F019FB6C4A6D4B3D
:1048E00D01F045FB02000B002000290001F018FB30
:1048F00D01F0C6FB0D9001F0ABFB674A674B04005E
:1049000D0D0001F034FB0022654B01F009FB01F0B5
:1049100DB7FB644A0600644B2000290001F027FB19
:1049200D040030000D000F9601F092FB5F4A604BC2
:1049300D01F01DFB02000B002000290001F0E7FA39
:1049400D02000B0006000F0001F011FB3200040005
:1049500D0D003B003000390001F0E2FA002210900A
:1049600D1191544B2000290001F0E3FA0022524B23
:1049700D01F0D6FA02000B002000290001F0D9FA4F
:1049800D00224E4B01F0CCFA02000B002000290052
:1049900D01F0CFFA0D008021040032003B00002011
:1049A00DC90501F0B4FA02000B002000290001F046
:1049B00DB7FA02000B001098119901F0BAFA002213
:1049C00D314B01F0ADFA3E4B0F9C9C4664440022E6
:1049D00D230501F0CCFA05000E0002000B000A9829
:1049E00D099901F007FB00280AD00D9B2800013B17
:1049F00D31000D930022304B01F09BFA05000E00A3
:104A000DC6270D992B0063318F42BF4128997F42F4
:104A100D0437090500D495E6334300D182E6099C9D
:104A200D284A2100284B0A9801F0F2FA002808D0F4
:104A300D00222100254B0A9801F0DCFA002800D055
:104A400D70E6269B002B00D17CE60E9B5A1E9341EF
:104A500D269AD31A269375E6002304270D9371E643
:104A600D43460A9380231B065344099342E60023D1
:104A700D26935FE601FCFFFFFB799F501344D33F64
:104A800DB3C8608B288AC63F0000F03F0000F83F96
:104A900D61436F63A787D23F71A379094F930A4092
:104AA00D0000E03F1655B5BBB16B0240EF39FAFE81
:104AB00D422EE63F00002C4000002440000018402C
:104AC00DFF0300002D431CEBE2361A3F80842E417C
:104AD00DF0B54E46DE4657464546E0B597B0994689
:104AE00D209E219F229B8346984607910C923B0066
:104AF00D32003000390001F098FA002800D0A9E109
:104B000D012230003900CA4B524201F073FA0028DD
:104B100D00D0E1E0012230003900C64B524201F0D5
:104B200D7FFA002800D0B7E0002230003900C24BD8
:104B300D01F076FA002800D099E00022300039000B
:104B400DBE4B01F057FA002800D090E00022002360
:104B500D3000390001F04EFA002800D0B1E00023FA
:104B600D0D93249B5B0501D40623984608AB9C4608
:104B700D1722002430234146624404E001341355CA
:104B800D0139202C01D00929F8D888463000390088
:104B900D01F076FA4346DA00A94B05009B181A6816
:104BA00D5B680892099301F053FA02000B00300084
:104BB00D390001F0ACF9089A099B01F0D8F90A9077
:104BC00D0B9101F081FA824601F03EFA02000B00D2
:104BD00D0A980B9901F09BF900229A4B0A900B91C0
:104BE00D01F01EFA002800D1C0E001239C46E244EA
:104BF00D504601F029FA02000B000898099901F0BE
:104C000DFFF9002802D000239A4601354346002BB8
:104C100D6AD008AB17269C4608956644554614E0A5
:104C200D01235B4243440A2128009A4600F034FFD9
:104C300D013430313719397028000A2100F02CFF6A
:104C400D092D00D8D0E0D0460500202CE8D10EABC0
:104C500D98460323249A1340012B00D196E020237C
:104C600D249A01930392239A434602921EE0249BB9
:104C700D58460493239B00960197039343460C9A41
:104C800D029307994B46FFF7FDFC17B0F0BCBB46EE
:104C900DB246A946A046F0BD249B5B070ED4032265
:104CA00D694B2499019203912399029100935846DF
:104CB00D4B460C9A0799FFF7A1FBE6E70422634BDD
:104CC00DEFE73B0032000020002101F020F9012325
:104CD00D06000F000D9344E7249B0393239B02933F
:104CE00D042301935A4BE1E7280001F0B1F90200CA
:104CF00D0B003000390001F00AF9524B002206007A
:104D000D0F0001F077F90EAB984600280AD100226A
:104D100D300039004B4B01F083F9002802D1EB072D
:104D200D00D50135202C94D008AA944617232800CD
:104D300D63440A2101341E1900F086FE303128002B
:104D400D31700A2100F080FE051EEBD10323249A59
:104D500D1340012B1BD0202C00D180E70D9B002B85
:104D600D35D02D224146631C0A5579E700220A9859
:104D700D0B99344B01F03EF9002800D046E753461D
:104D800D002B51D101239C46E2443FE72024239B75
:104D900D002BE0D00D9B002B03D1249A0C33134232
:104DA00D02D0239B013B2393239BA342D3D908AB72
:104DB00D9C46172230236244202C00D14FE72399C3
:104DC00D013413558C42C6D0202CF8D147E7249BD3
:104DD00D5B0724D4249A2300120700D440E7202235
:104DE00D414601330A553BE75746089D202C00D11B
:104DF00D2DE7220030214046002F09D00132B15459
:104E000D202A00D123E7D3431B191B18002BF5D102
:104E100D0EAB98462E234146541C8B5482E72B2211
:104E200D4146631C0A551BE7DB0700D4EEE6A9E7F4
:104E300DFFFFEFFFFFFFEF7F65CDCD4165CDCDC10D
:104E400D38DD00100000E03F40DB001044DB0010B7
:104E500D50DB0010249B0393239B029303230193A8
:104E600D004B23E74CDB0010F0B5DE464E465746AF
:104E700D4546E0B59FB01C00289B91460993C94A51
:104E800DC94B8B4608901A60002900D118E2002307
:104E900D20789A46002800D11AE226001D005C46B3
:104EA00D0AE02A006F1C4B46089D2100A8473D00D3
:104EB00D01363078002870D02528F2D110239B467A
:104EC00D083B9A46043B9846023B00219C46721CC7
:104ED00D107816000300203BDBB2102B03D8B34F24
:104EE00D9B00FB589F460300303B092B32D9002312
:104EF00D0A932A2868D0002398462E283ED0030016
:104F000D683BDBB2122B1CD8A94A9B00D3589F4695
:104F100D012301321943DBE7634601321943D7E719
:104F200D434601321943D3E75B4601321943CFE7BC
:104F300D534601321943CBE780235B007078194348
:104F400D01360300253BDBB2532BAAD8994A9B00AF
:104F500DD3589F4600270300B800C0190136400002
:104F600DC018337830381A00303A0700092AF3D9BF
:104F700D0A901800002398462E28C0D180237078FF
:104F800DDB0019430300303B721C092B00D8A1E153
:104F900D2A2800D1B2E11600B1E7A346AA462C009B
:104FA00DD14503D801235B424B449A464B465246AA
:104FB00D59460020089DA84720001FB0F0BCBB46F5
:104FC00DB246A946A046F0BD099B40CB0A96002EDD
:104FD00D03DB50780993561C8DE728380143704246
:104FE00D0A9009935078561C85E7782800D1DFE1A7
:104FF00D582800D14CE26F2800D14FE3622801D12F
:1050000D00F030FC10230A009A430B92692801D05E
:1050100D00F0A9FC0A230C934B0500D5D0E10B9AA7
:1050200D802311009B0019408B461A4200D0A1E24B
:1050300D802311005B0019408A461A4200D0B6E366
:1050400D13005B0600D5EDE2130009991B0601D490
:1050500D00F076FC08C91BB2D8171A18424092B25C
:1050600D09919346DA0F1292002B09D18023102259
:1050700D0B99DB000B4091430B91002B00D0E4E228
:1050800D0B9A6123920600D541230EA91F228C464F
:1050900DDBB262440A3B5F461395A34655460C9C12
:1050A00DB2460D9316000AE03033DBB2013573556D
:1050B00DA74200D2EDE2202D00D1EAE20700210047
:1050C00D380000F0E9FCCBB20929EDD90D9A9446D0
:1050D00D6344DBB2EAE780239B0070781943013605
:1050E00D2FE77078682800D1CDE180230136194370
:1050F00D27E770786C2800D1BFE180235B0019434E
:1051000D01361EE7462800D19BE10722099B049139
:1051100D073393430A9A19000392424602920CC92F
:1051200D08980092019309912A004B462100FFF740
:1051300DCFFC01360500BCE62A006F1C4B46089DCE
:1051400D21002520A84701363D00B2E68B0700D48B
:1051500DADE1099B2A009A466B1C9846534601CB3C
:1051600D21009A46089F4B46C0B2B8470A9B9C4601
:1051700D6544012B00D886E2089B4746B0462600C1
:1051800D4C4699463A002300013731002020C8478C
:1051900DAF42F7D1A1465346340046460993013636
:1051A00D87E6C046694E001024A8012058DB001088
:1051B00D9CDB0010E8DB0010099B04CB9B464346AB
:1051C00D0992002B00D1C6E013789C46002B00D12C
:1051D00DBDE34346013B099A0133D0180A9F1300E2
:1051E00D01E0834203D05A780133002AF9D1099A9C
:1051F00D0A979B1A0B9380230A00DB001A400C922E
:1052000D194204D00B9B434501D943460B9302230E
:1052100D1A000A400D920B4200D187E1604600282A
:1052200D00D168E10C9B002B00D10DE1A844C246D2
:1052300D099B57465B1B9846089BB2462A002600E1
:1052400D4C46994609E023003100551CC84743469A
:1052500D585D002800D126E12A009742F3D1A146DE
:1052600D3D00340056460D9B002B00D043E15B46BC
:1052700D013609931DE6099B1A0008CA9246002BB8
:1052800D48D0212211438B460EA884461F2161442C
:1052900D099500220F27A4460D0002E0202A0CD00C
:1052A00D0B003C001C4020003730092C00D807387B
:1052B00D0132A85419090F2BF0D86446099D32E02C
:1052C00DDC4B2078089300239A46002800D0E4E5B3
:1052D00D002465E6434606000A9F9800C018013277
:1052E00D400080191678030030003038303B092813
:1052F00DF3D93000984616000A9700E6099B02364E
:1053000D04CB9046D2434046D217104080460993B5
:1053100D3078F4E510220800904311321043834693
:1053200D00224905B0D55B460693082305934346F5
:1053300D0493102303930023029316AB0192009361
:1053400D2A004B4621000898FFF7A6F853460500A2
:1053500D01360993ADE513789C46002B00D1F7E299
:1053600D02235B4237E7202302009A43472A04D1E8
:1053700D80231B01194302239843452801D1202383
:1053800D19430722099B0491073393430A9A190085
:1053900D0392424602920CC908980092019309911A
:1053A00D2A004B462100FFF76DF90136050080E517
:1053B00D10230C930C230A009A430B924B0503D533
:1053C00D01230B9A9A430B92692800D127E6642892
:1053D00D00D124E60B9A802311009B0019408B46C7
:1053E00D1A4200D066E1802311005B0019408A4605
:1053F00D1A4200D039E213005B0600D53CE11300E0
:1054000D1B0600D4A6E2099B04CB1204120C934692
:1054100D09935B46002B00D09AE10B9A10331100D3
:1054200D99430B91520500D492E100239A460B9BB0
:1054300D06930A9B0593434604930C9B0393002309
:1054400D0CE12023194360E6099B0A9A5B1B9846E1
:1054500D4B4691461F00B2462600089C2A003B0091
:1054600D3100A04743460135585D0028F6D14A4624
:1054700D3400B94656460A92F5E6C0239B00B07833
:1054800D194302365DE5C023B0781943023658E55D
:1054900D0C230A009A4314331A43103B0B920C93BE
:1054A00D4B058DD496E7A14634005646DBE60A9AA5
:1054B00D012A00D853E26B1E9F18089BB0462600A8
:1054C00D4C4699462A002300013531002020C8475B
:1054D00DBD42F7D1A14634004646099B3A0001CBA7
:1054E00D210098467D1C4B46089FC0B2B8474346E5
:1054F00D01360993DDE40B9B0A9AA8469A4200D81F
:1055000DB5E694466544ED1A089B4746B04626001D
:1055100D4C4699463A002300013731002020C847F8
:1055200DAF42F7D1A14634004646A0E60B9A0A9940
:1055300D531C914200D814E24B199B1A1F00089B73
:1055400DB24626004C4699462A002300013531000B
:1055500D2020C847BD42F7D10A9BA14601330B93CA
:1055600D099B34001B7856469C466046002800D0A7
:1055700D58E67CE60722099B073393430132944694
:1055800D9C4462465F6809921A68FB171093119349
:1055900D10981199030053400E930B007B400F930D
:1055A00D94460E9A0F9B121A8B410E920F93FB0F7E
:1055B00D6246129300233A439B463DD00B9A6123DA
:1055C00D920600D541230022DBB20EA90A3B8C4680
:1055D00D92460D9343461F326244139515965546D8
:1055E00D0E9E0F9FA24690460C9C14930CE03032F9
:1055F00DD2B2434601355A55BB4500D18AE1202D23
:1056000D00D18AE106000F0022000023300039008E
:1056100D00F080FAD2B2092AE9D90D9B9C4662446A
:1056200DD2B2E6E7FF23099904C913401A00099184
:1056300D17E5C046F94300100B9A1033110099433A
:1056400D0B915205BAD500239A460B9B06930A9BE4
:1056500D0593434604930C9B0393129B029353466D
:1056600D019316AB2A00009321004B460898FEF7D4
:1056700D13FF013605001CE4FF22099B02CB1140EC
:1056800D8B460993C5E65346454609930136FFF708
:1056900D10FC56465C46AA46139DD6E708230C938C
:1056A00D0B910B99642800D084E60B9B5B0500D50C
:1056B00D86E6B4E40722099B0733934301329446EF
:1056C00D9C44624609921A685B6810009B46130061
:1056D00D5A46134307D10B9A1033110099430B917E
:1056E00D520500D5A1E60B9A6123920600D5412300
:1056F00D0022DBB20EA90A3B8C4692460D9343461F
:1057000D1F3262445F461295A34655460400B246C9
:1057100D90460C9E13930DE03032D2B243460135C4
:1057200D5A550023BB4200D100E1202D00D100E1EC
:1057300D04000F00320000232000390000F0EAF9C8
:1057400DD2B2092AE8D90D9B9C466244D2B2E5E754
:1057500D0B9A6123920600D54123DBB20EA90A3BB9
:1057600D1F228C460D93230062445C461295170050
:1057700D55469B46B2460C9E08E03033DBB20135F0
:1057800D7B55B4420ED3202D0CD0040031002000E7
:1057900D00F082F9CBB20929EFD90D9A94466344F2
:1057A00DDBB2ECE756465C46AA46129D3FE6099BE6
:1057B00D1A0008CAD91713925A184A409246DA0F9E
:1057C00D1292002B08D1802310220B99DB000B4085
:1057D00D91430B91002B2BD10B9A6123920600D58F
:1057E00D41230EAA1F279446DBB20A3B0D95674451
:1057F00D5D460993A3465446B2460C9E08E03033ED
:1058000DDBB201357B55B4420ED3202D0CD00400F4
:1058100D3100200000F040F9CBB20929EFD9099AE7
:1058200D94466344DBB2ECE756465C46AB460D9DB1
:1058300D0B9B2A0006930A9B210005934346049374
:1058400D0C9B08980393129B013602935B460193C0
:1058500D16AB00934B46FEF71FFE139B05000993F5
:1058600DFFF727FB02230C931AE7099B04CB924603
:1058700D1293002A08D1802310220B99DB000B40D4
:1058800D91430B91002B2BD10B9A6123920600D5DE
:1058900D41230EAA1F279446DBB20A3B0D956744A0
:1058A00D5D460993A3465446B2460C9E08E030333C
:1058B00DDBB201357B55B4420ED3202D0CD0040044
:1058C00D3100200000F0E8F8CBB20929EFD9099A90
:1058D00D94466344DBB2ECE756465C46AB460D9D01
:1058E00D0B9B2A0006930A9B2100059343460493C4
:1058F00D0C9B08980393002302935B46019316AB10
:1059000D00934B46FEF7C8FD129B05000993013627
:1059100DFFF7CFFAB44200D871E6149B54460E96A9
:1059200D0F97AA469846159E139D8EE6A64200D85F
:1059300DFBE6139B56469846AA465C46129D76E5B5
:1059400D08C9D8171A1842400991FFF78AFB00239E
:1059500D0B9350E4099B04CB9346099359E52F0013
:1059600DBBE50B9301E6063B0C939AE600B585B0BB
:1059700D0391012102900093034813004A4202A9AA
:1059800DFFF772FA05B000BD7546001010B5094A53
:1059900D0300146884B0002C08D001220091064841
:1059A00D524203A9A047012004B010BD01F006F931
:1059B00D0020F9E724A801206546001001480421C4
:1059C00D014B184780110020055A0010014B5B68F0
:1059D00D1847000080110020014B9B6818470000FC
:1059E00D80110020142310B50100188804331B8882
:1059F00D984710BD162310B50100188802331B8877
:105A000D984710BDF8B54746CE4680B50F1E19D044
:105A100D14239946043304000025012698464B466D
:105A200D1888434621681B88984701C4431E984136
:105A300D013540420640AF42F1D13000C0BCB946FD
:105A400DB046F8BD0126F8E7124A936F9B0815D2B0
:105A500D9066D166002905D0FFE7FFE7FFE7516F9C
:105A600D106F704704B580210906C21751400028F8
:105A700D00D0C84307F048FC002104BDF0B5146EFA
:105A800D556E576F166FFFF7E3FF14665566576730
:105A900D1667F0BD000000D0114A936F9B0813D21A
:105AA00D10665166002905D0FFE7FFE7FFE7516F4C
:105AB00D106F704704B5002801D00020C04307F0D7
:105AC00D23FC002104BDC046F0B5146E556E576F12
:105AD00D166FFFF7E5FF1466556657671667F0BD3D
:105AE00D000000D094464A4A926F9208624601D255
:105AF00D28E0C046F0B5464E346E756E776F366F42
:105B000D00F020F89446424A1466556657671667AA
:105B100D6246F0BD94463E4A926F9208624601D2AB
:105B200D54E0C046F0B53A4E346E756E776F366FF1
:105B300D00F04CF89446364A14665566576716675A
:105B400D6246F0BD002B24DB11D000293EDA00B5F2
:105B500DC943404200D1013100F038F8C9434042F9
:105B600D00D10131DB43524200D1013300BD002A87
:105B700DEBD1002801D1002905D00020C90FC9079C
:105B800D01D1C043410800B507F0A6FB0022002358
:105B900D00BD00B500290ADBDB43524200D10133C1
:105BA00D00F014F8C943404200D1013100BDC94392
:105BB00D404200D10131DB43524200D1013300F0AC
:105BC00D05F8DB43524200D1013300BD002923D13A
:105BD00D002B18D1002A0CD0BC460D4F38667A66C2
:105BE00D00210023FFE7FFE7FFE77A6F386F674675
:105BF00D7047002801D00748010000B507F06CFB85
:105C000D0022002300BD02000B0000200021704780
:105C100D000000D0FFFFFFFF002B00D0BFE0130CF2
:105C200D28D1002AE7D080B4114F39667A66FFE794
:105C300DFFE730B4040C7B6F396F1B0423433B66C5
:105C400D7A66FFE7FFE7FFE7C04684B27B6F3D6FE3
:105C500D1B0423433B667A66FFE7FFE7C04600233C
:105C600D2C042D0C7A6F386F00196941B0BC704748
:105C700D000000D0F0B594460025140E01D112029B
:105C800D0835140F01D112010435940F01D1920082
:105C900D0235D40F01D152000135D40B0134254FFB
:105CA00D7C66254C3C660E0C93B2FFE7FFE7FFE7E1
:105CB00D3C6F6643360C7703BE467343DF0B5B04C4
:105CC00DC01AB941130C7343DB18C91ACE086643C9
:105CD00D360CB64493B273431F0F1B01C01AB94162
:105CE00D130C73431F0B1B05C01AB941860D8F0290
:105CF00D3E436643360C092D24DB520A7243801A4B
:105D000D7703460A6643360C16235B1BDE40DF40E5
:105D100DBF1964466643821B704604350633010085
:105D200DD940A840C01900D30131A24206D20023A8
:105D300DF0BD0000000000D0FFFFFFFF121B01307F
:105D400DF3D3F1E709277F1BFE406446A2B27243ED
:105D500D801A00D20139220C7243130C1204821ADC
:105D600D99410B007046043513370100F940A840E6
:105D700D801900D30131002B02D1A2420AD2F0BD0D
:105D800D013000D30131121BFAD2013BF8D1A242EE
:105D900D00D2F0BD013000D30131121BF7E7F0B591
:105DA00D1C0C00D080E00CB400251C0A04D11B0291
:105DB00D160E3343120208351C0B04D11B01160FAE
:105DC00D3343120104359C0B04D19B00960F3343D2
:105DD00D92000235DC0B02D192185B4101351C009B
:105DE00D971864410134464F7C66464C3C660E0C58
:105DF00DFFE7FFE7FFE7C0463C6F6643360C7703CE
:105E000DBE4697B27743C01B00D20139C01B00D2EA
:105E100D01399FB27743C91BC91B170C77437E0409
:105E200DFF0B801BB941CE086643360C0C2D33DBBE
:105E300DB644120B1F053A431B0B97B27743C01B99
:105E400D00D201399FB27743C91B170C77433E042B
:105E500D3F0C801BB941860D8F023E4366432927B7
:105E600D7F1BFE400C3D7746AF40BF1930BCA2B240
:105E700DABB272437343801A9941220C7243130CD7
:105E800D1204801A994102000B000137001BA94131
:105E900DF9D2781E0021F0BD0C277F1BFE407746FE
:105EA00D7F0BAF40FF19E0E700245D1C07D0144FB6
:105EB00D7D663966FFE7FFE7FFE7FFE73C6F95B2C9
:105EC00D9EB265436643401BB141150C1E0C6543E4
:105ED00D664336042F0C3E432D04401BB1419942BD
:105EE00D04D202000B0020000021F0BD01D1904230
:105EF00DF7D3801A994101349942F2D3F6E70000A5
:105F000D000000D0FFFFFFFF48404140484018B45B
:105F100D1B4B5B68FC46019308BD04DFA7610010B5
:105F200D18B4174B1B68FC46019308BD00DFB16127
