:020000041000EA
:0400000AFFA0C0DEB5
:1000000D00B5324B212058609868022188439860D2
:1000100DD860186158612E4B0021996002215961F9
:1000200D0121F02299502B49196001219960352049
:1000300D00F044F80222904214D00621196600F017
:1000400D34F8196E01211966002018661A6600F041
:1000500D2CF8196E196E196E052000F02FF801217C
:1000600D0842F9D1002199601B491960002159609E
:1000700D1A491B48016001219960EB211966A021E5
:1000800D196600F012F800219960164914480160B4
:1000900D0121996001BC002800D000471248134986
:1000A00D086003C880F30888084703B5996A0420DF
:1000B00D0142FBD001200142F8D103BD02B5186603
:1000C00D1866FFF7F2FF186E186E02BD00000240B1
:1000D00D000000180000070000035F00212200004F
:1000E00DF4000018222000A00001001008ED00E02F
:1000F00D00000000000000000000000074B24E7A05
:1001000D00200420F7010010C3010010C5010010EC
:1001100DC1010010C1010010C1010010C10100108A
:1001200DC1010010C1010010C1010010C701001074
:1001300DC1010010C1010010C9010010CB01001058
:1001400DCD010010CD010010CD010010CD0100102A
:1001500DCD010010CD010010CD010010CD0100101A
:1001600DCD010010CD010010CD010010CD0100100A
:1001700DCD010010CD010010CD010010CD010010FA
:1001800DCD010010CD010010CD010010CD010010EA
:1001900DCD010010CD010010CD010010CD010010DA
:1001A00DCD010010CD010010CD010010CD010010CA
:1001B00DCD010010CD010010CD010010CD010010BA
:1001C00D00BE00BE00BE00BE00BE00BEEFF3058047
:1001D00D103800BEF2EB8871280A0010480A001092
:1001E00D3402001090A31AE700201F49086006C8CA
:1001F00D81F3088810471D48006800282FD10DA4F1
:1002000D0ECC002902D000F012F8F9E71849194A6E
:1002100D002000E001C19142FCD1174988471749E0
:1002200D88471749884700BEFDE701C901C29A42B8
:1002300DFBD37047480A0010000000204401002045
:1002400D8C0B001000000420000004208C0B00100B
:1002500D0010042000100420000000007047094821
:1002600D00F08EFA0047000008ED00E0000000D01D
:1002700D00020020240400205D020010550600102D
:1002800D5D0300105756000006005250ABB360538B
:1002900DCF09001006005250861C0302DA09001027
:1002A00D060052505422A29DF8090010050052502C
:1002B00DDE65F4688C0B0010F8B5C0460448054B9C
:1002C00D10B5834203D0044B002B00D0984710BDCE
:1002D00D44010020440100200000000006480749A9
:1002E00D091A8B10C90FC91810B5491003D0044B4A
:1002F00D002B00D0984710BD440100204401002080
:1003000D0000000010B5074C2378002B09D1FFF732
:1003100DD5FF054B002B02D0044800E000BF0123A0
:1003200D237010BD0003002000000000A80900107C
:1003300D054B10B5002B03D00449054800E000BF64
:1003400DFFF7CCFF10BDC0460000000004030020E5
:1003500DA80900100048704719801F00FEE7FEE74E
:1003600D73B50C0016000500FFF7F4FF2C23802257
:1003700D98430F4B120418430E4B69461A600E4BEF
:1003800D07311A6801235340DB050C4ADB0D13605E
:1003900DA0238722DB05D2009E501D60596080216D
:1003A00D9C604904D86018690842FCD1985876BD04
:1003B00D1000800010200050340400503414005000
:1003C00D10B50400FFF7C6FF80220E4B1204184033
:1003D00D0D4B012118430D4B49421A600C4B1A6805
:1003E00D01235340DB050B4ADB0D1360A02387224D
:1003F00DDB05D2009950084A1C605A6040229A6071
:1004000D186110BD33F8FFFF380680001020005032
:1004100D340400503414005000020020A023862222
:1004200D0121D200DB059950802252041969114235
:1004300DFCD18722D20098587047000080230122FA
:1004400D10B5124C5B05E018FC215242FFF788FFF6
:1004500D0F4BE358984216D10E4B0F4AD968914273
:1004600D03D0D9680D4A914201D10022DA600422ED
:1004700D0B4B1A600B4BE418201C0B49086003C88A
:1004800D80F308880847002010BDC046001000000A
:1004900DFC00001000800540FB5ECD8E04A1327182
:1004A00D00E000400001001008ED00E0F7B50C0081
:1004B00DFA220021802705005200080000F0AEF955
:1004C00D314E240B7F01002C44D12E00AB68113628
:1004D00D591EFF360B0A30000193FFF771FF2A4FAB
:1004E00D019B0093009B0137FF37002B3DD100F09E
:1004F00D57F90122019B300019025242FFF730FFDC
:1005000DA04222D12E0010363000FFF759FFFFF721
:1005100D85FF80221D49520004001B4800F02CFA73
:1005200D00F03EF901228021300052424900FFF7D0
:1005300D17FFA04209D1F02380211B06E8184901BD
:1005400D00F02AFA124B134ADA608022124BD205C0
:1005500D1A60F7BD3000390000F01EFA80235B01F0
:1005600DF618013C00F01CF9ADE700F019F9FFF7A2
:1005700D55FF8022040005493800520000F0FCF9B7
:1005800D009B013BADE7C0460010000000020020BB
:1005900D00800540F24EFAE300B005400C235843AD
:1005A00D124B10B5C01880235B004360012913D096
:1005B00D0368802452015A40E02364011A40044329
:1005C00D2260032203684B401340236001238B40BC
:1005D00D82681342FCD010BDC02303249B0103434A
:1005E00D1C6083680B42FCD0E2E7C04600800040EF
:1005F00D37B50C2000F0CCF80023114DAB6700F09F
:1006000D2FF901220F4B1A606B6C012BFCD10322C9
:1006100D0D4B1A60AC6B012CFCD102250623210079
:1006200D00950A4A0A4800F02FF9290000220420FB
:1006300DFFF7B4FF002221000520FFF7AFFF37BD04
:1006400D008000403CB0004030B00040002F6859A1
:1006500D00800240F8B5404DEE682C69FFF7C8FFE9
:1006600D04233E4A3E49136018008A689043FBD12B
:1006700D3C4B9E421FD123051A0D002B22D1802108
:1006800D394B49055B18A3421CD2384BEB606A61AC
:1006900D81235B059C4221D3324B9E4202D0334BCA
:1006A00D9E4201D1FFF7CAFE314800F069F80021E2
:1006B00D0300080098472D4B9E4203D16B6901330F
:1006C00D6B61E5E7FFF7BAFE0028E1D1294B264C17
:1006D00DE418264BEB602C616861D9E72368214A49
:1006E00D934203D080235B01E418D1E7224B62686B
:1006F00D9A42F7D12700012210373800A1685242E3
:1007000DFFF72EFEE3689842ECD10122FC21380060
:1007100D5242FFF725FE23000D33FF331B6898422D
:1007200DE0D1A368154A991880220F4B090B520589
:1007300D09039B185B18A342D4D20029ACD06B6976
:1007400D022BA9D82000FFF7B1FE002132220800AC
:1007500D00F064F8FEE7C0460080054000F0004060
:1007600D00C00040FB5ECD8E0010000004A1327170
:1007700D5542000000100010A952AEC5FF0F000039
:1007800D142310B50100188804331B88984710BD39
:1007900D8023024A9B000343D362704700800540CB
:1007A00D024B1A68024B5A607047C0461C04002069
:1007B00D0080054003008020124AC00510B5124C80
:1007C00D106012480460E020114CC004002906D0CE
:1007D00D2060002B05D180231B06236010BD106007
:1007E00DF7E7FA208022C00058435204094B90428B
:1007F00D05D21860FFF7D4FF8023DB05EDE7064A2D
:1008000D1A60F7E700B00540FCFF01000820014029
:1008100D00A005401C040020FFFFFF0070B5040080
:1008200D100080220A4BD2051A600A4B002C0CD006
:1008300D0125094A2C43DA61084A62401A6259625D
:1008400D9C620021FFF7B6FF70BDDC61F9E7C04681
:1008500D00B0054000800540D3C007B02D3FF84FD4
:1008600DAA22064B12011A602F220549DA60054AA9
:1008700D11605A68002AFCDA7047C04600400240F9
:1008800D00B0FA0000600240F8B5040020481700DF
:1008900D1E000D0000F046F80100380000F042F88F
:1008A00D069A3304120313432268002A0FDA3F21FC
:1008B00D22680A40AA420AD1A2681205120D82428C
:1008C00D05D1EE21E268C9020A409A421BD0114AB5
:1008D00D944219D0802252010F49104E0A601049DE
:1008E00D0A601700B1688F43FBD1C022211D920110
:1008F00D0A4321212560A060116021680029FCDADE
:1009000DE36008231360F8BD80229201E4E7C0463E
:1009100D001BB70000C0024000E0004000C00040D6
:1009200D00F00040114A936F9B0813D21066516678
:1009300D002905D0FFE7FFE7FFE7516F106F704704
:1009400D04B5002801D00020C04300F01DF800219F
:1009500D04BDC046F0B5146E556E576F166FFFF798
:1009600DE5FF1466556657671667F0BD000000D0A9
:1009700DF8B5C0460000000001B40248844601BC31
:1009800D604700BFB900002001B40248844601BC95
:1009900D604700BF2D01002001B40248844601BC10
:1009A00D604700BF41000020312E3130000600525B
:1009B00D503ABCA911A809001052656C65617365A8
:1009C00D00626F6F74325F773235713038300031BD
:1009D00D2E352E31007069636F00696E7465726D0E
:1009E00D6564696174655F7069636F2D666C6173B1
:1009F00D686C6F6164657200417567202038203224
:100A000D3032330006005250BBFF3CB6D509001002
:100A100D06005250E182887FC10900100600525035
:100A200DD3F07542B9090010AD090010AC020010E9
:100A300DA002001094020010040A00108802001099
:100A400D100A00101C0A0010084A10B51378002B6C
:100A500D0AD18023064807495B051C68C45004333E
:100A600D8B42FAD10123137010BDC0462004002023
:100A700D1C0300100001001010B5024B0133984704
:100A800D10BDC0461C0300208023F0B542180400A1
:100A900D0D0085B09B039A4201D900F06DF8142723
:100AA00D182638883388124998473388039011499E
:100AB00D38889847338802900F493888984733888B
:100AC00D0E490190388898470600FFF7BDFF039B3C
:100AD00D9847029B984780222000D8232900520274
:100AE00D019CA047B047FFF7C7FF05B0F0BDC0465A
:100AF00D494600004558000052450000464300009D
:100B000D8023F0B5170085B08218040003919B0374
:100B100D9A4201D900F030F81426182530882B8818
:100B200D104998472B8802900F49308898472B8899
:100B300D01900E49308898472B880D4900903088D8
:100B400D98470500FFF780FF029B9847019B984748
:100B500D3A0020000399009B9847A847FFF78CFFA8
:100B600D05B0F0BD49460000455800005250000048
:100B700D464300007047C04601B40248844601BC9C
:0C0B800D604700BF5F0300103103001040
:0600000BFFFFFFFFFFFFF5
:020000041000EA
:0400000AFFA1C0DEB4
:1010000D00B5324B212058609868022188439860C2
:1010100DD860186158612E4B0021996002215961E9
:1010200D0121F02299502B49196001219960352039
:1010300D00F044F80222904214D00621196600F007
:1010400D34F8196E01211966002018661A6600F031
:1010500D2CF8196E196E196E052000F02FF801216C
:1010600D0842F9D1002199601B491960002159608E
:1010700D1A491B48016001219960EB211966A021D5
:1010800D196600F012F800219960164914480160A4
:1010900D0121996001BC002800D000471248134976
:1010A00D086003C880F30888084703B5996A0420CF
:1010B00D0142FBD001200142F8D103BD02B51866F3
:1010C00D1866FFF7F2FF186E186E02BD00000240A1
:1010D00D000000180000070000035F00212200003F
:1010E00DF4000018222000A00001001008ED00E01F
:1010F00D00000000000000000000000074B24E7AF5
:1011000D00200420F7110010C3110010C5110010AC
:1011100DC1110010C1110010C1110010C11100103A
:1011200DC1110010C1110010C1110010C711001024
:1011300DC1110010C1110010C9110010CB11001008
:1011400DCD110010CD110010CD110010CD110010DA
:1011500DCD110010CD110010CD110010CD110010CA
:1011600DCD110010CD110010CD110010CD110010BA
:1011700DCD110010CD110010CD110010CD110010AA
:1011800DCD110010CD110010CD110010CD1100109A
:1011900DCD110010CD110010CD110010CD1100108A
:1011A00DCD110010CD110010CD110010CD1100107A
:1011B00DCD110010CD110010CD110010CD1100106A
:1011C00D00BE00BE00BE00BE00BE00BEEFF3058037
:1011D00D103800BEF2EB887158D6001080D6001082
:1011E00D3412001090A31AE700201F49086006C8AA
:1011F00D81F3088810471D48006800282FD10DA4E1
:1012000D0ECC002902D000F012F8F9E71849194A5E
:1012100D002000E001C19142FCD1174988471749D0
:1012200D88471749884700BEFDE701C901C29A42A8
:1012300DFBD3704780D60010C00000205419002049
:1012400D14EF0010000004200000042014EF001023
:1012500D0010042000100420000000007047094811
:1012600D03F0AAFF0047000008ED00E0000000D0E9
:1012700D5819002028AB0320613A0010AD1300105F
:1012800D893B00105756000006005250ABB3605317
:1012900D70D30010060052505422A29D80D300102E
:1012A00D05005250DE65F46814EF0010F8B5C04625
:1012B00D0448054B10B5834203D0044B002B00D0DE
:1012C00D984710BD5419002054190020000000004B
:1012D00D06480749091A8B10C90FC91810B54910CE
:1012E00D03D0044B002B00D0984710BD541900209B
:1012F00D541900200000000010B5074C2378002B76
:1013000D09D1FFF7D5FF054B002B02D0044800E0B3
:1013100D00BF0123237010BD981C002000000000A9
:1013200DD8CA0010054B10B5002B03D00449054851
:1013300D00E000BFFFF7CCFF10BDC046000000006D
:1013400D9C1C0020D8CA001010B5104A1049114835
:1013500D05F06EF8104804F0C9FF104804F0C6FF00
:1013600D0AF08EFE00280CD00AF096FE01000C4803
:1013700D05F05EF80AF094FE01000A4805F058F8F1
:1013800D10BD094804F0B2FFFAE7C046D8CA0010F4
:1013900DE0CA0010F0CA0010F8CA001010CB0010FF
:1013A00D2CCB001038CB00104CCB001010B505F035
:1013B00D4BF8144804F09AFF00F01AFC124C01008F
:1013C00D124805F035F8E268114B9A4213D01149D5
:1013D00D114805F02DF8FFF7B7FF00F0BDFD00F047
:1013E00D5BFC00F029FE00F0F9FB00F0D7F807F0E8
:1013F00D7BFD002010BD094804F078FF0023E36059
:1014000DE5E7C0467CCB001000800540A8CB00105E
:1014100DF24EFAE301000000E4CB0010C4CB001043
:1014200DF0B5CE46474680B5050083B001200C00CF
:1014300D0AF016FE264BC2021A40264BA0261A436E
:1014400D01218723F605DB004942F150224B87012C
:1014500DF9188023914680229B010B4312041A60D8
:1014600D1E4BA4081B689C46430098461E2342460B
:1014700D13402122134362465340DB05184ADB0D0E
:1014800D1360184B9C46F358984680234246DB0068
:1014900D13436246B446B3504B46802267443D60C9
:1014A00D01AD7D605204BC60FB600B681C001440F4
:1014B00D1342FAD18723DB00F5580A4BF4500AF09A
:1014C00DC7FDE84303B0C0BCB946B046F0BDC04649
:1014D00DFDFF1FFF19809F001000005034040050C5
:1014E00D3414005034040000F0B5CE46474680B5A4
:1014F00D050083B001200C000AF0B2FD214BC202A1
:1015000D1A40214BA0261A4301218723F605DB0043
:1015100D4942F1501D4B8701F918802391468022D5
:1015200D9B010B4312041A60194BA4081B689C46BF
:1015300D430098461E234246134001221343624640
:1015400D5340B446134ADB05DB0D13604B46802236
:1015500D67443D6001AD7D605204BC60FB600B686B
:1015600D1C0014401342FAD18723DB00F5580A4BB7
:1015700DF4500AF06DFD280003B0C0BCB946B0466A
:1015800DF0BDC046FDFF1FFF19809F0010000050E9
:1015900D34040050341400503404000030B50A48AF
:1015A00D85B004F0A3FE68460200084B32CB32C270
:1015B00D1B6810211360FFF733FF0100044804F08E
:1015C00D37FF05B030BDC04600CC00102CCC00104C
:1015D00D14CC001003000020042900D0704758429D
:1015E00D58416223404298436430F7E7F0B5C64650
:1015F00D00B514001D00C4B0002900D16FE0434EAA
:1016000D30682A00210000F05FFA00223A2130688C
:1016100D00F01CFA002205000A21306800F016FACD
:1016200D0400854265DC3A4B3A4F9846306800F02D
:1016300DFFF9A0424CD90134200004F097FC2200A0
:1016400D3168050000F088FA8822002152006846B2
:1016500D04F0E2FC43466A461B68694602933B88E8
:1016600D2800938100F08CF8002800D100BE684658
:1016700D00F00AF94246029B1268934201D042469D
:1016800D13606B463A889B899A4200D03B802800B4
:1016900D04F0AAFC00223A21306800F0D7F90022AC
:1016A00D05000A21306800F0D1F904008542BDDD46
:1016B00D306800F0BDF98542B8D001220A213068AA
:1016C00D00F0C4F90400306800F0B2F9A042B2D8BD
:1016D00D00200AF061F844B080BCB846F0BD0E4859
:1016E00D04F004FE0620FF3000F08AF9074E30604A
:1016F00D87E7306800F09CF9854200D193E701221D
:1017000D0A21306800F0A2F904008CE7E0A901205D
:1017100D1CAA03201EAB03203CCC001010B50448BE
:1017200D04F0E4FD034B0448196800F015F910BDF1
:1017300D5CCC001028A701200823002000B5084B21
:1017400D85B002930223802201931E330093054935
:1017500D00235200044807F057FA05B000BDC046FB
:1017600D94AA032070CC0010C1000020034B10B5CB
:1017700D1868002801D007F017FC10BD94AA0320AB
:1017800DF0B5D6464F464646C0B503788A46C2B038
:1017900D002B04D11EE043780130002B1AD03A2BD8
:1017A00DF9D1002399462023062498466B4600273D
:1017B00D451CFF34591E2E7830003038C0B2092830
:1017C00D11D943461E43F0B20300613B192B08D9D2
:1017D00D002F26D1002042B0E0BCBA46B146A84643
:1017E00DF0BD5738C0B26B781A00303AD2B2092A20
:1017F00D0BD803011343DBB2A74212D00137CB55EF
:1018000D4B44DBB299460235D5E742461343DEB26F
:1018100D3300613B192BDBD80301573E3343DBB259
:1018200DEAE74B46002BD5D16B461A7853461A7012
:1018300D6B46514658789B781B0203435BBA4B802D
:1018400D6B465046DD780E300D7101A904F0EAFBB0
:1018500D042D0CD001200A2DBDD16B46DB79DE2B7A
:1018600D10D16B4652469B885BBA9381B3E76B46AA
:1018700D6A461B7952791B029B1852461B040120A4
:1018800D9360A8E70220A6E770B503790400042B46
:1018900D04D00D2B0ED0012B08D070BD114804F0D3
:1018A00D25FDA168104804F0C3FDF6E70F4804F0CC
:1018B00D1DFDF2E782890E4B9A42EED10D4D2100AE
:1018C00D2E680D4B300010302278C0180E3104F008
:1018D00DA9FBC02120784902801903F0C7FC2960BB
:1018E00DDBE7C04688CC001094CC00107CCC0010F7
:1018F00DA1FF000028A701200823002070B504785F
:1019000D002C17D0002120220D26114B00255D5FE4
:1019100D104B00290FD1A54214D099690A42FCD170
:1019200D1C60017801300D394C4261410478C9B217
:1019300D002CEED170BD99690A42F1D099690A4225
:1019400DF9D1EDE799690A42FCD11E60E5E7C04681
:1019500D04AA012000400340F8B5204B204E4360FF
:1019600D81600400066010300D00FFF7BDFDE060E2
:1019700D1C48FFF7C3FFEFF3108772B6FFF7DEFECB
:1019800D07F0BAF81848FFF7B9FF8020174B80020F
:1019900DE918090B09030BF057F82A0080202100E4
:1019A00D103280020BF040F8FFF7E0FE07F04CFF1D
:1019B00D0F48FFF7A3FF87F31088002009F0ECFE16
:1019C00D0C48FFF79BFF0C4B0C4ADE601A61FA22A4
:1019D00D00210020920001F0E3FFFEE7A952AEC501
:1019E00DFB5ECD8EACCC0010DCCC00100F100000D7
:1019F00DFCCC00101CCD0010008005400000021032
:101A000D70B50500102004F0B1FA041E08D0681C52
:101A100DE06004F0ABFA2060002803D0A0606060A5
:101A200D200070BD200004F0DFFA0024F8E7C04666
:101A300DC36842688068013B904203D8101A181A97
:101A400D181A7047801A0138FAE7C046F8B54E46A5
:101A500D57464546DE460368E0B514009A46C6680B
:101A600D436882688946751E934225D39B1AEB1AEB
:101A700DEB1A9B465346D31A984614E04346310061
:101A800D181903F0F3FB53465F185B46711A1D1BC3
:101A900D8D4200D90D002A00494638000AF0BCFFDE
:101AA00D00280CD164195C45E8D35846F0BCBB4600
:101AB00DB246A946A046F8BDD31A013BD8E7C51BCF
:101AC00DAB46A344F1E7C046F8B5036857464E460A
:101AD00D45469946DE4690464468C2688368E0B53F
:101AE00D8A4607009144A34232D8013AE31AD31A29
:101AF00D9B464346002B1FD000264B4642461B1BE0
:101B000D951B9D4200D91D005346200099192A00AE
:101B100D04F088FA7B6876195C197C604C4512D00C
:101B200DB045EAD1D84507D93D68601C401BF9681E
:101B300D03F09CFB6D18BD602000F0BCBB46B246A7
:101B400DA946A046F8BD3C687C60B045D5D1E9E713
:101B500D1B1B013B9B46CCE7F8B5CE46474681465D
:101B600D0E00C8684B68896880B51700421E8B420D
:101B700D27D35B1AD31AD31A9F4227D833689846B6
:101B800D8044002F13D0002543467C1B5B1A9C42DA
:101B900D00D91C004B462200581904F043FAB368D3
:101BA00D2D191919B160414506D0AF42ECD108008D
:101BB00DC0BCB946B046F8BD3168B160AF42E3D1A3
:101BC00DF5E7CB1A013BD31A9F42D7D90021EEE797
:101BD00D10B50121012004F0E7F910BD10B5012069
:101BE00D05F01AFB014B186010BDC04634AA032046
:101BF00D10B5162000F064FAD02480232406DB03F0
:101C000DA36200220121162000F042FA152000F0F7
:101C100D57FA80239B03A36200220121152000F0B7
:101C200D37FA142000F04CFA80235B03A3620022E4
:101C300D0121142000F02CFA0421636862686068A9
:101C400D120D800C084002390A405B021043DB0F75
:101C500D184310BD002010B508F0BCFB0120002179
:101C600D404208F039FC002009F004FAF6E7C046BE
:101C700D00B5002091B009F099F9002801D111B0FB
:101C800D00BD002009F0ACF90028F8D040226946CB
:101C900D002009F0B5F9F2E730B51F230025012426
:101CA00DC02285B000930A49002302950194520089
:101CB00D084806F0A9FF1E23802200930649002341
:101CC00D029501945200054806F09EFF05B030BD07
:101CD00D48CD0010551C001050CD0010711C001087
:101CE00DF0B5C646140000B5E37892781B020500E6
:101CF00D94B01343062B62D8344A9B00D3589F46A9
:101D000D334B03AE3380FFF773FFB0703200210009
:101D100D2800337809F050F814B080BCB846F0BDF7
:101D200D032321002B4A09F047F8F5E70AF0B4F92F
:101D300D80460AF0B5F903AE4322070000213000BA
:101D400D04F06AF90E20244B4146684433800AF0B2
:101D500DD9FC3620390068440AF0D4FC4323320004
:101D600D2100280009F028F8D6E701A804F07CFC32
:101D700D0E201A4B03AE01A908226844338004F0EB
:101D800D51F90A2332002100280009F015F8C3E7A4
:101D900DFFF71EFF032303AE337001337370037817
:101DA00DB37004F021F9B1E70D4B03AA1968039143
:101DB00D9B8821009380062308F0FEFFACE70223E9
:101DC00D21002800074A08F0F7FFA5E754CD0010C1
:101DD00D030600007CCD0010430200000A03000042
:101DE00D70CD001078CD0010F0B505001400012065
:101DF00D83B0012914D113785B069B0F012B11D0F1
:101E000D0020022B0CD15378022B14D0032B28D099
:101E100D012B05D121002800184A363308F0CCFFDC
:101E200D03B0F0BD53780020222BF9D1110028000A
:101E300D08F0AAFFF4E7637912791B021343072B0D
:101E400DEED16B460E4E9F1D31000222380004F07C
:101E500DE9F83200210028003B88083A08F0ACFF71
:101E600DDEE7637912791B021343032BD8D12200CD
:101E700D01212800FFF734FFD2E7C04680CD0010C6
:101E800D00CF001000487047E4CE001000487047A6
:101E900D70CE00100048704734CE001070B5002889
:101EA00D26D0052831D81A4B8000C65830000AF0CC
:101EB00D31FCC0B2011C1F2815D8C9B2002821D091
:101EC00D0023144DAA1CF05C0133DCB210800232E9
:101ED00DA142F8D8C0230131C9B249009B00194372
:101EE00D2800298070BD1F21C9B20028E8D109E062
:101EF00D084D074B02221968A81C04F093F8C12164
:101F000D8900EDE70449034DEAE70020EAE7C04602
:101F100DE80F00204C1E00200203000010B50A4CF3
:101F200D82B001222068524201A905F045FA01282C
:101F300DF7D1019B002019001A7909F083FC0020CC
:101F400D09F046FCEDE7C046D0AA0320014B186806
:101F500D7047C046D0AA032000B5002204210A20F4
:101F600D83B005F03DF80A4B186000280CD0002313
:101F700D8022019320330093064900230648520026
:101F800D07F0F0FA03B000BD044804F051FAF9E788
:101F900DD0AA03204CD000101D1F001054D00010EB
:101FA00D70B584B004F03CFB0222FA201D4B4000BA
:101FB00D1A6007F061FA1C4C1C4E02AD012130680D
:101FC00D494205F087FA23685B045B0F042B08D0A8
:101FD00D80232268DB015340E022D2011340144AD2
:101FE00D136004220F4B1A60FC3223681342FCD09D
:101FF00D104A63682A600822EB80AA800195FFF7DA
:1020000DA5FF01A90023002205F020F800230022DE
:1020100D0021306805F01AF8FA20400007F02CFA7C
:1020200DCCE7C04600E0044000C0044034AA0320C1
:1020300D00D004403B4324DD0023802200B583B053
:1020400D019320330093044900235200034807F005
:1020500D89FA03B000BDC04668D00010A11F001062
:1020600D094A830094464022634410B51C68C000A1
:1020700D6240C02414408022520113431C60034B64
:1020800D9C466044416010BD04C0014000400140C9
:1020900D0A4B80009C4604236044002901D00C2388
:1020A00D0821002A00D10B00026853400C221A406F
:1020B00D80235B01184302607047C04604C0014095
:1020C00D0123D0228340120693629361094A830053
:1020D00D9446402263441968C0004A40C021114013
:1020E00D8022520113431960034B9C460523604423
:1020F00D4360704704C0014000400140024B186826
:1021000D8007C00F7047C04600C0064070B5EFF3A2
:1021100D108C72B60D4D2B68002BFCD0BFF35F8F6A
:1021200D0724CB08C618C05C01230C40A3401C003B
:1021300D0440034207D103433370BFF35F8F2C601C
:1021400D8CF3108870BD100001F022FD2C0100D021
:1021500DF8B54746CE46884680B5EFF3108C72B67B
:1021600D214D2C68002CFCD0BFF35F8F9A422CD8E8
:1021700DD4080727055D061901241740BC402C42E1
:1021800D1FD007210127894609E0D408055D0619EE
:1021900D4C4639001440A1400C00294211D00132A7
:1021A00D9342F2D201204042BFF35F8F00220E4BCB
:1021B00D1A608CF3108800280FDBC0BCB946B046FE
:1021C00DF8BD2C4310003470EEE7BFF35F8F002392
:1021D00D2B608CF31088012040424346002BECD03D
:1021E00D089801F0D5FCC0462C0100D030B5EFF3B6
:1021F00D108C72B60A4C2368002BFCD0BFF35F8F96
:1022000D07230122CD0819408A40435D934343556E
:1022100DBFF35F8F002323608CF3108830BDC04661
:1022200D2C0100D00021044B044ABFF35F8F02C381
:1022300D9342FAD17047C046000100D0800100D012
:1022400D044A1078431CDBB2172B00D910231370EE
:1022500D7047C0460010002010B50100024A034827
:1022600DFFF754FF10BDC04670D000109022002023
:1022700D00B5054B83B00100009318221F230348BE
:1022800DFFF766FF03B000BD90D000109022002034
:1022900D01238340002904D0034A1360034A1360CD
:1022A00D7047034A1360FBE780E200E000E100E0C5
:1022B00D80E100E001228240034B1B6813405A1E4F
:1022C00D9341D8B27047C04600E100E0024B103098
:1022D00D9B688000C058704700ED00E070B50D00A0
:1022E00DEFF3108672B60F4A1368002BFCD0BFF3C4
:1022F00D5F8F0D4B10309B6884001B590B4A934226
:1023000D03D09D4201D001F061FC074B9B681D512C
:1023100DBFF35F8FBFF35F8F0022024B1A6086F30E
:1023200D108870BD240100D000ED00E0CD1100102B
:1023300DF0B557464E46DE464546E0B585B006003B
:1023400D02911700EFF3108B72B6674A1368002BDA
:1023500DFCD0BFF35F8F0025644B5D579A46002D6F
:1023600D00DAA4E06B00624C03935B199B00984666
:1023700DA146C1444B4652469B79103613705D4BB6
:1023800DB2009B68019299580B1B2F2B34D95A4BD5
:1023900D994200D0A4E0039B584A9C46584B654493
:1023A00DAD006353434602336519E418554B0121C3
:1023B00D043B1B1B1B055B0D13436B80524BEF71D5
:1023C00DAB80FF23AB71029BAB604B460B431900F7
:1023D00D484B019A9B689950BFF35F8FBFF35F8F96
:1023E00D0022414B1A608BF3108805B0F0BCBB4640
:1023F00DB246A946A046F0BD01200A008243D3791A
:1024000DBB422FD845464E46130040491B1B5B412E
:1024100D5943090D3A4B63533A4B02356519043B49
:1024200D5B1B1B05354D5B0D2B4373800426B4469A
:1024300DE0444444131F1B1B4C46A17102991B051C
:1024400DA16049465B0D2B43A380314BE7710143DE
:1024500D1360BDE75800C01880002018C679BE4231
:1024600D2BD902000623D356002BF3DA101D82461A
:1024700D2848804604267642B446E14450464E46EE
:1024800D361A3005400D824656461C489571064356
:1024900D9680039A944665441D4AAD0064192260E6
:1024A00D4246A371029BA280E771A36090E701F001
:1024B00D8DFB002553465D5754E7101D82469088CD
:1024C00D4005001584464046D44466460430201825
:1024D00D301AE0260005400D360230438046C9E72C
:1024E00D01F074FB57E7C046240100D024AB032054
:1024F00D0410002000ED00E0CD11001000E0FFFF02
:1025000D00A1FFFF3410002001BDFFFFAAAA0000AB
:1025100D0148804701BD0000F0B5DE4657464E46E6
:1025200D4546E0B50C0083B0EFF3108972B6584AFA
:1025300D1368002BFCD0BFF35F8F564B9A680300D6
:1025400D10339F00D559544A9046954232D0A5423A
:1025500D43D0524EAA1B2F2A2CD8012282409246DC
:1025600D51464F4A12681140019151464D4A116032
:1025700DBFF35F8FEFF305829346002A33D101231A
:1025800D2A009A4393689C4208D177E04B005B1870
:1025900D9B00F3189968A1422AD01A0006215156C2
:1025A00D0029F3DA019B002B19D052463E4B1A60DD
:1025B00D3B4B1A60374B9B68DD51BFF35F8FBFF309
:1025C00D5F8F0022324B1A6089F3108803B0F0BC84
:1025D00DBB46B246A946A046F0BD1500EAE75246F5
:1025E00D304B1A60E6E79342C9D001F0EFFAC6E727
:1025F00D06215956002921DB4A0050188000341855
:1026000D8046A0689860E079D871062020569871B0
:1026100D002824DBA488F01A64052415444400190D
:1026200DE0240005400D24022043988052181F4BD2
:1026300D9200B6181A781970B271B3E7594600298D
:1026400D0FD1FF3191711A49918018490A789A7109
:1026500D184A9B1B5B415A43120D0A70A2E716489C
:1026600DE3E7164A1649D21A083A5002400D0143C3
:1026700D9980144952080A43DA8093E7062151568E
:1026800D13000029B8DA5A46002AEAD14546DCE79C
:1026900D240100D000ED00E0CD1100100410002049
:1026A00D00E100E080E100E080E200E024AB0320E7
:1026B00D01BDFFFFAAAA000001BD00003E100020D1
:1026C00D00F0FFFF00F8FFFF032310B50400074AD9
:1026D00D18409446C0009C43FC33834064442268F8
:1026E00D81409A4313000B43236010BD00E400E0CA
:1026F00D70B5EFF3058101240443EFF3108C72B62E
:1027000D214A1368002BFCD0BFF35F8F1F4B0500D0
:1027100D1F4AED1A6D416A43120D1E4D8900AE68B8
:1027200D52B27658A6421CD00621595691421CD061
:1027300D12215956914222D01E215956914220D034
:1027400D2A2159560324914210D0134B19781A702F
:1027500D8171BFF35F8F00220B4B1A608CF31088D1
:1027600D70BDAB680D4C5C50EFE70024610009199A
:1027700D89005B18FF21997109499980E5E70124CA
:1027800DF4E70224F2E7C046240100D00410002033
:1027900DAAAA000000ED00E024AB0320CD1100102B
:1027A00D01BDFFFF054B064A1360064A13605360D7
:1027B00D9360D36013615361936170478080808013
:1027C00D00E400E004E400E0024B9C466144890013
:1027D00D016070474000003410B50400FFF730FD74
:1027E00D01002000FFF7F0FF01235B426360BFF3A0
:1027F00D5F8F10BD10B50400FFF722FD0100200012
:1028000DFFF7E2FF01235B42636000232372BFF3F6
:1028100D5F8F10BD10B504000120FFF729FD044B9B
:1028200D9C46604480002060BFF35F8F10BDC046A2
:1028300D4000003483680B4810B5844661446244FF
:1028400D090112019A18591854684B6801209C42CD
:1028500D01D802D00020C0B210BD12680B689A4298
:1028600DF9D8F7E7FFFFFF0F074810B50268EFF340
:1028700D108172B61368002BFCD0BFF35F8F04F08C
:1028800DBFF80020002110BDF0A90120F8B5574672
:1028900D4E464546DE46E0B599460CAB1C780DAB71
:1028A00D1B78060090469A460768002C11D1BC7B18
:1028B00D002C42D065003B682D19033D59194B780A
:1028C00DBB73002B00D1FB7300238B704B700B700F
:1028D00D04E065003B682D19033D5919B2682A4B78
:1028E00D94464246E3181B0163441A604A465A60F7
:1028F00D0A9A9A600B9ADA6000238B704B700B70FA
:1029000D7B7B9B46002B2BD022005946B8687B68F9
:1029100D98473A68002816D05B4658465B005B44E2
:1029200D5519033BA870D118D35C002B00D06B70E8
:1029300D5B460C707B73A34513D0F0BCBB46B2460F
:1029400DA946A046F8BD5B465B005B44033BD3182C
:1029500D9C705119525D002A00D05A705B460B7065
:1029600D7C7342464B46307D00F02EFB051E06D093
:1029700D5346002B03D12100306800F049FD0E9B1A
:1029800D002BDAD01D70D8E7FFFFFF0FF0B5DE4644
:1029900D57464E4645460023E0B58BB00893674B2E
:1029A00D8200D45800239B46099000F093FA626888
:1029B00D06000F00EFF3108572B61368002BFCD0E4
:1029C00DBFF35F8F23689C465B7B9946002B00D13C
:1029D00D69E0A2685A4B90464B441B01984443460C
:1029E00D1A685B6810001900801BB941002900DCD2
:1029F00D63E0099800F0E8FA0023002298460023CE
:102A000D0692079300239A466368BFF35F8F5A4679
:102A100D1A6085F310885346002B08D10028C4D1C5
:102A200D0BB0F0BCBB46B246A946A046F0BD089B14
:102A300D414618024B461843D047626806000F0006
:102A400DEFF3108572B61368002BFCD0BFF35F8FC8
:102A500D002F50DB33003B4302D02369002B61D1A3
:102A600D2368D97B002907D04A00521819688C4673
:102A700D49466244033A51709A7B002A01D14A4675
:102A800D9A734A46DA734B46E168013BCA5C0132E0
:102A900DCA545B4623616368BFF35F8F5A461A6061
:102AA00D85F3108881E700230022984600230692C3
:102AB00D0793002300209A46A6E7002902D100289B
:102AC00D00D096E70021604600F020FC43461A68CE
:102AD00D5B680692079343469B689A464346DB68BC
:102AE00D9846E3684B44013B1B7808931B02034354
:102AF00D2361002088E72369002BB1D0069A079B3C
:102B000D921BBB41002B15DB59460491012103910A
:102B100D4946029141460191514620000091FFF72F
:102B200DB5FEB6E700F0D6F932003B0012184B4166
:102B300D002BE9DA0122034B5242E5E72CA70120D5
:102B400DFFFFFF0FFFFFFF7F10B5144C6368002BD5
:102B500D04D00A211248FFF737FE10BD2300114A99
:102B600D1021206800F0ECFA032000F0A7F90320F3
:102B700D00F094FA03200C4900F0E0F9FFF760FB38
:102B800D0A4B9C4603232375D0231B061B68604408
:102B900D6375074B80006060DC60DAE74C10002045
:102BA00DF0A90120352800108D29001040000034B7
:102BB00D2CA70120F0B54E464546DE465746E0B5FA
:102BC00D85B0019310AB1B78060003930023994643
:102BD00D984600927268EFF3108B72B61368002B53
:102BE00DFCD0BFF35F8F3568AC7B002C3DD0670008
:102BF00D2B683F19033FDB195A78AA73002A00D1BD
:102C000DEA73B168474A8C4600980199A2181201DF
:102C100D6244106051600E9991600F99D1604246E7
:102C200D9A705A701A706B7B9A46002B67D02200EF
:102C300D1900A8686B6898472A68002852D0534637
:102C400D50465B005344D719033BB870D118D35C81
:102C500D002B00D07B7053460C706B7354454FD0D6
:102C600DF3681B19013B187800E000207368BFF36F
:102C700D5F8F42461A608BF31088002C4FD04B4665
:102C800D002B08D10002204305B0F0BCBB46B24674
:102C900DA946A046F0BD039B002B3ED00E9B002005
:102CA00D0F999847030004000D000B4335D0002900
:102CB00D0ADA009A019B121BAB4100920193002B83
:102CC00D0ADB039B994685E700F004F924184D4172
:102CD00D00940195002DF4DA0123134C5B4200930F
:102CE00D0194EEE753465B005344033BD3189C70AD
:102CF00DD119D25D002A00D05A7053460B706C73F7
:102D000D307D009A019B00F05FF981460028A7D025
:102D100D2100306800F07CFBA2E70020B4E7012021
:102D200D4042B1E7FFFFFF0FFFFFFF7FF0B5EFF36D
:102D300D0583CE46474680B505000C0085B0002BB7
:102D400D12D02C4A0020536A9C4203D8926A01305B
:102D500DAA4204D305B0C0BCB946B046F0BDE01AD6
:102D600D421E9041C0B2F5E7234E02930193234BCF
:102D700D0200009330000B00FFF71CFF031EE0DD87
:102D800D20BF7168EFF3108772B60A68002AFCD075
:102D900DBFF35F8FDAB294463068427B62451DD037
:102DA00DFF221A40510089460168914488464946E0
:102DB00D414403398978002913D0F1681B0A8846EC
:102DC00D4244013A1278DBB29A420FD07368BFF3D6
:102DD00D5F8F00221A6087F31088B2E7FF221A4036
:102DE00DEBE732699342F1D13161EFE7614600F0D3
:102DF00D0FFBEBE7004005404C1000206928001048
:102E000DF0B5EFF30582D6464F4646461000C0B5E5
:102E100D1038EFF3108872B6214C2368002BFCD0CC
:102E200DBFF35F8F0123190081401E4D1F006963A1
:102E300DAA461D4D29601D4D2E78AC463500C54066
:102E400D2F402B4209D1BFF35F8F276088F3108885
:102E500DE0BCBA46B146A846F0BD5346144D5F6A74
:102E600D83005D59AF420ED3124A8E439B58624682
:102E700D1670BFF35F8F0022226088F31088002B3D
:102E800DE6D09847E4E70C4B92009C4662441368E9
:102E900D1360BFF35F8F0023236088F31088D7E79B
:102EA00D280100D0004005403C70054025AB0320B3
:102EB00DF4A9012078210020D03F054010B5010074
:102EC00D024A0348FFF722F910BDC046ACD00010EE
:102ED00D23AB0320034B596A0A00986A596A8A4248
:102EE00DFAD170470040054070B504000D00124A3C
:102EF00D536A1900966A536A8B42FAD13000190051
:102F000D24184D41AB4211D80ED02B000A494A6A04
:102F100D9A42FCD307D1084A02E0516A994202D184
:102F200D916AA142F9D370BDA642EED901230124C5
:102F300D6442E5175B42E9E70040054070B50400C7
:102F400D0D00EFF3108672B61A4A1368002BFCD0F1
:102F500DBFF35F8F002D1BD02000FFF7B7F9164987
:102F600D81420AD02000FFF7B9F901212000FFF7B7
:102F700D8FF90123A340114A1360114BA400E550B2
:102F800DBFF35F8F00220B4B1A6086F3108870BD64
:102F900D0B4BA200D5500122A2400A4920000B780C
:102FA00D93430B700449FFF7B7FA00212000FFF798
:102FB00D6FF9E5E7280100D0012E001038600540BB
:102FC00D7821002025AB0320F0B54F46D646464666
:102FD00DC0B507002C4C616A0D00A66A616AA94252
:102FE00DFAD18B4208D805D00120E0BCBA46B146D3
:102FF00DA846F0BDB242F7D9EFF3108A72B6234856
:1030000D01680029FCD0BFF35F8F0125BD40204929
:1030100D1D4C8846097889462943C9B28C464146DC
:1030200D60460870391D1B48890065630A51B90057
:1030300D0B50216A0020294219D0616A0800A66A46
:1030400D616A8142FAD18B4219D801D1B24216D8A8
:1030500DCC4516D00C4B1F201D625D63012307402C
:1030600DBB400D4A1E38136043464A461A70BFF3E3
:1030700D5F8F0022054B1A608AF31088B5E7002098
:1030800DF5E70120F3E7C04600400540280100D0D8
:1030900D25AB0320F4A9012080E200E0EFF3108CB2
:1030A00D72B60A490B68002BFCD0BFF35F8F01236A
:1030B00D8340074A0748136202789A430270BFF3B0
:1030C00D5F8F00230B608CF310887047280100D0B0
:1030D00D0040054025AB032070B505001400160017
:1030E00D002915D00C00002A12D080686B68984713
:1030F00D296800280ED073009B196200033B12193A
:1031000DCB18033A9C7088188A5C002A15D106707A
:1031100D200070BD63001B197200033B9219CB1880
:1031200D033A9E7088188A5C002A02D1047034001C
:1031300DEEE75A7004703400EAE75A700670E7E75C
:1031400D30B583600023CCB2437301330473426006
:1031500D8373C4730D000068012C06D9421C013322
:1031600DDBB2137003329C42F9D1FF2129404B0091
:1031700D5918002340180338437030BDF8B5CE46BA
:1031800D474606000C0080B5002907D04D000368A6
:1031900D6D18033D5A195778002F04D12000C0BC7B
:1031A00DB946B046F8BD7900C9190339884643447C
:1031B00D5978894600215970517073683A00210081
:1031C00D806898473368002814D042469A18947046
:1031D00D59195B5D002B00D053700F7027004946C5
:1031E00D3000FFF7CBFF390002003000FFF774FF0E
:1031F00D0400D3E7424641465D19AF709A185B5CF7
:1032000D002B00D06B701470E9E7C046F0B557463F
:1032100D4546DE464E46E0B50D006B0001685B1974
:1032200DDF1E0400C85D83B00192CA19002850D07A
:1032300D43001B18033BCB185E78B446002E1AD101
:1032400D019E002E42D0E67B002E04D073009B1908
:1032500DCB18033B5D70A37B002B00D1A573E573E9
:1032600D00282FD10023537003B0F0BCBB46B246EB
:1032700DA946A046F0BD72006244033A89184A7807
:1032800D904600224A7091465A700100320020008B
:1032900DFFF722FF43468246002B07D05B002168D3
:1032A00D4344033BCB185A78002A16D14246514667
:1032B00D2000FFF711FF2168019BCA19002BC2D115
:1032C00D0028CFD043001B18033BCB180021997069
:1032D00DC8E7019B002BB6D1C4E750008018033816
:1032E00D0918487883464846487058704146200072
:1032F00DFFF7F2FE594680462000FFF73FFF41469B
:1033000D02002000FFF7E8FE8046CFE7F0B55746F4
:1033100D4546DE464E46E0B583B00191457B04003F
:1033200D6B0000685B19DF1EC15DC219002952D008
:1033300D4B005B18033BC3185E78B446002E1CD1BE
:1033400D019E002E44D0E67B002E04D073009B1905
:1033500DC318033B5D70A37B002B00D1A573E573F0
:1033600D002931D1002328005370617303B0F0BCE4
:1033700DBB46B246A946A046F0BD72006244033A70
:1033800D8018427890460022427091465A70200073
:1033900D3200FFF7A1FE43468246002B07D05B00AB
:1033A00D21684344033BCB185A78002A17D1424673
:1033B00D51462000FFF790FE019B01002068C219C5
:1033C00D002BC0D10029CDD04B005B18033BC31897
:1033D00D00209870C6E7019B002BB4D1C2E75000C6
:1033E00D8018033809184878834648464870587045
:1033F00D41462000FFF770FE594680462000FFF73A
:1034000DBDFE414602002000FFF766FE8046CEE776
:1034100D70B5040000292CD0437B8B422ED005685B
:1034200D48004018033828188278002A21D053000C
:1034300D9B18033BEA5CEE188A4202D11BE0002A7E
:1034400D08D053009B18033BEB185A788A42F6D1EB
:1034500D42785A7000230122837043702000FFF7D9
:1034600DD5FE617B02002000FFF736FE6073012060
:1034700D00E0002070BD43783370EBE701221900A6
:1034800DFFF7C4FE60730120F4E7C046F8B5CE46E1
:1034900D4746040080B506200E0000F023FA051EF5
:1034A00D51D0524B5249E21853425A418023DB030B
:1034B00D9C4692054F4B62441A604F4B1A601000A8
:1034C00D8B689843FBD1494B8021E3185A425341F5
:1034D00D4A4A5B0049009952062000F003FA310078
:1034E00DC00001F0C3FEC30932D140220121904634
:1034F00D6162A362256BEB0736D427008026E36A51
:1035000D00232C3776013E4333600620256300F0FF
:1035100DE9F94146800001F0A9FE236B05009846AC
:1035200DDB073BD46022E36A5A406E2313403360BD
:1035300D43462363802310229B013B431A60304B8B
:1035400D23630323A3642800C0BCB946B046F8BD6D
:1035500D2C4A93423FD900232B492C4A6162A36226
:1035600D256B9046EB07C8D52200C02330329B0156
:1035700D1343234A06201A60666AA26AB601B6187A
:1035800D00F0B0F9224901F071FEB60201003000E1
:1035900D01F06CFE0021FFF7A7FCAEE72200C0236F
:1035A00D30329B011343164A06201A60636AA26AE1
:1035B00D9B019946914400F095F94B4614499B02A5
:1035C00D994601F053FE0100484601F04FFE0021DF
:1035D00DFFF78AFCA6E77F2299018846104001304B
:1035E00D400819008044030082E7C0460080FCBFFC
:1035F00D00C0004000E0004000F0004004AA01209F
:1036000D01030000FEFF0000FFFF0000C0FF3F00B0
:1036100D4E0E000030B50C2083B000F0B9F9FEF766
:1036200D6DFD00280ED0994B994A1A605A609A6028
:1036300DDA601A615A619A61DA611A62954A5A62C0
:1036400D03B030BD944CA06700F0F6F90122934B06
:1036500D1A60636C012BFCD10322914B1A608E4AC8
:1036600D936B012BFCD1013301218E4A8E480093BF
:1036700D043300F03DF905238C4A009301218C4859
:1036800D00F036F98B4B5A68FF2A02D8802252007F
:1036900D5A6080227D4C824B21691201854D1A6042
:1036A00D002907D0606901F0E1FD431C5800C018E6
:1036B00D0338FDD2E0217F4B02201A681140802291
:1036C00D52012A43116019684840032101401160DD
:1036D00D04219A681142FCD08022802192012A4354
:1036E00D09011160802252005A60734B2361734BA4
:1036F00D5968FF2900D85A600321684A6F4B116041
:1037000D02399A681142FCD0E0201A6810408022DC
:1037100D52011A43106018684840032101400220ED
:1037200D116066498A681042FCD0802292011343D1
:1037300D802212011A608022614B52004A6063613F
:1037400D604B5968FF2900D85A6080225E4BE169B1
:1037500D12015C4D1A60002907D0606901F086FDE9
:1037600D431C5800C0180338FDD2E02255490B68A0
:1037700D1A4080235B012B431A60802380229B011A
:1037800D2B4312011A608022414B52004A60E361C3
:1037900D4E4B5968FF2900D85A6080224C4B216A44
:1037A00D12014A4D1A60002907D0606901F05EFDD3
:1037B00D431C5800C0180338FDD2E02243490B6862
:1037C00D1A4080235B012B431A60802380229B01CA
:1037D00D2B4312011A60802380225B004B602C4B1F
:1037E00DD20223623B4B5968914200D25A6080222B
:1037F00D394B616A1201374D1A60002907D0606993
:1038000D01F034FD431C5800C0180338FDD2E022EE
:1038100D30490B681A4080235B012B431A608023CB
:1038200D80229B012B4312011A608023DB024B6027
:1038300D184B6362294B5A68FF2A02D88022520026
:1038400D5A608022264BA1691201244D1A6000296D
:1038500D07D0606901F00AFD431C5800C0180338F9
:1038600DFDD2E0221D490B681A4080235B012B43DA
:1038700D1A60802380229B012B4312011A60802342
:1038800D5B004B600E4BA361DAE6C046942200202C
:1038900D006CDC021BB70000008000403CB0004013
:1038A00D30B00040002F685900800240008C8647E0
:1038B00D00C0024030800040001BB7003C8000403B
:1038C00D405973075480004054B000406080004060
:1038D00D60B000406C8000406CB0004048800040FB
:1038E00D48B00040014B8000C05870479422002022
:1038F00DF8B5040021481D0017000E0001F0B6FCBC
:1039000D0100380001F0B2FC069B29041B0319438A
:1039100D2368002B20DB1A4B1A4DE21853425A41F3
:1039200D80235B019C461203174B62441A60174BB0
:1039300D1A601700AB689F43FBD1C022231D920173
:1039400D1A4321232660A06013602368002BFCDA44
:1039500D0823E1601360F8BD3F2322681340B34292
:1039600DD9D1A3681B051B0D8342D4D1EE22E36888
:1039700DD20213408B42CED1EDE7C046001BB700FB
:1039800D0040FDBF00C0004000E0004000F00040DE
:1039900D8023024A9B000343D36270470080054099
:1039A00D10B5140080221B4BD2051A6000281AD0C6
:1039B00D0123194A1843194BDA61194A42401A6218
:1039C00D596298628022134BD2051A601549164A26
:1039D00D1160E022D2041A60002C07D18022134B13
:1039E00D12061A6010BD0D4BD861EBE763011B1B6E
:1039F00D9A008023121912015B049A4200D30C4ADB
:103A000D0C4B1A60054B5A608022084BD2051A6088
:103A100DE8E7C04600B00540D3C007B000800540C0
:103A200D2D3FF84FFCFF01000820014000A005408C
:103A300DFFFFFF0020A70120AA23064A1B011360E8
:103A400D2F230549D360054B19605368002BFCDA11
:103A500D7047C0460040024000B0FA0000600240CE
:103A600D2C4B2D4A70B51A602C4A2D4B2D491A60DE
:103A700D14008B689C43FBD12B4D2C4EB54208D2C4
:103A800D013E761BB60808CD984723000134B3429A
:103A900DF9D1FFF7BFFD264A214B1A60214A9368E1
:103AA00DDB43DB01DD09002BF9D14022214B224CF8
:103AB00D224E9A675A671A67DA66B44208D22368AB
:103AC00D2000002B20D00C34FEF794FEB442F6D328
:103AD00D1B4E1C4CC022A168300002F0A3FAA66058
:103AE00DFEF7A0FBFEF75EFEFFF72EF8164C174E05
:103AF00DB44208D2013E361BB60808CC98472B00BD
:103B000D01359E42F9D170BD0834FEF765FEB44211
:103B100DD5D3DDE700E00040BFCDFBFEFE7F3C00CE
:103B200D00F0004000C00040381900204819002066
:103B300DFFFFFF0100F00140281900203819002077
:103B400D0000002000ED00E048190020541900206D
:103B500D00BEFDE7094A03001068002805D008499A
:103B600DC3188B4207D81360704706480449C31821
:103B700D10608B42F7D901204042F5E718A30120D0
:103B800D0000042028AB032010B5FFF7E1FFC0466D
:103B900D0FB400B5084883B002F0A8FB049B002BBE
:103BA00D07D005A91800019101F0E0FA034802F0D1
:103BB00D9DFB0120FFF7CCFFD0D00010C0CB001033
:103BC00D10B50148FFF7E4FFE0D0001010B5014833
:103BD00DFFF7DEFFF0D000107047C046F8B557462E
:103BE00D4E464546DE46E0B599460A9B07009A4685
:103BF00D0D9B8846934615000B9E9B0710D10C9B81
:103C000D9E420DD29D1B14000E005D4422004B46BA
:103C100D013431002020B847A542F7D1B0460B9EA4
:103C200D002E27D0444675195346AA1B013E985DB8
:103C300D21004B46B847002EF6D123002C009846A4
:103C400D0D9B9B070FD55B46E51A0C9BAB420AD922
:103C500D4646984622004B46310020200135B84794
:103C600D0134A845F6D82000F0BCBB46B246A946A3
:103C700DA046F8BD2C00E3E7F0B54F464646D646C4
:103C800DC0B584B098460EAB1B78129F99469446EA
:103C900D0D9C109B119EBA0725D4002E4BD19C4232
:103CA00D00D3BFE001223A4092461F2C00D9B8E064
:103CB00D0C9A551E302201E0202C03D001342A55D8
:103CC00DA342F9D85246002A0DD0A6420BD9202C7A
:103CD00D44D00C9A551E302201E0202C3ED00134E8
:103CE00D2A55B442F9D1FA064DD57A053FD4002CA8
:103CF00D39D10F9B102B00D179E00F9B022B00D1F6
:103D000D8AE030230C9A012413704B46002B3FD0D0
:103D100D2D230C9A135501340C9B62460093039787
:103D200D434602960194FFF759FF04B0E0BCBA4632
:103D300DB146A846F0BD012215003D40AA463A42C3
:103D400D2FD04A46002A02D10C323A4200D0013E11
:103D500D9C42BAD21F2CABD9202E27D92024FA068B
:103D600DDAD57A0503D4A3422DD0A6422BD00F9BD2
:103D700D102B32D0022B20D0202CCDD030220C9BFA
:103D800D1B191A700134202CC6D04B46002BBFD105
:103D900D7B070DD43B07BFD520230C9A1355013457
:103DA00DBAE79C429FD21F2C00D881E720249AE7C6
:103DB00D2B230C9A13550134AEE7202CACD00C9B61
:103DC00D1B1901343AE0631E012C92D00F9A102A70
:103DD00D2AD0022A2FD01C00D0E7BB060ED4202CEF
:103DE00D9AD00C9B1A19013478231370C4E7BB06C3
:103DF00D0DD478230C9A01241370BFE7202C00D129
:103E000D8AE758220C9B1B191A700134B4E758230A
:103E100D0C9A01241370B1E70C9A603301241370CE
:103E200DACE7202400265EE7023CBA06E9D40C9AE2
:103E300D12191C00D8E70C9A9246534462221A704C
:103E400D9AE7C04610B5002800D110BD02F002FA65
:103E500DFBE7C0460B0010B5002802D049681B686F
:103E600D984710BDF0B5DE4657464E464546E0B57F
:103E700D9BB09B46249B89469846259B0B900C92A4
:103E800D4046424619009A4601F0B9FC002800D080
:103E900DD8E0012240465146774B524201F0AAFC30
:103EA00D002800D0CEE0012240465146734B5242CD
:103EB00D01F08AFC002800D0C4E000220023404617
:103EC00D514601F081FC002800D0B9E1424653462D
:103ED00D0A9209938023289ADB001A400E92289AA1
:103EE00D1A4201D1062326930A9A099B1600134301
:103EF00D00D0C7E0289B002500261B0500D49BE1C0
:103F000D00230D93269A0D9B9A4200DC9FE1D01A57
:103F100D431E26938023289ADB001A430023002793
:103F200D28920D93279B0024BB4200D9DC1B022352
:103F300D289A1A400E92289A134203D07B427B4155
:103F400D5B421C400D9B002B07D00A9809992A0053
:103F500D330001F0D8FB0A9009910022002340465E
:103F600D514601F031FC002805D080200006844622
:103F700D099961440991289A414B0B9D1340049373
:103F800D269B0A9A0293099B03940092019349463A
:103F900D5B4628000C9A00F08BF90400002F62D0CC
:103FA00D289B220098061F23C0179843631C984630
:103FB00D49465B466530A8470D9B0025DA179C18CE
:103FC00DDB0F9A465440013F01E0202D13D00AAA81
:103FD00D94461F23200063440A2101355E1901F028
:103FE00D45F93031317020000A2101F03FF92600EA
:103FF00D0400092EE9D805230693002304930A3300
:1040000D0393534605970B9F029312AB00934246C1
:1040100D5B46494638000195FFF72EFE0E9B0400C6
:1040200D002B20D00C9BC51A279BAB421BD91E0021
:1040300D22005B46494620200135B8470134AE4287
:1040400DF6D810E0289B42460493279B49460393DC
:1040500D269B0B9802935346009201935B460C9A54
:1040600D00F026F9040020001BB0F0BCBB46B246A0
:1040700DA946A046F0BDC046FFFFEF7FFFFFEFFF53
:1040800DFFF7FFFF734B099F9C467800400D60447E
:1040900D01F0C8FB704A714B01F053FB704A714B34
:1040A00D01F028FB3B03704A1B0B1A4304000D0063
:1040B00D300011006D4B002201F013FB6C4A6D4B6B
:1040C00D01F03FFB02000B002000290001F012FB64
:1040D00D01F0C0FB0D9001F0A5FB674A674B040092
:1040E00D0D0001F02EFB0022654B01F003FB01F0EA
:1040F00DB1FB644A0600644B2000290001F021FB4E
:1041000D040030000D000F9601F08CFB5F4A604BF0
:1041100D01F017FB02000B002000290001F0E1FA6D
:1041200D02000B0006000F0001F00BFB3200040033
:1041300D0D003B003000390001F0DCFA0022109038
:1041400D1191544B2000290001F0DDFA0022524B51
:1041500D01F0D0FA02000B002000290001F0D3FA83
:1041600D00224E4B01F0C6FA02000B002000290080
:1041700D01F0C9FA0D008021040032003B0000203F
:1041800DC90501F0AEFA02000B002000290001F074
:1041900DB1FA02000B001098119901F0B4FA002247
:1041A00D314B01F0A7FA3E4B0F9C9C466444002214
:1041B00D230501F0C6FA05000E0002000B000A9857
:1041C00D099901F001FB00280AD00D9B2800013B45
:1041D00D31000D930022304B01F095FA05000E00D1
:1041E00DC6270D992B0063318F42BF4128997F421D
:1041F00D0437090500D495E6334300D182E6099CC6
:1042000D284A2100284B0A9801F0ECFA002808D022
:1042100D00222100254B0A9801F0D6FA002800D083
:1042200D70E6269B002B00D17CE60E9B5A1E934117
:1042300D269AD31A269375E6002304270D9371E66B
:1042400D43460A9380231B065344099342E60023F9
:1042500D26935FE601FCFFFFFB799F501344D33F8C
:1042600DB3C8608B288AC63F0000F03F0000F83FBE
:1042700D61436F63A787D23F71A379094F930A40BA
:1042800D0000E03F1655B5BBB16B0240EF39FAFEA9
:1042900D422EE63F00002C40000024400000184054
:1042A00DFF0300002D431CEBE2361A3F80842E41A4
:1042B00DF0B54E46DE4657464546E0B597B09946B1
:1042C00D209E219F229B8346984607910C923B008E
:1042D00D32003000390001F092FA002800D0A9E137
:1042E00D012230003900CA4B524201F06DFA00280C
:1042F00D00D0E1E0012230003900C64B524201F0FE
:1043000D79FA002800D0B7E0002230003900C24B06
:1043100D01F070FA002800D099E000223000390039
:1043200DBE4B01F051FA002800D090E0002200238E
:1043300D3000390001F048FA002800D0B1E0002328
:1043400D0D93249B5B0501D40623984608AB9C4630
:1043500D1722002430234146624404E001341355F2
:1043600D0139202C01D00929F8D8884630003900B0
:1043700D01F070FA4346DA00A94B05009B181A6844
:1043800D5B680892099301F04DFA02000B003000B2
:1043900D390001F0A6F9089A099B01F0D2F90A90AB
:1043A00D0B9101F07BFA824601F038FA02000B0006
:1043B00D0A980B9901F095F900229A4B0A900B91EE
:1043C00D01F018FA002800D1C0E001239C46E24418
:1043D00D504601F023FA02000B000898099901F0EC
:1043E00DF9F9002802D000239A4601354346002BE7
:1043F00D6AD008AB17269C4608956644554614E0CE
:1044000D01235B4243440A2128009A4600F02EFF07
:1044100D013430313719397028000A2100F026FF98
:1044200D092D00D8D0E0D0460500202CE8D10EABE8
:1044300D98460323249A1340012B00D196E02023A4
:1044400D249A01930392239A434602921EE0249BE1
:1044500D58460493239B00960197039343460C9A69
:1044600D029307994B46FFF7FDFC17B0F0BCBB4616
:1044700DB246A946A046F0BD249B5B070ED403228D
:1044800D694B249901920391239902910093584607
:1044900D4B460C9A0799FFF7A1FBE6E70422634B05
:1044A00DEFE73B0032000020002101F01AF9012353
:1044B00D06000F000D9344E7249B0393239B029367
:1044C00D042301935A4BE1E7280001F0ABF90200F8
:1044D00D0B003000390001F004F9524B00220600A8
:1044E00D0F0001F071F90EAB984600280AD1002299
:1044F00D300039004B4B01F07DF9002802D1EB075C
:1045000D00D50135202C94D008AA944617232800F5
:1045100D63440A2101341E1900F080FE3031280059
:1045200D31700A2100F07AFE051EEBD10323249A87
:1045300D1340012B1BD0202C00D180E70D9B002BAD
:1045400D35D02D224146631C0A5579E700220A9881
:1045500D0B99344B01F038F9002800D046E753464B
:1045600D002B51D101239C46E2443FE72024239B9D
:1045700D002BE0D00D9B002B03D1249A0C3313425A
:1045800D02D0239B013B2393239BA342D3D908AB9A
:1045900D9C46172230236244202C00D14FE72399EB
:1045A00D013413558C42C6D0202CF8D147E7249BFB
:1045B00D5B0724D4249A2300120700D440E720225D
:1045C00D414601330A553BE75746089D202C00D143
:1045D00D2DE7220030214046002F09D00132B15481
:1045E00D202A00D123E7D3431B191B18002BF5D12B
:1045F00D0EAB98462E234146541C8B5482E72B223A
:1046000D4146631C0A551BE7DB0700D4EEE6A9E71C
:1046100DFFFFEFFFFFFFEF7F65CDCD4165CDCDC135
:1046200DF8D200100000E03FFCD0001000D10010C7
:1046300D0CD10010249B0393239B0293032301931E
:1046400D004B23E708D10010F0B5DE464E46574625
:1046500D4546E0B59FB01C00289B91460993C94A79
:1046600DC94B8B4608901A60002900D118E200232F
:1046700D20789A46002800D11AE226001D005C46DB
:1046800D0AE02A006F1C4B46089D2100A8473D00FB
:1046900D01363078002870D02528F2D110239B46A2
:1046A00D083B9A46043B9846023B00219C46721CEF
:1046B00D107816000300203BDBB2102B03D8B34F4C
:1046C00D9B00FB589F460300303B092B32D900233A
:1046D00D0A932A2868D0002398462E283ED003003E
:1046E00D683BDBB2122B1CD8A94A9B00D3589F46BE
:1046F00D012301321943DBE7634601321943D7E742
:1047000D434601321943D3E75B4601321943CFE7E4
:1047100D534601321943CBE780235B007078194370
:1047200D01360300253BDBB2532BAAD8994A9B00D7
:1047300DD3589F4600270300B800C019013640002A
:1047400DC018337830381A00303A0700092AF3D9E7
:1047500D0A901800002398462E28C0D18023707827
:1047600DDB0019430300303B721C092B00D8A1E17B
:1047700D2A2800D1B2E11600B1E7A346AA462C00C3
:1047800DD14503D801235B424B449A464B465246D2
:1047900D59460020089DA84720001FB0F0BCBB461D
:1047A00DB246A946A046F0BD099B40CB0A96002E05
:1047B00D03DB50780993561C8DE72838014370426E
:1047C00D0A9009935078561C85E7782800D1DFE1CF
:1047D00D582800D14CE26F2800D14FE3622801D157
:1047E00D00F030FC10230A009A430B92692801D087
:1047F00D00F0A9FC0A230C934B0500D5D0E10B9AD0
:1048000D802311009B0019408B461A4200D0A1E273
:1048100D802311005B0019408A461A4200D0B6E38E
:1048200D13005B0600D5EDE2130009991B0601D4B8
:1048300D00F076FC08C91BB2D8171A18424092B284
:1048400D09919346DA0F1292002B09D18023102281
:1048500D0B99DB000B4091430B91002B00D0E4E250
:1048600D0B9A6123920600D541230EA91F228C4677
:1048700DDBB262440A3B5F461395A34655460C9C3A
:1048800DB2460D9316000AE03033DBB20135735595
:1048900DA74200D2EDE2202D00D1EAE2070021006F
:1048A00D380000F0E3FCCBB20929EDD90D9A9446FE
:1048B00D6344DBB2EAE780239B007078194301362D
:1048C00D2FE77078682800D1CDE180230136194398
:1048D00D27E770786C2800D1BFE180235B00194376
:1048E00D01361EE7462800D19BE10722099B049162
:1048F00D073393430A9A19000392424602920CC958
:1049000D08980092019309912A004B462100FFF768
:1049100DCFFC01360500BCE62A006F1C4B46089DF6
:1049200D21002520A84701363D00B2E68B0700D4B3
:1049300DADE1099B2A009A466B1C9846534601CB64
:1049400D21009A46089F4B46C0B2B8470A9B9C4629
:1049500D6544012B00D886E2089B4746B0462600E9
:1049600D4C4699463A002300013731002020C847B4
:1049700DAF42F7D1A146534634004646099301365E
:1049800D87E6C046494600101CA7012014D100102F
:1049900D58D10010A4D10010099B04CB9B4643466F
:1049A00D0992002B00D1C6E013789C46002B00D154
:1049B00DBDE34346013B099A0133D0180A9F13000A
:1049C00D01E0834203D05A780133002AF9D1099AC4
:1049D00D0A979B1A0B9380230A00DB001A400C9256
:1049E00D194204D00B9B434501D943460B93022337
:1049F00D1A000A400D920B4200D187E16046002853
:104A000D00D168E10C9B002B00D10DE1A844C246FA
:104A100D099B57465B1B9846089BB2462A00260009
:104A200D4C46994609E023003100551CC8474346C2
:104A300D585D002800D126E12A009742F3D1A14606
:104A400D3D00340056460D9B002B00D043E15B46E4
:104A500D013609931DE6099B1A0008CA9246002BE0
:104A600D48D0212211438B460EA884461F21614454
:104A700D099500220F27A4460D0002E0202A0CD034
:104A800D0B003C001C4020003730092C00D80738A3
:104A900D0132A85419090F2BF0D86446099D32E054
:104AA00DDC4B2078089300239A46002800D0E4E5DB
:104AB00D002465E6434606000A9F9800C01801329F
:104AC00D400080191678030030003038303B09283B
:104AD00DF3D93000984616000A9700E6099B023676
:104AE00D04CB9046D2434046D217104080460993DE
:104AF00D3078F4E5102208009043113210438346BC
:104B000D00224905B0D55B4606930823059343461D
:104B100D0493102303930023029316AB0192009389
:104B200D2A004B4621000898FFF7A6F853460500CA
:104B300D01360993ADE513789C46002B00D1F7E2C1
:104B400D02235B4237E7202302009A43472A04D110
:104B500D80231B01194302239843452801D12023AB
:104B600D19430722099B0491073393430A9A1900AD
:104B700D0392424602920CC9089800920193099142
:104B800D2A004B462100FFF76DF90136050080E53F
:104B900D10230C930C230A009A430B924B0503D55B
:104BA00D01230B9A9A430B92692800D127E66428BA
:104BB00D00D124E60B9A802311009B0019408B46EF
:104BC00D1A4200D066E1802311005B0019408A462D
:104BD00D1A4200D039E213005B0600D53CE1130008
:104BE00D1B0600D4A6E2099B04CB1204120C9346BB
:104BF00D09935B46002B00D09AE10B9A10331100FC
:104C000D99430B91520500D492E100239A460B9BD8
:104C100D06930A9B0593434604930C9B0393002331
:104C200D0CE12023194360E6099B0A9A5B1B984609
:104C300D4B4691461F00B2462600089C2A003B00B9
:104C400D3100A04743460135585D0028F6D14A464C
:104C500D3400B94656460A92F5E6C0239B00B0785B
:104C600D194302365DE5C023B0781943023658E585
:104C700D0C230A009A4314331A43103B0B920C93E6
:104C800D4B058DD496E7A14634005646DBE60A9ACD
:104C900D012A00D853E26B1E9F18089BB0462600D0
:104CA00D4C4699462A002300013531002020C84783
:104CB00DBD42F7D1A14634004646099B3A0001CBCF
:104CC00D210098467D1C4B46089FC0B2B84743460D
:104CD00D01360993DDE40B9B0A9AA8469A4200D847
:104CE00DB5E694466544ED1A089B4746B046260046
:104CF00D4C4699463A002300013731002020C84721
:104D000DAF42F7D1A14634004646A0E60B9A0A9968
:104D100D531C914200D814E24B199B1A1F00089B9B
:104D200DB24626004C4699462A0023000135310033
:104D300D2020C847BD42F7D10A9BA14601330B93F2
:104D400D099B34001B7856469C466046002800D0CF
:104D500D58E67CE60722099B0733934301329446BC
:104D600D9C4462465F6809921A68FB171093119371
:104D700D10981199030053400E930B007B400F9335
:104D800D94460E9A0F9B121A8B410E920F93FB0FA6
:104D900D6246129300233A439B463DD00B9A612302
:104DA00D920600D541230022DBB20EA90A3B8C46A8
:104DB00D92460D9343461F32624413951596554600
:104DC00D0E9E0F9FA24690460C9C14930CE0303221
:104DD00DD2B2434601355A55BB4500D18AE1202D4B
:104DE00D00D18AE106000F002200002330003900B7
:104DF00D00F07AFAD2B2092AE9D90D9B9C46624499
:104E000DD2B2E6E7FF23099904C913401A000991AC
:104E100D17E5C046D93B00100B9A1033110099438A
:104E200D0B915205BAD500239A460B9B06930A9B0C
:104E300D0593434604930C9B0393129B0293534695
:104E400D019316AB2A00009321004B460898FEF7FC
:104E500D13FF013605001CE4FF22099B02CB114014
:104E600D8B460993C5E65346454609930136FFF730
:104E700D10FC56465C46AA46139DD6E708230C93B4
:104E800D0B910B99642800D084E60B9B5B0500D534
:104E900D86E6B4E40722099B073393430132944617
:104EA00D9C44624609921A685B6810009B46130089
:104EB00D5A46134307D10B9A1033110099430B91A6
:104EC00D520500D5A1E60B9A6123920600D5412328
:104ED00D0022DBB20EA90A3B8C4692460D93434647
:104EE00D1F3262445F461295A34655460400B246F2
:104EF00D90460C9E13930DE03032D2B243460135ED
:104F000D5A550023BB4200D100E1202D00D100E114
:104F100D04000F00320000232000390000F0E4F9F6
:104F200DD2B2092AE8D90D9B9C466244D2B2E5E77C
:104F300D0B9A6123920600D54123DBB20EA90A3BE1
:104F400D1F228C460D93230062445C461295170078
:104F500D55469B46B2460C9E08E03033DBB2013518
:104F600D7B55B4420ED3202D0CD00400310020000F
:104F700D00F07CF9CBB20929EFD90D9A9446634420
:104F800DDBB2ECE756465C46AA46129D3FE6099B0E
:104F900D1A0008CAD91713925A184A409246DA0FC6
:104FA00D1292002B08D1802310220B99DB000B40AD
:104FB00D91430B91002B2BD10B9A6123920600D5B7
:104FC00D41230EAA1F279446DBB20A3B0D95674479
:104FD00D5D460993A3465446B2460C9E08E0303315
:104FE00DDBB201357B55B4420ED3202D0CD004001D
:104FF00D3100200000F03AF9CBB20929EFD9099A16
:1050000D94466344DBB2ECE756465C46AB460D9DD9
:1050100D0B9B2A0006930A9B21000593434604939C
:1050200D0C9B08980393129B013602935B460193E8
:1050300D16AB00934B46FEF71FFE139B050009931D
:1050400DFFF727FB02230C931AE7099B04CB92462B
:1050500D1293002A08D1802310220B99DB000B40FC
:1050600D91430B91002B2BD10B9A6123920600D506
:1050700D41230EAA1F279446DBB20A3B0D956744C8
:1050800D5D460993A3465446B2460C9E08E0303364
:1050900DDBB201357B55B4420ED3202D0CD004006C
:1050A00D3100200000F0E2F8CBB20929EFD9099ABE
:1050B00D94466344DBB2ECE756465C46AB460D9D29
:1050C00D0B9B2A0006930A9B2100059343460493EC
:1050D00D0C9B08980393002302935B46019316AB38
:1050E00D00934B46FEF7C8FD129B05000993013650
:1050F00DFFF7CFFAB44200D871E6149B54460E96D2
:1051000D0F97AA469846159E139D8EE6A64200D887
:1051100DFBE6139B56469846AA465C46129D76E5DD
:1051200D08C9D8171A1842400991FFF78AFB0023C6
:1051300D0B9350E4099B04CB9346099359E52F003B
:1051400DBBE50B9301E6063B0C939AE600B585B0E3
:1051500D0391012102900093034813004A4202A9D2
:1051600DFFF772FA05B000BD553E001010B5094AA3
:1051700D0300146884B0002C08D001220091064869
:1051800D524203A9A047012004B010BD01F0AEF8B2
:1051900D0020F9E71CA70120453E0010014804211D
:1051A00D014B184780100020D9510010014B5B684E
:1051B00D1847000080100020142310B50100188836
:1051C00D04331B88984710BD162310B501001888AD
:1051D00D02331B88984710BDF8B54746CE4680B5BB
:1051E00D0F1E19D0142399460433040000250126FF
:1051F00D98464B461888434621681B88984701C43A
:1052000D431E9841013540420640AF42F1D1300076
:1052100DC0BCB946B046F8BD0126F8E7124A936FF7
:1052200D9B0815D29066D166002905D0FFE7FFE7F0
:1052300DFFE7516F106F704704B580210906C21743
:1052400D5140002800D0C84307F0F6FB002104BDF3
:1052500DF0B5146E556E576F166FFFF7E3FF1466BA
:1052600D556657671667F0BD000000D0114A936F61
:1052700D9B0813D210665166002905D0FFE7FFE7A2
:1052800DFFE7516F106F704704B5002801D0002063
:1052900DC04307F0D1FB002104BDC046F0B5146E2C
:1052A00D556E576F166FFFF7E5FF14665566576716
:1052B00D1667F0BD000000D094464A4A926F9208DE
:1052C00D624601D228E0C046F0B5464E346E756E8A
:1052D00D776F366F00F020F89446424A1466556693
:1052E00D576716676246F0BD94463E4A926F920824
:1052F00D624601D254E0C046F0B53A4E346E756E3A
:1053000D776F366F00F04CF89446364A1466556642
:1053100D576716676246F0BD002B24DB11D00029BC
:1053200D3EDA00B5C943404200D1013100F038F8F2
:1053300DC943404200D10131DB43524200D1013318
:1053400D00BD002AEBD1002801D1002905D0002095
:1053500DC90FC90701D1C043410800B507F054FB7F
:1053600D0022002300BD00B500290ADBDB435242B9
:1053700D00D1013300F014F8C943404200D101318E
:1053800D00BDC943404200D10131DB43524200D13F
:1053900D013300F005F8DB43524200D1013300BD6B
:1053A00D002923D1002B18D1002A0CD0BC460D4F5B
:1053B00D38667A6600210023FFE7FFE7FFE77A6F83
:1053C00D386F67467047002801D00748010000B5C7
:1053D00D07F01AFB0022002300BD02000B00002085
:1053E00D00217047000000D0FFFFFFFF002B00D011
:1053F00DBFE0130C28D1002AE7D080B4114F3966D5
:1054000D7A66FFE7FFE730B4040C7B6F396F1B043E
:1054100D23433B667A66FFE7FFE7FFE7C04684B2AA
:1054200D7B6F3D6F1B0423433B667A66FFE7FFE707
:1054300DC04600232C042D0C7A6F386F001969417A
:1054400DB0BC7047000000D0F0B594460025140E96
:1054500D01D112020835140F01D112010435940F38
:1054600D01D192000235D40F01D152000135D40B78
:1054700D0134254F7C66254C3C660E0C93B2FFE73C
:1054800DFFE7FFE73C6F6643360C7703BE46734379
:1054900DDF0B5B04C01AB941130C7343DB18C91A37
:1054A00DCE086643360CB64493B273431F0F1B01EF
:1054B00DC01AB941130C73431F0B1B05C01AB94118
:1054C00D860D8F023E436643360C092D24DB520AAE
:1054D00D7243801A7703460A6643360C16235B1B0C
:1054E00DDE40DF40BF1964466643821B70460435BB
:1054F00D06330100D940A840C01900D30131A242A2
:1055000D06D20023F0BD0000000000D0FFFFFFFF1A
:1055100D121B0130F3D3F1E709277F1BFE406446D0
:1055200DA2B27243801A00D20139220C7243130CBD
:1055300D1204821A99410B0070460435133701008D
:1055400DF940A840801900D30131002B02D1A242AD
:1055500D0AD2F0BD013000D30131121BFAD2013B4A
:1055600DF8D1A24200D2F0BD013000D30131121B9F
:1055700DF7E7F0B51C0C00D080E00CB400251C0A38
:1055800D04D11B02160E3343120208351C0B04D135
:1055900D1B01160F3343120104359C0B04D19B00E4
:1055A00D960F334392000235DC0B02D192185B410A
:1055B00D01351C00971864410134464F7C66464CFA
:1055C00D3C660E0CFFE7FFE7FFE7C0463C6F664306
:1055D00D360C7703BE4697B27743C01B00D2013914
:1055E00DC01B00D201399FB27743C91BC91B170CD1
:1055F00D77437E04FF0B801BB941CE086643360C02
:1056000D0C2D33DBB644120B1F053A431B0B97B21F
:1056100D7743C01B00D201399FB27743C91B170CCA
:1056200D77433E043F0C801BB941860D8F023E43EC
:1056300D664329277F1BFE400C3D7746AF40BF19BF
:1056400D30BCA2B2ABB272437343801A9941220CA3
:1056500D7243130C1204801A994102000B0001379A
:1056600D001BA941F9D2781E0021F0BD0C277F1B2C
:1056700DFE4077467F0BAF40FF19E0E700245D1C2D
:1056800D07D0144F7D663966FFE7FFE7FFE7FFE7B9
:1056900D3C6F95B29EB265436643401BB141150CFC
:1056A00D1E0C6543664336042F0C3E432D04401BF0
:1056B00DB141994204D202000B0020000021F0BD3F
:1056C00D01D19042F7D3801A994101349942F2D316
:1056D00DF6E70000000000D0FFFFFFFF484041400B
:1056E00D484018B41B4B5B68FC46019308BD04DFB2
:1056F00D7B59001018B4174B1B68FC46019308BD6D
:1057000D00DF855900109446134A926F920809D212
:1057100D624618B40F4BDB68FC46019308BD0CDFE5
:1057200D3D5C00100C4AF0B5146E556E576F166F38
:1057300D6246FFF7EEFF084A14665566576716670F
:1057400DF0BD18B4034B9B68FC46019308BD08DF00
:1057500DE15A0010581A0020000000D0FFB550404B
:1057600D4240504059404B40594000E0FFB5154F65
:1057700D4C00640D03D0BC4204D10C0314D800209E
:1057800D090D09055C00640D03D0BC4204D11C0356
:1057900D0AD800221B0D1B0501264B4009D44B4096
:1057A00D03D58B4200D18242FFBD9942FCD190427C
:1057B00DFFBD0B43DB1803431343F5D0C943491811
:1057C00DFFBD0000FF07000000B5FFF7CFFF8041D0
:1057D00D00BDC04600B5FFF7C9FF01D9002000BDCF
:1057E00D012000BD00B5FFF7B9FF01D9002000BDB4
:1057F00D012000BD00B5FFF7B1FF804100BD0120C4
:1058000D40054A00121804D85A00121801D8002079
:1058100D70470120704700207047000000210028CC
:1058200D05D17047C1174840401AFAD0C90713B5C2
:1058300D064B1B6898470CBC441CA2401005120B6C
:1058400D0349091B09051943114310BDECA901209A
:1058500D1F04000010B54C00620D8023D218DB0030
:1058600DD21A5B057E2A10DD9E3A13DACC17090396
:1058700D490819435242D140640001341532202A9F
:1058800D05DAD0400843604310BD002010BD084626
:1058900D604310BDC80FC018013810BD18B4044BBB
:1058A00D5B6AFC46019308BD24DFED5D001000002E
:1058B00D581A0020132370B51D78012D15D010DD59
:1058C00D1C48FFF781FC1C4C01008022200000F0D9
:1058D00DA9FB022D06D01948FFF76EFC184B186076
:1058E00D70BD154C174BA364F5E7164B124C236096
:1058F00D6360A360E36023616361A361E36123627D
:1059000D6362A362E36223636363A363E36323645C
:1059100D6364A364E36423656365A365E36523663C
:1059200D6366A366E36623676367A367E367A364A0
:1059300DD1E7C04653440000581A00204C330000F4
:1059400DECA901204959001007B5604601880A0AE3
:1059500D0230DF2AFAD1C9B2820804D30288408806
:1059600D0004104300E00068014A5050039007BD49
:1059700D581A00200FB403BC0CBCF0B50124E40789
:1059800D634000E0F0B50C0DCF0F661E3605891B88
:1059900D640503D3C943404200D30131640D03D0E4
:1059A00D661CF60A07D0E41B00207F00791C8907CE
:1059B00D8912803C24031D0DDF0F6E1E36059B1BC7
:1059C00D6D0503D3DB43524200D301336D0D03D07C
:1059D00D6E1CF60A07D0ED1B00227F007B1C9B0777
:1059E00D9B12803D2D032F1B661B58D4A446202EE1
:1059F00D46DA20371400BC401D00BD40F240334153
:105A000D2A4380185941CB0F05D0C943C04300220A
:105A100D64425041514162464D0D28D10D0D07D1C3
:105A200D00281FD0241940414941013A0D0DF9D0EC
:105A300D640006D3013000D30131002C01D14008A0
:105A400D4000013A0BD4941CE40A04D11205114410
:105A500DDB071944F0BDD907204B194300E0D907E6
:105A600D0020F0BD0029DDD1002CDBD1F0BD0132CD
:105A700DC6074008CD0728434908002EE1D0D9E7D5
:105A800D3C2E29DA203E40371400BC4000D00124C2
:105A900DF24014431A00BB401C43D317ACE7AC468D
:105AA00D202F08DA20360400B4400D00B540F84030
:105AB00D39412843A5E73C2F0CDA203F403604003E
:105AC00DB44000D00124F84004430800B1400C4319
:105AD00DC117EAE710001900002494E70000F07FD9
:105AE00DF0B50C0D661E3605891BE60A6405640DBE
:105AF00D02D0651CED0A04D0002001210905803C6F
:105B000D2403A4461C0D671E3F05DB1BE70A640535
:105B100D640D02D0651CED0A04D0002201231B0583
:105B200D803C24037740644497B484B296B27443A6
:105B300D070C7E43150C6F4380B26843361802D3B1
:105B400D012000043F183004350C00197D418446B6
:105B500D88B29AB250430C0C62431F0C7C438EB238
:105B600D7E43921902D301263604A4191604170C8C
:105B700D3618674101BC81B29AB25143040C62439D
:105B800D1B0C5C4380B25843121802D30120000451
:105B900D24181004130C401863412D185E41002089
:105BA00D474106BC88B293B258430C0C6343120CA8
:105BB00D544389B251435B1802D30121090464187F
:105BC00D19041A0C091862416D18564100204741FD
:105BD00D18BCF902720D1143F0026A0D1043ED026B
:105BE00D0A0D03D16D1940414941013B124E9B1BDA
:105BF00D7600B3420ED26D0007D3013000267141FD
:105C000D6646354301D1400840001B05C918E4071D
:105C100D2144F0BD0BDA013306D1013004D101313D
:105C200D4F0D01D04908F2E7E1070020F0BD013624
:105C300D31050020EBE70000FF030000F0B51C0D5F
:105C400D671E3F05DB1BE70A6405640D02D0661C69
:105C500DF60A04D0002201231B05803C2403D02525
:105C600D2D060026F6432E661E096E66CE0FF6191A
:105C700DB44649004F0D02D07E1CF60A03D0002019
:105C800D0021403F3F033E1BB600B444013F7F055A
:105C900DC91B49082E6F013676089C02950D2543C8
:105CA00D7543ED137543AD1301356D10F603761B7A
:105CB00D0CB4CC02450D2C43A2B2B3B25A43270CFF
:105CC00D7B43350C6F43A4B26C431B1902D30124E3
:105CD00D24043F191C041D0CA4187D4124196D4189
:105CE00D009A91B2ACB26143170C7C432B0C5F430D
:105CF00D92B25A43A41802D301221204BF182204EF
:105D000D230C52187B41019C6C431B19520ED90177
:105D100D0A434401A01A81B2B2B2514303145A434B
:105D200D360C734387B27743D617D21900277E41BD
:105D300D36049B191704160C7F185E417316ED1867
:105D400DF301002680337541A90F06D16400690A5D
:105D500DE8055B0A184309D22FE0042294448033EE
:105D600D7541A90AA8059B0A184326D3404149410C
:105D700D2404009A019B0D005543641B4343E41A10
:105D800D95B286B27543170C7E43030C5F4392B2F6
:105D900D5A43B61802D301221204BF183204330C31
:105DA00D52197B4152429C41002C02D400220130F9
:105DB00D51414008CA071043490802B06246D7074F
:105DC00D9210084BD218084B9A4203D2120589182B
:105DD00DC919F0BD0020002A01DC3900F0BD0133E6
:105DE00D1905F5E7FD030000FE070000002200B5D0
:105DF00D203200F004F8080000BD000000220B1551
:105E000D0AD410B5944600F031F81414013400DAB8
:105E100D0021CB17144C204700200021704762440D
:105E200D343A0CD40C2A07DA0400914090405242C7
:105E300D2032D440214310BDD843D94310BD203268
:105E400D07D40C469440524220321141D040204399
:105E500D10BD0800C917203203D452422032104120
:105E600D10BD1800190010BD1F5E00100A0DCC0FDB
:105E700D531E1B05C91A520503D3C943404200D313
:105E800D0131520D03D0531CDB0A07D0121B002029
:105E900D6400611C89078912803A1203014BD21AE2
:105EA00D70470000FF03000051434343C9188C465F
:105EB00D110C83B24B4310B4040C614392B280B207
:105EC00D504362431C041B0C001910BC59411304B0
:105ED00D120CC0185141614470470000132310B5D6
:105EE00D12481C78FFF770F90100012C0AD003DD70
:105EF00D80220F4800F096F80E48FFF75DF90E4B23
:105F000D186010BD0A4C5422200000F08BF80B4B8A
:105F100D6365A365E36523666366A366E36623672E
:105F200D6367A367E3672362E361E5E75346000018
