:020000041000EA
:1000000000B5324B212058609868022188439860DF
:10001000D860186158612E4B002199600221596106
:100020000121F02299502B49196001219960352056
:1000300000F044F80222904214D00621196600F024
:1000400034F8196E01211966002018661A6600F04E
:100050002CF8196E196E196E052000F02FF8012189
:100060000842F9D1002199601B49196000215960AB
:100070001A491B48016001219960EB211966A021F2
:10008000196600F012F800219960164914480160C1
:100090000121996001BC002800D000471248134993
:1000A000086003C880F30888084703B5996A0420EC
:1000B0000142FBD001200142F8D103BD02B5186610
:1000C0001866FFF7F2FF186E186E02BD00000240BE
:1000D000000000180000070000035F00212200005C
:1000E000F4000018222000A00001001008ED00E03C
:1000F00000000000000000000000000074B24E7A12
:1001000000200420F7010010C3010010C5010010F9
:10011000C1010010C1010010C1010010C101001097
:10012000C1010010C1010010C1010010C701001081
:10013000C1010010C1010010C9010010CB01001065
:10014000CD010010CD010010CD010010CD01001037
:10015000CD010010CD010010CD010010CD01001027
:10016000CD010010CD010010CD010010CD01001017
:10017000CD010010CD010010CD010010CD01001007
:10018000CD010010CD010010CD010010CD010010F7
:10019000CD010010CD010010CD010010CD010010E7
:1001A000CD010010CD010010CD010010CD010010D7
:1001B000CD010010CD010010CD010010CD010010C7
:1001C00000BE00BE00BE00BE00BE00BEEFF3058054
:1001D000103800BEF2EB8871AC890010D88900108D
:1001E0003402001090A31AE700201F49086006C8D7
:1001F00081F3088810471D48006800282FD10DA4FE
:100200000ECC002902D000F012F8F9E71849194A7B
:10021000002000E001C19142FCD1174988471749ED
:1002200088471749884700BEFDE701C901C29A42C5
:10023000FBD37047D8890010C0000020E4120020D2
:10024000FC9B00100000042000000420FC9B001018
:10025000001004200010042000000000704709482E
:1002600002F0A6FC0047000008ED00E0000000D00E
:10027000E812002040240220CD1A0010B90300101B
:10028000CD1B00105756000006005250ABB3605310
:10029000AF87001006005250861C0302BA87001078
:1002A000060052505422A29DCA87001005005250E9
:1002B000DE65F468FC9B0010F8B5C0460448054BA9
:1002C00010B5834203D0044B002B00D0984710BDDB
:1002D000E4120020E4120020000000000648074954
:1002E000091A8B10C90FC91810B5491003D0044B57
:1002F000002B00D0984710BDE4120020E41200202B
:100300000000000010B5074C2378002B09D1FFF73F
:10031000D5FF054B002B02D0044800E000BF0123AD
:10032000237010BDE813002000000000C8830010F7
:10033000054B10B5002B03D00449054800E000BF71
:10034000FFF7CCFF10BDC04600000000EC130020FA
:10035000C883001010B5104A1049114803F050FC32
:10036000104803F01BFC104803F018FC07F044FB96
:1003700000280CD007F04CFB01000C4803F040FCB7
:1003800007F04AFB01000A4803F03AFC10BD094897
:1003900003F004FCFAE7C046C8830010D0830010C5
:1003A000DD830010E5830010FB830010148400102F
:1003B000208400103184001010B503F02CFC094992
:1003C000094803F01DFCFFF7C5FF00F07FF900F0BE
:1003D00041F800F0DBF900F011F805F0A7F8002073
:1003E00010BDC046000000005E84001010B5012062
:1003F00003F098FA0023037010BD000010B501202F
:1004000004F0DBF9014B186010BDC04670210020DC
:1004100000B5002091B006F033FC002809D0002080
:1004200006F046FC002804D040226946002006F071
:100430004BFC11B000BD10B50020012405F068FF91
:1004400064422000002106F085F8002006F050FCF0
:10045000F7E7000030B51F2300240125C02285B036
:10046000AA4000930949230002940195084804F02A
:1004700061FF1E2380220093AA40230005490294B5
:100480000195054804F056FF05B030BD6F8400109B
:10049000370400107484001011040010F0B514002B
:1004A0000500E078927800021043013897B00428E4
:1004B00051D807F051FF030B2A3B49000323274A79
:1004C0002100280006F022FB17B0F0BD07F0A0FACB
:1004D0004326070007F0A0FA32000021019005A88A
:1004E00003F04EFA02AB1E730E20022302AA39005B
:1004F0005373801807F088FD362002AB0199C018AD
:1005000007F082FD330005AADAE70A2603A803F004
:100510007FFC02AB1E7303230E2002AA537302ABAF
:10052000082203A9C01803F031FAEBE7FFF75EFFDA
:10053000032305AE3370013373700378B37003F097
:1005400007FA32003378BBE70622054905A803F015
:100550001DFA0623D7E70223024AB1E78084001080
:10056000788400107E84001073B50500012014000B
:10057000814214D113785B069B0F83422AD000205E
:10058000022B0CD15278022A0AD0032A17D0012A52
:1005900005D1154A35332100280006F0B7FA76BD9B
:1005A000637921791B020B43072BF8D16B469E1D03
:1005B00030000E4903F0EAF933880D4AEBE763791E
:1005C00022791B021343032BE9D122002800FFF7F5
:1005D00065FFE4E753780020222BE0D111002800CA
:1005E00006F082FADBE7C04683840010D285001053
:1005F000CA85001000487047B88500100048704751
:1006000056850010004870471D850010030010B586
:10061000002810D10222144B14481968801803F0E6
:10062000B5F90123C0220133DBB210485B00920010
:100630001343038010BD0020052BFBD80A4A9B0002
:100640009C58200007F0E8FCC0B2031C1F2800D90A
:100650001F232000DBB2054AE11802328842E1D0B4
:10066000047801301480F8E78009002094220020EB
:1006700013B501246442094B2200186801A904F053
:10068000F6F80128F7D1019B002019001A7906F02D
:1006900043FD002006F006FDEDE7C04608220020DD
:1006A00007B50023202180220091034803490193CC
:1006B000520004F02FFF07BD710600107C86001069
:1006C000014B18687047C046082200200022042110
:1006D0000A2010B503F0D4FF054B1860002803D1A1
:1006E000044803F08DFA10BDFFF7DAFFFBE7C046C0
:1006F00008220020838600107FB503F067FB0223E9
:10070000FA201D4D01262B60400005F067F8764267
:100710001A4C3100206804F01BF9194A13685B0475
:100720005B0F042B08D080231168DB014B40E021D4
:10073000C9010B4013490B6004232B60FC33116883
:100740001942FCD0104952680291082102AB9980ED
:10075000DA800193FFF7B4FF002301A91A0003F028
:10076000ACFF002320681A00190003F0A6FFFA204E
:10077000400005F033F8CBE700E004407021002092
:1007800000C0044000D004403B4324DD07B50023F3
:10079000202180220091034803490193520004F074
:1007A000B9FE07BDF906001096860010084B8200BE
:1007B000D218402310B51468C0006340C024234001
:1007C0008024640122431360024BC018416010BDB5
:1007D00004C0014000400140024B18688007C00F70
:1007E0007047C04600C00640EFF3108072B6034A5F
:1007F0001368002BFCD0BFF35F8F70472C0100D033
:10080000BFF35F8F0022024B1A6080F3108870479D
:100810002C0100D00722CB08C35C01201140884086
:100820001840431E9841C0B27047F8B505000C004F
:100830001700FFF7D9FF210006002800FFF7EAFFA5
:10084000002803D02100380001F0C4F9072101235A
:10085000E2080C40A340A95C30000B43AB54FFF707
:10086000CFFFF8BDF7B5050014001F000191FFF799
:10087000BBFF0600BC4202D9012464420DE0210006
:100880002800FFF7C7FF002812D1072201232240CA
:100890009340E1086A5C13436B543000FFF7B0FFEC
:1008A000002C07DA019B002B04D0089801F092F984
:1008B0000134DFE72000FEBD0021044B044ABFF3F2
:1008C0005F8F02C39342FAD17047C046000100D047
:1008D000800100D0044A1078431CDBB2172B01D8EA
:1008E000137070471023FBE79809002010B5010032
:1008F000024A0348FFF799FF10BDC0469C860010CE
:100900004018002007B5044B0100009318221F2354
:100910000248FFF7A7FF0EBDBB860010401800205D
:10092000074B10309B688000C150BFF35F8FBFF34F
:100930005F8F0021034B196082F310887047C04617
:1009400000ED00E0240100D001228240034B1B682F
:1009500013405A1E9341D8B27047C04600E100E0F0
:10096000002904D0034B1860034B18607047034BF9
:10097000FBE7C04680E200E000E100E080E100E04B
:100980000123834010B51800FFF7EAFF10BD0000F7
:10099000024B10309B688000C058704700ED00E0AB
:1009A00070B504000D00EFF3108672B60A4A1368A2
:1009B000002BFCD0BFF35F8F2000FFF7E9FF074B50
:1009C000984203D0A84201D001F022F93200290058
:1009D0002000FFF7A5FF70BD240100D0CD0100105D
:1009E000F0B587B0049003910192EFF31083059363
:1009F00072B6574A1368002BFCD0BFF35F8F554F78
:100A00003B787F2B01D901F003F90C2300251C0052
:100A10007D57514E6C439C46A31902939B793B70C2
:100A20004E4B9A68049B10339B0099588B1B2F2BBD
:100A30001FD94B4B994201D001F0EAF80C235D43DA
:100A4000484B02347353484B7519043B36199E1BAF
:100A5000464B474CAB80FF23AB71019B3605760DAF
:100A6000EB71039B26436E80AB600121029B19430F
:100A700033E0012308009843030000220090DF794F
:100A8000019887422FD8002A3AD00627D757131D3E
:100A90009C463748002F31DB93882F4E5B051B1592
:100AA0000434A41963441C1B2405640D0443A4B23C
:100AB0006646029B9571043B9B1B1B055B0D034324
:100AC00093800C235D43244BED182A4BAC802B60A4
:100AD000019BAF71EB71039BAB60059A0498FFF724
:100AE0001FFF07B0F0BD0627DF57002F04DB62466B
:100AF00057431A00F319C2E71A00C6E71E4CD7E79E
:100B0000154A1E49009B9B1A5B415943090D0C2352
:100B10005D43144BA61CAB52134BB618043B9B1BF6
:100B20001B05134E5B0D551933436B800434009B3A
:100B3000A4181C1B019B043CEB71039B2405AB60B8
:100B4000009A0C4B640D3443AC80A97113608CE7A0
:100B5000240100D02F2400209C09002000ED00E09B
:100B6000CD01001000A1FFFFCC09002001BDFFFF57
:100B700000E0FFFF0148804701BD0000AAAA000075
:100B8000F0B585B005000191EFF31083029372B6C2
:100B9000494A1368002BFCD0BFF35F8F2F00474BEF
:100BA00010379B68BA00D458454B9C4269D0019AD3
:100BB000944200D17DE0434BE31A2F2B61D82800EB
:100BC000FFF7C2FE002103902800FFF7D9FEBFF314
:100BD0005F8FEFF30586002E03D0B74201D001F0FE
:100BE00017F8012322000C219A4313008C4600229F
:100BF00006219868019F5956B84214D100291ADA83
:100C0000002E49D1002A45D0FF2191712E499180B3
:100C10002E492C480A789A712D4A1B1A5B415A4377
:100C2000120D0A7029E0002927DB624651431A00A1
:100C3000244B5B18DCE70C204843224A1618B7689F
:100C40009F60F779DF710627F7579F71B7797F2F7C
:100C50001ED8B688D21A7605361580191218E020EB
:100C60001205520D000202439A800C224A43154B92
:100C70009B18164A10781170987128000399FFF795
:100C80007FFE21002800029AFFF74AFE05B0F0BD62
:100C9000104AE9E70A4CBBE70F4A1049D21A083A52
:100CA0005002400D014399800D4952080A43DA80F1
:100CB000E3E71C00E5E7C046240100D000ED00E0BA
:100CC000CD0100109C09002001BDFFFF2F24002052
:100CD000AAAA000001BD0000D609002000F0FFFF15
:100CE00000F8FFFF10B5032402002040A040A243FB
:100CF000FC3484408140034BD2181368A3430B4358
:100D0000136010BD00E400E00123EFF3058103430D
:100D1000F0B51E00EFF3108772B61C4B1B68002B5A
:100D2000FBD0BFF35F8F1A4A04001A4BA41A644128
:100D300063431B0D5BB29C46174B89009B681400F4
:100D40005B581D000023B54214D1134B134A9B6816
:100D50005A50134B1A78827162461A70BFF35F8F34
:100D600000230A4A136087F31088F0BD01330C3466
:100D7000042BEED0062161566145F7D10C214B437F
:100D8000D218FF239371074B9380E2E7240100D030
:100D90009C090020AAAA000000ED00E0CD0100108F
:100DA0002F24002001BDFFFF054B064A1360064AB1
:100DB000136053609360D360136153619361704714
:100DC0008080808000E400E004E400E0024BC91869
:100DD000890001607047C0464000003410B504002F
:100DE000FFF778FD01002000FFF7F0FF01235B42D1
:100DF0006360BFF35F8F10BD10B50400FFF76AFD9D
:100E000001002000FFF7E2FF01235B426360002343
:100E10002372BFF35F8F10BD034BC91889000160B7
:100E2000BFF35F8F7047C0464000003410B5040028
:100E30000120FFF767FD01002000FFF7EDFF10BD67
:100E400030B5084D01226C6A0023A14206D8AD6A74
:100E50001300854202D20B1B591E8B411340180010
:100E600030BDC0460040054083680A4810B50918E7
:100E700012181201090159189B185C684A68012070
:100E8000944205D803D11A680B689A4200D8002012
:100E9000C0B210BDFFFFFF0F70B50C0005000800C9
:100EA00000F04CFB2000094900F0A0FAFFF712FD0A
:100EB000074B2C75C018D0231B061B6880006B7570
:100EC000044BA4006860E55070BDC046E90F0010F7
:100ED00040000034841C0020074810B50268EFF37E
:100EE000108172B61368002BFCD0BFF35F8F03F044
:100EF0004FF90020002110BD3C210020032330B514
:100F00001C0053434C43033BC318033C9970015DE1
:100F10000519002901D12A7030BD5970FBE7000086
:100F2000F0B585B002930CAB1C780DAB1B780700B5
:100F3000056801920393002C10D1AC7B002C47D0A4
:100F4000032363432A68033BD3185A78AA73002A01
:100F500000D1EA7300229A705A701A70214BBA6855
:100F6000E3181B01D318019A1A60029A5A600A9A70
:100F70009A600B9ADA60032363432A68033BD31811
:100F800000229A705A701A706E7B964228D0220006
:100F90003100A8686B68984700281CD022003100F7
:100FA0002868FFF7ABFF6E73A64211D1387D019A16
:100FB000029B00F065FA051E06D0039B002B03D1AF
:100FC0002100386800F07EFB0E9B002B00D01D70C6
:100FD000200005B0F0BD320021002868FFF78EFF29
:100FE0002600E0E7FFFFFF0F0023F0B58FB00C9362
:100FF0005E4B8200D4580D9000F0EEF902000B0019
:101000006068EFF31081089172B601680029FCD086
:10101000BFF35F8F21688C46497B0791002971D00F
:10102000534907984518A1682D014D19286869682A
:1010300006000F00B61A9F41002F57DC01D1002E89
:1010400054D10021604600F033FB2A686B680A9295
:101050000B93E368079AAF689B18013B1B78ED6818
:101060000C931B020343002023616368BFF35F8F6F
:1010700000221A60089B83F31088974271D00C9B62
:1010800029001802079B1843B84708900991626825
:10109000EFF310831E0072B61368002BFCD0BFF371
:1010A0005F8F099B002B35DA2369002B40D00A9A09
:1010B0000B9B08980999121A8B41002B02DA012226
:1010C0002C4B5242002104910131039107992000D9
:1010D000029101950097FFF723FF002263682261C8
:1010E000BFF35F8F1A6086F3108885E702000B005C
:1010F0000D9800F0C5F90025002200232F000A9268
:101100000B93B2E700220023079D0A920B932F0056
:101110002800AAE7089B099A134309D02369002BEA
:1011200006D000F059F9089A099B12184B41C4E700
:101130002368D97B002906D003224A4319688A18FC
:101140000799033A51709A7B002A01D1079A9A7342
:10115000079ADA731300E168013BCA5C0132CA5492
:10116000BBE7002800D047E70FB0F0BD841C00208B
:10117000FFFFFF0FFFFFFF7F10B50B4C6368002BD5
:101180000CD110212300094A206800F03DFA032009
:1011900000F016F903212000FFF77EFE0A21044823
:1011A000FFF714FE10BDC046E4090020690E0010D0
:1011B0003C210020F0B58DB01F0014AB1B7800253A
:1011C00009931F230400160004AA9B181D7062686F
:1011D000EFF31083069372B61368002BFCD0BFF3B5
:1011E0005F8F1F2304AA9B180493139B3200019363
:1011F000129B2000009303953B000295FFF790FEA1
:1012000002000020824203D0E3689B18013B18785B
:101210006168BFF35F8F069B0D6083F31088002A1F
:101220001CD004ABD97F00291BD1000210430DB0A4
:10123000F0BD06900791002909DA069A079BB61AB5
:101240009F41002FC3DA01260C4F7642BFE700F022
:10125000C3F8069E079F36184F41F2E7012040422F
:10126000E5E7099B002B06D0129B002013999847B5
:1012700003000B43DDD10020D9E7C046FFFFFF7F0D
:10128000F8B50B0004004168EFF3108572B60A68E8
:10129000002AFCD0BFF35F8F2768D9B2787BDAB21F
:1012A000884207D00326564338688619033EB07833
:1012B000002813D0E0681B0A8218013A1278DBB2CA
:1012C00000209A4202D1380000F0FCF96368BFF3B5
:1012D0005F8F00221A6085F31088F8BD22699A4258
:1012E000F4D12061F2E700007FB5EFF3058305003C
:1012F0000C00002B05D028002100FFF7A1FD04B051
:1013000070BD084E02930193074B0200009330001A
:101310000B00FFF74FFF011EEDDD20BF3000FFF790
:10132000AFFFE8E7E4090020D90E0010F7B5EFF3AE
:101330000583180001931038EFF3108772B6194B2C
:101340001B68002BFBD0BFF35F8F0126310081406B
:10135000154B164D69631960154B1B781A00C24076
:1013600094466446002234420AD0124E6C6A8500CC
:10137000AE59B4420FD3104A8B430D49AA580B7093
:10138000BFF35F8F002307490B6087F310889A42F1
:1013900000D09047F7BD019B08499B005B18196876
:1013A0001960EDE7280100D03C7005400040054081
:1013B000382400204021002028170020D03F05407D
:1013C00010B50100024A0348FFF72FFA10BDC046CE
:1013D000D6860010EE230020034B596A0A00986A53
:1013E000596A8A42FAD1704700400540F7B50400B7
:1013F0000D00EFF31083009372B61C4F3B68002B77
:10140000FCD0BFF35F8FA300194E0193002D1BD0BA
:101410002000FFF7BDFA86420BD031002000FFF715
:10142000BFFA01212000FFF7ABFA0123A340114AC4
:101430001360114B019A9D50BFF35F8F00233B60F7
:10144000009B83F31088F7BD0B4BA2009D50012237
:10145000A2400A4920000B7893430B703100FFF73C
:101460008FFB29002000FFF78BFAE5E7280100D069
:101470002D13001038600540281700203824002064
:10148000F0B585B01E0004000192FFF7A5FF8E4263
:1014900003D847D1019B834244D9EFF310830393D0
:1014A00072B6214B1B68002BFBD0BFF35F8F012569
:1014B000A5401E4B1E4F1B7800932B43DBB20293BB
:1014C000029A1A4B1A70019A231D9B007D63DA5110
:1014D000184AA3009E503B6A2B420AD10020BFF35A
:1014E0005F8F0023104A1360039B83F3108805B0BD
:1014F000F0BDFFF771FF8E42F0D802D1019B83420D
:10150000ECD8029B009A01209342E8D01F230200EE
:101510001C40A240084B3D627D631A60034B009A59
:101520001A70DCE70120E2E7280100D0382400200F
:10153000004005404021002080E200E010B5EFF3BC
:10154000108472B60A490B68002BFCD0BFF35F8F82
:1015500001238340074A0848136202789A430270C5
:10156000BFF35F8F00230B6084F3108810BDC0466B
:10157000280100D00040054038240020032330B566
:101580001C0053434C43033BC318033C9970015D5B
:101590000519002901D12A7030BD5970FBE770B5DB
:1015A00006000C001500002912D0002A09D080681E
:1015B00073689847002806D02A0021003068FFF79A
:1015C000DDFF200070BD220029003068FFF7D6FF44
:1015D0002C00F6E70122002330B5047B82734373AD
:1015E0000268C47303200133DDB2AC4205D8002386
:1015F00060431218033A537030BD0100594351182B
:10160000033901354D70EEE710B501734260836018
:10161000FFF7E0FF10BD70B5040000291DD005687C
:10162000032003004B43033BEB185A78002A14D0E5
:101630000026504303382818457846705E70200015
:10164000FFF7ADFF290006002000FFF7E4FF31009F
:1016500002002000FFF7A3FF0100080070BDF7B5EE
:1016600003273E004E430368033E0D00995D0400CE
:101670000192FFF7D0FF019B002B0CD0E37B002BE6
:1016800004D05F432368DF19033F7D70A37B002BE9
:1016900000D1A573E5732268002805D0032300213B
:1016A0004343D318033B9970002392195370FEBD36
:1016B00070B5457B0A0029000400FFF7D0FF607376
:1016C000280070BD70B50400081E07D0637B8B42F4
:1016D00005D101212000FFF7EBFF012070BD03269B
:1016E00033004B432568033BEB189A78101EF5D066
:1016F0007243033AA818AA5C8A4211D15A78027040
:10170000002220009A705A700132FFF7A8FF617B17
:1017100002002000FFF743FF6073DEE7002AEFD0EE
:101720007243033AA81842788A42F7D15A78427035
:10173000E6E7000070B5060006200C0000F056F940
:101740002100C00001F080FA0124C50907D00E4B2A
:101750009D4215D87F23184000192C004508802091
:10176000002374628001B5622C3606433360062084
:1017700000F03CF9A1014919800001F065FA70BD43
:101780000025024CEBE7C046FEFF0000FFFF000013
:1017900070B5040006200D0000F028F900282ED0B6
:1017A000194B9C422CD08023DB03184A1849136044
:1017B000184A136018008A689043FBD1164B8021A9
:1017C000E3185A425341154A5B00490099522000E0
:1017D0002900FFF7AFFF6023E26A210053406E2229
:1017E000134080222C3152010A4313600C4B10220B
:1017F000236380239B010B431A600323A36470BD02
:1018000080231B04D1E7C0460080034000E0004075
:1018100000C0004000F000400080FCBFD422002047
:1018200001030000F0B585B003920A9A05000F008D
:1018300000209A4240D80C241A0E1B0202920193F7
:101840000A9A03000299019801F03CFA6C43284B74
:101850000600E4186368834200D260602B1FDBB28D
:101860000093C023009A9B012343012A26D8012F0D
:1018700024D103221A60A3683B42FCD0039A236858
:1018800052015A408021E02349011A40009B214324
:101890000A60012B21D9802380229B01234312015E
:1018A0001A600198002332000299666001F00AFA7A
:1018B000104BAD005851012005B0F0BD802212013F
:1018C0001A600C4BAA00D1580029D7D0586901F0F2
:1018D000BBF901300138FDD1D0E7032223687B40FA
:1018E00013400B600123BB40A2681342FCD0D2E737
:1018F000008000404418002073B50C2000F0CAF8A6
:10190000FEF76AFF00280AD000232C4A2C489900D1
:10191000013388500A2BFAD12A4B536273BD2A4DEA
:10192000A86700F0BFF80122284B1A606B6C012BEE
:10193000FCD10322264B1A60AC6B012CFCD1022592
:101940000526210000950623224A234800F054F87A
:1019500033002100214A2248009600F04DF8214B27
:101960002900214D009300220420FFF75BFF2B008C
:101970002100002230000095FFF754FF0022104C98
:101980001100230000940720FFF74CFF00222300E2
:10199000110000940820FFF745FF0022094B1100B9
:1019A000009309202300FFF73DFF00222B001100C8
:1019B00000950620FFF736FFB0E7C0464418002028
:1019C000006CDC021BB70000008000403CB000400F
:1019D00030B00040002F685900800240008C8647DC
:1019E00000C00240001BB70040597307014B800044
:1019F000C058704744180020F8B504000C201700A8
:101A00001E000D0001F020F91D494143380001F08E
:101A10001BF9069A3304120313432268002A0FDAD3
:101A20003F2122680A40AA420AD1A2681205120D7B
:101A3000824205D1EE21E268C9020A409A421BD0D7
:101A4000104A944219D0802252010F490F4E0A6069
:101A50000F490A601700B1688F43FBD1C022211DD6
:101A600092010A4321212560A060116021680029AC
:101A7000FCDAE36008231360F8BD80229201E4E7FA
:101A800040420F0000C0024000E0004000C00040A3
:101A900000F000408023024A9B000343D36270475A
:101AA00000800540AA22064B12011A602F22054928
:101AB000DA60054A11605A68002AFCDA7047C046AD
:101AC0000040024000B0FA0000600240234B244A6C
:101AD00070B51A60234E244B244D33601900AA6858
:101AE0009143FBD1224C234B9C4224D3FFF704FFAC
:101AF000214B3360AB68DB018033FBD140221F4BAD
:101B00001F4C9A675A671A67DA661E4B9C4215D3B8
:101B10001D4C1E4DA168C022280001F037FFA560B2
:101B2000FEF7CAFEFFF740F9FFF726FB184C194BEA
:101B30009C420FD370BD08CC9847D4E7236820009F
:101B4000002B03D0FFF758F90C34DEE7FFF746F916
:101B50000834DAE708CC9847E9E7C04600E00040DF
:101B6000BFCDFBFE00F00040FE7F3C0000C0004007
:101B7000C8120020D8120020FFFFFF0100F0014032
:101B8000B8120020C812002000ED00E00000002084
:101B9000D8120020E412002000BEFDE7084A03002E
:101BA0001168002901D10749116010680649C3185E
:101BB0008B4201D81360704701204042FBE7C046CA
:101BC00078180020402402200000042010B5FFF700
:101BD000E3FF00000FB407B5084801F0DFFF049BE6
:101BE000002B07D005A91800019100F0BBFF0448A5
:101BF00001F0D4FF0120FFF7CFFFC046F8860010A8
:101C00000687001010B50148FFF7E4FF08870010B1
:101C100010B50148FFF7DEFF168700107047F7B5D3
:101C200000930B9B04000E0017009B0720D001922D
:101C3000099D019A099B9818421B002D1AD10B9BF4
:101C4000C51B9B0723D4FEBD31002020009BA0476D
:101C50000135099BFA1A0A9B52199D42F4D3099A3D
:101C60000A9900238A4200D88B1ADB190193DFE717
:101C7000099DEEE7089B013D585D3100009BA047A0
:101C8000D7E7020031002020009BA04701350A9BC6
:101C90007819AB42F5D8D6E7F0B589B0070010A89F
:101CA00006781498059106920E990F9A139C079343
:101CB00083071ED401250540002C07D0002D05D038
:101CC000002E02D10C23184200D0013C30239C4648
:101CD00004E0202A05D063468B540132129B9342C4
:101CE000F7D830239C46002D03D0A24201D21F2AF0
:101CF00019D9C3063AD543051AD4002A18D0129B25
:101D00009A4201D0A24213D1551E012A0FD0119B35
:101D1000023A102B0FD02A00119B022B21D11F2A2F
:101D20000ED862251BE063468B540132DBE72A00A4
:101D3000119B102BF0D183060ED478251F2A0ED9C3
:101D40000390019200913800079B069A059902942E
:101D5000FFF765FF09B0F0BD58251F2AF0D88D5454
:101D600001321F2AECD830258D5401321F2AE7D8C2
:101D70002D25002E05D12B25430702D40307DFD5DF
:101D800020258D540132DBE7F0B597B00A921CAAEA
:101D90000B9308CA0D001278219C09900C92002B1D
:101DA00001D110229443620501D5002B1FD061227E
:101DB000A10600D541221E000027D2B20A3A0D9298
:101DC00030001E9900F040FF0D9ACBB29A1884465D
:101DD000D2B2092901D83033DAB2202006A9091875
:101DE000CA551E9A7B1C964201D3834213D1209A76
:101DF000019305921F9A0EAB04921E9A00930392D0
:101E00000C9A290002920B9B0A9A09980694FFF7F4
:101E100043FF17B0F0BD1F006646D1E7F0B59BB099
:101E20000D9322AB1B78209D0E932B00219C249FA9
:101E3000259E0A900B910C92234303D1289A1033CC
:101E40009A432892289B5B0504D52A00002322434D
:101E50009A422AD0289A6123920600D54123002273
:101E6000DBB20A3B09920F933A00330028002100AD
:101E700000F028FF0F9BD2B2D318DBB29C46109023
:101E80001191092A02D83032D3B29C4620200AAAE6
:101E900012186046099B099901335054A64204D890
:101EA00001D1AF4201D8202B13D1289A0193069279
:101EB000279A12AB0592269A009304920E9A0D9BD4
:101EC00002920B990C9A0A980397FFF7E5FE1BB054
:101ED000F0BD109D119C0993C6E70000F0B595B0C8
:101EE0000E931A9B0F920A931B9B0A9A0B930B9BC0
:101EF0000C900D911000190001F06FF9002811D11C
:101F00000122D44B0A980B99524201F061F9002842
:101F100008D10122D04B0A980B99524201F042F9A4
:101F2000002813D01E9B0A9A04931D9B0D990393BE
:101F30001C9B0C9802930B9B009201930F9A0E9B93
:101F400000F0BCF90200100015B0F0BD0022002323
:101F50000A980B9901F026F9002800D165E180224A
:101F6000120694460A9B06930B9B634407938023B7
:101F70001E9ADB001A4011921E9A1A4201D10623C2
:101F80001C93069D079B069E079F1D4300D151E1B0
:101F90005800B24B400DC01801F032F9B04AB14BB5
:101FA00001F0BDF8B04AB14B01F092F8079BB04A7E
:101FB0001B031B0B1A4304000D0030001100AD4B36
:101FC000002201F07CF8AC4AAC4B01F0A8F802000A
:101FD0000B002000290001F07BF801F029F909909D
:101FE00001F00EF9A64AA74B06000F0001F097F882
:101FF0000022A54B01F06CF801F01AF9A34AA44B9A
:1020000039001090300001F08AF8060010980F0097
:1020100001F0F6F89F4AA04B01F081F802000B0096
:102020003000390001F04BF802000B0004000D00F5
:1020300001F075F8220006000F002B002000290097
:1020400001F046F8002212901391944B30003900B1
:1020500001F047F80022924B01F03AF802000B0021
:102060003000390001F03DF800228E4B01F030F8CD
:1020700002000B003000390001F033F80F0080211E
:10208000060022002B000020C90501F018F802000C
:102090000B003000390001F01BF802000B00129811
:1020A000139901F01EF80022714B01F011F87E4BDC
:1020B000109C9C4664440022230501F030F8069AE7
:1020C000079B06000F0001F083F800280AD0099B47
:1020D0003000013B390009930022714B01F001F8F7
:1020E00006000F00099B05246333C62B00D8A2E02D
:1020F0001E9B1B0523D533003B4311D0069807993F
:102100006A4A6B4B01F05CF8002800D197E0069812
:1021100007990022674B01F045F8002800D18EE0B6
:102120001C9B099A934200DC87E09D1A6B1E1C934E
:10213000802300241E9ADB001A431E9209941D9BE3
:1021400000259C4200D21D1B02231E9A1A401092A9
:102150001E9A1A4203D0634263415B421D40099BB1
:10216000002B07D00698079932003B0000F0B9FF1A
:1021700006900791002200230A980B9901F012F8AB
:10218000002809D080200006844606990A00079995
:1021900061440B00069207931E9A474B0D9913401A
:1021A00004931C9B0C9802930395069A079B00923C
:1021B00001930F9A0E9B00F081F80200002C00D1D1
:1021C000C1E61E9B45209B0600D420300E9B0D9936
:1021D0000C9D561CA84705230593002303930A333F
:1021E0000293099B013CDB0F0193099B0D99DA17C0
:1021F0009D1855400E9B32000C9804940095FFF7F3
:10220000C3FD109B0200002B00D19CE60F9BC41A5B
:102210000F9B1A191D9BA34200D894E620200E9B09
:102220000D990C9DA8470134F2E70A980B99069086
:1022300007919CE6099504245AE7002377E71C9B45
:10224000002B00D17BE7119B5A1E93411C9AD31A95
:102250001C9374E7FFFFEF7FFFFFEFFF01FCFFFF21
:10226000FB799F501344D33FB3C8608B288AC63F85
:102270000000F03F0000F83F61436F63A787D23F43
:1022800071A379094F930A400000E03F1655B5BB92
:10229000B16B0240EF39FAFE422EE63F00002C40BF
:1022A0000000244000001840FF0300002D431CEBF9
:1022B000E2361A3F80842E41FFF7FFFFF0B59BB056
:1022C000209E219F09900A910B920C9332003B00B3
:1022D00030003900229C00F080FF002808D0249BA9
:1022E0000393239B029303230193B04B009324E0B9
:1022F000012230003900AE4B524200F053FF00285B
:1023000007D0249B0393239B029304230193A94B9F
:10231000ECE7012230003900A74B524200F058FF91
:10232000002814D00423249A1A420DD0A34A2499D9
:10233000019303912399009202910C9B0B9A0A99A5
:102340000998FFF76CFC1FE003239D4AEFE700228A
:10235000300039009B4B00F03BFF002807D10022E2
:1023600030003900984B00F01DFF00280ED0249B50
:10237000009601970493239B0B9A03930A990C9B55
:1023800009980294FFF7AAFD1BB0F0BD00220023BC
:102390003000390000F006FF002877D03B00320003
:1023A0000020002100F08BFE012306000F000D939A
:1023B000249B5B056CD52200302112AB203A089497
:1023C0000898251A092807D9089819700138089023
:1023D00001339042F4D120253900300000F028FF6D
:1023E000089B0790DA00794B9B185C681B680E937A
:1023F0000F9400F005FF02000B003000390000F0E0
:102400005EFE0E9A0F9B00F08AFE1090119100F074
:1024100033FF040000F0F0FE02000B001098119949
:1024200000F04DFE00226A4B1090119100F0D0FE9A
:1024300000282FD00134200000F0DEFE02000B0047
:102440000E980F9900F0B4FE002803D00024079BDB
:1024500001330793089B002B2AD00A26202D47D151
:102460000323249A1340012B00D08BE0239B002BE5
:1024700000D187E00D9B002B02D10C331A4202D011
:10248000239B013B2393302212AB6FE00D908FE72B
:10249000062490E70022109811994D4B00F082FE1F
:1024A0000028D7D1002C01D0E307D3D50134D1E7E0
:1024B000079800F0A5FE02000B003000390000F084
:1024C000FEFD0022424B06000F0000F06BFE0028CC
:1024D0000CD10022300039003D4B00F079FE00287D
:1024E00004D10123079A1340D31807930A2438E034
:1024F000089B0CAA013B0893172331009B1820006E
:102500000135EF1800F0A0FB3031397020003100A8
:1025100000F09AFB092C0CD83020089B12A95B19FB
:10252000202D9DD06A1C9D4205D12E234B551500B0
:10253000DCE7040092E748551500F1E717230CAAE1
:102540009B18079821000135EE1800F055FB30313B
:1025500007983170210000F04FFB0790002800D150
:102560007EE7202DEAD17BE7EA5401352399A94281
:1025700008D9202DF8D1249B01950393239B029326
:1025800012ABB3E6202DF6D00D9A12AB002A03D081
:102590002D225A550135EEE7249A520701D52B22F8
:1025A000F7E7249A1207E6D52022F2E72B870010DE
:1025B000FFFFEFFF2F870010FFFFEF7F2687001040
:1025C0002287001065CDCD4165CDCDC13887001083
:1025D0000000E03F10B5002801D001F0AFFA10BDB7
:1025E00010B5002802D00B684968984710BD00005C
:1025F000F0B59BB015000F938C4A8D4B209F0D902A
:102600000E911A60002901D18A4B0D9300260BE030
:102610000F9B01330F93252816D03200741C2B001A
:102620000D9E0E99B04726000F9B18780028EFD119
:102630003200AE4200D36A1E2B0000200E990D9C82
:10264000A04730001BB0F0BD00230120082405E0A6
:102650002D2A16D0302A0CD103430F910F9A0F99CF
:10266000127801312B2A0FD0F2D8202A0ED0232A3B
:102670000ED01000303809282CD800220A240B92E2
:102680000EE002221343E8E70422FBE72343E4E7DA
:102690001022F7E70B9A0F906243303A8A180B9298
:1026A0000F9A1178501C0A00303A092AF2D90020FA
:1026B0000F9A0C9011782E2928D18021C9000B4344
:1026C0000F99013249780800303809283CD80A218E
:1026D0008C4615E000200B902A2AE8D104CF0B92FB
:1026E000824204DA022213430B9A52420B920F9158
:1026F000DDE760460C9A4243303A8A180C92220079
:102700001178541C080030380928F2D91078511C6F
:102710006C282CD024D8682831D06A2837D01100F2
:102720000C784A1C0F92782C04D8572C32D8452CA0
:102730005CD056D8731C320020000B930E992B00EE
:102740000D9CA0470B9E6FE72A29DFD104CF0C9286
:10275000D2430C99D21711400F9A0C910232D5E74F
:10276000742801D07A28DAD1802252000BE0507808
:102770006C28F9D1C02189000B43911CD0E7507817
:10278000682802D080221343CAE7C021F4E78022E0
:102790009200F8E7200058382028CBD805F0D4FD67
:1027A0004C00CAFFCAFFCAFFCAFFCAFFCAFFCAFF5E
:1027B000CAFFCAFF4C00FB004C002600E8002600C0
:1027C000CAFF4C00CAFFCAFFCAFFCAFFCAFF4C00BB
:1027D000B601CAFFCAFF4301CAFF4C00CAFFCAFFC5
:1027E0004C00462C00D1C1E0472CA3D1202221006F
:1027F0009143472904D180221201134302229443BA
:10280000452C01D120221343072204930B9B073749
:1028100003930C9B974302930CCF0E990092019364
:102820000D982B003200FFF759FBB2E0F1250010A4
:102830007C1C00201D1C0010782C47D0582C00D187
:1028400078E16F2C00D179E1622C00D178E110227F
:102850009343063A692C03D0642C01D00C218B439E
:10286000590501D501218B43802189001940692C2C
:1028700001D0642C46D100292AD0072107378F4385
:102880003C0003CF08930B9B049207930C9B0834E6
:10289000069300230593CB0F0293CB17119310934C
:1028A00043401493119B4B401593149A159B109819
:1028B0001199121A8B41009201930E992B0032004C
:1028C0000D98FFF7ABFA06002700ADE61022C5E72A
:1028D0003C1DD9050DD5396805930B9B02920493D5
:1028E0000C9B0393CB0F0193CB17C9185940009150
:1028F00024E03968580601D5C9B2EDE71806EBD5D2
:1029000009B2E9E700290DD008930B9B0721079333
:102910000C9BFC1D069300238C43049205930293A9
:102920000CCCC8E73C1DD8050FD505930B9B029234
:1029300004930C9B019103933B6800932B0032009E
:102940000E990D98FFF720FABDE73968580609D5AA
:10295000C9B205930B9B029204930C9B0393002333
:102960000193C4E71806F4D589B2F2E72022134395
:10297000072204930B9B073703930C9B9743029307
:102980000CCF0E99009201930D982B003200FFF7A7
:1029900095FC060048E602221A4012920222012407
:1029A000134218D1320005E02B0020200E990D9C17
:1029B000A0470C9A0B99531C0C939B1B8B42F3D38F
:1029C0000023994201D00B00013BF6180B9B022417
:1029D000002B00D05C1C01CF731C32000C930E99AD
:1029E0002B000D9EC0B2B047129B002B19D00C9A41
:1029F00012940AE0531C139320202B000E990D9E75
:102A0000B047129B139A013312930B9B1299994270
:102A1000F0D30B9A0023A24200D3131B0C9AD318B5
:102A20000C930C9E00E6390004C913920C9A16917F
:102A3000002A01D10122524213990C008A182178F0
:102A4000002901D0A24214D1139A1900A41A80229D
:102A5000D20011401791134203D00C9A944200D92E
:102A6000140002221A4018920222134217D1320097
:102A700009E00134E3E7531C129320202B000E9948
:102A80000D9FB847129AA31B0B99D3189942F2D8FD
:102A90000023A14200D30B1B0134F6181C19129617
:102AA0000AE00C93129B129A013319930E992B0092
:102AB0000D9FB847199B1293139B129A9B1B985C0E
:102AC000002807D0179B002BECD00C9B0C9A013BE5
:102AD000002AE6D1189B002B15D0129A06E0561C4E
:102AE0002B0020200E990D9FB8473200129B0B99A6
:102AF000E31A9B189942F2D80023A14200D30B1B82
:102B0000129AD3181293169F129E8DE52122134319
:102B10000593082304930C9B320003931023029324
:102B20000023019308CF0E9900930D982B00FFF717
:102B30002BF92EE720221343103A8FE608228DE668
:102B400002228BE61FB503910121029000930448F5
:102B500013004A4202A9FFF74BFD05B000BDC04675
:102B6000E12500101FB5094B1C68002C09D001227B
:102B7000030000910648524203A9A047012004B077
:102B800010BD01F00BF82000F9E7C0467C1C0020C6
:102B9000D525001001480421014B1847100A0020D8
:102BA000D12B0010014B5B6818470000100A002071
:102BB000142310B50100188804331B88984710BDF2
:102BC000162310B50100188802331B88984710BDE2
:102BD000F8B50E00040000270125B74201D12800F6
:102BE000F8BD2068FFF7E4FF01C4431E984140424E
:102BF00005400137F1E70000124A936F9B0815D298
:102C00009066D166002905D0FFE7FFE7FFE7516F27
:102C1000106F704704B580210906C2175140002883
:102C200000D0C84305F080FB002104BDF0B5146E50
:102C3000556E576F166FFFF7E3FF146655665767BB
:102C40001667F0BD000000D0114A936F9B0813D2A5
:102C500010665166002905D0FFE7FFE7FFE7516FD7
:102C6000106F704704B5002801D00020C04305F064
:102C70005BFB002104BDC046F0B5146E556E576F66
:102C8000166FFFF7E5FF1466556657671667F0BDC8
:102C9000000000D094464A4A926F9208624601D2E0
:102CA00028E0C046F0B5464E346E756E776F366FCD
:102CB00000F020F89446424A146655665767166736
:102CC0006246F0BD94463E4A926F9208624601D237
:102CD00054E0C046F0B53A4E346E756E776F366F7D
:102CE00000F04CF89446364A1466556657671667E6
:102CF0006246F0BD002B24DB11D000293EDA00B57E
:102D0000C943404200D1013100F038F8C943404284
:102D100000D10131DB43524200D1013300BD002A12
:102D2000EBD1002801D1002905D00020C90FC90727
:102D300001D1C043410800B505F0EEFA002200239E
:102D400000BD00B500290ADBDB43524200D101334C
:102D500000F014F8C943404200D1013100BDC9431D
:102D6000404200D10131DB43524200D1013300F037
:102D700005F8DB43524200D1013300BD002923D1C5
:102D8000002B18D1002A0CD0BC460D4F38667A664D
:102D900000210023FFE7FFE7FFE77A6F386F674600
:102DA0007047002801D00748010000B505F0B4FACB
:102DB0000022002300BD02000B000020002170470C
:102DC000000000D0FFFFFFFF002B00D0BFE0130C7E
:102DD00028D1002AE7D080B4114F39667A66FFE720
:102DE000FFE730B4040C7B6F396F1B0423433B6651
:102DF0007A66FFE7FFE7FFE7C04684B27B6F3D6F6F
:102E00001B0423433B667A66FFE7FFE7C0460023C7
:102E10002C042D0C7A6F386F00196941B0BC7047D3
:102E2000000000D0F0B594460025140E01D1120226
:102E30000835140F01D112010435940F01D192000D
:102E40000235D40F01D152000135D40B0134254F86
:102E50007C66254C3C660E0C93B2FFE7FFE7FFE76C
:102E60003C6F6643360C7703BE467343DF0B5B044F
:102E7000C01AB941130C7343DB18C91ACE08664354
:102E8000360CB64493B273431F0F1B01C01AB941ED
:102E9000130C73431F0B1B05C01AB941860D8F021B
:102EA0003E436643360C092D24DB520A7243801AD6
:102EB0007703460A6643360C16235B1BDE40DF4071
:102EC000BF1964466643821B704604350633010011
:102ED000D940A840C01900D30131A24206D2002334
:102EE000F0BD0000000000D0FFFFFFFF121B01300B
:102EF000F3D3F1E709277F1BFE406446A2B2724379
:102F0000801A00D20139220C7243130C1204821A67
:102F100099410B007046043513370100F940A84071
:102F2000801900D30131002B02D1A2420AD2F0BD98
:102F3000013000D30131121BFAD2013BF8D1A24279
:102F400000D2F0BD013000D30131121BF7E7F0B51C
:102F50001C0C00D080E00CB400251C0A04D11B021C
:102F6000160E3343120208351C0B04D11B01160F39
:102F70003343120104359C0B04D19B00960F33435D
:102F800092000235DC0B02D192185B4101351C0026
:102F9000971864410134464F7C66464C3C660E0CE3
:102FA000FFE7FFE7FFE7C0463C6F6643360C770359
:102FB000BE4697B27743C01B00D20139C01B00D276
:102FC00001399FB27743C91BC91B170C77437E0495
:102FD000FF0B801BB941CE086643360C0C2D33DB4A
:102FE000B644120B1F053A431B0B97B27743C01B25
:102FF00000D201399FB27743C91B170C77433E04B7
:103000003F0C801BB941860D8F023E436643292742
:103010007F1BFE400C3D7746AF40BF1930BCA2B2CB
:10302000ABB272437343801A9941220C7243130C62
:103030001204801A994102000B000137001BA941BC
:10304000F9D2781E0021F0BD0C277F1BFE40774689
:103050007F0BAF40FF19E0E700245D1C07D0144F41
:103060007D663966FFE7FFE7FFE7FFE73C6F95B254
:103070009EB265436643401BB141150C1E0C65436F
:10308000664336042F0C3E432D04401BB141994248
:1030900004D202000B0020000021F0BD01D19042BB
:1030A000F7D3801A994101349942F2D3F6E7000030
:1030B000000000D0FFFFFFFF48404140484018B4E7
:1030C0001B4B5B68FC46019308BD04DF1B330010FB
:1030D00018B4174B1B68FC46019308BD00DF25336D
:1030E00000109446134A926F920809D2624618B4AF
:1030F0000F4BDB68FC46019308BD0CDFDD3500108B
:103100000C4AF0B5146E556E576F166F6246FFF796
:10311000EEFF084A1466556657671667F0BD18B487
:10312000034B9B68FC46019308BD08DF8134001007
:10313000381F0020000000D0FFB5504042405040F2
:1031400059404B40594000E0FFB5154F4C00640D0D
:1031500003D0BC4204D10C0314D80020090D09058A
:103160005C00640D03D0BC4204D11C030AD80022C9
:103170001B0D1B0501264B4009D44B4003D58B4248
:1031800000D18242FFBD9942FCD19042FFBD0B436A
:10319000DB1803431343F5D0C9434918FFBD0000B2
:1031A000FF07000000B5FFF7CFFF804100BDC0461C
:1031B00000B5FFF7C9FF01D9002000BD012000BD07
:1031C00000B5FFF7B9FF01D9002000BD012000BD07
:1031D00000B5FFF7B1FF804100BD012040054A0066
:1031E000121804D85A00121801D800207047012084
:1031F00070470020704700000021002805D170476B
:10320000C1174840401AFAD0C90713B5064B1B68CE
:1032100098470CBC441CA2401005120B0349091B23
:1032200009051943114310BD382000201F04000078
:1032300010B54C00620D8023D218DB00D21A5B055A
:103240007E2A10DD9E3A13DACC1709034908194388
:103250005242D140640001341532202A05DAD040B0
:103260000843604310BD002010BD0846604310BDF8
:10327000C80FC018013810BD18B4044B5B6AFC4677
:10328000019308BD24DF8D3700100000381F002097
:10329000132370B51C780F4D012C0ED100230E495D
:1032A0009A000133A950202BFAD10B4BAB640B4889
:1032B000FFF77EFC0A4B186070BD012CF5DD094854
:1032C000FFF77EFC80220100280000F05FFB022C4B
:1032D000EDD1EAE7381F0020E93200104C3300003E
:1032E000382000205344000007B5604601880A0AD0
:1032F0000230DF2AFAD1C9B2820804D3028840889A
:103300000004104300E00068014A5050039007BDDC
:10331000381F00200FB403BC0CBCF0B50124E40737
:10332000634000E0F0B50C0DCF0F661E3605891B1B
:10333000640503D3C943404200D30131640D03D077
:10334000661CF60A07D0E41B00207F00791C890761
:103350008912803C24031D0DDF0F6E1E36059B1B5A
:103360006D0503D3DB43524200D301336D0D03D00F
:103370006E1CF60A07D0ED1B00227F007B1C9B070A
:103380009B12803D2D032F1B661B58D4A446202E74
:1033900046DA20371400BC401D00BD40F2403341E6
:1033A0002A4380185941CB0F05D0C943C04300229E
:1033B00064425041514162464D0D28D10D0D07D157
:1033C00000281FD0241940414941013A0D0DF9D080
:1033D000640006D3013000D30131002C01D1400834
:1033E0004000013A0BD4941CE40A04D112051144A4
:1033F000DB071944F0BDD907204B194300E0D9077A
:103400000020F0BD0029DDD1002CDBD1F0BD013260
:10341000C6074008CD0728434908002EE1D0D9E768
:103420003C2E29DA203E40371400BC4000D0012455
:10343000F24014431A00BB401C43D317ACE7AC4620
:10344000202F08DA20360400B4400D00B540F840C3
:1034500039412843A5E73C2F0CDA203F40360400D1
:10346000B44000D00124F84004430800B1400C43AC
:10347000C117EAE710001900002494E70000F07F6C
:10348000F0B50C0D661E3605891BE60A6405640D51
:1034900002D0651CED0A04D0002001210905803C02
:1034A0002403A4461C0D671E3F05DB1BE70A6405C9
:1034B000640D02D0651CED0A04D0002201231B0517
:1034C000803C24037740644497B484B296B274433A
:1034D000070C7E43150C6F4380B26843361802D345
:1034E000012000043F183004350C00197D4184464A
:1034F00088B29AB250430C0C62431F0C7C438EB2CC
:103500007E43921902D301263604A4191604170C1F
:103510003618674101BC81B29AB25143040C624330
:103520001B0C5C4380B25843121802D301200004E4
:1035300024181004130C401863412D185E4100201C
:10354000474106BC88B293B258430C0C6343120C3B
:10355000544389B251435B1802D301210904641812
:1035600019041A0C091862416D1856410020474190
:1035700018BCF902720D1143F0026A0D1043ED02FE
:103580000A0D03D16D1940414941013B124E9B1B6D
:103590007600B3420ED26D0007D301300026714190
:1035A0006646354301D1400840001B05C918E407B1
:1035B0002144F0BD0BDA013306D1013004D10131D1
:1035C0004F0D01D04908F2E7E1070020F0BD0136B8
:1035D00031050020EBE70000FF030000F0B51C0DF3
:1035E000671E3F05DB1BE70A6405640D02D0661CFD
:1035F000F60A04D0002201231B05803C2403D025B9
:103600002D060026F6432E661E096E66CE0FF619AD
:10361000B44649004F0D02D07E1CF60A03D00020AC
:103620000021403F3F033E1BB600B444013F7F05ED
:10363000C91B49082E6F013676089C02950D25435B
:103640007543ED137543AD1301356D10F603761B0D
:103650000CB4CC02450D2C43A2B2B3B25A43270C92
:103660007B43350C6F43A4B26C431B1902D3012476
:1036700024043F191C041D0CA4187D4124196D411C
:10368000009A91B2ACB26143170C7C432B0C5F43A0
:1036900092B25A43A41802D301221204BF18220482
:1036A000230C52187B41019C6C431B19520ED9010B
:1036B0000A434401A01A81B2B2B2514303145A43DF
:1036C000360C734387B27743D617D21900277E4151
:1036D00036049B191704160C7F185E417316ED18FB
:1036E000F301002680337541A90F06D16400690AF1
:1036F000E8055B0A184309D22FE004229444803382
:103700007541A90AA8059B0A184326D3404149419F
:103710002404009A019B0D005543641B4343E41AA3
:1037200095B286B27543170C7E43030C5F4392B289
:103730005A43B61802D301221204BF183204330CC4
:1037400052197B4152429C41002C02D4002201308C
:1037500051414008CA071043490802B06246D707E2
:103760009210084BD218084B9A4203D212058918BE
:10377000C919F0BD0020002A01DC3900F0BD013379
:103780001905F5E7FD030000FE070000002200B563
:10379000203200F004F8080000BD000000220B15E4
:1037A0000AD410B5944600F031F81414013400DA4C
:1037B0000021CB17144C20470020002170476244A1
:1037C000343A0CD40C2A07DA04009140904052425B
:1037D0002032D440214310BDD843D94310BD2032FC
:1037E00007D40C469440524220321141D04020432D
:1037F00010BD0800C917203203D4524220321041B4
:1038000010BD1800190010BDBF3700100A0DCC0FF5
:10381000531E1B05C91A520503D3C943404200D3A6
:103820000131520D03D0531CDB0A07D0121B0020BC
:103830006400611C89078912803A1203014BD21A75
:1038400070470000FF03000051434343C9188C46F2
:10385000110C83B24B4310B4040C614392B280B29A
:10386000504362431C041B0C001910BC5941130443
:10387000120CC0185141614470470000132310B569
:1038800010481C78FFF79CF90100012C13D10E4C55
:103890005422200000F07AF815230C4A99000133D5
:1038A0006250202BFAD12262E2610948FFF780F9C9
:1038B000084B186010BD012CF7DD8022024800F093
:1038C00065F8F2E7534600003C200020D93800108C
:1038D0004C3300003820002007B5604601880A0AF2
:1038E0000230DF2AFAD1C9B2820804D302884088A4
:1038F0000004104300E00068014A5050039007BDE7
:103900003C20002010B5002803D0044B40189842FA
:1039100002D90348FEF75EF910BDC046000004203E
:103920008887001070B50500084E300004F044FD93
:10393000280004F085F80400300004F0E5FC2900BC
:103940002000FFF7DFFF200070BDC046B812002046
:1039500070B50400054D280004F02EFD200004F091
:1039600079F8280004F0D0FC70BDC046B8120020E1
:1039700001480421014B1847200A0020D12B0010D8
:10398000014B1B6818470000200A0020014B5B68B0
:1039900018470000200A0020030010B5080011009D
:1039A0001B68984710BD0000F8B50C000021437D4E
:1039B0000500160008008B421ED1110020002B6864
:1039C0009847F8BD002927D0631E5B5C0D3B5A4227
:1039D0005341DBB2625C4F1C0A2A0CD1002B0AD186
:1039E000814203DD091A2B68201898470D480221EF
:1039F0002B689847380039008E42E3DC86420DDDA3
:103A0000311A2B6820189847A419013C23780D3BE4
:103A10005A4253412B75D4E72B7DDBE7002ED0DDD6
:103A2000F2E7C046FA87001070B505000A4B1C6823
:103A3000002C01D12C6070BD2368002B0AD0074BED
:103A40001B68002B01D09C4204D12900200004C92E
:103A5000FFF7AAFF2469EBE76C1800207418002018
:103A60000B6870B505000C00802B02D10800FFF731
:103A7000DBFF21684B1C23606418257170BD0000BA
:103A800010B5FDF7A9FC0023054A12184B41002B85
:103A900002DA0122034B5242034804F06DFC10BDD0
:103AA00040420F00FFFFFF7FC012002010B5024808
:103AB00004F02AFC10BDC046C0120020F0B585B04D
:103AC00006000D001C000092FFF7DAFF01906B1C4E
:103AD00003D1300004F0A0FA0500144F002C00D1EF
:103AE000134F144B1C68002C06D1019B002B01D0F6
:103AF000FFF7DCFF05B0F0BD2368002B13D00E4BA1
:103B00001B68002B01D09C420DD12A0031002000FF
:103B1000B847009B002B06D002ABD91D0A23012217
:103B200020000B70B8472469DDE7C04699390010C2
:103B3000A93900106C1800207418002013B56B46CA
:103B40000400D81D002301211A000470FFF7B6FFFE
:103B5000200016BD094A1368002B03D1002908D0A4
:103B6000106006E0834205D1002902D11869106077
:103B7000196170471A001B691032EDE76C180020BC
:103B8000054B10B51C68002C00D110BD6368002BDC
:103B900000D098472469F6E76C18002070B505003E
:103BA00004F03AFA04000100002328000122FFF784
:103BB00085FFFFF7E5FF200070BD000070B5A2B0E3
:103BC00004000E00FFF75CFF0023220001930500B4
:103BD00033000A4801A9FEF7B5FF019B0400002B42
:103BE00002D001A8FFF720FFFFF7CAFF002D01D088
:103BF000FFF75CFF200022B070BDC046613A0010A4
:103C00000FB407B504A901C90191FFF7D7FF03B0AD
:103C100008BC04B0184710B500F0C4F8012010BD6E
:103C2000064B10B51B68002B06D00021044A126811
:103C30009163044A1068984710BDC04638180020A8
:103C4000502100203C180020F7B5194F194A3B6855
:103C5000194E9C1862425441050032680191143497
:103C6000002819D0002A12D120001449FCF798FE30
:103C700001212000FCF784FE50223B689A63596BB7
:103C8000183A1140802234335201134319600C4B0F
:103C9000019A35601A60F7BD002AF8D001009863D8
:103CA0002000FCF76DFE20000449FCF769FFEEE7F9
:103CB000502100200080FCBF38180020213C00105B
:103CC0003C18002070B5002204001025104B1B6822
:103CD00010008A4202DA9E692E4212D00D4909680C
:103CE000002909D0502199635C6B18390C40802160
:103CF000343349010B431C60002A01D103204042A8
:103D000070BD98692842FCD11868A0540132DFE7E1
:103D10005021002038180020F7B5104B104A1B68BE
:103D200001919A1851424A41202400210D4E0090E1
:103D30005200019DA94200DBF7BD0098455C975FEA
:103D4000AF4204D19F692742FCD10D2018609F69C2
:103D50002742FCD11D600131EBE7C0465021002015
:103D60000080FCBFD422002070B50C4E0D001C005A
:103D70003060002A03DB02211000FCF717FD002C45
:103D800003DB02212000FCF711FD29003068FDF75C
:103D9000FFFC01210248FFF7DDFE70BD502100202D
:103DA000300A0020E12110B5054B00221B78054B9D
:103DB00005481B7849020123FFF7D6FF10BDC04616
:103DC000D0890010D4890010004003400123084A24
:103DD00008491360084A136018008A689043FBD1B1
:103DE000064A136080235B0011681942FCD07047BB
:103DF00000E0004000C0004000F0004000C004406F
:103E000010B5024800F00CF810BDC0463024002068
:103E100010B508220149FFF7B9FD10BD302400207C
:103E200070B50024092688B005003200210001A8E1
:103E30000094FFF7A5FD3200210005A80494FFF7C8
:103E40009FFD4B236A466846137004A90D2204F0B7
:103E500053FA1521082228006944FFF797FD08B09E
:103E600070BD70470000000000000000000000006E
:103E70000BA10CC9126892009B581868203080F37F
:103E80000988022080F31488BFF36F8F3FBCAE46D1
:103E900008BC04BC62B61847C046C046C046C0460F
:103EA000000000D0941C0020000000000000000072
:103EB000EFF309811AA00CC8106880001B1818685D
:103EC00020390160F0C144464D4656465F46F0C178
:103ED000146E556E566F176F3039F0C1106808B503
:103EE00072B600F0A7FE62B60CBC1168086810300C
:103EF000F0C8A046A946B246BB4680F309880D2209
:103F000012073038F0C81466556656671767F0C850
:103F10001847C046C046C046C046C046C046C04618
:103F2000000000D0941C002010B5EFF3108472B68E
:103F300001F054F901F04EFB002803D08022044B1D
:103F400052051A6001F084F984F3108810BDC04650
:103F500004ED00E010B5FDF755FE0000D02301226E
:103F60001B06196D114206D1FF221A658022034BF0
:103F700052051A607047996DF3E7C04604ED00E002
:103F800010B58024031F64041C60043B19600349BE
:103F9000043B1960143B40381A6010BD553F0010B7
:103FA0008022044B52051A60BFF34F8FBFF36F8F0F
:103FB0007047C04604ED00E0D0231B061B6808488C
:103FC0009B001A58002A08D00021195005481B5898
:103FD000BFF35F8F116083F3108862B67047C046ED
:103FE000301F002054210020D02300221B065A65D8
:103FF00070470000002310B5084A094C05202360D3
:104000001360FDF7F3FCFA218900FEF71DFE054B56
:10401000013818600723236010BDC04618E000E097
:1040200010E000E014E000E070B5214B214C1A785C
:10403000D0231B061B689A420BD1FFF7DBFFFF233F
:10404000012022681B0613431B492360404201F0F4
:104050000DFEFF23022022681B041343236017492F
:10406000404201F003FE0520D0241549404201F0F2
:10407000FDFDFF2324062365FE3B226D1A4214D169
:104080002568FF210F352800FCF72CFE28000D497C
:10409000FCF786FC01212800FCF772FCFFF7E8FE24
:1040A000206800F0C7FDFDF7ADFDA26DE5E7C04655
:1040B000480A002020ED00E0293F0010B13E00102A
:1040C000633E00105D3F001010B5EFF3108372B631
:1040D000FFF7AAFF10B50E20FCF708FC0F20FCF735
:1040E00005FC0022034B04481A7001F04DFEFFF757
:1040F0009BFFC046480A0020C940001010B50A4B7B
:104100001B78FF2B0CD0EFF30580002802D100F0C4
:10411000ABFE10BDD0231B061B684000C018F8E79B
:10412000D0231B061868F4E7480A002007B5134A95
:1041300003681278FF2A07D1BFF35F8F00221A604D
:1041400081F3108820BF07BDD022120612680C48E8
:10415000920013500B4811500B4A0C489B18012237
:1041600011009B1099400B02194301235B420093FD
:10417000090A0023006800F0C7F8E4E7480A0020B5
:10418000301F00205421002000FFFF2FC8210020F5
:1041900013B51A4B0A001B78FF2B26D00368184969
:1041A0005B1802219B10FF319940090A40BF036848
:1041B000BFF35F8F00241C6082F31088EFF3058348
:1041C000DBB21048A34203D1006800F0EEF813BD43
:1041D000006801AA019400F021F9019B002BF6D0A0
:1041E0008022094B52051A60F1E740BF0368BFF314
:1041F0005F8F0021196082F31088E8E7480A0020E9
:1042000000FFFF2FC821002004ED00E0F7B51D00DE
:104210002C4B07001B780E001400FF2B0BD10368FA
:10422000BFF35F8F00221A6081F3108820002900FD
:10423000FDF75AF8FEBDFDF7CFF822002B00121A49
:104240008B41012120484942801859413F6800298B
:1042500004DC2FD1FA239B0098422BD3FA220023AF
:104260009200FEF717FD002824D0D0231B061B6800
:10427000164A9B009F50164A9E5001221100154B72
:104280000090FF18BF10B94013480B021943006893
:104290000023090A00F038F810494B6A9D4205D8FE
:1042A000896A0120A142C5D29D42C3D1FFF778FEA1
:1042B0000020BFE7BFF35F8F00233B6086F31088C9
:1042C000EAE7C046480A002018FCFFFF301F002024
:1042D0005421002000FFFF2FC8210020004005408E
:1042E00010B500F005F8014B186010BDC821002082
:1042F00010B51C2001F07CFD041E03D0002308C073
:1043000000F096F8200010BDF7B50D0006001F0064
:10431000019200F03FFE2B0034682340002F14D19F
:10432000002B14D1089B002B19D001994B1E9941E9
:104330000906002F02D08023DB041943089A294381
:10434000301D00F06CFE002409E09D42EAD10023FC
:104350000893019B002B02D02300AB43336001F094
:10436000D5F9089B002B15D0002801D100F022FFC1
:1043700001F0BCFA040083010AD400F02FFF346876
:1043800023002B40002F07D1002B07D100F060FF46
:104390002402240A2000FEBD9D42F7D1019B002B80
:1043A000F4D02300AB433360F0E70300F7B504001B
:1043B0000D000C33019300F0EDFD236820691D43CF
:1043C00025600025019B2168984205D1A943216001
:1043D00001F09CF92068FEBD0E00026847681302D8
:1043E0001B0A1E40B4468026F604324204D16646BB
:1043F000002E03D13800E5E76345FBD18026760423
:10440000324200D01D4380239B04194301F0F8F988
:10441000F0E710B5FFF7C9FF10BD000010B513009D
:104420000A000100014801F005FC10BD1344001012
:104430000300083301224360C3600361002352423A
:1044400082600360704700230361704743689A6885
:104450004B608A609A685160996003680861013313
:1044600003607047020030B50C680832631C0AD143
:1044700003695A684A6091608B60596003680861FB
:104480000133036030BD130052681568A542FAD9A4
:10449000EFE70369416882688A6051605968814228
:1044A00000D15A60002202611A68013A1A60186845
:1044B000704710B5040000F091FEA46B00F0C8FE38
:1044C0006042604110BDF8B51500026C0400866BB7
:1044D000002A0CD107681500002F04D1806800F075
:1044E0000DFE0500A76001362800A663F8BD002D6B
:1044F0000CD14068FFF74AFA6368226C9B18A268E7
:1045000063609342EFD323686360ECE7C068FFF712
:104510003DFAE368226C51429A1A2368E2609A429B
:1045200002D2A3685918E160022D05D133005A1E4A
:1045300093410025F61AD6E70025D4E7F7B5876C36
:104540000025BB6BFA6B0190934215D23E002A0006
:104550003800453601A93478FFF7B5FF64B205008D
:10456000631C0BD17B6A002B06D03800243000F08E
:104570002DFC002800D001252800FEBD013464B2C6
:104580003470F9E703001A6C080010B5002A0AD04D
:10459000D9688C189968DC608C4201D31968D9609D
:1045A000D968FFF7F3F910BD70B504002600453651
:1045B00000F014FE35786DB2002D10DCFF2333704F
:1045C0002600443600F044FE00F008FE35786DB257
:1045D000002D18DCFF23337000F03AFE70BDA36C91
:1045E000002B08D02000FFF7A9FF002801D000F021
:1045F00031FC013DDFE7636A002BDFD0200024306F
:1046000000F0E4FBF1E72369002BE3D02000103039
:1046100000F0DCFB002801D000F01CFC013DD6E7D7
:1046200070B504000D0000F0D9FD216CE36B226829
:104630004B43D0185B1A6260D3182200A060E3607D
:104640000020FF234432A0631370537085420ED1C3
:104650002369834207D02000103000F0B7FB002808
:1046600001D000F0A7FD00F0F3FD012070BD200097
:104670001030FFF7DDFE20002430FFF7D9FEF2E70F
:10468000F8B506000800704354300D00170001F023
:10469000AFFB041E0FD00300002D00D05433236065
:1046A00001212000E6632564FFF7BAFF23005033A1
:1046B0001F700023A3642000F8BDF0B504001E00A5
:1046C000002785B00091019200F088FDA36BE26B9A
:1046D000934201D3022E20D1320020000099A56B15
:1046E000FFF7F1FEA36C002B0FD0022E01D1002D9D
:1046F00006D12000FFF722FF002801D000F05AFD6C
:1047000000F0A6FD012005B0F0BD636A002BF3D0D8
:104710002000243000F05AFBEEE7019D002D03D16C
:1047200000F096FD0020EEE7002F02D102A800F075
:1047300085FB00F08DFD00F02DFC00F04FFD220008
:10474000443213785BB2013301D10023137022008D
:10475000453213785BB2013301D10023137000F0AE
:1047600077FD01A902A801F073F800281FD100F01D
:1047700035FDA36BE26B934210D100F069FD200080
:104780000199103000F03CFC2000FFF70DFF00F015
:10479000BDFF002809D100F00DFD06E000F058FD36
:1047A0002000FFF701FF00F0B1FF01278CE7200098
:1047B000FFF7FAFE00F0AAFFB4E7020010B50021EF
:1047C0000120FFF75DFF041E07D000210B000A0047
:1047D00081600160C160FFF770FF200010BDF0B57F
:1047E00085B004001E0003910092EFF3108772B6AB
:1047F00000F0F4FCA36BE26B934202D30025022E7F
:1048000021D12300453301931D78A36B6DB2320093
:10481000200003990293FFF756FE6B1C22D1A36C74
:10482000002B17D0022E04D1029B002B01D00125B2
:1048300009E02000FFF782FE0028F8D0009B002B43
:10484000F5D001251D6000F003FD87F310882800D6
:1048500005B0F0BD636A002BE9D02000243000F0E1
:10486000B5FAE9E7019B01356DB21D70DFE7F0B5E0
:1048700004000E00002785B0019200F0AFFCA56B8C
:10488000002D15D031002000013DFFF77BFEA56310
:104890002369002B07D02000103000F097FA002881
:1048A00001D000F087FC00F0D3FC012005B0F0BD82
:1048B000019D002D03D100F0CBFC0020F6E7002F76
:1048C00002D102A800F0BAFA00F0C2FC00F062FBCC
:1048D00000F084FC2200443213785BB2013301D132
:1048E000002313702200453213785BB2013301D1EB
:1048F0000023137000F0ACFC01A902A800F0A8FF8F
:1049000000281AD12000FFF7D4FD00280FD0200086
:104910000199243000F074FB2000FFF745FE00F001
:10492000F5FE002801D100F045FC0127A5E7200095
:10493000FFF73AFE00F0EAFEF7E72000FFF734FE4B
:1049400000F0E4FE2000FFF7B4FD0028EDD0B4E74E
:10495000F0B5002504002E0085B0019100F03EFC6A
:10496000A36B002B18D0013BA3632368002B02D15B
:1049700000F0CAFFA0602369002B07D02000103090
:1049800000F024FA002801D000F014FC00F060FCD4
:104990000125280005B0F0BD019F002F03D100F0D4
:1049A00057FC0025F5E7002E02D102A800F046FAD8
:1049B00000F04EFC00F0EEFA00F010FC2200443251
:1049C00013785BB2013301D100231370220045320A
:1049D00013785BB2013301D10023137000F038FC6F
:1049E00001A902A800F034FF002825D12000FFF71C
:1049F00060FD00281AD02368002B07D100F0EEFBE1
:104A0000A06800F037FB050000F022FC20000199AF
:104A1000243000F0F5FA2000FFF7C6FD00F076FE26
:104A2000002801D100F0C6FB012697E72000FFF720
:104A3000BBFD00F06BFEF7E72000FFF7B5FD00F0CF
:104A400065FE2000FFF735FD0028EDD0002DA0D039
:104A500000F0C4FB616A002903D02021236B1B688E
:104A6000C91AA06800F074FB99E70000002230B575
:104A7000064BD400E558002D03D1E1501B195860B6
:104A800030BD0132082AF4D1FAE7C0460C220020DA
:104A900070B5040016000D0000F0A0FB22004432A7
:104AA00013785BB2013301D1002313702200453229
:104AB00013785BB2013301D10023137000F0C8FBFF
:104AC000A36B002B05D1200032002900243000F018
:104AD000BCFA2000FFF768FD70BD000010B5FFF7BD
:104AE0005FFA024A1368022BFCD9F8E7B01C0020D9
:104AF00070B50125D0232E001B0686401C68002AB5
:104B000017D00A68124B002A0AD11A5D164204D047
:104B1000104A135C5B19135470BD0A68002AFCD05C
:104B2000BFF35F8F01210B4A11541A5D16431E55C6
:104B3000F2E7084A135C013BDBB21354002BEBD1C4
:104B4000034A135DB3431355BFF35F8F0D60E3E773
:104B5000392402203B240220064A13681968064BB8
:104B6000002903D1012252421A6070471268D268AC
:104B70001268F9E7A01C0020E021002070B5EFF3D7
:104B80000583DBB28400002B08D0D0231B061B68F2
:104B9000984203D101220A4B1A5170BD094D2B597D
:104BA0009B6B0233F9D0D0231B061B689842F1D0CF
:104BB000FFF71AFA02222B5952429A63EDE7C046D8
:104BC0008C220020941C0020F7B54B425941026B07
:104BD000040001200023124D521A404299004F59FF
:104BE0004E5901964E59B66B012E10D80D4E89596B
:104BF00000290CD1019E396BF66B891B914206DCB2
:104C000001269E406768374201D018000A00012B38
:104C100004D1012801D8FFF7B1FFF7BD0123DDE77B
:104C2000941C00208C220020014B18687047C0465D
:104C3000802200200122F0B504005D49100085B0FB
:104C4000FFF756FF012200205A49FFF751FF5A4B48
:104C50005A4A1E68A300002E0DD00121D150002217
:104C600054491000FFF744FF002201205049FFF78C
:104C70003FFF05B0F0BDD650514B14271B68009381
:104C800001231A00A2400192009A57434D4ABF18CF
:104C9000142200984B4942435258002A62D03900EE
:104CA0007B6808319D68039102958D4201D13B6973
:104CB0000293A3009C466D68039B9D4200D16D68E2
:104CC000EB68986B421C3CD15A6801990A4243D068
:104CD0003D4AA1008E58B0638E589C638B502800CB
:104CE000FFF7D7FB29003800FFF7B0FB00230122B4
:104CF0000099143F01390091002AC9D0002EAED08E
:104D00001423356B2F4A6B439B18B2699A42A6D184
:104D1000F26B7368AD1A019A134204D02A4AA400B8
:104D2000A2585268934303240127274E1C407F4218
:104D3000002C1ED1012F00D991E73800FFF71EFF8C
:104D40008DE76146204A8858834205D15A68019907
:104D50000A4201D09C63C2E7029B9D42ABD1002373
:104D60001A00C5E7002BC3D015480168013901605E
:104D7000BEE72000FDF716FF1F23181A1E3B8340D5
:104D80009C43830099599A59096BD26B8A1AAA429B
:104D9000CEDA9959896B0029CADB9959896B0129A7
:104DA000C6DC06495B58002BC2D107001500BFE7DF
:104DB0003C0100D0380100D0642100208C2200206A
:104DC0006C210020B01C0020941C0020C36870B52A
:104DD000DC6825001C352800FFF75BFB124B1B68C5
:104DE000002B1DD1143D2800FFF753FB0F4A236B06
:104DF00011688B4200D913601420290058430C4BD2
:104E0000C018FFF723FB20000021FFF7DDFED023B1
:104E10001B061B68074A9B009858431E984170BDAB
:104E200029000548EDE7C046642100206C210020E0
:104E3000B01C00208C220020F4210020034B1B68B2
:104E40000360034B1B6843607047C046E4210020A9
:104E500080220020D02301211B061B68014A9B00F1
:104E6000995070478C220020EFF3108272B6D02345
:104E70001B061B6802499B00585882F31088704734
:104E8000941C00201C4B70B504000D001E68FFF739
:104E9000EBFF00237D300370FFF7E6FF0830FFF7DC
:104EA000F8FA631C09D1002D07D0FFF7DDFF0100E0
:104EB00012480831FFF7CAFA70BDFFF7D5FF341961
:104EC0008460A64209D90E4B1C68FFF7CDFF010094
:104ED00020000831FFF7C6FAEEE70A4B1D68FFF71E
:104EE000C3FF010028000831FFF7BCFA064B1A681F
:104EF000A242E1D91C60DFE7802200205822002076
:104F0000A81C0020A01C0020E0210020D0231B06AC
:104F10001B68F7B51B4A9B009E58B36B023300D049
:104F2000F7BD0025184F346D3B68220001933D60AA
:104F3000AC4206D02A00280014493565FFF7D8FD99
:104F40002A0001201249FFF7D3FDFFF735F8EFF3F0
:104F5000108372B601220E491000FFF7C9FD01222D
:104F600000200A49FFF7C4FDFFF77EFF019B04659F
:104F70003B60002CD1D1220020000449FFF7B8FD8E
:104F8000CBE7C046941C002064210020380100D0EB
:104F90003C0100D0164B70B51B68002B26D0EFF3F8
:104FA000108572B6012213491000FFF7A1FD0122FE
:104FB00000201149FFF79CFD0022104C10002368CF
:104FC0000D4901332360FFF793FD2368012B0BD1BB
:104FD000FFF74AFF036D002B06D1EFF30583DBB229
:104FE000002B01D1FFF792FF85F3108870BDC046FA
:104FF0004C2200203C0100D0380100D06421002068
:1050000070B505000C00FFF72FFF010028001C31D0
:10501000FFF728FA01212000FFF734FF70BD70B5BB
:1050200014000E000500FFF71FFF80210906314321
:10503000C161FFF719FF010028001C31FFF706FAD4
:1050400001212000FFF71EFF70BD70B506000C00A7
:105050001500FFF709FF010030001C31FFF7F6F9DA
:10506000002D01D00124644229002000FFF70AFF2F
:1050700070BD000070B50400002084422BD0256B69
:10508000FFF7F2FE036B9D422BD2E369002B05DB99
:10509000FFF7EAFE2023026B9B1AE3611423226BC5
:1050A000144D5343A2695B199A4215D12600083664
:1050B0003000FFF7EEF9FFF7D7FE0F4B006B1A68D1
:1050C0002063904200D918601423584331002818F7
:1050D000FFF7BCF9012070BDFFF7C6FE036B236329
:1050E000F8E7E46DFFF7C0FE006B84428041404268
:1050F000F1E7C046B01C00206C21002070B5041EF2
:1051000001D1002070BD036E026BC16D013B0366CF
:105110008A42F6D0002BF4D1050008352800FFF7AD
:10512000B8F92022E36DD21AE261074A23631168BD
:105130008B4200D9136014205843044B2900C01837
:10514000FFF784F90120DDE76C210020B01C00206E
:1051500070B5041E28D0C26D8A4200D20A00206BAE
:10516000904221D0236E012B1ED1E3692263002BD4
:1051700002DB20218A1AE261142343430B4DA2690A
:105180005B199A4210D1260008363000FFF781F9EA
:10519000074A236B11688B4200D9136014205843CF
:1051A00031002818FFF752F970BDC046B01C00202E
:1051B0006C21002010B5FFF757FE036D002B02D1C4
:1051C000FEF7EEFE10BDD02301211B061B68024A2C
:1051D0009B009950F6E7C0468C22002010B5EFF3F3
:1051E000108372B6164B1B68002B28D0FFF73CFECD
:1051F000036D002B0ED1EFF30583DBB2002B04D13E
:10520000012210491000FFF773FC012200200E4913
:10521000FFF76EFCFFF728FE036D013303650B4BB0
:105220001B68002B0BD1FFF71FFE036D012B06D16E
:10523000EFF30583DBB2002B01D1FFF767FE10BD52
:105240004C2200203C0100D0380100D06421002015
:10525000194B10B51B68002B2CD0FFF705FE036D12
:10526000002B27D0FFF700FE036D013B0365FFF71E
:10527000FBFD006D00281DD102001049FFF738FC2E
:10528000EFF30582D2B2002A14D101200C49FFF7B6
:105290002FFCFEF791FEEFF3108272B6D0231B06AF
:1052A0001B6808499B005B5882F31088002B01D0D3
:1052B000FEF776FE10BDC0464C220020380100D01B
:1052C0003C0100D08C22002070B5FEF769FE1DE085
:1052D000FFF784FF2368002B16D0124BDB68DD68D4
:1052E000AB6B013317D128000830FFF7D2F80E4A14
:1052F000686B1368013B13602368013B236000F077
:10530000FFFD280000F0FCFDFFF7A2FF074C23681B
:10531000002BDDD101E0FFF79BFF054B1B68022B43
:10532000F4D9D2E76C2200205C210020602100200B
:10533000B01C0020F0B5970085B0009038000D003B
:10534000039300F055FD041E18D0802000F050FD9E
:10535000061E10D0A52144633A002000FEF710FB82
:10536000736B31000293002340319D4209D1330019
:1053700040331D7010E0200000F0C2FD01204042CB
:10538000A2E0EA5CCA54002A02D00133102BF8D103
:10539000330000224F331A700A9D1F2D00D91F259C
:1053A00033000024083318003563F5653466019333
:1053B000FFF749F830001C30FFF745F82023300094
:1053C0005D1B14222100F5617661B662346564309C
:1053D000FEF7D6FA3000042221007830FEF7D0FA2A
:1053E00033007C331C705C70029B0125381F181839
:1053F00007236D42039A984300997560FEF7C0FD3C
:10540000354B009A3060B5639A425FD10123F36354
:105410000C9B002B00D01E600B9B7360FFF7DEFE21
:105420002E4B2F4D1A6801321A602C68002C2FD198
:105430001B68012B1ED1270014207843294B01370C
:105440001818FEF7F5FF202FF6D1274F3800FEF78A
:10545000EFFF2648FEF7ECFF2548FEF7E9FF254859
:10546000FEF7E6FF2448FEF7E3FF244B1F4A1F60C8
:10547000234B1A60F36B002B0AD0224B1A68002AC8
:1054800003D05A68002A03D10124B463A4001E513A
:105490001D4A1368013313601C4A73651168336B2E
:1054A0008B4200D91360142058430E4B01991818F1
:1054B000FEF7CCFF2B68002B03D000213000FFF754
:1054C00083FBFFF7C5FE012005B0F0BD104B009A2D
:1054D0009A429BD0F4639BE7C95200105C210020E4
:1054E0004C220020B01C0020A0210020B42100206C
:1054F000F42100206C22002058220020A01C002053
:10550000A81C0020941C0020682100206C21002091
:10551000DD4A00101FB5079C0294012464420194E7
:10552000069C0094FFF706FF04B010BDF0B5002400
:10553000802687B000F042FA0127230076001D4A3A
:1055400002A9D55C5A1C002D03D0CD5421001400B3
:1055500010E020003030C854174B8D54002C0CD173
:1055600001933200230015480094FFF7D3FF002871
:105570001CD0390023000C00E1E704330193320012
:105580002B000F480095FFF7C5FF012CEFD1012834
:105590000CD1EFF3108372B601220A4B52421A600B
:1055A000094B1C60094B1D60FEF794FD084B1B68FE
:1055B00007B0F0BD3B880010D0210020C952001078
:1055C000DD4A0010E02100204C2200208022002033
:1055D0004C0A0020F8B5FFF701FE414B1B68002B79
:1055E00000D072E03F4B1D6801351D60002D0BD1CE
:1055F0003D4A3E4B1168186810603D4A19601368B7
:1056000001331360FFF7A8FA3A4E3368AB4207D86C
:10561000354B1A681268002A33D101235B4233608C
:1056200014223548354903681B6B5343C9584368F6
:1056300033481B6B5A43314B9A5804680123002CA2
:1056400002D18B429B415B4241680124002902D177
:105650009442A4416442D02212061568002B04D063
:10566000002D38D00020FFF789FA002C05D0012D3D
:1056700003D000240120FFF781FAFFF7E9FD2000A5
:10568000F8BD1B68DB68DC68A3689D42C7D32700B0
:1056900008373800FEF7FDFEE36A002B03D0200038
:1056A0001C30FEF7F6FE174B206B1A68904200D9AB
:1056B000186014235843114B39001818FEF7C6FE22
:1056C00001212000FFF780FAA2E70F4A00241368A7
:1056D00001331360D1E7002CCCD11C00CDE7C046CC
:1056E0006421002080220020A01C0020A81C002093
:1056F000E4210020E0210020941C0020B01C0020A8
:105700008C2200206C210020F0210020F8B52A4BCB
:105710001E68002E17D0FFF761FDD0230026274C0E
:105720001B061D6823680022013B012024492360D9
:10573000FFF7DEF92468B44203D1224B1B68B34261
:1057400038D1FFF785FD3000F8BDDB68DC6820004C
:1057500026001C300836FEF79CFE3000FEF799FE4E
:10576000194B206B1A68904200D918607843174B88
:105770003100C018FEF76AFE154B1A68002AE4D102
:10578000002C01D0FFF7E8F9124E3468002C0BD042
:105790000127FFF71FFF002802D00F4AAB009F50E0
:1057A000013C002CF5D134600B4BAD00EE58731E5C
:1057B0009E41C6E71427DFE74C2200206421002029
:1057C0003C0100D05C2100206C210020B01C002096
:1057D000F4210020F02100208C22002010B5041EAE
:1057E00002D1FFF7E7FC10BDFFF7D4FB002120003A
:1057F000FFF748FBFFF78AFF0028F2D0F3E700002D
:1058000070B58023C4681B0625000B430360083570
:10581000FEF73FFE2800FEF73CFE0B4A236B1168A3
:105820008B4200D9136014205843084B2900C0183C
:10583000FEF70CFEFFF7D2FC00212000FFF7C4F9B1
:10584000FFF706FD70BDC0466C210020B01C002093
:10585000F7B505000E00FFF7C1FC174B1F686B681A
:105860000193FFF701FB7D300478002C09D0FFF78E
:10587000FBFA00237D3003700124FFF7E9FC2000D0
:10588000FEBD33685A1CF8D00C4A29681268914250
:1058900005D06A68BA4202D800233360ECE7019A67
:1058A000BA1A9342F8D9019ADB1B9B18280033607F
:1058B000FFF7C4FA0024E0E780220020E421002062
:1058C000084B10B51B680124002B08D0FFF786FC9D
:1058D000054B1C6863425C416400FFF7B9FC200083
:1058E00010BDC0464C2200206421002070B5FFF797
:1058F000BBFAC469FFF7B8FA056BFFF7B5FA2023C6
:105900005B1BC361200070BD10B5FFF7ADFA002826
:1059100004D0FFF7A9FA036E01330366FFF7A4FA78
:1059200010BD0000F8B5FFF759FC0F4C2568002D9D
:1059300016D10E4F3800FEF77BFD0D4E3000FEF7FE
:1059400077FD0C4B2A001F600B4B10210A201E60B4
:10595000FEF796FE2060002802D00849FFF786F87F
:10596000FFF776FCF8BDC046842200207421002099
:10597000882100209C1C0020AC1C002040880010C6
:1059800010B504004160006191420BD8D21AA3699E
:1059900001209A4205D2074B211D1868FEF762FDCF
:1059A000002010BD9A4202D201209942F9D2024B46
:1059B000211DF2E7AC1C00209C1C002007B5FFF75E
:1059C000B1FF0020074B1B6883420AD0064B8022A0
:1059D00001931F2305490093D20003000448FFF7F9
:1059E00099FD0EBD842200208822002045880010E9
:1059F000C15A00101FB50C4C2368002B02D10020A7
:105A000004B010BD0091019202900529F7DCFFF768
:105A100057FF0023069A022800D01A006946206822
:105A2000FEF74BFEECE7C04684220020F0B587B0BD
:105A30000500FFF7F9F81F4F04903B68834236D901
:105A40001D4E33681A68002A0AD11C4A1168136077
:105A5000012331602B60049B18003B6007B0F0BD50
:105A6000DB68DC681A68231D180003920593FEF7B3
:105A700010FD236A200098472300042228331B7856
:105A80001342DDD0A269039B9B18039A9A4206D267
:105A90000599306863602461FEF7E4FCD0E70021DB
:105AA00020000B00039A0091FFF7A4FFC8E7002332
:105AB000D0E7C046D82100209C1C0020AC1C002050
:105AC000F0B501278BB0584E3D0033681C68002CA0
:105AD00002D00025DB681C68FFF75CFA06A8FFF718
