:020000041000EA
:1000000000B5324B212058609868022188439860DF
:10001000D860186158612E4B002199600221596106
:100020000121F02299502B49196001219960352056
:1000300000F044F80222904214D00621196600F024
:1000400034F8196E01211966002018661A6600F04E
:100050002CF8196E196E196E052000F02FF8012189
:100060000842F9D1002199601B49196000215960AB
:100070001A491B48016001219960EB211966A021F2
:10008000196600F012F800219960164914480160C1
:100090000121996001BC002800D000471248134993
:1000A000086003C880F30888084703B5996A0420EC
:1000B0000142FBD001200142F8D103BD02B5186610
:1000C0001866FFF7F2FF186E186E02BD00000240BE
:1000D000000000180000070000035F00212200005C
:1000E000F4000018222000A00001001008ED00E03C
:1000F00000000000000000000000000074B24E7A12
:1001000000200420F7010010C3010010C5010010F9
:10011000C1010010C1010010C1010010C101001097
:10012000C1010010C1010010C1010010C701001081
:10013000C1010010C1010010C9010010CB01001065
:10014000CD010010CD010010CD010010CD01001037
:10015000CD010010CD010010CD010010CD01001027
:10016000CD010010CD010010CD010010CD01001017
:10017000CD010010CD010010CD010010CD01001007
:10018000CD010010CD010010CD010010CD010010F7
:10019000CD010010CD010010CD010010CD010010E7
:1001A000CD010010CD010010CD010010CD010010D7
:1001B000CD010010CD010010CD010010CD010010C7
:1001C00000BE00BE00BE00BE00BE00BEEFF3058054
:1001D000103800BEF2EB88716C8400109884001017
:1001E0003402001090A31AE700201F49086006C8D7
:1001F00081F3088810471D48006800282FD10DA4FE
:100200000ECC002902D000F012F8F9E71849194A7B
:10021000002000E001C19142FCD1174988471749ED
:1002200088471749884700BEFDE701C901C29A42C5
:10023000FBD3704798840010C0000020E412002017
:10024000BC9600100000042000000420BC960010A2
:10025000001004200010042000000000704709482E
:1002600002F076FC0047000008ED00E0000000D03E
:10027000E812002030240220791A0010AD0300108B
:10028000791B00105756000006005250ABB3605364
:100290003782001006005250861C03024282001072
:1002A000060052505422A29D528200100500525066
:1002B000DE65F468BC960010F8B5C0460448054BEE
:1002C00010B5834203D0044B002B00D0984710BDDB
:1002D000E4120020E4120020000000000648074954
:1002E000091A8B10C90FC91810B5491003D0044B57
:1002F000002B00D0984710BDE4120020E41200202B
:100300000000000010B5074C2378002B09D1FFF73F
:10031000D5FF054B002B02D0044800E000BF0123AD
:10032000237010BDE813002000000000687E00105C
:10033000054B10B5002B03D00449054800E000BF71
:10034000FFF7CCFF10BDC04600000000EC130020FA
:10035000687E001010B50E4A0E490F4803F020FCCD
:100360000E4803F0EBFB07F097F800280CD007F0DD
:100370009FF801000A4803F013FC07F09DF8010004
:10038000084803F00DFC10BD074803F0D7FBFAE75F
:10039000687E0010707E00107D7E0010857E00104B
:1003A0009E7E0010AA7E0010BB7E001010B503F0E8
:1003B00002FC0849084803F0F3FBFFF7CBFF00F00D
:1003C0006DF900F033F800F0B7F904F0CDFE00202D
:1003D00010BDC04600000000E87E001010B50120EE
:1003E00003F070FA0023037010BD00B5002091B037
:1003F00006F096F9002809D0002006F0A9F9002897
:1004000004D040226946002006F0AEF911B000BDCC
:1004100010B50020012405F0CBFC6442200000212F
:1004200005F0E8FD002006F0B3F9F7E713B51F2348
:100430000024C02200930949230001945200084877
:1004400004F0B2FD1E23802200930649230001948C
:100450005200054804F0A8FD13BDC046F97E001007
:1004600011040010FE7E0010EB030010F0B5140024
:100470000500E078927800021043013897B0042814
:1004800051D807F0B9FC030B2A3B49000323274A44
:100490002100280006F08AF817B0F0BD07F008F830
:1004A0004326070007F008F832000021019005A854
:1004B00003F036FA02AB1E730E20022302AA3900A3
:1004C0005373801807F0F0FA362002AB0199C01878
:1004D00007F0EAFA330005AADAE70A2603A803F0D0
:1004E00067FC02AB1E7303230E2002AA537302ABF8
:1004F000082203A9C01803F019FAEBE7FFF76EFF13
:10050000032305AE3370013373700378B37003F0C7
:10051000EFF932003378BBE70622054905A803F05E
:1005200005FA0623D7E70223024AB1E70A7F001043
:10053000027F0010087F001073B505000120140031
:10054000814214D113785B069B0F83422AD000208E
:10055000022B0CD15278022A0AD0032A17D0012A82
:1005600005D1154A35332100280006F01FF876BD65
:10057000637921791B020B43072BF8D16B469E1D33
:1005800030000E4903F0D2F933880D4AEBE7637966
:1005900022791B021343032BE9D122002800FFF725
:1005A00065FFE4E753780020222BE0D111002800FA
:1005B00005F0EAFFDBE7C0460D7F00105C8000100D
:1005C0005480001000487047428000100048704777
:1005D000E07F001000487047A77F0010030010B5AF
:1005E000002810D10222144B14481968801803F017
:1005F0009DF90123C0220133DBB210485B00920059
:100600001343038010BD0020052BFBD80A4A9B0032
:100610009C58200007F050FAC0B2031C1F2800D9D4
:100620001F232000DBB2054AE11802328842E1D0E4
:10063000047801301480F8E780090020842200202B
:1006400013B501246442094B2200186801A904F083
:10065000E8F80128F7D1019B002019001A7906F06B
:10066000ABFA002006F06EFAEDE7C046FC21002050
:1006700007B50023202180220091034803490193FC
:10068000520004F091FC07BD4106001006810010E5
:10069000014B18687047C046FC210020002204214D
:1006A0000A2010B503F0D8FF054B1860002803D1CD
:1006B000044803F075FA10BDFFF7DAFFFBE7C04608
:1006C000FC2100200D810010F0B585B003F04EFB39
:1006D0000223154D154C2B6080232268DB0153400B
:1006E000E022FA20D2011340114A80271360400013
:1006F00004F04EFE04267F002E6023683B42FCD0AF
:100700000C4962680291082102AB9980DA8001935A
:10071000FFF7BEFF002301A91A0003F0BAFFFA2079
:10072000400004F035FEE7E700E0044000C004406C
:1007300000D004403B4324DD07B500232021802264
:100740000091034803490193520004F02DFC07BDBA
:10075000C906001020810010084B8200D2184023E7
:1007600010B51468C0006340C02423408024640195
:1007700022431360024BC018416010BD04C0014009
:1007800000400140024B18688007C00F7047C04608
:1007900000C00640EFF3108072B6034A1368002BC6
:1007A000FCD0BFF35F8F70472C0100D0BFF35F8F89
:1007B0000022024B1A6080F3108870472C0100D091
:1007C0000722CB08C35C0120114088401840431E1B
:1007D0009841C0B27047F8B505000C001700FFF74C
:1007E000D9FF210006002800FFF7EAFF002803D008
:1007F0002100380001F0C4F907210123E2080C4070
:10080000A340A95C30000B43AB54FFF7CFFFF8BD0A
:10081000F7B5050014001F000191FFF7BBFF0600AC
:10082000BC4202D9012464420DE021002800FFF7F8
:10083000C7FF002812D10722012322409340E1087C
:100840006A5C13436B543000FFF7B0FF002C07DAEB
:10085000019B002B04D0089801F092F90134DFE7E6
:100860002000FEBD0021044B044ABFF35F8F02C38A
:100870009342FAD17047C046000100D0800100D0F9
:10088000044A1078431CDBB2172B01D81370704751
:100890001023FBE79809002010B50100024A034825
:1008A000FFF799FF10BDC0462681001040180020B8
:1008B00007B5044B0100009318221F230248FFF7DD
:1008C000A7FF0EBD4581001040180020074B1030D7
:1008D0009B688000C150BFF35F8FBFF35F8F002123
:1008E000034B196082F310887047C04600ED00E0AA
:1008F000240100D001228240034B1B6813405A1E82
:100900009341D8B27047C04600E100E0002904D00E
:10091000034B1860034B18607047034BFBE7C0465E
:1009200080E200E000E100E080E100E0012383409C
:1009300010B51800FFF7EAFF10BD0000024B1030A1
:100940009B688000C058704700ED00E070B504005F
:100950000D00EFF3108672B60A4A1368002BFCD024
:10096000BFF35F8F2000FFF7E9FF074B984203D0EA
:10097000A84201D001F022F9320029002000FFF73F
:10098000A5FF70BD240100D0CD010010F0B587B0E7
:10099000049003910192EFF31083059372B6574AC6
:1009A0001368002BFCD0BFF35F8F554F3B787F2B34
:1009B00001D901F003F90C2300251C007D57514E8D
:1009C0006C439C46A31902939B793B704E4B9A68EB
:1009D000049B10339B0099588B1B2F2B1FD94B4B1B
:1009E000994201D001F0EAF80C235D43484B0234F0
:1009F0007353484B7519043B36199E1B464B474CA5
:100A0000AB80FF23AB71019B3605760DEB71039B29
:100A100026436E80AB600121029B194333E0012322
:100A200008009843030000220090DF790198874274
:100A30002FD8002A3AD00627D757131D9C4637488F
:100A4000002F31DB93882F4E5B051B150434A4194E
:100A500063441C1B2405640D0443A4B26646029B38
:100A60009571043B9B1B1B055B0D034393800C237B
:100A70005D43244BED182A4BAC802B60019BAF717A
:100A8000EB71039BAB60059A0498FFF71FFF07B05B
:100A9000F0BD0627DF57002F04DB624657431A00DC
:100AA000F319C2E71A00C6E71E4CD7E7154A1E49DC
:100AB000009B9B1A5B415943090D0C235D43144B6A
:100AC000A61CAB52134BB618043B9B1B1B05134EC5
:100AD0005B0D551933436B800434009BA4181C1B19
:100AE000019B043CEB71039B2405AB60009A0C4B0B
:100AF000640D3443AC80A97113608CE7240100D0ED
:100B00001F2400209C09002000ED00E0CD01001012
:100B100000A1FFFFCC09002001BDFFFF00E0FFFFA7
:100B20000148804701BD0000AAAA0000F0B585B0C9
:100B300005000191EFF31083029372B6494A1368DE
:100B4000002BFCD0BFF35F8F2F00474B10379B6803
:100B5000BA00D458454B9C4269D0019A944200D1C6
:100B60007DE0434BE31A2F2B61D82800FFF7C2FE2C
:100B7000002103902800FFF7D9FEBFF35F8FEFF34A
:100B80000586002E03D0B74201D001F017F80123EB
:100B900022000C219A4313008C46002206219868FB
:100BA000019F5956B84214D100291ADA002E49D1B2
:100BB000002A45D0FF2191712E4991802E492C4861
:100BC0000A789A712D4A1B1A5B415A43120D0A701A
:100BD00029E0002927DB624651431A00244B5B18A9
:100BE000DCE70C204843224A1618B7689F60F77963
:100BF000DF710627F7579F71B7797F2F1ED8B68808
:100C0000D21A7605361580191218E0201205520DF9
:100C1000000202439A800C224A43154B9B18164A45
:100C200010781170987128000399FFF77FFE21005A
:100C30002800029AFFF74AFE05B0F0BD104AE9E726
:100C40000A4CBBE70F4A1049D21A083A5002400D2D
:100C5000014399800D4952080A43DA80E3E71C00FA
:100C6000E5E7C046240100D000ED00E0CD01001012
:100C70009C09002001BDFFFF1F240020AAAA00003C
:100C800001BD0000D609002000F0FFFF00F8FFFFC3
:100C900010B5032402002040A040A243FC3484404D
:100CA0008140034BD2181368A3430B43136010BD5C
:100CB00000E400E00123EFF305810343F0B51E00DB
:100CC000EFF3108772B61C4B1B68002BFBD0BFF3F1
:100CD0005F8F1A4A04001A4BA41A644163431B0D28
:100CE0005BB29C46174B89009B6814005B581D0043
:100CF0000023B54214D1134B134A9B685A50134B2F
:100D00001A78827162461A70BFF35F8F00230A4A15
:100D1000136087F31088F0BD01330C34042BEED040
:100D2000062161566145F7D10C214B43D218FF23B0
:100D30009371074B9380E2E7240100D09C090020C7
:100D4000AAAA000000ED00E0CD0100101F24002041
:100D500001BDFFFF054B064A1360064A136053604E
:100D60009360D3601361536193617047808080808A
:100D700000E400E004E400E0024BC91889000160CF
:100D80007047C0464000003410B50400FFF778FDFE
:100D900001002000FFF7F0FF01235B426360BFF317
:100DA0005F8F10BD10B50400FFF76AFD0100200041
:100DB000FFF7E2FF01235B42636000232372BFF36E
:100DC0005F8F10BD034BC91889000160BFF35F8FAF
:100DD0007047C0464000003410B504000120FFF702
:100DE00067FD01002000FFF7EDFF10BD30B5084D95
:100DF00001226C6A0023A14206D8AD6A1300854225
:100E000002D20B1B591E8B411340180030BDC04647
:100E10000040054083680A4810B5091812181201ED
:100E2000090159189B185C684A680120944205D84A
:100E300003D11A680B689A4200D80020C0B210BDD6
:100E4000FFFFFF0F70B50C000500080000F04CFB21
:100E50002000094900F0A0FAFFF712FD074B2C759E
:100E6000C018D0231B061B6880006B75044BA400C0
:100E70006860E55070BDC046950F0010400000341A
:100E8000841C0020074810B50268EFF3108172B689
:100E90001368002BFCD0BFF35F8F03F039F90020FB
:100EA000002110BD38210020032330B51C0053431E
:100EB0004C43033BC318033C9970015D051900299D
:100EC00001D12A7030BD5970FBE70000F0B585B044
:100ED00002930CAB1C780DAB1B78070005680192E0
:100EE0000393002C10D1AC7B002C47D00323634329
:100EF0002A68033BD3185A78AA73002A00D1EA73F0
:100F000000229A705A701A70214BBA68E3181B01BC
:100F1000D318019A1A60029A5A600A9A9A600B9A38
:100F2000DA60032363432A68033BD31800229A70D4
:100F30005A701A706E7B964228D022003100A86841
:100F40006B68984700281CD0220031002868FFF702
:100F5000ABFF6E73A64211D1387D019A029B00F05F
:100F600065FA051E06D0039B002B03D121003868CB
:100F700000F07EFB0E9B002B00D01D70200005B002
:100F8000F0BD320021002868FFF78EFF2600E0E761
:100F9000FFFFFF0F0023F0B58FB00C935E4B820074
:100FA000D4580D9000F0EEF902000B006068EFF3EA
:100FB0001081089172B601680029FCD0BFF35F8FE1
:100FC00021688C46497B0791002971D053490798C5
:100FD0004518A1682D014D192868696806000F00A1
:100FE000B61A9F41002F57DC01D1002E54D10021A9
:100FF000604600F033FB2A686B680A920B93E36843
:10100000079AAF689B18013B1B78ED680C931B0295
:101010000343002023616368BFF35F8F00221A60DF
:10102000089B83F31088974271D00C9B290018020B
:10103000079B1843B847089009916268EFF3108343
:101040001E0072B61368002BFCD0BFF35F8F099BA4
:10105000002B35DA2369002B40D00A9A0B9B0898A5
:101060000999121A8B41002B02DA01222C4B5242B1
:10107000002104910131039107992000029101950B
:101080000097FFF723FF002263682261BFF35F8FA1
:101090001A6086F3108885E702000B000D9800F0B7
:1010A000C5F90025002200232F000A920B93B2E716
:1010B00000220023079D0A920B932F002800AAE725
:1010C000089B099A134309D02369002B06D000F02E
:1010D00059F9089A099B12184B41C4E72368D97B38
:1010E000002906D003224A4319688A180799033A4F
:1010F00051709A7B002A01D1079A9A73079ADA7382
:101100001300E168013BCA5C0132CA54BBE7002806
:1011100000D047E70FB0F0BD841C0020FFFFFF0F99
:10112000FFFFFF7F10B50B4C6368002B0CD1102123
:101130002300094A206800F03DFA032000F016F968
:1011400003212000FFF77EFE0A210448FFF714FE6A
:1011500010BDC046E4090020150E00103821002003
:10116000F0B58DB01F0014AB1B78002509931F2329
:101170000400160004AA9B181D706268EFF3108328
:10118000069372B61368002BFCD0BFF35F8F1F234A
:1011900004AA9B180493139B32000193129B200016
:1011A000009303953B000295FFF790FE020000209C
:1011B000824203D0E3689B18013B18786168BFF353
:1011C0005F8F069B0D6083F31088002A1CD004AB50
:1011D000D97F00291BD1000210430DB0F0BD06904D
:1011E0000791002909DA069A079BB61A9F41002F3A
:1011F000C3DA01260C4F7642BFE700F0C3F8069E23
:10120000079F36184F41F2E701204042E5E7099B6E
:10121000002B06D0129B00201399984703000B4324
:10122000DDD10020D9E7C046FFFFFF7FF8B50B00F6
:1012300004004168EFF3108572B60A68002AFCD0FA
:10124000BFF35F8F2768D9B2787BDAB2884207D0C4
:101250000326564338688619033EB078002813D019
:10126000E0681B0A8218013A1278DBB200209A4229
:1012700002D1380000F0FCF96368BFF35F8F0022F1
:101280001A6085F31088F8BD22699A42F4D1206172
:10129000F2E700007FB5EFF3058305000C00002B9B
:1012A00005D028002100FFF7A1FD04B070BD084E55
:1012B00002930193074B0200009330000B00FFF7ED
:1012C0004FFF011EEDDD20BF3000FFF7AFFFE8E765
:1012D000E4090020850E0010F7B5EFF30583180030
:1012E00001931038EFF3108772B6194B1B68002B6F
:1012F000FBD0BFF35F8F012631008140154B164DA7
:1013000069631960154B1B781A00C2409446644605
:10131000002234420AD0124E6C6A8500AE59B442A3
:101320000FD3104A8B430D49AA580B70BFF35F8F40
:10133000002307490B6087F310889A4200D090473A
:10134000F7BD019B08499B005B1819681960EDE720
:10135000280100D03C7005400040054028240020B2
:101360003C21002028170020D03F054010B5010087
:10137000024A0348FFF72FFA10BDC04660810010F3
:10138000DE230020034B596A0A00986A596A8A4290
:10139000FAD1704700400540F7B504000D00EFF3A7
:1013A0001083009372B61C4F3B68002BFCD0BFF338
:1013B0005F8FA300194E0193002D1BD02000FFF773
:1013C000BDFA86420BD031002000FFF7BFFA0121A1
:1013D0002000FFF7ABFA0123A340114A1360114B21
:1013E000019A9D50BFF35F8F00233B60009B83F306
:1013F0001088F7BD0B4BA2009D500122A2400A4964
:1014000020000B7893430B703100FFF78FFB29000E
:101410002000FFF78BFAE5E7280100D0D912001071
:10142000386005402817002028240020F0B585B03A
:101430001E0004000192FFF7A5FF8E4203D847D19A
:10144000019B834244D9EFF31083039372B6214B7F
:101450001B68002BFBD0BFF35F8F0125A5401E4BFF
:101460001E4F1B7800932B43DBB20293029A1A4B58
:101470001A70019A231D9B007D63DA51184AA3005C
:101480009E503B6A2B420AD10020BFF35F8F00239E
:10149000104A1360039B83F3108805B0F0BDFFF77B
:1014A00071FF8E42F0D802D1019B8342ECD8029B9F
:1014B000009A01209342E8D01F2302001C40A24062
:1014C000084B3D627D631A60034B009A1A70DCE79B
:1014D0000120E2E7280100D0282400200040054038
:1014E0003C21002080E200E010B5EFF3108472B6DA
:1014F0000A490B68002BFCD0BFF35F8F01238340A8
:10150000074A0848136202789A430270BFF35F8F5C
:1015100000230B6084F3108810BDC046280100D062
:101520000040054028240020032330B51C0053430D
:101530004C43033BC318033C9970015D0519002916
:1015400001D12A7030BD5970FBE770B506000C0060
:101550001500002912D0002A09D0806873689847C6
:10156000002806D02A0021003068FFF7DDFF2000A8
:1015700070BD220029003068FFF7D6FF2C00F6E787
:101580000122002330B5047B827343730268C47365
:1015900003200133DDB2AC4205D8002360431218AA
:1015A000033A537030BD01005943511803390135D6
:1015B0004D70EEE710B5017342608360FFF7E0FF06
:1015C00010BD70B5040000291DD00568032003007C
:1015D0004B43033BEB185A78002A14D000265043A3
:1015E00003382818457846705E702000FFF7ADFF7D
:1015F000290006002000FFF7E4FF31000200200070
:10160000FFF7A3FF0100080070BDF7B503273E00F8
:101610004E430368033E0D00995D04000192FFF7FD
:10162000D0FF019B002B0CD0E37B002B04D05F4349
:101630002368DF19033F7D70A37B002B00D1A573C6
:10164000E5732268002805D0032300214343D31803
:10165000033B9970002392195370FEBD70B5457B12
:101660000A0029000400FFF7D0FF6073280070BD56
:1016700070B50400081E07D0637B8B4205D10121A1
:101680002000FFF7EBFF012070BD032633004B4322
:101690002568033BEB189A78101EF5D07243033A85
:1016A000A818AA5C8A4211D15A7802700022200040
:1016B0009A705A700132FFF7A8FF617B0200200088
:1016C000FFF743FF6073DEE7002AEFD07243033A6F
:1016D000A81842788A42F7D15A784270E6E70000AB
:1016E00070B5060006200C0000F056F92100C0007D
:1016F00001F07AFA0124C50907D00E4B9D4215D896
:101700007F23184000192C004508802000237462B4
:101710008001B5622C3606433360062000F03CF9A8
:10172000A1014919800001F05FFA70BD0025024C4B
:10173000EBE7C046FEFF0000FFFF000070B50400AD
:1017400006200D0000F028F900282ED0194B9C42ED
:101750002CD08023DB03184A18491360184A136001
:1017600018008A689043FBD1164B8021E3185A4237
:101770005341154A5B004900995220002900FFF7A8
:10178000AFFF6023E26A210053406E2213408022A3
:101790002C3152010A4313600C4B10222363802327
:1017A0009B010B431A600323A36470BD80231B04B9
:1017B000D1E7C0460080034000E0004000C0004088
:1017C00000F000400080FCBFC422002001030000A4
:1017D000F0B585B003920A9A05000F0000209A42E6
:1017E00040D80C241A0E1B02029201930A9A03009D
:1017F0000299019801F036FA6C43284B0600E41870
:101800006368834200D260602B1FDBB20093C02369
:10181000009A9B012343012A26D8012F24D10322B9
:101820001A60A3683B42FCD0039A236852015A40D5
:101830008021E02349011A40009B21430A60012BCB
:1018400021D9802380229B01234312011A60019831
:10185000002332000299666001F004FA104BAD00DB
:101860005851012005B0F0BD802212011A600C4BC6
:10187000AA00D1580029D7D0586901F0B5F9013034
:101880000138FDD1D0E7032223687B4013400B6071
:101890000123BB40A2681342FCD0D2E70080004085
:1018A0004418002073B50C2000F0CAF8FEF76AFF58
:1018B00000280AD000232C4A2C4899000133885074
:1018C0000A2BFAD12A4B536273BD2A4DA86700F048
:1018D000BFF80122284B1A606B6C012BFCD103224C
:1018E000264B1A60AC6B012CFCD102250526210089
:1018F00000950623224A234800F054F833002100C3
:10190000214A2248009600F04DF8214B2900214D34
:10191000009300220420FFF75BFF2B002100002230
:1019200030000095FFF754FF0022104C11002300F7
:1019300000940720FFF74CFF0022230011000094C1
:101940000820FFF745FF0022094B110000930920F2
:101950002300FFF73DFF00222B0011000095062019
:10196000FFF736FFB0E7C04644180020006CDC02E9
:101970001BB70000008000403CB0004030B0004089
:10198000002F685900800240008C864700C002404A
:10199000001BB70040597307014B8000C0587047C7
:1019A00044180020F8B504000C2017001E000D009C
:1019B00001F01AF91D494143380001F015F9069A62
:1019C0003304120313432268002A0FDA3F212268EE
:1019D0000A40AA420AD1A2681205120D824205D11C
:1019E000EE21E268C9020A409A421BD0104A944292
:1019F00019D0802252010F490F4E0A600F490A6028
:101A00001700B1688F43FBD1C022211D92010A4308
:101A100021212560A060116021680029FCDAE360C3
:101A200008231360F8BD80229201E4E740420F00D2
:101A300000C0024000E0004000C0004000F0004054
:101A40008023024A9B000343D36270470080054015
:101A5000AA22064B12011A602F220549DA60054AB4
:101A600011605A68002AFCDA7047C0460040024004
:101A700000B0FA0000600240234B244A70B51A609F
:101A8000234E244B244D33601900AA689143FBD1A7
:101A9000224C234B9C4224D3FFF704FF214B33609D
:101AA000AB68DB018033FBD140221F4B1F4C9A6790
:101AB0005A671A67DA661E4B9C4215D31D4C1E4DA1
:101AC000A168C022280001F031FFA560FEF7CAFE20
:101AD000FFF740F9FFF726FB184C194B9C420FD338
:101AE00070BD08CC9847D4E723682000002B03D0B2
:101AF000FFF758F90C34DEE7FFF746F90834DAE768
:101B000008CC9847E9E7C04600E00040BFCDFBFEA7
:101B100000F00040FE7F3C0000C00040C8120020E2
:101B2000D8120020FFFFFF0100F00140B812002092
:101B3000C812002000ED00E000000020D8120020B4
:101B4000E412002000BEFDE7084A030011680029E6
:101B500001D10749116010680649C3188B4201D8AA
:101B60001360704701204042FBE7C0467818002010
:101B7000302402200000042010B5FFF7E3FF00002E
:101B80000FB407B5084801F0D9FF049B002B07D01C
:101B900005A91800019100F0BBFF044801F0CEFF39
:101BA0000120FFF7CFFFC046828100109081001016
:101BB00010B50148FFF7E4FF9281001010B501480D
:101BC000FFF7DEFFA08100107047F7B500930B9B75
:101BD00004000E0017009B0720D00192099D019A76
:101BE000099B9818421B002D1AD10B9BC51B9B0704
:101BF00023D4FEBD31002020009BA0470135099B66
:101C0000FA1A0A9B52199D42F4D3099A0A990023A1
:101C10008A4200D88B1ADB190193DFE7099DEEE7B2
:101C2000089B013D585D3100009BA047D7E70200AB
:101C300031002020009BA04701350A9B7819AB4258
:101C4000F5D8D6E7F0B589B0070010A80678149843
:101C5000059106920E990F9A139C079383071ED441
:101C600001250540002C07D0002D05D0002E02D103
:101C70000C23184200D0013C30239C4604E0202A6B
:101C800005D063468B540132129B9342F7D8302320
:101C90009C46002D03D0A24201D21F2A19D9C306A7
:101CA0003AD543051AD4002A18D0129B9A4201D083
:101CB000A24213D1551E012A0FD0119B023A102BBC
:101CC0000FD02A00119B022B21D11F2A0ED862258A
:101CD0001BE063468B540132DBE72A00119B102B7B
:101CE000F0D183060ED478251F2A0ED903900192D5
:101CF00000913800079B069A05990294FFF765FF4B
:101D000009B0F0BD58251F2AF0D88D5401321F2A82
:101D1000ECD830258D5401321F2AE7D82D25002E0E
:101D200005D12B25430702D40307DFD520258D5489
:101D30000132DBE7F0B597B00A921CAA0B9308CAF0
:101D40000D001278219C09900C92002B01D11022D9
:101D50009443620501D5002B1FD06122A10600D556
:101D600041221E000027D2B20A3A0D9230001E997D
:101D700000F03AFF0D9ACBB29A188446D2B20929E4
:101D800001D83033DAB2202006A90918CA551E9AA4
:101D90007B1C964201D3834213D1209A0193059272
:101DA0001F9A0EAB04921E9A009303920C9A29007C
:101DB00002920B9B0A9A09980694FFF743FF17B00B
:101DC000F0BD1F006646D1E7F0B59BB00D9322AB86
:101DD0001B78209D0E932B00219C249F259E0A900A
:101DE0000B910C92234303D1289A10339A432892E3
:101DF000289B5B0504D52A00002322439A422AD05F
:101E0000289A6123920600D541230022DBB20A3BC7
:101E100009920F933A0033002800210000F022FFBE
:101E20000F9BD2B2D318DBB29C4610901191092AB5
:101E300002D83032D3B29C4620200AAA121860463B
:101E4000099B099901335054A64204D801D1AF42ED
:101E500001D8202B13D1289A01930692279A12AB0E
:101E60000592269A009304920E9A0D9B02920B996A
:101E70000C9A0A980397FFF7E5FE1BB0F0BD109D82
:101E8000119C0993C6E70000F0B595B00E931A9B1C
:101E90000F920A931B9B0A9A0B930B9B0C900D912C
:101EA0001000190001F069F9002811D10122D44B6A
:101EB0000A980B99524201F05BF9002808D10122DF
:101EC000D04B0A980B99524201F03CF9002813D0EC
:101ED0001E9B0A9A04931D9B0D9903931C9B0C98BF
:101EE00002930B9B009201930F9A0E9B00F0BCF99A
:101EF0000200100015B0F0BD002200230A980B99D3
:101F000001F020F9002800D165E1802212069446F4
:101F10000A9B06930B9B6344079380231E9ADB0066
:101F20001A4011921E9A1A4201D106231C93069D53
:101F3000079B069E079F1D4300D151E15800B24BFD
:101F4000400DC01801F02CF9B04AB14B01F0B7F8C0
:101F5000B04AB14B01F08CF8079BB04A1B031B0B36
:101F60001A4304000D0030001100AD4B002201F0B7
:101F700076F8AC4AAC4B01F0A2F802000B0020004E
:101F8000290001F075F801F023F9099001F008F932
:101F9000A64AA74B06000F0001F091F80022A54BBE
:101FA00001F066F801F014F9A34AA44B390010902F
:101FB000300001F084F8060010980F0001F0F0F8EE
:101FC0009F4AA04B01F07BF802000B003000390063
:101FD00001F045F802000B0004000D0001F06FF85D
:101FE000220006000F002B002000290001F040F81D
:101FF000002212901391944B3000390001F041F807
:102000000022924B01F034F802000B00300039003E
:1020100001F037F800228E4B01F02AF802000B0085
:102020003000390001F02DF80F0080210600220059
:102030002B000020C90501F012F802000B0030004F
:10204000390001F015F802000B001298139901F005
:1020500018F80022714B01F00BF87E4B109C9C4647
:1020600064440022230501F02AF8069A079B060023
:102070000F0001F07DF800280AD0099B3000013BD9
:10208000390009930022714B00F0FBFF06000F009E
:10209000099B05246333C62B00D8A2E01E9B1B05B9
:1020A00023D533003B4311D0069807996A4A6B4BFE
:1020B00001F056F8002800D197E006980799002211
:1020C000674B01F03FF8002800D18EE01C9B099A75
:1020D000934200DC87E09D1A6B1E1C938023002432
:1020E0001E9ADB001A431E9209941D9B00259C42F8
:1020F00000D21D1B02231E9A1A4010921E9A1A42E9
:1021000003D0634263415B421D40099B002B07D013
:102110000698079932003B0000F0B3FF0690079144
:10212000002200230A980B9901F00CF8002809D02E
:1021300080200006844606990A00079961440B0036
:10214000069207931E9A474B0D99134004931C9BCC
:102150000C9802930395069A079B009201930F9A9D
:102160000E9B00F081F80200002C00D1C1E61E9BFE
:1021700045209B0600D420300E9B0D990C9D561CCB
:10218000A84705230593002303930A330293099B71
:10219000013CDB0F0193099B0D99DA179D185540FF
:1021A0000E9B32000C9804940095FFF7C3FD109B22
:1021B0000200002B00D19CE60F9BC41A0F9B1A193A
:1021C0001D9BA34200D894E620200E9B0D990C9DE8
:1021D000A8470134F2E70A980B99069007919CE60C
:1021E000099504245AE7002377E71C9B002B00D1B4
:1021F0007BE7119B5A1E93411C9AD31A1C9374E7D8
:10220000FFFFEF7FFFFFEFFF01FCFFFFFB799F5018
:102210001344D33FB3C8608B288AC63F0000F03F09
:102220000000F83F61436F63A787D23F71A379092C
:102230004F930A400000E03F1655B5BBB16B02401A
:10224000EF39FAFE422EE63F00002C400000244009
:1022500000001840FF0300002D431CEBE2361A3F3C
:1022600080842E41FFF7FFFFF0B59BB0209E219F99
:1022700009900A910B920C9332003B003000390018
:10228000229C00F07AFF002808D0249B0393239B14
:10229000029303230193B04B009324E0012230000A
:1022A0003900AE4B524200F04DFF002807D0249B6E
:1022B0000393239B029304230193A94BECE7012290
:1022C00030003900A74B524200F052FF002814D0D2
:1022D0000423249A1A420DD0A34A2499019303910E
:1022E0002399009202910C9B0B9A0A990998FFF787
:1022F0006CFC1FE003239D4AEFE700223000390009
:102300009B4B00F035FF002807D100223000390038
:10231000984B00F017FF00280ED0249B00960197E1
:102320000493239B0B9A03930A990C9B099802949C
:10233000FFF7AAFD1BB0F0BD0022002330003900DA
:1023400000F000FF002877D03B0032000020002181
:1023500000F085FE012306000F000D93249B5B0512
:102360006CD52200302112AB203A08940898251A27
:10237000092807D90898197001380890013390424C
:10238000F4D120253900300000F022FF089B07908F
:10239000DA00794B9B185C681B680E930F9400F071
:1023A000FFFE02000B003000390000F058FE0E9ACC
:1023B0000F9B00F084FE1090119100F02DFF04009F
:1023C00000F0EAFE02000B001098119900F047FEA1
:1023D00000226A4B1090119100F0CAFE00282FD005
:1023E0000134200000F0D8FE02000B000E980F9977
:1023F00000F0AEFE002803D00024079B01330793B2
:10240000089B002B2AD00A26202D47D10323249A8B
:102410001340012B00D08BE0239B002B00D187E0E1
:102420000D9B002B02D10C331A4202D0239B013B9F
:102430002393302212AB6FE00D908FE7062490E7D4
:102440000022109811994D4B00F07CFE0028D7D146
:10245000002C01D0E307D3D50134D1E7079800F071
:102460009FFE02000B003000390000F0F8FD002252
:10247000424B06000F0000F065FE00280CD1002240
:10248000300039003D4B00F073FE002804D10123D9
:10249000079A1340D31807930A2438E0089B0CAA24
:1024A000013B0893172331009B1820000135EF18DA
:1024B00000F09AFB303139702000310000F094FBBD
:1024C000092C0CD83020089B12A95B19202D9DD017
:1024D0006A1C9D4205D12E234B551500DCE70400F4
:1024E00092E748551500F1E717230CAA9B180798A7
:1024F00021000135EE1800F04FFB303107983170A4
:10250000210000F049FB0790002800D17EE7202D34
:10251000EAD17BE7EA5401352399A94208D9202D55
:10252000F8D1249B01950393239B029312ABB3E64E
:10253000202DF6D00D9A12AB002A03D02D225A5529
:102540000135EEE7249A520701D52B22F7E7249AAA
:102550001207E6D52022F2E7B5810010FFFFEFFF5A
:10256000B9810010FFFFEF7FB0810010AC81001037
:1025700065CDCD4165CDCDC1C08100100000E03FEB
:1025800010B5002801D001F0A9FA10BD10B500283F
:1025900002D00B684968984710BD0000F0B59BB0A9
:1025A00015000F938C4A8D4B209F0D900E911A6051
:1025B000002901D18A4B0D9300260BE00F9B0133BC
:1025C0000F93252816D03200741C2B000D9E0E99F7
:1025D000B04726000F9B18780028EFD13200AE429A
:1025E00000D36A1E2B0000200E990D9CA0473000DE
:1025F0001BB0F0BD00230120082405E02D2A16D0D1
:10260000302A0CD103430F910F9A0F9912780131A0
:102610002B2A0FD0F2D8202A0ED0232A0ED0100059
:10262000303809282CD800220A240B920EE002220E
:102630001343E8E70422FBE72343E4E71022F7E72C
:102640000B9A0F906243303A8A180B920F9A1178C6
:10265000501C0A00303A092AF2D900200F9A0C9037
:1026600011782E2928D18021C9000B430F990132FE
:1026700049780800303809283CD80A218C4615E0F2
:1026800000200B902A2AE8D104CF0B92824204DA70
:10269000022213430B9A52420B920F91DDE76046E0
:1026A0000C9A4243303A8A180C9222001178541C3A
:1026B000080030380928F2D91078511C6C282CD029
:1026C00024D8682831D06A2837D011000C784A1CE9
:1026D0000F92782C04D8572C32D8452C5CD056D881
:1026E000731C320020000B930E992B000D9CA04709
:1026F0000B9E6FE72A29DFD104CF0C92D2430C99AD
:10270000D21711400F9A0C910232D5E7742801D0EC
:102710007A28DAD1802252000BE050786C28F9D167
:10272000C02189000B43911CD0E75078682802D063
:1027300080221343CAE7C021F4E780229200F8E721
:10274000200058382028CBD805F04EFB4C00CAFF9B
:10275000CAFFCAFFCAFFCAFFCAFFCAFFCAFFCAFF31
:102760004C00FB004C002600E8002600CAFF4C008D
:10277000CAFFCAFFCAFFCAFFCAFF4C00B601CAFFA0
:10278000CAFF4301CAFF4C00CAFFCAFF4C00462CD7
:1027900000D1C1E0472CA3D1202221009143472939
:1027A00004D180221201134302229443452C01D10B
:1027B00020221343072204930B9B073703930C9BA0
:1027C000974302930CCF0E99009201930D982B0022
:1027D0003200FFF759FBB2E09D2500107C1C002061
:1027E000C91B0010782C47D0582C00D178E16F2CF1
:1027F00000D179E1622C00D178E110229343063AAE
:10280000692C03D0642C01D00C218B43590501D5D0
:1028100001218B43802189001940692C01D0642C4F
:1028200046D100292AD0072107378F433C0003CF28
:1028300008930B9B049207930C9B08340693002388
:102840000593CB0F0293CB1711931093434014932E
:10285000119B4B401593149A159B10981199121ABD
:102860008B41009201930E992B0032000D98FFF7D7
:10287000ABFA06002700ADE61022C5E73C1DD905DE
:102880000DD5396805930B9B029204930C9B03931F
:10289000CB0F0193CB17C9185940009124E0396838
:1028A000580601D5C9B2EDE71806EBD509B2E9E73C
:1028B00000290DD008930B9B072107930C9BFC1D4F
:1028C000069300238C430492059302930CCCC8E733
:1028D0003C1DD8050FD505930B9B029204930C9BCE
:1028E000019103933B6800932B0032000E990D98E1
:1028F000FFF720FABDE73968580609D5C9B2059334
:102900000B9B029204930C9B039300230193C4E757
:102910001806F4D589B2F2E7202213430722049364
:102920000B9B073703930C9B974302930CCF0E9995
:10293000009201930D982B003200FFF795FC0600E2
:1029400048E602221A40129202220124134218D1B0
:10295000320005E02B0020200E990D9CA0470C9A18
:102960000B99531C0C939B1B8B42F3D3002399426E
:1029700001D00B00013BF6180B9B0224002B00D06A
:102980005C1C01CF731C32000C930E992B000D9E22
:10299000C0B2B047129B002B19D00C9A12940AE0D7
:1029A000531C139320202B000E990D9EB047129BB1
:1029B000139A013312930B9B12999942F0D30B9AFD
:1029C0000023A24200D3131B0C9AD3180C930C9E25
:1029D00000E6390004C913920C9A1691002A01D11D
:1029E0000122524213990C008A182178002901D043
:1029F000A24214D1139A1900A41A8022D2001140C5
:102A00001791134203D00C9A944200D91400022269
:102A10001A4018920222134217D1320009E0013401
:102A2000E3E7531C129320202B000E990D9FB8470B
:102A3000129AA31B0B99D3189942F2D80023A142F2
:102A400000D30B1B0134F6181C1912960AE00C93E4
:102A5000129B129A013319930E992B000D9FB847C0
:102A6000199B1293139B129A9B1B985C002807D00A
:102A7000179B002BECD00C9B0C9A013B002AE6D153
:102A8000189B002B15D0129A06E0561C2B00202014
:102A90000E990D9FB8473200129B0B99E31A9B18B1
:102AA0009942F2D80023A14200D30B1B129AD318EB
:102AB0001293169F129E8DE521221343059308233E
:102AC00004930C9B32000393102302930023019381
:102AD00008CF0E9900930D982B00FFF72BF92EE7E6
:102AE00020221343103A8FE608228DE602228BE65D
:102AF0001FB50391012102900093044813004A423C
:102B000002A9FFF74BFD05B000BDC0468D250010A2
:102B10001FB5094B1C68002C09D00122030000914D
:102B20000648524203A9A047012004B010BD01F09D
:102B300005F82000F9E7C0467C1C00208125001024
:102B400001480421014B1847100A0020712B001086
:102B5000142310B50100188804331B88984710BD52
:102B6000162310B50100188802331B88984710BD42
:102B7000F8B50E00040000270125B74201D1280056
:102B8000F8BD2068FFF7E4FF01C4431E98414042AE
:102B900005400137F1E70000124A936F9B0815D2F8
:102BA0009066D166002905D0FFE7FFE7FFE7516F88
:102BB000106F704704B580210906C21751400028E4
:102BC00000D0C84305F000F9002104BDF0B5146E33
:102BD000556E576F166FFFF7E3FF1466556657671C
:102BE0001667F0BD000000D0114A936F9B0813D206
:102BF00010665166002905D0FFE7FFE7FFE7516F38
:102C0000106F704704B5002801D00020C04305F0C4
:102C1000DBF8002104BDC046F0B5146E556E576F49
:102C2000166FFFF7E5FF1466556657671667F0BD28
:102C3000000000D094464A4A926F9208624601D240
:102C400028E0C046F0B5464E346E756E776F366F2D
:102C500000F020F89446424A146655665767166796
:102C60006246F0BD94463E4A926F9208624601D297
:102C700054E0C046F0B53A4E346E756E776F366FDD
:102C800000F04CF89446364A146655665767166746
:102C90006246F0BD002B24DB11D000293EDA00B5DE
:102CA000C943404200D1013100F038F8C9434042E5
:102CB00000D10131DB43524200D1013300BD002A73
:102CC000EBD1002801D1002905D00020C90FC90788
:102CD00001D1C043410800B505F05EF80022002391
:102CE00000BD00B500290ADBDB43524200D10133AD
:102CF00000F014F8C943404200D1013100BDC9437E
:102D0000404200D10131DB43524200D1013300F097
:102D100005F8DB43524200D1013300BD002923D125
:102D2000002B18D1002A0CD0BC460D4F38667A66AD
:102D300000210023FFE7FFE7FFE77A6F386F674660
:102D40007047002801D00748010000B505F024F8BD
:102D50000022002300BD02000B000020002170476C
:102D6000000000D0FFFFFFFF002B00D0BFE0130CDE
:102D700028D1002AE7D080B4114F39667A66FFE780
:102D8000FFE730B4040C7B6F396F1B0423433B66B1
:102D90007A66FFE7FFE7FFE7C04684B27B6F3D6FCF
:102DA0001B0423433B667A66FFE7FFE7C046002328
:102DB0002C042D0C7A6F386F00196941B0BC704734
:102DC000000000D0F0B594460025140E01D1120287
:102DD0000835140F01D112010435940F01D192006E
:102DE0000235D40F01D152000135D40B0134254FE7
:102DF0007C66254C3C660E0C93B2FFE7FFE7FFE7CD
:102E00003C6F6643360C7703BE467343DF0B5B04AF
:102E1000C01AB941130C7343DB18C91ACE086643B4
:102E2000360CB64493B273431F0F1B01C01AB9414D
:102E3000130C73431F0B1B05C01AB941860D8F027B
:102E40003E436643360C092D24DB520A7243801A36
:102E50007703460A6643360C16235B1BDE40DF40D1
:102E6000BF1964466643821B704604350633010071
:102E7000D940A840C01900D30131A24206D2002394
:102E8000F0BD0000000000D0FFFFFFFF121B01306B
:102E9000F3D3F1E709277F1BFE406446A2B27243D9
:102EA000801A00D20139220C7243130C1204821AC8
:102EB00099410B007046043513370100F940A840D2
:102EC000801900D30131002B02D1A2420AD2F0BDF9
:102ED000013000D30131121BFAD2013BF8D1A242DA
:102EE00000D2F0BD013000D30131121BF7E7F0B57D
:102EF0001C0C00D080E00CB400251C0A04D11B027D
:102F0000160E3343120208351C0B04D11B01160F99
:102F10003343120104359C0B04D19B00960F3343BD
:102F200092000235DC0B02D192185B4101351C0086
:102F3000971864410134464F7C66464C3C660E0C43
:102F4000FFE7FFE7FFE7C0463C6F6643360C7703B9
:102F5000BE4697B27743C01B00D20139C01B00D2D6
:102F600001399FB27743C91BC91B170C77437E04F5
:102F7000FF0B801BB941CE086643360C0C2D33DBAA
:102F8000B644120B1F053A431B0B97B27743C01B85
:102F900000D201399FB27743C91B170C77433E0417
:102FA0003F0C801BB941860D8F023E4366432927A3
:102FB0007F1BFE400C3D7746AF40BF1930BCA2B22C
:102FC000ABB272437343801A9941220C7243130CC3
:102FD0001204801A994102000B000137001BA9411D
:102FE000F9D2781E0021F0BD0C277F1BFE407746EA
:102FF0007F0BAF40FF19E0E700245D1C07D0144FA2
:103000007D663966FFE7FFE7FFE7FFE73C6F95B2B4
:103010009EB265436643401BB141150C1E0C6543CF
:10302000664336042F0C3E432D04401BB1419942A8
:1030300004D202000B0020000021F0BD01D190421B
:10304000F7D3801A994101349942F2D3F6E7000090
:10305000000000D0FFFFFFFF48404140484018B447
:103060001B4B5B68FC46019308BD04DFBB320010BC
:1030700018B4174B1B68FC46019308BD00DFC5322E
:1030800000109446134A926F920809D2624618B40F
:103090000F4BDB68FC46019308BD0CDF7D3500104B
:1030A0000C4AF0B5146E556E576F166F6246FFF7F7
:1030B000EEFF084A1466556657671667F0BD18B4E8
:1030C000034B9B68FC46019308BD08DF21340010C8
:1030D000341F0020000000D0FFB550404240504057
:1030E00059404B40594000E0FFB5154F4C00640D6E
:1030F00003D0BC4204D10C0314D80020090D0905EB
:103100005C00640D03D0BC4204D11C030AD8002229
:103110001B0D1B0501264B4009D44B4003D58B42A8
:1031200000D18242FFBD9942FCD19042FFBD0B43CA
:10313000DB1803431343F5D0C9434918FFBD000012
:10314000FF07000000B5FFF7CFFF804100BDC0467C
:1031500000B5FFF7C9FF01D9002000BD012000BD67
:1031600000B5FFF7B9FF01D9002000BD012000BD67
:1031700000B5FFF7B1FF804100BD012040054A00C6
:10318000121804D85A00121801D8002070470120E4
:1031900070470020704700000021002805D17047CB
:1031A000C1174840401AFAD0C90713B5064B1B682F
:1031B00098470CBC441CA2401005120B0349091B84
:1031C00009051943114310BD342000201F040000DD
:1031D00010B54C00620D8023D218DB00D21A5B05BB
:1031E0007E2A10DD9E3A13DACC17090349081943E9
:1031F0005242D140640001341532202A05DAD04011
:103200000843604310BD002010BD0846604310BD58
:10321000C80FC018013810BD18B4044B5B6AFC46D7
:10322000019308BD24DF2D3700100000341F00205B
:10323000132370B51C780F4D012C0ED100230E49BD
:103240009A000133A950202BFAD10B4BAB640B48E9
:10325000FFF77EFC0A4B186070BD012CF5DD0948B4
:10326000FFF77EFC80220100280000F05FFB022CAB
:10327000EDD1EAE7341F0020893200104C33000002
:10328000342000205344000007B5604601880A0A34
:103290000230DF2AFAD1C9B2820804D302884088FA
:1032A0000004104300E00068014A5050039007BD3D
:1032B000341F00200FB403BC0CBCF0B50124E4079C
:1032C000634000E0F0B50C0DCF0F661E3605891B7C
:1032D000640503D3C943404200D30131640D03D0D8
:1032E000661CF60A07D0E41B00207F00791C8907C2
:1032F0008912803C24031D0DDF0F6E1E36059B1BBB
:103300006D0503D3DB43524200D301336D0D03D06F
:103310006E1CF60A07D0ED1B00227F007B1C9B076A
:103320009B12803D2D032F1B661B58D4A446202ED4
:1033300046DA20371400BC401D00BD40F240334146
:103340002A4380185941CB0F05D0C943C0430022FE
:1033500064425041514162464D0D28D10D0D07D1B7
:1033600000281FD0241940414941013A0D0DF9D0E0
:10337000640006D3013000D30131002C01D1400894
:103380004000013A0BD4941CE40A04D11205114404
:10339000DB071944F0BDD907204B194300E0D907DA
:1033A0000020F0BD0029DDD1002CDBD1F0BD0132C1
:1033B000C6074008CD0728434908002EE1D0D9E7C9
:1033C0003C2E29DA203E40371400BC4000D00124B6
:1033D000F24014431A00BB401C43D317ACE7AC4681
:1033E000202F08DA20360400B4400D00B540F84024
:1033F00039412843A5E73C2F0CDA203F4036040032
:10340000B44000D00124F84004430800B1400C430C
:10341000C117EAE710001900002494E70000F07FCC
:10342000F0B50C0D661E3605891BE60A6405640DB1
:1034300002D0651CED0A04D0002001210905803C62
:103440002403A4461C0D671E3F05DB1BE70A640529
:10345000640D02D0651CED0A04D0002201231B0577
:10346000803C24037740644497B484B296B274439A
:10347000070C7E43150C6F4380B26843361802D3A5
:10348000012000043F183004350C00197D418446AA
:1034900088B29AB250430C0C62431F0C7C438EB22C
:1034A0007E43921902D301263604A4191604170C80
:1034B0003618674101BC81B29AB25143040C624391
:1034C0001B0C5C4380B25843121802D30120000445
:1034D00024181004130C401863412D185E4100207D
:1034E000474106BC88B293B258430C0C6343120C9C
:1034F000544389B251435B1802D301210904641873
:1035000019041A0C091862416D18564100204741F0
:1035100018BCF902720D1143F0026A0D1043ED025E
:103520000A0D03D16D1940414941013B124E9B1BCD
:103530007600B3420ED26D0007D3013000267141F0
:103540006646354301D1400840001B05C918E40711
:103550002144F0BD0BDA013306D1013004D1013131
:103560004F0D01D04908F2E7E1070020F0BD013618
:1035700031050020EBE70000FF030000F0B51C0D53
:10358000671E3F05DB1BE70A6405640D02D0661C5D
:10359000F60A04D0002201231B05803C2403D02519
:1035A0002D060026F6432E661E096E66CE0FF6190E
:1035B000B44649004F0D02D07E1CF60A03D000200D
:1035C0000021403F3F033E1BB600B444013F7F054E
:1035D000C91B49082E6F013676089C02950D2543BC
:1035E0007543ED137543AD1301356D10F603761B6E
:1035F0000CB4CC02450D2C43A2B2B3B25A43270CF3
:103600007B43350C6F43A4B26C431B1902D30124D6
:1036100024043F191C041D0CA4187D4124196D417C
:10362000009A91B2ACB26143170C7C432B0C5F4300
:1036300092B25A43A41802D301221204BF182204E2
:10364000230C52187B41019C6C431B19520ED9016B
:103650000A434401A01A81B2B2B2514303145A433F
:10366000360C734387B27743D617D21900277E41B1
:1036700036049B191704160C7F185E417316ED185B
:10368000F301002680337541A90F06D16400690A51
:10369000E8055B0A184309D22FE0042294448033E2
:1036A0007541A90AA8059B0A184326D34041494100
:1036B0002404009A019B0D005543641B4343E41A04
:1036C00095B286B27543170C7E43030C5F4392B2EA
:1036D0005A43B61802D301221204BF183204330C25
:1036E00052197B4152429C41002C02D400220130ED
:1036F00051414008CA071043490802B06246D70743
:103700009210084BD218084B9A4203D2120589181E
:10371000C919F0BD0020002A01DC3900F0BD0133D9
:103720001905F5E7FD030000FE070000002200B5C3
:10373000203200F004F8080000BD000000220B1544
:103740000AD410B5944600F031F81414013400DAAC
:103750000021CB17144C2047002000217047624401
:10376000343A0CD40C2A07DA0400914090405242BB
:103770002032D440214310BDD843D94310BD20325C
:1037800007D40C469440524220321141D04020438D
:1037900010BD0800C917203203D452422032104114
:1037A00010BD1800190010BD5F3700100A0DCC0FB6
:1037B000531E1B05C91A520503D3C943404200D307
:1037C0000131520D03D0531CDB0A07D0121B00201D
:1037D0006400611C89078912803A1203014BD21AD6
:1037E00070470000FF03000051434343C9188C4653
:1037F000110C83B24B4310B4040C614392B280B2FB
:10380000504362431C041B0C001910BC59411304A3
:10381000120CC0185141614470470000132310B5C9
:1038200010481C78FFF79CF90100012C13D10E4CB5
:103830005422200000F07AF815230C4A9900013335
:103840006250202BFAD12262E2610948FFF780F929
:10385000084B186010BD012CF7DD8022024800F0F3
:1038600065F8F2E753460000382000207938001050
:103870004C3300003420002007B5604601880A0A56
:103880000230DF2AFAD1C9B2820804D30288408804
:103890000004104300E00068014A5050039007BD47
:1038A0003820002010B5002803D0044B401898425F
:1038B00002D90348FEF764F910BDC0460000042099
:1038C0001082001070B50500084E300004F0BCFAFC
:1038D000280003F005FE0400300004F055FA29002A
:1038E0002000FFF7DFFF200070BDC046B8120020A7
:1038F00070B50400054D280004F0A6FA200003F07E
:10390000F9FD280004F040FA70BDC046B81200204E
:1039100001480421014B1847200A0020712B001098
:10392000014B1B6818470000200A0020014B5B6810
:1039300018470000200A0020030010B508001100FD
:103940001B68984710BD0000F8B50C000021437DAE
:103950000500160008008B421ED1110020002B68C4
:103960009847F8BD002927D0631E5B5C0D3B5A4287
:103970005341DBB2625C4F1C0A2A0CD1002B0AD1E6
:10398000814203DD091A2B68201898470D4802214F
:103990002B689847380039008E42E3DC86420DDD03
:1039A000311A2B6820189847A419013C23780D3B45
:1039B0005A4253412B75D4E72B7DDBE7002ED0DD37
:1039C000F2E7C0468282001070B505000A4B1C6801
:1039D000002C01D12C6070BD2368002B0AD0074B4E
:1039E0001B68002B01D09C4204D12900200004C98F
:1039F000FFF7AAFF2469EBE76C1800207418002079
:103A00000B6870B505000C00802B02D10800FFF791
:103A1000DBFF21684B1C23606418257170BD00001A
:103A200010B5FDF7AFFC0023054A12184B41002BDF
:103A300002DA0122034B5242034804F0E5F910BDBB
:103A400040420F00FFFFFF7FC012002010B5024868
:103A500004F09AF910BDC046C0120020F0B585B040
:103A600006000D001C000092FFF7DAFF01906B1CAE
:103A700003D1300004F020F80500144F002C00D1D1
:103A8000134F144B1C68002C06D1019B002B01D056
:103A9000FFF7DCFF05B0F0BD2368002B13D00E4B01
:103AA0001B68002B01D09C420DD12A003100200060
:103AB000B847009B002B06D002ABD91D0A23012278
:103AC00020000B70B8472469DDE7C0463939001083
:103AD000493900106C1800207418002013B56B468B
:103AE0000400D81D002301211A000470FFF7B6FF5F
:103AF000200016BD094A1368002B03D1002908D005
:103B0000106006E0834205D1002902D118691060D7
:103B1000196170471A001B691032EDE76C1800201C
:103B2000054B10B51C68002C00D110BD6368002B3C
:103B300000D098472469F6E76C18002070B505009E
:103B400003F0BAFF04000100002328000122FFF760
:103B500085FFFFF7E5FF200070BD000070B5A2B043
:103B600004000E00FFF75CFF002322000193050014
:103B700033000A4801A9FEF7BBFF019B0400002B9C
:103B800002D001A8FFF720FFFFF7CAFF002D01D0E8
:103B9000FFF75CFF200022B070BDC046013A001064
:103BA0000FB407B504A901C90191FFF7D7FF03B00E
:103BB00008BC04B0184710B500F0C4F8012010BDCF
:103BC000064B10B51B68002B06D00021044A126872
:103BD0009163044A1068984710BDC0463818002009
:103BE0004C2100203C180020F7B5194F194A3B68BA
:103BF000194E9C18624254410500326801911434F8
:103C0000002819D0002A12D120001449FCF79EFE8A
:103C100001212000FCF78AFE50223B689A63596B11
:103C2000183A1140802234335201134319600C4B6F
:103C3000019A35601A60F7BD002AF8D00100986338
:103C40002000FCF773FE20000449FCF76FFFEEE74D
:103C50004C2100200080FCBF38180020C13B001020
:103C60003C18002070B5002204001025104B1B6882
:103C700010008A4202DA9E692E4212D00D4909686C
:103C8000002909D0502199635C6B18390C408021C0
:103C9000343349010B431C60002A01D10320404208
:103CA00070BD98692842FCD11868A0540132DFE742
:103CB0004C21002038180020F7B5104B104A1B6823
:103CC00001919A1851424A41202400210D4E009042
:103CD0005200019DA94200DBF7BD0098455C975F4B
:103CE000AF4204D19F692742FCD10D2018609F6923
:103CF0002742FCD11D600131EBE7C0464C2100207A
:103D00000080FCBFC422002070B50C4E0D001C00CA
:103D10003060002A03DB02211000FCF71DFD002C9F
:103D200003DB02212000FCF717FD29003068FDF7B6
:103D300005FD01210248FFF7DDFE70BD4C2100208A
:103D4000300A0020E12110B5054B00221B78054BFD
:103D500005481B7849020123FFF7D6FF10BDC04676
:103D60009084001094840010004003400123084A0E
:103D700008491360084A136018008A689043FBD111
:103D8000064A136080235B0011681942FCD070471B
:103D900000E0004000C0004000F0004000C00440CF
:103DA00010B5024800F00CF810BDC04620240020D9
:103DB00010B508220149FFF7B9FD10BD20240020ED
:103DC00070B50024092688B005003200210001A842
:103DD0000094FFF7A5FD3200210005A80494FFF729
:103DE0009FFD4B236A466846137004A90D2203F019
:103DF000C3FF1521082228006944FFF797FD08B08A
:103E000070BD7047084B1B681868203080F3098824
:103E1000022080F31488BFF36F8F3FBCAE4608BC0E
:103E200004BC62B618470000981C00200000000087
:103E3000EFF3098116A00CC8186820390160F0C1A1
:103E400044464D4656465F46F0C1146E556E566F59
:103E5000176F3039F0C1002008B572B600F00AFEC5
:103E600062B60CBC116808681030F0C8A046A946BC
:103E7000B246BB4680F309880D2212073038F0C8DD
:103E80001466556656671767F0C81847C046C0469F
:103E9000000000D0981C002010B5EFF3108472B61B
:103EA00000F0DAFF01F09AF9002803D08022044BD9
:103EB00052051A6001F00AF884F3108810BDC0465C
:103EC00004ED00E010B5FDF773FE0000D0230122E1
:103ED00013B51B06196D08001040114223D1FF22B3
:103EE0001A65124A01901168EFF3108472B60B68DC
:103EF000002BFCD0BFF35F8F00230D4812680168D0
:103F00000360BFF35F8F136084F31088094B01AA2D
:103F1000186800F06FFA019B002B03D08022064B3B
:103F200052051A6013BD996DD4E7C046941C002059
:103F300054210020C021002004ED00E010B58024B1
:103F4000031F64041C60043B19600349043B1960AF
:103F5000143B40381A6010BDC53E00108022044B4F
:103F600052051A60BFF34F8FBFF36F8F7047C04683
:103F700004ED00E007490B68002B08D000220A601E
:103F800005490968BFF35F8F1A6081F3108862B634
:103F90007047C046301F002050210020002310B57C
:103FA000084A094C052023601360FDF7F5FCFA214F
:103FB0008900FEF719FE054B0138186007232360BE
:103FC00010BDC04618E000E010E000E014E000E0A2
:103FD00070B50E20FCF760FC0F20FCF75DFCD022D2
:103FE000120613682149224C0B701268DBB293420F
:103FF0000BD1FFF7D3FFFF23012022681B061343D9
:104000001C492360404201F0FBFBFF230220226891
:104010001B04134323601849404201F0F1FB0520C3
:104020001649404201F0ECFBD023FF221B061A6523
:10403000FE3A196D0D001540114214D11C68FF2184
:104040000F342000FCF724FE20000D49FCF77EFC15
:1040500001212000FCF76AFCFFF7D4FE280000F0E5
:1040600009FDFDF7A5FD996DE3E7C046480A00206C
:1040700020ED00E0993E0010313E0010033E00109C
:10408000CD3E0010D02310B51B061868064B1B78D8
:10409000834205D1EFF30583002B02D100F0A6FD8A
:1040A00010BD5B00C018FBE7480A002007B5134AA3
:1040B00003681078D02212061268904207D0BFF32E
:1040C0005F8F00221A6081F3108820BF07BD0C4A61
:1040D0000C4813600C4A11600C4A9B180122110015
:1040E0009B1099400B02194301235B420093090A7C
:1040F0000023006800F0F4F8E8E7C046480A002012
:10410000301F0020C02100205021002000FFFF2F81
:1041100037B503680A0028495B1802219B10FF315C
:104120009940264B090A1C78D0231B061B689C4229
:104130001ED140BF0368BFF35F8F00241C6082F371
:104140001088EFF30583DBB21D48A34203D100685A
:1041500000F017F937BD006801AA019400F04AF990
:10416000019B002BF6D08022164B52051A60F1E716
:1041700040BF154B05681C68A54218D02568002D66
:10418000FCD0BFF35F8F114C1B6825682943216069
:10419000BFF35F8F00211960D021002309064B6512
:1041A0000168BFF35F8F0B6082F31088D2E7074B83
:1041B0001C682143EFE7C04600FFFF2F480A00209C
:1041C000C021002004ED00E0941C002054210020B8
:1041D000F7B51D002B4B14001A78D0231B061B6863
:1041E00007000E009A420BD00368BFF35F8F0022D6
:1041F0001A6081F3108820002900FDF74BF8FEBDFE
:10420000FDF7C0F822002B00121A8B4101211E4835
:104210004942801859413F68002904DC2BD1FA2318
:104220009B00984227D3FA2200239200FEF702FD5A
:10423000002820D001221100144B1F60144B1E6077
:10424000144B0090FF18BF10B94013480B021943DC
:1042500000680023090A00F043F810494B6A9D42A8
:1042600005D8896A0120A142C9D29D42C7D1FFF772
:1042700075FE0020C3E7BFF35F8F00233B6086F32A
:104280001088EAE7480A002018FCFFFF301F0020D2
:104290005021002000FFFF2FC021002000400540DA
:1042A00010B5FCF7EDFA054BC018054B80001860FF
:1042B00000F00AF8034B186010BDC04640000034FF
:1042C000941C0020C021002010B51C2001F0E0FA51
:1042D000041E03D0002308C000F096F8200010BD93
:1042E000F7B50D0006001F00019200F00BFD2B003A
:1042F00034682340002F14D1002B14D1089B002BCD
:1043000019D001994B1E99410906002F02D0802334
:10431000DB041943089A2943301D00F038FD0024BE
:1043200009E09D42EAD100230893019B002B02D0B3
:104330002300AB43336000F0C9FF089B002B15D06E
:10434000002801D100F078FD01F0A8F804008301F5
:104350000AD400F081FD346823002B40002F07D1E0
:10436000002B07D100F0B2FD2402240A2000FEBD7C
:104370009D42F7D1019B002BF4D02300AB43336067
:10438000F0E70300F7B504000D000C33019300F0D3
:10439000B9FC236820691D4325600025019B216825
:1043A000984205D1A943216000F090FF2068FEBD2E
:1043B0000E000268476813021B0A1E40B44680269E
:1043C000F604324204D16646002E03D13800E5E7F8
:1043D0006345FBD180267604324200D01D43802302
:1043E0009B04194300F0E6FFF0E710B5FFF7C9FFA3
:1043F00010BD000010B513000A000100014801F0D3
:10440000E3F910BDEB4300100300083301224360C1
:10441000C36003610023524282600360704700233F
:104420000361704743689A684B608A609A6851607C
:10443000996003680861013303607047020030B57A
:104440000C680832631C0AD103695A684A6091609B
:104450008B605960036808610133036030BD13004D
:1044600052681568A542FAD9EFE703694168826886
:104470008A6051605968814200D15A60002202610D
:104480001A68013A1A601868704710B5040000F005
:10449000E3FCA46B00F01AFD6042604110BDF8B56A
:1044A0001500026C0400866B002A0CD10768150009
:1044B000002F04D1806800F095FC0500A76001364C
:1044C0002800A663F8BD002D0CD14068FFF72EFA36
:1044D0006368226C9B18A26863609342EFD32368E1
:1044E0006360ECE7C068FFF721FAE368226C514291
:1044F0009A1A2368E2609A4202D2A3685918E160CE
:10450000022D05D133005A1E93410025F61AD6E735
:104510000025D4E7F7B5876C0025BB6BFA6B0190DB
:10452000934215D23E002A003800453601A934785E
:10453000FFF7B5FF64B20500631C0BD17B6A002B4B
:1045400006D03800243000F00BFB002800D00125F5
:104550002800FEBD013464B23470F9E703001A6C20
:10456000080010B5002A0AD0D9688C189968DC6058
:104570008C4201D31968D960D968FFF7D7F910BD0B
:1045800070B504002600453600F066FC35786DB243
:10459000002D10DCFF2333702600443600F096FC1B
:1045A00000F05AFC35786DB2002D18DCFF23337013
:1045B00000F08CFC70BDA36C002B08D02000FFF72E
:1045C000A9FF002801D000F00BFB013DDFE7636A83
:1045D000002BDFD02000243000F0C2FAF1E723697D
:1045E000002BE3D02000103000F0BAFA002801D0F0
:1045F00000F0F6FA013DD6E770B504000D0000F0BA
:104600002BFC216CE36B22684B43D0185B1A626071
:10461000D3182200A060E3600020FF234432A0638F
:104620001370537085420ED12369834207D0200056
:10463000103000F095FA002801D000F0FDFB00F0EA
:1046400045FC012070BD20001030FFF7DDFE20008A
:104650002430FFF7D9FEF2E7F8B5060008007043F2
:1046600054300D00170001F013F9041E0FD00300A1
:10467000002D00D05433236001212000E66325641F
:10468000FFF7BAFF230050331F700023A3642000FC
:10469000F8BDF0B504001E00002785B0009101921E
:1046A00000F0DAFBA36BE26B934201D3022E20D120
:1046B000320020000099A56BFFF7F1FEA36C002BE0
:1046C0000FD0022E01D1002D06D12000FFF722FFCE
:1046D000002801D000F0B0FB00F0F8FB012005B08D
:1046E000F0BD636A002BF3D02000243000F038FACC
:1046F000EEE7019D002D03D100F0E8FB0020EEE77E
:10470000002F02D102A800F05FFA00F0DFFB00F0FA
:10471000F9FA00F0A1FB2200443213785BB20133B6
:1047200001D1002313702200453213785BB20133AC
:1047300001D10023137000F0C9FB01A902A800F009
:104740005FFE00281FD100F087FBA36BE26B934252
:1047500010D100F0BBFB20000199103000F008FBE5
:104760002000FFF70DFF00F0B1FD002809D100F097
:1047700063FB06E000F0AAFB2000FFF701FF00F05A
:10478000A5FD01278CE72000FFF7FAFE00F09EFD53
:10479000B4E7F0B585B004001E0003910092EFF37A
:1047A000108772B600F058FBA36BE26B934202D302
:1047B0000025022E21D12300453301931D78A36BE0
:1047C0006DB23200200003990293FFF768FE6B1C64
:1047D00022D1A36C002B17D0022E04D1029B002BF8
:1047E00001D0012509E02000FFF794FE0028F8D051
:1047F000009B002BF5D001251D6000F067FB87F3BF
:104800001088280005B0F0BD636A002BE9D02000B5
:10481000243000F0A5F9E9E7019B01356DB21D7068
:10482000DFE7F0B504000E00002785B0019200F02C
:1048300013FBA56B002D15D031002000013DFFF7C3
:104840008DFEA5632369002B07D02000103000F0F7
:1048500087F9002801D000F0EFFA00F037FB0120C3
:1048600005B0F0BD019D002D03D100F02FFB00200D
:10487000F6E7002F02D102A800F0A6F900F026FB0F
:1048800000F040FA00F0E8FA2200443213785BB2FC
:10489000013301D1002313702200453213785BB23B
:1048A000013301D10023137000F010FB01A902A80D
:1048B00000F0A6FD00281AD12000FFF7E6FD002831
:1048C0000FD020000199243000F052FA2000FFF7A9
:1048D00057FE00F0FBFC002801D100F0ADFA0127E3
:1048E000A5E72000FFF74CFE00F0F0FCF7E7200002
:1048F000FFF746FE00F0EAFC2000FFF7C6FD0028A7
:10490000EDD0B4E7002230B5064BD400E558002DB9
:1049100003D1E1501B19586030BD0132082AF4D18F
:10492000FAE7C0460022002070B5040016000D0012
:1049300000F092FA2200443213785BB2013301D1C5
:10494000002313702200453213785BB2013301D18A
:104950000023137000F0BAFAA36B002B05D12000DE
:1049600032002900243000F028FA2000FFF708FE6A
:1049700070BD0000EFF30583DBB2002B05D00028EB
:1049800003D10122054B1A6007E0054A83009B58BA
:104990005B6B023301D00028F3D0704780220020E7
:1049A000981C00204B425941C26A0A4B521A18689F
:1049B00019681B6810B55B6B002B0AD1C36A0648E7
:1049C000896B0068002804D15B1A9A4201DBFFF76B
:1049D000D1FF10BD981C00208022002070B5012559
:1049E000D0232E001B0686401C68002A17D00A68B8
:1049F000124B002A0AD11A5D164204D0104A135CE9
:104A00005B19135470BD0A68002AFCD0BFF35F8F96
:104A100001210B4A11541A5D16431E55F2E7084A4C
:104A2000135C013BDBB21354002BEBD1034A135D43
:104A3000B3431355BFF35F8F0D60E3E729240220D2
:104A40002B240220064A13681968064B002903D15B
:104A5000012252421A6070471268D2681268F9E760
:104A6000A01C0020D4210020014B18687047C046CC
:104A700074220020F7B50122060032491000FFF72A
:104A8000ADFF012230490020FFF7A8FF2F4B304A2D
:104A90001968B30000290CD00121D1500022100068
:104AA0002949FFF79BFF002201202649FFF796FFC7
:104AB000F7BD1425D1500122264B1F68264B7D439C
:104AC000ED1814237B4324495B58002B33D0280076
:104AD0006B6808309C680194844201D12B69019372
:104AE000B2006468844200D16468E368596B8C4604
:104AF000013114D1194988586146416317495E63F1
:104B00008B502000FFF7B1FC21002800FFF78AFC42
:104B100000220123013F143D002BD2D0BEE70F49F4
:104B200089588B4201D15E63EBE7019B9C42D8D14F
:104B300000221300EEE7002AECD006480168013994
:104B40000160E7E73C0100D0380100D0602100207F
:104B50008022002068210020B01C0020981C00202A
:104B6000C36870B5DC68250018352800FFF77DFCA8
:104B7000104B1B68002B19D1251D2800FFF775FC71
:104B80000D4AE36A11688B4200D913601420290092
:104B900058430A4BC018FFF745FC20000021FFF7DF
:104BA00001FF074B1868431E984170BD2900054856
:104BB000F1E7C0466021002068210020B01C0020E1
:104BC00080220020E8210020034B1B680360034B78
:104BD0001B6843607047C046D82100207422002023
:104BE0000122014B1A60704780220020EFF31083EE
:104BF00072B6024A106883F310887047981C002030
:104C00001B4B70B504000D001E68FFF7EFFF00237B
:104C100079300370FFF7EAFF0430FFF726FC631CCE
:104C200008D1002D06D0FFF7E1FF011D1148FFF765
:104C3000F9FB70BDFFF7DAFF34194460A64208D9CA
:104C40000D4B1C68FFF7D2FF011D2000FFF7F6FB9C
:104C5000EFE70A4B1D68FFF7C9FF011D2800FFF7AA
:104C6000EDFB074B1A68A242E3D91C60E1E7C0469E
:104C7000742200204C220020A81C0020A01C002030
:104C8000D42100201B4BF7B51E68736B023300D094
:104C9000F7BD0025184FF46C3B68220001933D607E
:104CA000AC4206D02A0028001449F564FFF796FEAE
:104CB0002A0001201249FFF791FEFFF75BF9EFF39D
:104CC000108372B601220E491000FFF787FE012201
:104CD00000200A49FFF782FEFFF788FF019BC464AA
:104CE0003B60002CD1D1220020000449FFF776FE62
:104CF000CBE7C046981C002060210020380100D07E
:104D00003C0100D0164B70B51B68002B26D0EFF38A
:104D1000108572B6012213491000FFF75FFE0122D1
:104D200000201149FFF75AFE0022104C10002368A2
:104D30000D4901332360FFF751FE2368012B0BD18E
:104D4000FFF754FFC36C002B06D1EFF30583DBB2F2
:104D5000002B01D1FFF796FF85F3108870BDC04688
:104D6000402200203C0100D0380100D0602100200A
:104D700070B505000C00FFF739FF0100280018315D
:104D8000FFF75CFB01212000FFF73AFF70BD70B513
:104D900014000E000500FFF729FF802109063143AA
:104DA0008161FFF723FF010028001831FFF73AFB6C
:104DB00001212000FFF724FF70BD70B506000C0034
:104DC0001500FFF713FF010030001831FFF72AFB31
:104DD000002D01D00124644229002000FFF710FFBC
:104DE00070BD000070B5041E01D1002070BDC36D00
:104DF000C26A816D013BC3658A42F6D0002BF4D1B3
:104E0000051D2800FFF731FB2022A36DD21AA261F5
:104E1000074AE36211688B4200D91360142058439B
:104E2000044B2900C018FFF7FDFA0120DEE7C04659
:104E300068210020B01C002010B5FFF7D7FEC36C1E
:104E4000002B02D1FFF78AF810BD0122014B1A6036
:104E5000FAE7C0468022002010B5EFF3108372B647
:104E6000164B1B68002B28D0FFF7C0FEC36C002B2D
:104E70000ED1EFF30583DBB2002B04D101221049E0
:104E80001000FFF7ABFD012200200E49FFF7A6FD41
:104E9000FFF7ACFEC36C0133C3640B4B1B68002BE4
:104EA0000BD1FFF7A3FEC36C012B06D1EFF30583F3
:104EB000DBB2002B01D1FFF7E5FE10BD4022002040
:104EC0003C0100D0380100D060210020174B10B504
:104ED0001B68002B28D0FFF789FEC36C002B23D062
:104EE000FFF784FEC36C013BC364FFF77FFEC06C19
:104EF000002819D102000E49FFF770FDEFF305827B
:104F0000D2B2002A10D101200A49FFF767FDFFF74E
:104F100031F8EFF3108272B6074B1B6882F31088EA
:104F2000002B01D0FFF71AF810BDC0464022002028
:104F3000380100D03C0100D08022002070B5FFF77E
:104F40000DF81CE0FFF788FF2368002B15D0124BEB
:104F5000DB68DD686B6B013316D1281DFFF785FA1E
:104F60000E4A286B1368013B13602368013B2360E2
:104F700000F016FD280000F013FDFFF7A7FF084C16
:104F80002368002BDED101E0FFF7A0FF054B1B6873
:104F9000012BF4D9D3E7C04660220020582100201D
:104FA0005C210020B01C0020F0B5970085B0009077
:104FB00038000D00039300F06BFC041E18D07C2019
:104FC00000F066FC061E10D0A52104633A00200004
:104FD000FEF7A6FC336B3100019300233C319D4268
:104FE00009D133003C331D7010E0200000F0D8FCE4
:104FF0000120404293E0EA5CCA54002A02D0013307
:10500000102BF8D1330000224B331A700A9D1F2D4C
:1050100000D91F250024331D1800F562B565F4651D
:105020000293FFF7FCF930001830FFF7F8F920235E
:1050300030005D1B142221003661B5617662F46494
:105040006030FEF76DFC3000042221007430FEF762
:1050500067FC330078331C705C70019B381F181894
:105060000723039A98430099FEF768FF01235B42E8
:10507000306073632E48009B181A434258410B9BC3
:10508000B063A34200D01E60FFF7E6FE294B2A4D15
:105090001A6801321A602C68002C24D11B68012B7D
:1050A0001ED1142738006043244B01341818FFF731
:1050B000ABF9202CF6D1224F3800FFF7A5F9214C8F
:1050C0002000FFF7A1F92048FFF79EF91F48FFF7DE
:1050D0009BF91F48FFF798F91E4B1F601E4B1C6081
:1050E000B36B002B1DD11D4A1368013313601C4A9A
:1050F00033651168F36A8B4200D91360142058435A
:105100000E4B02991818FFF78DF92B68002B03D06E
:1051100000213000FFF746FCFFF7D8FE012005B064
:10512000F0BD104A1368002BDDD173631660DAE717
:105130003D4F00105821002040220020B01C0020CC
:1051400098210020AC210020E821002060220020CE
:105150004C220020A01C0020A81C0020642100205C
:1051600068210020981C002010B586B000F0F0F9EE
:105170000023134802A9C45C1A005C540133002CBC
:10518000F9D1302088548022CC540E4B0E48019324
:10519000009423005200FFF707FF01280CD1EFF322
:1051A000108372B60122094B52421A60084B1860F4
:1051B000084B1C60FEF70CFF074B1B6806B010BDC8
:1051C000C3820010C82100203D4F0010D4210020D0
:1051D00040220020742200204C0A0020F8B5FFF77E
:1051E0003BFE2F4B1B68002B53D12E4B1D68013506
:1051F0001D60002D0BD12C4A2C4B116818681060D3
:105200002B4A1960136801331360FFF71BFC294E0A
:105210003368AB4207D8244B1A681268002A15D1AC
:1052200001235B423360244B01241B68DA6A142398
:105230005343224AD358224A1268002A02D19C4280
:10524000A4416442FFF742FE2000F8BD1B68DB6802
:10525000DC6863689D42E5D3271D3800FFF705F938
:10526000A36A002B03D020001830FFF7FEF8154B7F
:10527000E06A1A68904200D91860142358430F4B13
:1052800039001818FFF7CEF801212000FFF78AFB3C
:10529000C1E70D4A0024136801331360D2E7C0460A
:1052A0006021002074220020A01C0020A81C0020E7
:1052B000D8210020D4210020981C0020B01C002000
:1052C0008022002068210020E4210020274B70B5B7
:1052D0001D68002D14D00025FFF7BEFD244C0022D0
:1052E00023680120013B23492360FFF777FB2468F3
:1052F000AC4203D1204B1B68AB4235D1FFF7E6FD32
:10530000280070BDDB68DC682000251D1830FFF721
:10531000ACF82800FFF7A9F8184BE06A1A68904229
:1053200000D918607043164B2900C018FFF77AF8AF
:10533000144B1A68002AE5D1002C01D0FFF782FB3C
:10534000114D2C68002C0AD00126FFF747FF0028DA
:1053500001D00E4B1E60013C002CF6D12C600B4B93
:105360001D686B1E9D41C9E71426E1E7402200201D
:10537000602100203C0100D058210020682100203D
:10538000B01C0020E8210020E42100208022002021
:1053900010B5041E02D1FFF74FFD10BDFFF7B2FCA0
:1053A00000212000FFF72CFCFFF790FF0028F2D02F
:1053B000F3E70000802370B51B06C4680B4303604D
:1053C000251DFFF752F82800FFF74FF80A4AE36A55
:1053D00011688B4200D9136014205843074B2900F1
:1053E000C018FFF71FF8FFF737FD00212000FFF777
:1053F000D9FAFFF76BFD70BD68210020B01C0020BA
:10540000F7B505000E00FFF727FD174B1F686B6807
:105410000193FFF7EBFB79300478002C09D0FFF7FC
:10542000E5FB0023793003700124FFF74FFD2000D6
:10543000FEBD33685A1CF8D00C4A296812689142A4
:1054400005D06A68BA4202D800233360ECE7019ABB
:10545000BA1A9342F8D9019ADB1B9B1828003360D3
:10546000FFF7B2FB0024E0E774220020D8210020DF
:10547000084B10B51B680124002B08D0FFF7ECFC8B
:10548000054B1C6863425C416400FFF71FFD200070
:1054900010BDC046402200206021002070B5FFF7FB
:1054A000A5FB8469FFF7A2FBC56AFFF79FFB2023DA
:1054B0005B1B8361200070BDF8B5FFF7CDFC0F4C7E
:1054C0002568002D16D10E4F3800FEF79DFF0D4EBA
:1054D0003000FEF799FF0C4B2A001F600B4B102188
:1054E0000A201E60FFF7B8F82060002802D00849A3
:1054F000FFF708FAFFF7EAFCF8BDC0467822002063
:105500006C210020802100209C1C0020AC1C00206D
:10551000C882001010B504004160006191420BD8B0
:10552000D21AA36901209A4205D2074B211D18689F
:10553000FEF784FF002010BD9A4202D2012099425A
:10554000F9D2024B211DF2E7AC1C00209C1C00206C
:1055500007B5FFF7B1FF0020074B1B6883420AD055
:10556000064B802201931F2305490093D2000300BC
:105570000448FFF719FD0EBD782200207C22002090
:10558000CD820010555600101FB50C4C2368002B1F
:1055900002D1002004B010BD0091019202900529B3
:1055A000F7DCFFF765FF0023069A022800D01A00F7
:1055B00069462068FFF76DF8ECE7C04678220020C6
:1055C000F0B587B00500FFF74FFA1F4F04903B6816
:1055D000834236D91D4E33681A68002A0AD11C4A04
:1055E00011681360012331602B60049B18003B603D
:1055F00007B0F0BDDB68DC681A68231D1800039251
:105600000593FEF732FF236A200098472300042207
:1056100028331B781342DDD0A269039B9B18039AA1
:105620009A4206D20599306863602461FEF706FF4E
:10563000D0E7002120000B00039A0091FFF7A4FFA0
:10564000C8E70023D0E7C046CC2100209C1C0020E6
:10565000AC1C0020F0B501278BB0584E3D003368DC
:105660001C68002C02D00025DB681C68FFF74AFB91
:1056700006A8FFF7A5FF069B0390002B5CD1002D29
:1056800047D1A0424AD3FFF721FE3368DB68DE68CA
:10569000301DFEF7EAFE320028321378590735D55F
:1056A000B3693000E118039A2300FFF733FF0028A5
:1056B00006D02B002200290030000095FFF764FF80
:1056C0003000336A984702263D4B0022186806A92D
:1056D000FFF7A7F80028C0D0069B08980393002B7B
:1056E0002DDB089C6369002B32D105A8FFF768FF0A
:1056F000020006980928E7D8250028352B7802F003
:105700007BFB2B2B2B5949532B2B5949BB43137034
:10571000D6E72C4B1B681D686B425D41039B2A003A
:10572000E11A274B1868FFF7FFF8FFF7CFFD0028B5
:10573000C9D1FFF781FBC6E7FFF7C8FDC3E7079BA9
:10574000099903939847069B0393002BBCDBC8E79A
:10575000201DFEF78AFEC8E73B432B70079BA1691B
:10576000200059180393FFF7D5FE0028ACD0236A18
:10577000200098472B785B07A6D5079B20001A00CE
:105780000393A3699C460023624419000093FFF72A
:10579000FBFE99E73B432B7007991300A1612000A2
:1057A0005118FFF7B7FE8FE7334203D1200000F016
:1057B000F7F889E7BB432B7086E7C0469C1C0020A6
:1057C00078220020AC1C00201FB514001A00022310
:1057D000019006485B4200930291002369460068ED
:1057E0000394FEF7D6FF04B010BDC0467822002017
:1057F000024B10309B688000C058704700ED00E0FD
:10580000F8B504000E00EFF3108772B6FFF7F0FF53
:105810000500B04207D0094B984202D3084B98428A
:1058200001D3FCF7CBF9074B10349B68A400E6507A
:10583000BFF35F8F87F310882800F8BDC001001008
:10584000CC01001000ED00E010B50F4B1A001B68F2
:105850008342FBD354681119884203D14168100078
:105860000919516041684418A34207D1074C2468C4
:10587000A34203D05C681B686118416003609042DA
:1058800000D0106010BDC04644220020A41C00209F
:10589000F7B50400FFF736FA3A4A3B481368002B85
:1058A0001ED13A490733194233D0CD189D43802386
:1058B0009B02C9184B1B29000025354ECB1875607B
:1058C00031600726083BB3431D605D605D1A28C147
:1058D0001360304B1D60304B1D6080231B0603603E
:1058E000066820000025304034420ED1631E0500BA
:1058F0000A330AD82300072108330B423AD01C0090
:105900008C4321000831994233D8FFF7DFFC28008F
:10591000FEBD80239B02CFE71D490C68606898425A
:1059200002D22568002D21D112680025A242ECD0B8
:105930000D68226808350A60C21A102A04D9E018D6
:1059400042606360FFF780FF12496368019A08684C
:10595000D21A3A60824200D20A6033436360002365
:105960000E4A2360136801331360CEE721002C0038
:10597000D4E70B00084F396801919942CCD2002539
:10598000C3E7C046A41C0020942100202924002045
:1059900044220020D0210020C4210020DC2100204E
:1059A00010B500281BD00E4A08384368126804005E
:1059B0001A4214D00168002911D193434360FFF7C4
:1059C000A1F9084A6368116820005B181360FFF7AB
:1059D0003BFF054A136801331360FFF777FC10BDE6
:1059E00094210020C4210020E0210020F7B57F246D
:1059F0000440C509630017002D4E5A195201B21810
:105A000090700120A843507000201183D070D77689
:105A1000A2018C46E000B218012D10D12549401892
:105A2000906200205A195201B218926810608442A4
:105A300009D1214B6D0176197460F360F7BD1F49E0
:105A400040189060EDE7621EA001D2003018012DD1
:105A500029D11B495218426261463F223F3189B227
:105A60009143022F00D1490016485B1902685B017F
:105A7000F318DA60144B511801605A4059408023E2
:105A800001925B01994201D9FCF798F880226400E9
:105A90006519019B6D01BF0675191F4312066B68DE
:105AA00017431F60CAE7094952184260D4E7C0464D
:105AB0007C1800208000105000011050840010500D
:105AC00008001050801C0020000010500C001050E6
:105AD00010B501210520FAF729FF10BD002210B5ED
