:020000041000EA
:0400000AFFA0C0DEB5
:1000000D00B5324B212058609868022188439860D2
:1000100DD860186158612E4B0021996002215961F9
:1000200D0121F02299502B49196001219960352049
:1000300D00F044F80222904214D00621196600F017
:1000400D34F8196E01211966002018661A6600F041
:1000500D2CF8196E196E196E052000F02FF801217C
:1000600D0842F9D1002199601B491960002159609E
:1000700D1A491B48016001219960EB211966A021E5
:1000800D196600F012F800219960164914480160B4
:1000900D0121996001BC002800D000471248134986
:1000A00D086003C880F30888084703B5996A0420DF
:1000B00D0142FBD001200142F8D103BD02B5186603
:1000C00D1866FFF7F2FF186E186E02BD00000240B1
:1000D00D000000180000070000035F00212200004F
:1000E00DF4000018222000A00001001008ED00E02F
:1000F00D00000000000000000000000074B24E7A05
:1001000D00200420F7010010C3010010C5010010EC
:1001100DC1010010C1010010C1010010C10100108A
:1001200DC1010010C1010010C1010010C701001074
:1001300DC1010010C1010010C9010010CB01001058
:1001400DCD010010CD010010CD010010CD0100102A
:1001500DCD010010CD010010CD010010CD0100101A
:1001600DCD010010CD010010CD010010CD0100100A
:1001700DCD010010CD010010CD010010CD010010FA
:1001800DCD010010CD010010CD010010CD010010EA
:1001900DCD010010CD010010CD010010CD010010DA
:1001A00DCD010010CD010010CD010010CD010010CA
:1001B00DCD010010CD010010CD010010CD010010BA
:1001C00D00BE00BE00BE00BE00BE00BEEFF3058047
:1001D00D103800BEF2EB8871380D0010580D00106C
:1001E00D3402001090A31AE700201F49086006C8CA
:1001F00D81F3088810471D48006800282FD10DA4F1
:1002000D0ECC002902D000F012F8F9E71849194A6E
:1002100D002000E001C19142FCD1174988471749E0
:1002200D88471749884700BEFDE701C901C29A42B8
:1002300DFBD37047580D001000000020B4010020C2
:1002400D0C0F001000000420000004200C0F001003
:1002500D0010042000100420000000007047094821
:1002600D00F090FA0047000008ED00E0000000D01B
:1002700D00020020240400205D0200105906001029
:1002800D5D0300105756000006005250ABB360538B
:1002900DDC0C001006005250861C0302E70C001007
:1002A00D060052505422A29D050D0010050052501B
:1002B00DDE65F4680C0F0010F8B5C0460448054B18
:1002C00D10B5834203D0044B002B00D0984710BDCE
:1002D00DB4010020B40100200000000006480749C9
:1002E00D091A8B10C90FC91810B5491003D0044B4A
:1002F00D002B00D0984710BDB4010020B4010020A0
:1003000D0000000010B5074C2378002B09D1FFF732
:1003100DD5FF054B002B02D0044800E000BF0123A0
:1003200D237010BD0003002000000000080A00101B
:1003300D054B10B5002B03D00449054800E000BF64
:1003400DFFF7CCFF10BDC0460000000004030020E5
:1003500D080A00100048704719801F00FEE700BE14
:1003600DFEE7000073B50C0016000500FFF7F2FF65
:1003700D2C23802298430F4B120418430E4B6946D1
:1003800D1A600E4B07311A6801235340DB050C4AE6
:1003900DDB0D1360A0238722DB05D2009E501D606C
:1003A00D596080219C604904D86018690842FCD1CD
:1003B00D985876BD10008000102000503404005075
:1003C00D3414005010B50400FFF7C4FF80220E4B0B
:1003D00D120418400D4B012118430D4B49421A6070
:1003E00D0C4B1A6801235340DB050B4ADB0D1360E0
:1003F00DA0238722DB05D2009950084A1C605A6061
:1004000D40229A60186110BD33F8FFFF3806800056
:1004100D102000503404005034140050000200200D
:1004200DA02386220121D200DB059950802252049F
:1004300D19691142FCD18722D200985870470000EB
:1004400D8023012210B5124C5B05E018FC215242AD
:1004500DFFF788FF0F4BE358984216D10E4B0F4A0A
:1004600DD968914203D0D9680D4A914201D1002239
:1004700DDA6004220B4B1A600B4BE418201C0B495D
:1004800D086003C880F308880847002010BDC046E7
:1004900D00100000FC00001000800540FB5ECD8EBA
:1004A00D04A1327100E000400001001008ED00E0F1
:1004B00DF7B50C00FA220021802705005200080034
:1004C00D00F0AEF9314E240B7F01002C44D12E00EB
:1004D00DAB681136591EFF360B0A30000193FFF73A
:1004E00D71FF2A4F019B0093009B0137FF37002BB3
:1004F00D3DD100F057F90122019B30001902524203
:1005000DFFF730FFA04222D12E0010363000FFF74A
:1005100D59FFFFF785FF80221D49520004001B483B
:1005200D00F05AFA00F03EF90122802130005242CB
:1005300D4900FFF717FFA04209D1F02380211B06C8
:1005400DE818490100F058FA124B134ADA6080227C
:1005500D124BD2051A60F7BD3000390000F04CFA8D
:1005600D80235B01F618013C00F01CF9ADE700F0AB
:1005700D19F9FFF755FF8022040005493800520094
:1005800D00F02AFA009B013BADE7C04600100000C9
:1005900D0002002000800540F24EFAE300B0054055
:1005A00D0C235843124B10B5C01880235B004360D9
:1005B00D012913D00368802452015A40E0236401BD
:1005C00D1A4004432260032203684B40134023600A
:1005D00D01238B4082681342FCD010BDC02303243D
:1005E00D9B0103431C6083680B42FCD0E2E7C046CD
:1005F00D0080004037B50C2000F0CCF80023114DE1
:1006000DAB6700F02FF901220F4B1A606B6C012BB9
:1006100DFCD103220D4B1A60AC6B012CFCD10225D1
:1006200D0623210000950A4A0A4800F02FF92900F7
:1006300D00220420FFF7B4FF002221000520FFF760
:1006400DAFFF37BD008000403CB0004030B00040EF
:1006500D002F685900800240F8B5404DEE682C69B6
:1006600DFFF7C8FF04233E4A3E49136018008A680D
:1006700D9043FBD13C4B9E421FD123051A0D002BFD
:1006800D22D18021394B49055B18A3421CD2384B2E
:1006900DEB606A6181235B059C4221D3324B9E4204
:1006A00D02D0334B9E4201D1FFF7CAFE314800F014
:1006B00D69F800210300080098472D4B9E4203D195
:1006C00D6B6901336B61E5E7FFF7BAFE0028E1D1F5
:1006D00D294B264CE418264BEB602C616861D9E759
:1006E00D2368214A934203D080235B01E418D1E7AC
:1006F00D224B62689A42F7D1270001221037380049
:1007000DA1685242FFF72EFEE3689842ECD1012218
:1007100DFC2138005242FFF725FE23000D33FF3335
:1007200D1B689842E0D1A368154A991880220F4B97
:1007300D090B520509039B185B18A342D4D200295B
:1007400DACD06B69022BA9D82000FFF7B1FE0021B8
:1007500D3222080000F064F8FEE7C0460080054034
:1007600D00F0004000C00040FB5ECD8E0010000088
:1007700D04A132715542000000100010A952AEC5FF
:1007800DFF0F0000142310B50100188804331B88D7
:1007900D984710BD8023024A9B000343D3627047E4
:1007A00D00800540024B1A68024B5A607047C046E4
:1007B00D1C0400200080054003008020124AC00563
:1007C00D10B5124C106012480460E020114CC004AA
:1007D00D002906D02060002B05D180231B06236045
:1007E00D10BD1060F7E7FA208022C0005843520474
:1007F00D094B904205D21860FFF7D4FF8023DB052B
:1008000DEDE7064A1A60F7E700B00540FCFF01006E
:1008100D0820014000A005401C040020FFFFFF0040
:1008200D70B50400100080220A4BD2051A600A4BE5
:1008300D002C0CD00125094A2C43DA61084A62408C
:1008400D1A6259629C620021FFF7B6FF70BDDC6130
:1008500DF9E7C04600B0054000800540D3C007B0A1
:1008600D2D3FF84FAA22064B12011A602F2205497F
:1008700DDA60054A11605A68002AFCDA7047C046F2
:1008800D0040024000B0FA0000600240F8B51700C9
:1008900D040030480D001E0000F074F82E4B0100CE
:1008A00DFA182E4B9A4205D911212D4B2D4A2E485F
:1008B00DFFF755FD380000F065F802009823103A57
:1008C00D5B009A4203D91921284B264AEFE7731E84
:1008D00D062B03D8069B013B062B03D91C21244B69
:1008E00D204AE4E7069A330416031E432368002BBF
:1008F00D0FDA3F2223681340AB420AD1A3681B05D0
:1009000D1B0D834205D1EE22E368D2021340B342A0
:1009100D1BD0184B9C4219D080235B01164A1749F6
:1009200D1360174A13601F008A689743FBD1C023D9
:1009300D221D9B01134321222560A0601A602268AD
:1009400D002AFCDA0822E6601A60F8BD80239B01BC
:1009500DE4E7C046001BB70080E84BD380F8A9320E
:1009600DA80B0010BF0C0010070C00105A0C001043
:1009700D760C001000C0024000E0004000C00040B6
:1009800D00F00040114A936F9B0813D21066516618
:1009900D002905D0FFE7FFE7FFE7516F106F7047A4
:1009A00D04B5002801D00020C04300F01DF800213F
:1009B00D04BDC046F0B5146E556E576F166FFFF738
:1009C00DE5FF1466556657671667F0BD000000D049
:1009D00DF8B5C0460000000001B40248844601BCD1
:1009E00D604700BFED00002001B40248844601BC01
:1009F00D604700BF9901002001B40248844601BC44
:100A000D604700BF41000020312E313000060052FA
:100A100D503ABCA911080A0010666C6173685F6FCB
:100A200D666673202B20636F756E74203C3D2050DD
:100A300D49434F5F464C4153485F53495A455F42C6
:100A400D59544553002F686F6D652F72756E6E6525
:100A500D722F776F726B2F6669726D776172652F6A
:100A600D6669726D776172652F6C69622F7069634B
:100A700D6F2D73646B2F7372632F7270325F636FA0
:100A800D6D6D6F6E2F68617264776172655F666CF4
:100A900D6173682F666C6173682E6300636F6E6E91
:100AA00D6563745F696E7465726E616C5F666C61AF
:100AB00D736820262620666C6173685F657869749B
:100AC00D5F78697020262620666C6173685F72619D
:100AD00D6E67655F657261736520262620666C61A1
:100AE00D73685F666C7573685F63616368650063E7
:100AF00D6F6E6E6563745F696E7465726E616C5F47
:100B000D666C61736820262620666C6173685F656C
:100B100D7869745F78697020262620666C61736829
:100B200D5F72616E67655F70726F6772616D2026AF
:100B300D2620666C6173685F666C7573685F6361B0
:100B400D63686500636F6E6E6563745F696E74656F
:100B500D726E616C5F666C61736820262620666C10
:100B600D6173685F657869745F78697020262620E7
:100B700D666C6173685F666C7573685F63616368EB
:100B800D6500666C6173685F72616E67655F707238
:100B900D6F6772616D00666C6173685F72616E671D
:100BA00D655F65726173650076636F5F667265710F
:100BB00D203E3D20285049434F5F504C4C5F5643DB
:100BC00D4F5F4D494E5F465245515F4B485A202A63
:100BD00D204B485A292026262076636F5F66726562
:100BE00D71203C3D20285049434F5F504C4C5F567F
:100BF00D434F5F4D41585F465245515F4B485A2018
:100C000D2A204B485A29002F686F6D652F72756E1B
:100C100D6E65722F776F726B2F6669726D77617269
:100C200D652F6669726D776172652F6C69622F70C1
:100C300D69636F2D73646B2F7372632F7270325FE4
:100C400D636F6D6D6F6E2F68617264776172655F32
:100C500D706C6C2F706C6C2E63006662646976200C
:100C600D3E3D203136202626206662646976203C82
:100C700D3D203332300028706F73745F64697631B4
:100C800D203E3D203120262620706F73745F6469ED
:100C900D7631203C3D2037292026262028706F7381
:100CA00D745F64697632203E3D2031202626207007
:100CB00D6F73745F64697632203C3D203729007074
:100CC00D6C6C5F696E697400446562756700626F74
:100CD00D6F74325F7732357130383000312E352EEA
:100CE00D31007069636F00696E7465726D6564695A
:100CF00D6174655F7069636F2D666C6173686C6F8D
:100D000D61646572004175672020352032303233C1
:100D100D0006005250BBFF3CB6E20C00100600521C
:100D200D50E182887FCE0C001006005250D3F07532
:100D300D42C80C00100000000D0A0010AC0200109B
:100D400DA002001094020010110D00108802001076
:100D500D1D0D0010290D0010084A10B51378002B39
:100D600D0AD18023064807495B051C68C45004332B
:100D700D8B42FAD10123137010BDC0462004002010
:100D800D1C0300100001001010B5024B01339847F1
:100D900D10BDC0461C0300208023F0B50A180400C6
:100DA00D0D0085B09B039A4205D941211D4B1E4A6A
:100DB00D1E4800F0A1F81826142733881C493888DE
:100DC00D984733881B4903903888984733881A49C8
:100DD00D0290388898473388019018493888984789
:100DE00D039B0600002B07D0029B002B04D0019B18
:100DF00D002B01D0002803D14921114B0A4AD7E716
:100E000DFFF7AAFF039B9847029B9847802220007B
:100E100DD82329005202019CA047B047FFF7B4FF29
:100E200D05B0F0BD190A0010960B0010450A001010
:100E300D4946000045580000524500004643000059
:100E400D9C0A00108023F0B5140085B0121805001F
:100E500D03919B039A4205D958211D4B1D4A1E48EB
:100E600D00F04AF81826142733881C49388898470B
:100E700D33881B4902903888984733881949019067
:100E800D3888984733880090174938889847029BCF
:100E900D0600002B07D0019B002B04D0009B002BDC
:100EA00D01D0002803D16021104B0A4AD7E7FFF784
:100EB00D53FF029B9847019B9847220028000399F6
:100EC00D009B9847B047FFF75FFF05B0F0BDC046E8
:100ED00D190A0010820B0010450A00104946000047
:100EE00D455800005250000046430000EF0A001024
:100EF00D7047C0460000000001B40248844601BCA2
:0C0F000D604700BF5F03001031030010BC
:1000000CFFFFFFFFFFFFFFFFFFFFFFFFFFFFFFFFF4
:1000000CFFFFFFFFFFFFFFFFFFFFFFFFFFFFFFFFF4
:0A00000BFFFFFFFFFFFFFFFFFFFFF5
:020000041000EA
:0400000AFFA1C0DEB4
:1010000D00B5324B212058609868022188439860C2
:1010100DD860186158612E4B0021996002215961E9
:1010200D0121F02299502B49196001219960352039
:1010300D00F044F80222904214D00621196600F007
:1010400D34F8196E01211966002018661A6600F031
:1010500D2CF8196E196E196E052000F02FF801216C
:1010600D0842F9D1002199601B491960002159608E
:1010700D1A491B48016001219960EB211966A021D5
:1010800D196600F012F800219960164914480160A4
:1010900D0121996001BC002800D000471248134976
:1010A00D086003C880F30888084703B5996A0420CF
:1010B00D0142FBD001200142F8D103BD02B51866F3
:1010C00D1866FFF7F2FF186E186E02BD00000240A1
:1010D00D000000180000070000035F00212200003F
:1010E00DF4000018222000A00001001008ED00E01F
:1010F00D00000000000000000000000074B24E7AF5
:1011000D00200420F7110010C3110010C5110010AC
:1011100DC1110010C1110010C1110010C11100103A
:1011200DC1110010C1110010C1110010C711001024
:1011300DC1110010C1110010C9110010CB11001008
:1011400DCD110010CD110010CD110010CD110010DA
:1011500DCD110010CD110010CD110010CD110010CA
:1011600DCD110010CD110010CD110010CD110010BA
:1011700DCD110010CD110010CD110010CD110010AA
:1011800DCD110010CD110010CD110010CD1100109A
:1011900DCD110010CD110010CD110010CD1100108A
:1011A00DCD110010CD110010CD110010CD1100107A
:1011B00DCD110010CD110010CD110010CD1100106A
:1011C00D00BE00BE00BE00BE00BE00BEEFF3058037
:1011D00D103800BEF2EB88710C00011034000110C4
:1011E00D3412001090A31AE700201F49086006C8AA
:1011F00D81F3088810471D48006800282FD10DA4E1
:1012000D0ECC002902D000F012F8F9E71849194A5E
:1012100D002000E001C19142FCD1174988471749D0
:1012200D88471749884700BEFDE701C901C29A42A8
:1012300DFBD3704734000110C0000020D4160020ED
:1012400D481601100000042000000420481601106B
:1012500D0010042000100420000000007047094811
:1012600D04F0B0F80047000008ED00E0000000D0E9
:1012700DD8160020A4A8032035410010B513001086
:1012800DF14000105756000006005250ABB36053AA
:1012900D84E60010060052505422A29D94E60010E0
:1012A00D05005250DE65F46848160110F8B5C046C9
:1012B00D0448054B10B5834203D0044B002B00D0DE
:1012C00D984710BDD4160020D41600200000000051
:1012D00D06480749091A8B10C90FC91810B54910CE
:1012E00D03D0044B002B00D0984710BDD41600201E
:1012F00DD41600200000000010B5074C2378002BF9
:1013000D09D1FFF7D5FF054B002B02D0044800E0B3
:1013100D00BF0123237010BDD8170020000000006E
:1013200DF8CE0010054B10B5002B03D0044905482D
:1013300D00E000BFFFF7CCFF10BDC046000000006D
:1013400DDC170020F8CE001010B505F01DF910BD0A
:1013500D10B5104A1049114805F00AF9104805F06A
:1013600DD7F8104805F0D4F80BF0A4F800280CD0ED
:1013700D0BF0ACF801000C4805F0FAF80BF0AAF8E8
:1013800D01000A4805F0F4F810BD094805F0C0F851
:1013900DFAE7C046F8CE001000CF001010CF0010B5
:1013A00D18CF001030CF00104CCF001058CF0010C8
:1013B00D6CCF001010B5FFF7C7FF114805F0A8F866
:1013C00D104BDA68104B9A4213D01049104805F0B3
:1013D00DCFF8FFF7BDFF00F031FE00F0CFFC00F0BD
:1013E00D95FE00F09FFC00F0D1F807F0B5FD002050
:1013F00D10BD084805F08CF8024B0022DA60E4E7D6
:1014000D9CCF001000800540F24EFAE30100000071
:1014100DDCCF0010BCCF0010F0B5CE46474680B5EE
:1014200D83B080460D0016001F000AAB1B7899464D
:1014300D01200BF02FF83C4C0C2800D96EE03B4BF3
:1014400D1C40C3021C430C22944308231C433849FF
:1014500D0C4038490C4038490C4001210C433749A8
:1014600D0C4002218C4394431C4308331C4310331E
:1014700D9C4380231B041C43002E04D0A022D205C4
:1014800D8723DB00D65082012D4B9C46624480237E
:1014900D9B011343802212041A6042001E23134045
:1014A00D0B9A5201F02149000A40134301221343C4
:1014B00D244A12685340DB05DB0D234A13604B466B
:1014C00D002B07D0A021C905204A8E588023DB00B0
:1014D00D33438B50AD088301A022D205944663445B
:1014E00D42461A6001AA5A609D60DC608201A02309
:1014F00DDB059C4662441369DB01F7D46246872302
:1015000DDB00D3585F40114B0021D1500AF0BAFFD8
:1015100D380003B0C0BCB946B046F0BD0C4B0D4A07
:1015200DC3210D4802F0E8FD10801F00FF87FFFF6B
:1015300D3FF8FFFFFFFFBFFFFFFFDFFFFFFF7FFF55
:1015400D10000050340400503414005034040000D6
:1015500DF0CF001074D0001010D0001000B583B083
:1015600D012252420123019300931300FFF754FF10
:1015700D03B000BD00B583B0012200230193009399
:1015800D5242FFF749FF03B000BD000030B585B0F2
:1015900D094804F0BDFF6846084B020032CB32C249
:1015A00D1B6813601021FFF7D9FF0100044804F0F8
:1015B00DDFFF05B030BDC04690D00010BCD000108C
:1015C00DA4D00010042901D000207047002801D1BB
:1015D00D0130FAE76420F8E770B504000D000F4EF6
:1015E00D00223A21306800F09FFA20603068002216
:1015F00D0A2100F099FA28602468A04200DB70BD32
:1016000D064B186800F080FA8442F8D0034B186836
:1016100D01220A2100F088FA2860F0E71CA50120BC
:1016200D30B5C9B014001D0000290AD02D4B186823
:1016300D2A00210000F0C4FA46A947A8FFF7CCFF05
:1016400D22E0294804F064FF0620FF3000F032FA52
:1016500D244B1860EAE702A800F016F9049B234A10
:1016600D1268934201D0214A136002AB9B89204A34
:1016700D1288934201D01E4A1380280004F002FE06
:1016800D46A947A8FFF7A8FF164B186800F03CFACB
:1016900D469CA04220D901344694200004F0D4FD8C
:1016A00D0500104B1968220000F0DCFA8822520068
:1016B00D002102A804F0FEFD0C4B1B68019304935E
:1016C00D0B4B1B8802AA93811100280000F078F8BB
:1016D00D0028C0D100BEBEE700200AF0E3F849B0F3
:1016E00D30BDC0461CA50120CCD0001058A703204A
:1016F00D9AA8032010B5044804F00AFF034B19689B
:1017000D034800F047F910BDECD0001064A2012091
:1017100D481E002000B585B08022074B029302239E
:1017200D01931E330093002352000449044807F02F
:1017300D8DFB05B000BDC046D0A7032000D1001021
:1017400DC100002010B5034B1868002801D007F028
:1017500D35FC10BDD0A703200300303BDBB2092BB5
:1017600D07D80A781201D2B20A7013430B70012008
:1017700D704720231843C0B20300613BDBB2192B25
:1017800D09D80B781B01DBB20B70573840B21843E8
:1017900D08700120ECE70020EAE770B505000C00A9
:1017A00D00230B700078FFF7D7FF002800D170BD24
:1017B00D68782100FFF7D0FF0028F8D00120F6E768
:1017C00DF0B5C3B00D0000E001300378002B01D05F
:1017D00D3A2BF9D1441C3A2B1ED0002043B0F0BD5A
:1017E00D0823FF336B441B786A469355DF19FFB20C
:1017F00D023401360821FF3169442000FFF7CDFF87
:1018000D002803D082235B009E42E9D9002E37DDEC
:1018100D002F04D00020E1E700270026EAE76B4601
:1018200D1A782A709B786946497809020B436B80B8
:1018300D6B46DC782C7101A928000E3004F040FDB8
:1018400D042C03D00A2C0AD00120C7E76B461B7964
:1018500D1B026A4652799B181B04AB60F2E76B467C
:1018600DDB79DE3B5A425341DBB26A469371002B62
:1018700D08D05379127912021343AB810120ADE7E1
:1018800D0020ABE70220A9E770B504000379042B13
:1018900D20D00D2B02D0012B18D070BD8289114B99
:1018A00D9A42FAD1104E3568280010300F4BC018EF
:1018B00D21000E31227804F003FD207828183060C5
:1018C00DC021490203F0D2FD3160E6E7084804F07B
:1018D00D1FFEE2E7074804F01BFEA168064804F06E
:1018E00D47FEDAE7A1FF000064A20120481E002098
:1018F00D0CD1001018D1001024D1001030B583B0D8
:1019000D0C0000232DE06B46DA1D1570002106E05A
:1019100D83699B06FCD413780360013101320029E1
:1019200DF6D018E06B46DA1D0D231370002106E08A
:1019300D83699B06FCD413780360013101320029C1
:1019400DF6D01CE083699B06FCD41378036001314B
:1019500D01320029F6D023780D3B5A425341DBB2B8
:1019600D01342578002D0FD0002BCCD1074BC31897
:1019700D5A4253415B00064A9B5EAB42D2D06B4646
:1019800DDA1D15700021E4E703B030BD0080FCBF07
:1019900D40A70120F0B5D6464F464646C0B50400D7
:1019A00D102398468844224BCD182D0B2D03214F23
:1019B00D0760214B436081601030FFF7DBFDE06075
:1019C00D1E4E1F493000FFF799FFEFF3108A72B6D4
:1019D00DFFF7A0FE07F080F81A493000FFF78EFFE1
:1019E00D80239B029946290018000BF035FA4246D8
:1019F00D210048460BF020FAFFF7A4FE07F00AF984
:101A000D11493000FFF77AFF8AF31088002009F0A2
:101A100D49FF0E493000FFF771FF0D4BDF600D4A96
:101A200D1A61FA2292000021002002F00BFBFEE762
:101A300D0F100000FB5ECD8EA952AEC500400340D5
:101A400D3CD100106CD100108CD10010ACD1001025
:101A500D0080054000000210C068704710B5046892
:101A600DFFF7FAFF201810BD70B505000C000668D1
:101A700D8E420ED8FFF7F2FF84420AD20134A41B26
:101A800D2800FFF7E9FF0100200003F0EFFC7018BC
:101A900D70BD034B034A9621034802F02DFBC0464F
:101AA00DD8D10010E4D2001000D20010036883607A
:101AB00D4360704770B50500102004F0C5FB041E8F
:101AC00D09D0681CE06004F0BFFB051E206004D047
:101AD00D2000FFF7EBFF200070BD200004F0D2FBCB
:101AE00D2C00F8E710B5FFF7B7FF013810BD70B542
:101AF00D45688468A54204D3FFF7F4FF2C1B001B37
:101B000D70BD601B0138FBE770B50500FFF7EAFFFC
:101B100D04002800FFF7EBFF201A70BD10B5FFF78A
:101B200DE6FF4342584110BDF0B5D6464F464646F6
:101B300DC0B5060089461700FFF790FF050030007D
:101B400DFFF7E2FF0400B84220D933689846B36826
:101B500D42469B1A9A46BA443000FFF77DFF0100BA
:101B600D504603F083FC8844454515D94346ED1A8C
:101B700DE41BAC4200D92C002200494640460AF035
:101B800D8BFF00280ED04346C41AE4192000E0BC98
:101B900DBA46B146A846F0BD064B074AA4210748F0
:101BA00D02F0AAFA3A1949463000FFF7BDFF0400CA
:101BB00DECE7C0463CD20010F4D2001000D2001069
:101BC00DF0B5D6464F464646C0B506008946904606
:101BD00DFFF744FF07003000FFF789FF824600251D
:101BE00D10E01C4B1C4AD5211C4802F085FA4B46CF
:101BF00D5919220004F064FB73681B1973602D19C9
:101C000DBB420BD045450CD07068B842E9D23B1AA7
:101C100D4246541B9C42EAD91C00E8E733687360C6
:101C200DF0E7C24505D37068E0BCBA46B146A84698
:101C300DF0BD71683000FFF717FFB0603000FFF79F
:101C400D6DFF0028EFD1064B034AE221034802F055
:101C500D53FAC0464CD20010D0D2001000D2001062
:101C600D60D20010F0B5D6464F464646C0B5814607
:101C700D0E0090460800FFF747FF8246404539D3D6
:101C800D3000FFF7EBFE0700002511E010211A4B85
:101C900D1A4AFF311A4802F02FFA4B465819220002
:101CA00D04F00EFBB3681B19B3602D19BB420BD0AA
:101CB00D45450CD0B168B942E8D27B1A4246541B57
:101CC00D9C42EAD91C00E8E73368B360F0E73000C6
:101CD00DFFF71AFF4044504505D1B068E0BCBA4645
:101CE00DB146A846F0BD8D21064B044A4900044873
:101CF00D02F002FA0020F1E778D20010BCD20010F9
:101D000D00D200108CD2001010B5012004F09CFA06
:101D100D00230370024B012B00D010BD0370FCE7B4
:101D200D0100000010B5012005F074FC014B186096
:101D300D10BDC04670A7032010B5002008F0BEFBF3
:101D400D01200021404208F0E5FE002009F038F99D
:101D500DF6E700B591B0002009F0E6F8002801D1B2
:101D600D11B000BD002009F003F90028F8D0402281
:101D700D6946002009F00CF9F2E7000030B585B096
:101D800DC02200250295012401941F2300930023F6
:101D900D52000849084807F059F88022029501942D
:101DA00D1E230093002352000449054807F04EF806
:101DB00D05B030BD04D30010391D00100CD3001038
:101DC00D531D0010F0B595B0050014009278E3781E
:101DD00D1B021343052B62D89B00344AD3589F46F0
:101DE00D0323334A210008F0BDFF15B0F0BD0AF002
:101DF00D6DFB07000AF06EFB06004322002103A8CD
:101E000D04F058FA43236A461373413B5373390068
:101E100D0E2068440AF090FE3100362068440AF026
:101E200D8BFE432303AA2100280008F09BFFDCE76B
:101E300D01A804F0DBFC0A22002103A804F03AFA01
:101E400D0A236A461373073B5373082201A90E2018
:101E500D684404F035FA0A2303AA2100280008F08B
:101E600D81FFC2E7FFF750FF03AE03233370013349
:101E700D73700378B37004F005FA337832002100E3
:101E800D280008F06FFFB0E703AA0A4B1968039109
:101E900D9B8893800623210008F064FFA5E70223A9
:101EA00D054A2100280008F05DFF9EE710D30010C1
:101EB00D34D3001028D3001030D30010F0B583B008
:101EC00D05001400012942D113785B069B0F012BED
:101ED00D34D0022B3ED15378022B0BD0032B21D0C3
:101EE00D012B01D0002033E036331B4A210008F0CE
:101EF00D39FF2DE0127963791B021343072B01D0B3
:101F000D002025E06B469F1D144E02223100380043
:101F100D04F0D6F93B883200083A2100280008F079
:101F200D21FF15E0127963791B021343032B01D0B6
:101F300D00200DE02200FFF745FF09E05378222B2A
:101F400D01D0002004E0110008F0F0FE00E00120B7
:101F500D03B0F0BD0020FBE738D30010B8D400105B
:101F600D004870479CD400100048704728D40010DA
:101F700D00487047ECD3001070B500280DD005282F
:101F800D24D88000124BC55828000AF0DDFDC0B2E0
:101F900D1F2800D91F2000230EE00D4B19680D4896
:101FA00D0222023004F08CF9012007E05A1CEC5C8F
:101FB00D5100084BCC52D3B29842F7D801304000B3
:101FC00DC0239B0003430348038070BD0020FCE742
:101FD00D700D00208C19002000B583B00122094B33
:101FE00D1868524201A905F0BBFB0128F6D1019BEF
:101FF00D1A791900002009F0F5FC002009F08EFC7B
:1020000DECE7C0460CA8032000B583B08022002366
:1020100D019320330093002352000349034806F037
:1020200D47FF03B000BDC04604D60010D91F0010F5
:1020300D014B18687047C0460CA8032010B500224C
:1020400D04210A2005F0CEF9054B1860002802D0B6
:1020500DFFF7DAFF10BD034804F08AFAFAE7C0462D
:1020600D0CA803200CD6001000B585B004F09CFB25
:1020700D214B02221A60FA20400007F07BF923E081
:1020800D1D4B04221A601D4B1B68DB05FBD51B4B3A
:1020900D5A6801AB1A490191082119710021597132
:1020A00DDA800393FFF7C4FF0023002203A905F094
:1020B00DDDF9144B186800230022002105F0D6F934
:1020C00DFA20400007F056F901210E4B18684942DD
:1020D00D05F0EEFB094B1A68120B07231340042B76
:1020E00DCED0064B1A688023DB015340E022D2018B
:1020F00D1340054A1360C3E700E0044000C00440EC
:1021000D3B4324DD70A7032000D0044000B583B00D
:1021100D80220023019320330093002352000349B2
:1021200D034806F0C5FE03B000BDC04620D6001022
:1021300D6920001010B58300084A944663441C685A
:1021400D40226240C02414408022520113431C607F
:1021500DC000034B9C466044416010BD04C001406B
:1021600D00400140034B1B6802201840431E98415C
:1021700DC0B2704700C00640EFF3108072B6034B3B
:1021800D1B68002BFBD0BFF35F8F70472C0100D075
:1021900DBFF35F8F024B00221A6080F310887047E7
:1021A00D2C0100D0F8B506000C001500FFF7E4FF78
:1021B00DE308F718F15C07222240012393400B42FC
:1021C00D05D1DBB20B433B70FFF7E2FFF8BD2100F9
:1021D00D280002F02BF8F0B583B006000191140031
:1021E00D1F00FFF7C9FF00E00134BC420CD8E30823
:1021F00DF518F35C0721214001228A401A42F3D1E0
:1022000DD2B21A432A7001E001246442FFF7C0FFE5
:1022100D002C02DB200003B0F0BD019B002BF9D098
:1022200D089802F003F8000070B505000C00FFF7E8
:1022300DA3FFE308EE18EA5C07210C400123A3403D
:1022400D134204D09A433270FFF7A2FF70BD034BC7
:1022500D034A2C31034801F04FFFC04628D6001029
:1022600DA0D6001048D60010002307E0054A9A18A2
:1022700D9200BFF35F8F0021116001331F2BF5D941
:1022800D7047C04640000034054A1078431CDBB24D
:1022900D1370172B02D9130010221A707047C04605
:1022A00D880D002010B50100024A0348FFF77AFFA0
:1022B00D10BDC046B0D60010D01D002000B583B0B3
:1022C00D0100044B00931F2318220348FFF783FFDF
:1022D00D03B000BDD0D60010D01D0020074B9B6869
:1022E00D103080001950BFF35F8FBFF35F8F044B29
:1022F00D0021196082F310887047C04600ED00E0A0
:1023000D240100D010B5091A081F0A4B9C466144E0
:1023100D094A914208D8C30706D440104005400D24
:1023200D064B184380B210BD054B064AA321064843
:1023300D01F0E2FEFC070000FE0F000000E0FFFFD1
:1023400DECD6001054D900101CD7001010B5091A86
:1023500D04394C08090B08D14905490D064A1143AA
:1023600D0180064B2343438010BD054B054AAB212D
:1023700D054801F0C1FEC04600F0FFFF00F8FFFF69
:1023800D70D7001028D900101CD7001001238340EE
:1023900D034A10681840431E9841C0B27047C046AA
:1023A00D00E100E0002904D0034B1860034B1860D6
:1023B00D7047034B1860FBE780E200E000E100E0AE
:1023C00D80E100E010B5012383401800FFF7EAFF1C
:1023D00D10BD0000024B9B6810308000C058704744
:1023E00D00ED00E070B504000D00EFF3108672B63D
:1023F00D0C4B1B68002BFBD0BFF35F8F2000FFF74A
:1024000DE9FF094B984201D0A84205D132002900BD
:1024100D2000FFF763FF70BD044B054A8621054878
:1024200D01F06AFE240100D0CD11001080D70010FC
:1024300D88D900101CD70010F0B5DE4657464E4621
:1024400D4546E0B589B0814601911500EFF3108A3C
:1024500D72B6744B1B68002BFBD0BFF35F8F724BB2
:1024600D0027DF57002F40DB7C00E419A4006F48E4
:1024700D24180622A2566C4B1A706D4B9A684B4667
:1024800D10339B00D35898461E001B1A2F2B38D99A
:1024900D684B98452FD105AE674B33807B009B462B
:1024A00DD8198000614B9846404402306349FFF7CC
:1024B00D29FF7080624BB380FF23B371F571019BCF
:1024C00D07935F44BF0047440ECE0EC701231C4344
:1024D00DA046524641464846FFF700FF09B0F0BC02
:1024E00DBB46B246A946A046F0BD564B564AD7212B
:1024F00D564801F001FE564B534ADE21534801F078
:1025000DFBFDC04340440C2102F0B0FF002912D165
:1025100D01239E43B34633000026DA79AA4211D92E
:1025200D0621595600290CDB4A00521892001E0054
:1025300D3E4B9B18F1E7474B434AEA21434801F0D4
:1025400DDBFD1E00002E3AD005AB434A1A80813ABE
:1025500D5A800623F3560293002B17DA3F4805AB3A
:1025600D9B469880029A9A71DD71019A0792301DEF
:1025700D2100FFF7C7FEB080B7717B00DB199B0010
:1025800D2A4FFF185B4607CB07C7A2E77800C01993
:1025900D8000264BC0180430321DB388D90A1C297F
:1025A00D07D15B055915023149005118FFF7AAFEF5
:1025B00DD5E72B4B2B4AB121244801F09DFD05AEEB
:1025C00D1D4B33807B000293D8198000174A90462B
:1025D00D020042440392901C1849FFF793FE70804D
:1025E00D039A101D5946FFF78DFEB0801E4B5A46BB
:1025F00D4146521A524153431B0DB371F571019A65
:1026000D0792029B9C466744BF0047440ECE0EC7FF
:1026100D114B5A461380813B538001231C43A04626
:1026200D57E7C046240100D0A0A803208C0D002040
:1026300D00ED00E0CD11001000A1FFFFBC0D00204A
:1026400D01BDFFFFB8D7001070D900101CD70010C6
:1026500DE0D7001008D800100148000001BD0000AF
:1026600D7CD8001060D90010AAAA0000F0B5CE46A3
:1026700D474680B583B006000D00EFF3108872B6A3
:1026800D564B1B68002BFBD0BFF35F8F544B9A68E2
:1026900D34001034A300D758524B9F4207D0AF429D
:1026A00D00D198E00197504BFB1A2F2B09D94246C8
:1026B00D39003000FFF712FE03B0C0BCB946B0467A
:1026C00DF0BD3000FFF762FE814600213000FFF7BC
:1026D00D79FEBFF35F8FEFF30581002901D08C42A6
:1026E00D11D10123019C9C430022A368AB4212D05F
:1026F00D0622A256002A0DDB53009B189B002200D8
:1027000D394CE418F1E73621384B394AFF31394855
:1027100D01F0F2FC2200AB4256D106256557002D83
:1027200D38DB6B005B199A002F4B9B189A68A260DF
:1027300DDA79E27106229A56A2719B795BB2002B6F
:1027400D0FDA2D48A0806B005B199B00264AD31829
:1027500D2A4A11789971157049463000FFF732FEFB
:1027600DA5E7201D6B005B199B001F4A9B181A1DC6
:1027700D9B88D90A1C2907D15B055B1502335900CB
:1027800D5118FFF7BFFDDDE71D4B1E4AB12119485A
:1027900D01F0B2FC002912D1002A0ED0FF23937153
:1027A00D194B9380154A1378A371184B0E49641A6F
:1027B00D644163431B0D1370CEE70A4FF2E7201DF2
:1027C00D1349FFF7C3FDC7E76A21124B084AFF31D2
:1027D00D084801F091FC034F69E7C046240100D081
:1027E00D00ED00E0CD1100108C0D002094D80010EC
:1027F00D40D900101CD7001001BD0000A0A8032077
:1028000D7CD8001060D9001001BDFFFFAAAA0000FE
:1028100DC60D0020C8D8001010B5032304009C433A
:1028200D064A9446644422681840C000FC33834035
:1028300D9A43130081400B43236010BD00E400E078
:1028400D70B5012101432E4BCB1A2F2B28D8EFF356
:1028500D0583002B2BD0EFF3108C72B6294A12682A
:1028600D002AFBD0BFF35F8F274A0400244D641B61
:1028700D64416243120D54B2244A92689B00D258AF
:1028800D8A421BD00022032A32D853009B189B008A
:1028900D1B49CB189B795BB2A3421FD00132F2E7E3
:1028A00DC7211B4B1B4A49001B4801F025FC9221F7
:1028B00D1A4B184AFF31184801F01EFC134A926852
:1028C00D1749D150174B1A7882711C70BFF35F8F67
:1028D00D0C4B00221A608CF3108870BD0D00530054
:1028E00D991889006918FF268E710F4A8A80E9E7C9
:1028F00DD1210E4B074A4900074801F0FDFBC046A8
:1029000D8C0D0020240100D0AAAA000000ED00E0EB
:1029100DD0D800100CD900101CD70010F8D800101A
:1029200DCD110010A0A8032001BDFFFF04D9001098
:1029300D0022044B02E0044902C30132072AFAD9EE
:1029400D7047C04600E400E080808080024B9C46CA
:1029500D61448900016070474000003410B50400E7
:1029600DFFF792FC01002000FFF7F0FF01235B420F
:1029700D6360BFF35F8F10BD10B50400FFF784FCDB
:1029800D01002000FFF7E2FF01235B42636000239B
:1029900D2372BFF35F8F10BD034B9C4661448900CA
:1029A00D0160BFF35F8F70474000003410B5040025
:1029B00D0120FFF783FC01002000FFF7EDFF10BDA4
:1029C00D70B505000C00080000F046FE0949200016
:1029D00D00F086FDFFF758FC074B9C4660448000D5
:1029E00D68602C75D0231B061B786B75A400034BF8
:1029F00DE55070BDFD2C00104000003468A2012090
:102A000D10B5084B1A68EFF3108172B61368002BDE
:102A100DFCD0BFF35F8F034804F056F9002000216E
:102A200D10BDC0462CA7012010B5002922D0036887
:102A300D1B7B99421ED8174B9C4661440901836844
:102A400D9C4661440C684968002A19D003681B7BB9
:102A500D9A4215D883680F488446624412019A1829
:102A600D10685368020001208B4201D80ED000205F
:102A700DC0B210BD084B094A3C21094801F03CFB8E
:102A800D054B064A3C21064801F036FBA242EFD821
:102A900DEDE7C046FFFFFF0F60DB001088DD001083
:102AA00D10DB001010B500291ED0037B99421BD8F6
:102AB00D4B005B18033B0468A4466344002919D0FE
:102AC00D002A1DD0914221D0002A25D0047BA2429C
:102AD00D22D80468500080180338201881701978A6
:102AE00D00291FD11A7010BD104B114A68211148D1
:102AF00D01F002FB104B114A6F310E4801F0FCFA48
:102B000D0F4B0E4A70210B4801F0F6FA0D4B0B4A94
:102B100D7121084801F0F0FA044B054A6821054877
:102B200D01F0EAFA41701A70DDE7C04684DB00104F
:102B300DF4DD0010A0DB001000DC0010D0DD001073
:102B400D0CDC001018DC001070B506000D00140030
:102B500D002914D0002A14D0806873689847002883
:102B600D06D0220029003000FFF79CFF280007E067
:102B700D2A0021003000FFF795FF200000E0100033
:102B800D70BD0800FCE70000F0B583B005000092B1
:102B900D01930AAB1C780BAB1F78002C26D0036871
:102BA00D5A7B944207D10123002B19D1002C3BD124
:102BB00D200003B0F0BD002C0CD01A7B944209D834
:102BC00D1A6863001B19033BD3189B78002BEBD0BD
:102BD00D0123E9E73E4B3F4A68213F4801F08CFA5B
:102BE00D3E4B3F4A67213F4801F086FA03689C7BC4
:102BF00D002CDBD012D01A7B94420FD86200121930
:102C000D033A19688C46624451789973002900D1B2
:102C100DD9730023937053701370C7E72C4B2D4A53
:102C200D68212D4801F068FA002C3AD02B681B7BE7
:102C300D9C4236D82C4BE3181B01AA68944663447A
:102C400D009A1A60019A5A60089A9A60099ADA6095
:102C500D2E68002C2BD030D0337B9C422DD86300B6
:102C600D1B19033B32689446634400229A705A70D4
:102C700D1A70717B22003000FFF766FF707384427B
:102C800D00D095E7287D009A019B00F071FC061E8F
:102C900D01D0002F17D00C9B002B00D188E71E70A0
:102CA00D86E7124B124A3C210E4801F025FA114BD2
:102CB00D114AA521084801F01FFA054B054A682164
:102CC00D054801F019FA2868210000F089FEE2E7B5
:102CD00D84DB0010F4DD0010A0DB001030DC0010F0
:102CE00D00DE001010DB0010FFFFFF0F60DB001097
:102CF00D88DD00100CDB0010E4DD0010F0B5DE46C1
:102D000D57464E464546E0B58BB0099000230893D3
:102D100D8200B54BD658370052E0B44BB44A3F2130
:102D200DB44801F0E9F9B44BB44A3C21B44801F080
:102D300DE3F9002901D1002869D10021404600F0B6
:102D400D45FEA04219D12A686B6806920793AB68BD
:102D500D9846EB689A464346002B14D0002C18D0A9
:102D600D3B681B7B9C4214D8631EFA68D35C0893A6
:102D700D1B0218433861002015E0A24BA24A8E2198
:102D800D9F4801F0B9F9A14B9F4A92219C4801F04F
:102D900DB3F9994B9E4A4121994801F0ADF90023B1
:102DA00D9A46984600207B68BFF35F8F00221A6019
:102DB00D86F310884346002B32D1002800D10CE158
:102DC00D00F04AFB02000B1EA7DB0020002106903D
:102DD00D07917868EFF3108672B601680029FCD070
:102DE00DBFF35F8F396888464C7B002CD7D09AD0C3
:102DF00D097B8C4297D8874965182D01B9688C4697
:102E000D654428686968801A9941002991DD2A680E
:102E100D6B68099800F0ACFB00239A469846C2E710
:102E200D089B1B022343994651461800C0470500D5
:102E300D0E007A68EFF3108B72B6136859424B414E
:102E400DD9B2002BF9D1BFF35F8F002E1EDB002E00
:102E500D46DD3B69002B47D04B456DD100F0FCFAA8
:102E600D02000B1E6EDB52197341002B70DB002B21
:102E700D72DB0021049101310391029451460191BD
:102E800D414600913800FFF77FFE4CE03B69002B77
:102E900DDDD04B4514D1069A079B521BB341002B35
:102EA00D14DB002B16DB00210491013103910294F8
:102EB00D51460191414600913800FFF765FE32E021
:102EC00D554B514AA1214E4801F016F901225242AB
:102ED00D524BE6E7454B464A3F21464801F00CF977
:102EE00D002E01D1002DB4D13B68002C50D05A7B5F
:102EF00D944237D1012100294AD1DA7B002A4DD1E4
:102F000D9A7B002A03D1DA7B002A5AD19C73DC7399
:102F100D002C5CD03B681B7B9C4258D8FA68013C66
:102F200D135D0133135500233B617A68BFF35F8F47
:102F300D13608BF3108843E7374B334AA421304895
:102F400D01F0DAF8294B2A4A3F212A4801F0D4F83A
:102F500D01225242314B8AE7244B254A3F21254815
:102F600D01F0CAF8002C0DD01A7B94420AD86200E9
:102F700D1219033A1868844662449278002ABAD02E
:102F800D0121B8E7264B274A6821274801F0B4F8FC
:102F900D264B274AF621244801F0AEF8002A0AD024
:102FA00D197B8A4207D851008A18033A19688C4652
:102FB00D62445470A4E71A4B1A4A68211A4801F06A
:102FC00D9BF81C4B1A4AFB21174801F095F80A4B48
:102FD00D0F4A41210A4801F08FF80BB0F0BCBB46F7
:102FE00DB246A946A046F0BD68A2012010DA001035
:102FF00D54DD00102CDA001060DB001088DD0010AD
:1030000D10DB001058DC00106CDD001070DC0010BF
:1030100DACDD0010FFFFFF0F7CDC0010FFFFFF7F1A
:1030200D84DB0010F4DD0010A0DB0010B8DC001014
:1030300DC0DD0010DCDC001010B50C4B5B68002B04
:1030400D04D00A210A48FFF781FC10BD074C23006C
:1030500D084A1021206800F0C9FB032000F0F0F9A8
:1030600D03212000FFF7ACFCEBE7C046D40D002098
:1030700D2CA70120292A001010B5064B5B68002BE8
:1030800D01D0044810BD044B044A5E21044801F0F0
:1030900D33F8C046D40D0020F0DC001094DD001094
:1030A00D10DB0010F0B5DE4657464E464546E0B5FE
:1030B00D8BB0804616001F00149B9A46159B9946AF
:1030C00D16AB1B789B461F2302AA9446634400222D
:1030D00D1A702BE0002809D042461268127B9042EC
:1030E00D04D8421E4146C9688A5C41E0404B414AC2
:1030F00D4121414801F000F807984CE0361BAF41E3
:1031000D002F07DB002F11DA3C4B3D4A3F213D4894
:1031100D00F0F2FF012676423B4FF3E7374B384A7A
:1031200D3F21384800F0E8FF002F4FDB43465A6837
:1031300DEFF3108472B6136859424B41D9B207911F
:1031400D002BF8D1BFF35F8F1F3302AA944663445F
:1031500D04930023039302934B460193534600932C
:1031600D32003B004046FFF70FFD031EB2D10200B7
:1031700D41464968BFF35F8F00250D6084F31088C9
:1031800D002B29D01F2302A98C4663441B78002BEA
:1031900DB2D112021043002B20D05B46002B1DD064
:1031A00D4946D04704000D0003000B431DD00029F4
:1031B00DA4DB00F051F906000F1EAFDB36196F418D
:1031C00D002FB1DA012676420F4FADE70B4B0C4ABB
:1031D00D3F210C4800F090FF012040420BB0F0BCA5
:1031E00DBB46B246A946A046F0BD0798F6E7C046D5
:1031F00D60DB0010ACDD001010DB001010DA0010E9
:1032000D54DD00102CDA0010FFFFFF7FF8B504002D
:1032100D002900D162E04268EFF3108572B61368A1
:1032200D58424341D8B2002BF9D1BFF35F8FCBB2D7
:1032300D2268567BB3421BD10120002848D020695B
:1032400D88422BD0090AC9B2002B2ED02068007BF2
:1032500D83422AD8581EE668305C88422BD0002065
:1032600D6368BFF35F8F00221A6085F31088F8BD85
:1032700D002B0DD0167BB3420AD85E00F618033E24
:1032800D1768BC466644B678002ED6D00120D4E728
:1032900D134B144A6821144800F02EFF2C21134BB8
:1032A00D134AFF31134800F027FF134B134A4121F6
:1032B00D104800F021FF1900100000F091FB0028CC
:1032C00DCED199210E4B0A4A49000A4800F014FF4D
:1032D00D23698B42C4D100232361C1E70020C6E7D7
:1032E00D84DB0010F4DD0010A0DB001014DD0010F5
:1032F00D3CDD001010DB001060DB0010ACDD0010B9
:1033000D38DD001070B584B005000C00EFF30583B7
:1033100D002B1ED1FFF7B0FE002302930193224B29
:1033200D00932A002300FFF7BDFE061E23DD20BFFC
:1033300DFFF7A2FE3100FFF769FF1C4B5B6A9C4251
:1033400D2DD81A4A926AAA422CD29C4225D001202D
:1033500D26E0164B5B6A994209D8144A926A82425A
:1033600D07D2994201D001201AE0002018E0002078
:1033700D16E0012014E00D4B5B6A9C4209D80B4A04
:1033800D926AAA4207D29C4201D0012008E0002097
:1033900D06E0002004E0012002E0002000E0002013
:1033A00D04B070BD0120FBE7012A0010004005406C
:1033B00D70B5EFF305801038EFF3108C72B61A4B21
:1033C00D1B68002BFBD0BFF35F8F012213008340DE
:1033D00D16494B6316490B60164909780C00C44019
:1033E00D224214D0114A546A8200134D525994420C
:1033F00D06D38200114C125999430E4B197007E0F8
:1034000D0A4A031D9B0099589950002200E00022A2
:1034100DBFF35F8F044B002119608CF31088002AD5
:1034200D00D0904770BDC046280100D00040054037
:1034300D3C700540A1A8032030A70120B81C002036
:1034400D10B50100024A0348FEF7ACFE10BDC046A0
:1034500D18DE00109FA80320044B5B6A034A906A94
:1034600D1900536A9942F9D17047C0460040054092
:1034700D084B5B6A01E0074B5B6A8B42FBD301E0B3
:1034800D044B5B6A8B4203D1024B9B6A8342F7D399
:1034900D7047C0460040054070B504000D00FFF7B1
:1034A00DDBFF02000B0020002900801859418B42E0
:1034B00D02D804D1824202D901204042C11700290D
:1034C00D02DBFFF7D5FF70BD024B034A3F210348D6
:1034D00D00F012FE10DA0010D4DE00102CDA00100D
:1034E00D70B504000D00EFF3108672B61B4B1B6810
:1034F00D002BFBD0BFF35F8F002D1CD02000FEF7FB
:1035000D69FF174B83420BD019002000FEF76AFFAD
:1035100D01212000FEF756FF0123A340114A13603D
:1035200DA400114BE550BFF35F8F0C4B00221A60C6
:1035300D86F3108870BDA2000B4B0021D1500122E3
:1035400DA2400A490B7893430B7005492000FFF701
:1035500D8DF800212000FEF735FFE4E7280100D0AB
:1035600DB133001038600540B81C0020A1A803201D
:1035700DF0B5DE4600B584B00400150001921E00C2
:1035800D0293FFF769FF03958E4202D84ED1854213
:1035900D4CD9EFF3108B72B6274B1B68002BFBD069
:1035A00DBFF35F8F254A17780125A540EBB23B434A
:1035B00D1370234B5D63221D92000199D150A2001F
:1035C00D2049029850501B6A2B4212D11C4B1B6C88
:1035D00D2B4208D00020BFF35F8F174B00221A60DB
:1035E00D8BF3108823E0184B184AC521184800F0BA
:1035F00D83FDFFF731FF8E4214D802D1039B834226
:1036000D10D80E4B1B78BB420ED00D4B1D625D6367
:1036100D1F2004400123A3400E4A1360074B1F7067
:1036200D1E38D8E70020D6E70120D4E7012004B0EA
:1036300D80BCBB46F0BDC046280100D0A1A8032028
:1036400D0040054030A701203CDE0010B8DE001020
:1036500D60DE001080E200E0EFF3108C72B60B4BD1
:1036600D1B68002BFBD0BFF35F8F01238340084AFB
:1036700D136208490A789A430A70BFF35F8F034BB0
:1036800D00221A608CF310887047C046280100D0C4
:1036900D00400540A1A8032010B500291ED0037BD2
:1036A00D99421BD84B005B18033B0468A446634446
:1036B00D002919D0002A1DD0914221D0002A25D0F1
:1036C00D047BA24222D804685000801803382018C9
:1036D00D8170197800291FD11A7010BD104B114A35
:1036E00D6821114800F008FD104B114A6F310E484A
:1036F00D00F002FD0F4B0E4A70210B4800F0FCFC50
:1037000D0D4B0B4A7121084800F0F6FC044B054A9D
:1037100D6821054800F0F0FC41701A70DDE7C046E5
:1037200D84DB0010F0DF0010A0DB001000DC0010C7
:1037300DDCDF00100CDC001018DC001070B506008A
:1037400D0D001400002914D0002A14D0806873686D
:1037500D9847002806D0220029003000FFF79CFF73
:1037600D280007E02A0021003000FFF795FF200018
:1037700D00E0100070BD0800FCE7000010B500234C
:1037800D437301338373037BC3730123027B9A421B
:1037900D14D9002B0CD0027B934209D85A00D218B1
:1037A00D033A01688C4662440133DBB25370EDE796
:1037B00D0B4B0C4A68210C4800F09EFC002A09D0E6
:1037C00D924207D8016853009A18033A8A180023C9
:1037D00D537010BD024B034A6821034800F08CFC66
:1037E00D84DB0010F0DF0010A0DB001010B50173BA
:1037F00D42608360FFF7C2FF10BD000070B504008A
:1038000D081E00D170BD002934D0237B994231D8D8
:1038100D4B005B18033B2268944663445A78002A98
:1038200DF0D02DD0237B9A422AD853009B18033B0E
:1038300D21688C4663445D7800215970002825D09D
:1038400D237B984222D843001B18033B21688C46EA
:1038500D63440021597001002000FFF76FFF06003F
:1038600D29002000FFF7CAFF020031002000FFF7FA
:1038700D65FFC7E7084B094A6821094800F03CFC81
:1038800D054B064A6821064800F036FC024B034AF8
:1038900D6821034800F030FC84DB0010F0DF0010DD
:1038A00DA0DB001070B505000C00160000292FD00C
:1038B00D34D0037B994231D84B005B18033B02682F
:1038C00D944663445A78002A2ED19A78002A31D131
:1038D00D1978FFF793FF0300002E0AD0EA7B002A28
:1038E00D2ED1AA7B002A03D1EA7B002A3BD1AC73EF
:1038F00DEC73002B3DD1002C4FD02B7B9C424CD830
:1039000D2B6861000C19033C1C190023637070BDFA
:1039100D254B264A3821264800F0EEFB254B264A3A
:1039200D6821264800F0E8FB254B204A3A21204823
:1039300D00F0E2FB234B1D4A3B211D4800F0DCFB50
:1039400D002A0AD0297B8A4207D851008A18033AE7
:1039500D29688C4662445470C3E7164B164A682199
:1039600D164800F0C9FB184B104A4221104800F0D0
:1039700DC3FB002B0BD02A7B934208D843001B18A6
:1039800D033B2A689446634400229A70B3E7094BBF
:1039900D094A6821094800F0AFFB064B064A682129
:1039A00D064800F0A9FBC046ECDE0010C8DF001091
:1039B00DF4DE001084DB0010F0DF0010A0DB00103F
:1039C00D44DF00106CDF0010DCDC001070B504006B
:1039D00D0A00457B2900FFF765FF6073280070BD65
:1039E00D70B50400002967D0437B8B420ED00029AF
:1039F00D11D0037B99420ED84B005B18033B026834
:103A000DD0188378002B0CD1002056E00121FFF750
:103A100DDDFF012051E0294B294A6821294800F09A
:103A200D6BFB002B20D0227B93421DD85A00D3185C
:103A300D033B2268D2182568EB5C8B421AD0002B11
:103A400D1BD0227B934218D85A00D318033B22680F
:103A500DD21853788B4216D0002BF0D11A4B1B4A3B
:103A600D6B211B4800F048FB144B154A6821154883
:103A700D00F042FB4378137007E0104B104A6821A9
:103A800D104800F039FB4378537000238370437066
:103A900D01222000FFF706FF0200617B814205D065
:103AA00D2000FFF74BFE6073012006E0094B074A2B
:103AB00D7121074800F020FB002070BD84DB001051
:103AC00DF0DF0010A0DB001004D90010B0DF0010F3
:103AD00DF4DE001090DF001070B5046BE30701D425
:103AE00D200070BD02003032C0239B0113430A4AEF
:103AF00D1A60456A826AAD01AD18AD02062000F06C
:103B000DBDF9064901F0B2FC0100280001F0AEFC40
:103B100D0021FFF7C1FCE3E7010300004E0E00009A
:103B200D70B504000E001500FFF7D6FF22002C32F1
:103B300DE16A4E40354080235B0113431D602063D5
:103B400D70BD000070B505000C00062000F096F960
:103B500DC000210001F08AFCC60908D00E4B9E4220
:103B600D16D87F23184001303400460800E00124A8
:103B700D6C62AE62002200212800FFF7D1FF062003
:103B800D00F07CF98000A101891901F06FFC70BD76
:103B900D0026024CECE7C046FEFF0000FFFF0000D0
:103BA00D10B505394901013AD2001143002B09D056
:103BB00D02220A43012B07D0002111436E22FFF789
:103BC00DAFFF10BD0022F4E70421F6E7002909D06C
:103BD00D0A22064B9C466044434258414000044B28
:103BE00DC252704780225200F3E7C0460080FCBFEE
:103BF00D40A7012070B505000C00062000F03EF92D
:103C000D061E27D0164B9D4226D08022D203154B7F
:103C100D1A60154B1A60154B9B6811009943FAD128
:103C200D00212800FFF7D2FF21002800FFF78AFFAF
:103C300D06000023012208212800FFF7B1FF2A000A
:103C400D2C3280239B01134310221A60084B2B63E7
:103C500D0323AB64300070BD80221204D7E7C04649
:103C600D0080034000E0004000F0004000C0004034
:103C700D01030000F8B5DE4657464E464546E0B511
:103C800D05000F0092460A9A934250D31A0E9146A0
:103C900D1E020A9A00233000494601F025FC804699
:103CA00D6C006419A400304B9C46644463688342E5
:103CB00D00D260602B1FDBB29B46012B3DD9C02388
:103CC00D9B012343802212011A60AB00274A9958A9
:103CD00D002907D0506901F0C9FB431C5800C018DA
:103CE00D0338FDD253465A0123685A40E0231A4047
:103CF00D80235B0123431A605A46012A28D9802369
:103D000D9B012343802212011A60434663604246A1
:103D100D00233000494601F0E7FBAD00134B58512D
:103D200D0120F0BCBB46B246A946A046F8BD104BDB
:103D300D104A3321104800F0DFF9012FBFD1C02305
:103D400D9B01234303221A60A368DB07FCD5C9E757
:103D500D2168794003220A401A60A2680123BB4002
:103D600D1342FAD0CBE7C04600800040D41D00209E
:103D700DFCDF00106CE0001010E0001030B583B0D7
:103D800D0C2000F011F9FEF7EDF900280DD00023FD
:103D900D04E099002D4A2E4888500133092BF8D99B
:103DA00D2A4B2C4A5A6203B030BD2B4B00229A6726
:103DB00D00F06CF9294B01221A60274B5B6C012B2B
:103DC00DFBD1274B03221A60234B9B6B012BFBD19D
:103DD00D013300930433234A0121234800F054F8A2
:103DE00D05230093214A0121214800F04DF8214B74
:103DF00D0093002202210420FFF73CFF1E4D009589
:103E000D2B00002201210520FFF734FF104C0094F8
:103E100D2300002200210720FFF72CFF0094230030
:103E200D002200210820FFF725FF0A4B00932300F5
:103E300D002200210920FFF71DFF00952B00002215
:103E400D00210620FFF716FFADE7C046D41D002068
:103E500D006CDC021BB70000008000403CB000404D
:103E600D30B00040002F685900800240008C86471A
:103E700D00C00240001BB700405973078000014B82
:103E800DC0587047D41D0020F0B5C64600B50400DB
:103E900D0E0017001D00374801F0E8FA8046364B3A
:103EA00DFA18364B9A4239D80100380001F0DEFA83
:103EB00D0200103A98235B009A4235D86B1E062BF0
:103EC00D38D8069B013B062B34D83F09474537D3DD
:103ED00D2D04069B1A0315432368002B36DB284B54
:103EE00D9C4244D080225201264B1A60264B1A6008
:103EF00D264B9B6811009943FAD12660A060231DC3
:103F000DC02292011A43212313602368002BFCDA8F
:103F100DE5600823136080BCB846F0BD1C4B1D4AFC
:103F200D11211D4800F0E8F81C4B1A4A19211A48B6
:103F300D00F0E2F81A4B174A1C21174800F0DCF884
:103F400D184B144A2321144800F0D6F822683F2359
:103F500D1340B342C3D1A3681B051B0D8342BED1D1
:103F600DE368EE22D2021340AB42B8D1D3E78022F0
:103F700D9201B9E7001BB70080E84BD380F8A93256
:103F800D00C0024000E0004000F0004000C00040D2
:103F900D7CE00010B4E10010DCE0001030E1001016
:103FA00D4CE1001098E1001080239B000343014A6F
:103FB00DD362704700800540024B1A68024B5A606D
:103FC00D7047C0465CA201200080054010B502007C
:103FD00D164B8020C0051860154B16481860002937
:103FE00D0AD0154BE021C9041960002A09D1124BE2
:103FF00D802212061A6010BD0C4BE021C904196015
:1040000DF3E753019B1A9800801800010B4B1860C1
:1040100D80235B04984202D3084B094A1A60FFF7CC
:1040200DCBFF054B8022D2051A60E4E700B00540B6
:1040300D08200140FCFF010000A005405CA201200A
:1040400DFFFFFF0010B5030010000C4A8024E405AB
:1040500D1460002B0DD001221343094A094CD46181
:1040600D094C5C401462516293620021FFF7AEFF70
:1040700D10BD034B0022DA61F7E7C04600B00540E2
:1040800D00800540D3C007B02D3FF84F064BAA2244
:1040900D12011A602F22DA60044B054A1A60024B96
:1040A00D5B68002BFBDA7047004002400060024065
:1040B00D00B0FA0000BEFDE703000A4A1268002AAC
:1040C00D08D0084A1068C318074A9A4206D3054A11
:1040D00D13607047034A05491160F2E70120404221
:1040E00DF7E7C046589E012000000420A4A8032035
:1040F00D10B5FFF7DFFF000010B582B00C001900FE
:1041000D002A0CD0084B002A0BD0019200932300FB
:1041100D0200064802F02CFA0120FFF7CBFF044BFA
:1041200DF1E7034AF1E7C046C0E10010D0E100100D
:1041300DD4D1001070B52B4B2B4A1A602B4B2C4A47
:1041400D1A602C4B9A682A4B9343FAD12A4C01E002
:1041500D08CC9847294B9C42FAD3FFF70FFE234B0F
:1041600D274A1A60234B9B68DB43DB01FAD1254BB1
:1041700D40229A675A671A67DA66234C09E0234B87
:1041800D234A87212348FFF7B7FF2000FEF7E6FB00
:1041900D0834214B9C4209D22368002BF5D0012B0A
:1041A00DEDD12000FEF7E8FB0C34F2E71B4CA168C3
:1041B00D1B4DC022280002F083F8A560EFF30583A4
:1041C00D002B00D000BEFEF74FF8FEF7B1FBFEF757
:1041D00D33FF144C01E008CC9847134B9C42FAD3A3
:1041E00D70BDC04600E00040BFCDFBFE00F00040BA
:1041F00DFE7F3C0000C00040B8160020C81600200D
:1042000DFFFFFF0100F00140A816002000E20010A2
:1042100D98E2001020E20010B816002000ED00E03A
:1042200D00000020C8160020D41600200FB400B5E1
:1042300D83B0084802F06CF9049B002B07D005A948
:1042400D0191180002F074F9034802F061F90120A0
:1042500DFFF730FF78E20010B8D0001010B501481C
:1042600DFFF7E4FF88E20010704710B5002802D078
:1042700D0B684968984710BD0100002007E08300D6
:1042800D1B185B00501C08601078C01830380A6885
:1042900D1378303BDBB2092BF1D97047F0B5DE4610
:1042A00D57464E464546E0B583B093461F000C9BDE
:1042B00D9A460D9C0E9B99460F9B9B0703D0B846C3
:1042C00D0F00060022E00192A34688464E46B946ED
:1042D00D0700B44207D2551C4B4641462020B84733
:1042E00D01342A00F5E73D004F465C46019B9B4695
:1042F00DB1464646B84637002E0007E0013C551C36
:1043000D5346185D43463900B0472A00002CF5D1BD
:1043100D35003E0047460F9B9B0707D4100003B0A6
:1043200DF0BCBB46B246A946A046F0BDB0464E46CF
:1043300DB9462F005D46531BB342EFD2541C4B467A
:1043400D41462020B8472200F5E7F0B5CE46474656
:1043500D80B585B0944698460C9D0D9C0EAB1B7890
:1043600D9946109A119B129EB7071CD4002B0CD0A6
:1043700DF7070AD54F46002F02D10C37374204D02C
:1043800D013B02E030272F550134944201D21F2CFE
:1043900DF8D9F70707D59C4205D21F2C03D8302733
:1043A00D2F550134F5E7F70615D5770505D4002C03
:1043B00D03D0944224D09C4222D00F9A102A2BD0A5
:1043C00D0F9A102A30D00F9A022A35D01F2C02D8FE
:1043D00D30222A5501341F2C05D84A46002A31D0E7
:1043E00D2D222A55013403960293019400954346DC
:1043F00D6246FFF753FF05B0C0BCB946B046F0BDED
:1044000D621E012C06D00F9F102F01D01400D4E78F
:1044100D023CD2E71400D0E7B206D1D41F2CCFD87E
:1044200D78222A550134D1E7B206CCD51F2CCAD833
:1044300D58222A550134C9E71F2CC7D860322A5596
:1044400D0134C3E7720703D52B222A550134CAE77D
:1044500D3207C8D520222A550134C4E7F0B5DE460F
:1044600D57464E464546E0B593B081468A4608927A
:1044700D09931CAB10CB1B789B461E9D219B984628
:1044800D002C03D1102342469A4390468023DB0033
:1044900D46461E4042461A4212D0002C22D000261B
:1044A00D0EE03033D9B2771C0AAB995529002000A4
:1044B00D00F0DCFFAC4216D31F2F14D83E000400D1
:1044C00D2900200000F0D2FFCBB2092BE9D94246DA
:1044D00D920605D54121C918C9B20A39C9B2E2E718
:1044E00D6121F8E7270043460693209B05931F9B08
:1044F00D049303955B46029301970AAB0093099BC6
:1045000D089A51464846FFF720FF13B0F0BCBB4652
:1045100DB246A946A046F0BDF0B5DE4657464E461A
:1045200D4546E0B595B0089009910A920B931E9EF1
:1045300D1F9C20AB1B789B46229B9946239D269B57
:1045400D9A463300234303D1103352469A43924681
:1045500D8023DB0057461F4052461A4219D03300C4
:1045600D23432DD0002714E03033DAB27B1C98465C
:1045700D0CABDA554A462B003000210000F0B4FF99
:1045800DA5421FD819D043461F2B1BD847460600FE
:1045900D0C004A462B003000210000F0A5FFD3B2DD
:1045A00D092BE1D95246920605D54122D218D2B235
:1045B00D0A3AD2B2DAE76122F8E7B145E3D901E070
:1045C00D0023984653460693259B0593249B0493FD
:1045D00D4B4603935B460293434601930CAB00930A
:1045E00D0B9B0A9A09990898FFF7AFFE15B0F0BC1E
:1045F00DBB46B246A946A046F0BD0000F0B5DE466A
:1046000D57464E464546E0B591B083468A460C92D4
:1046100D98461A9C08941B9D099522002B0020009A
:1046200D290001F0ECF9002800D0E5E0012252420A
:1046300DD74B2000290001F0DDF9002800D0DBE088
:1046400D01225242D34B2000290001F0BDF9002870
:1046500D00D0D1E000220023089E3000099D2900E2
:1046600D01F0B2F9002800D0DDE008980999069014
:1046700D07918023DB001E9A1A400D921E9A1A4252
:1046800D01D106231C930698079904000D000A001A
:1046900D0600024300D1D1E0080D4005400DBE4C8F
:1046A00DA44660440A03120BBC4B13431F0001F0D8
:1046B00DB9F9BB4ABB4B01F044F9BB4ABB4B01F006
:1046C00D19F904000D000022B94B3000390001F03A
:1046D00D08F9B84AB84B01F034F902000B0020007C
:1046E00D290001F007F901F0B5F9814601F09AF9B9
:1046F00D04000D00B14AB24B01F023F90022B14B79
:1047000D01F0F8F801F0A6F90600AF4AAF4B200012
:1047100D290001F016F904000D00300001F082F9B6
:1047200DAB4AAC4B01F00DF902000B002000290043
:1047300D01F0D7F804000D0002000B0001F001F9A3
:1047400D0A900B91A44BF31800261F0522002B0095
:1047500D2000290001F0CEF80E900F9122002B00C1
:1047600D00208021C90501F0BCF804000D000022D5
:1047700D9A4B0A980B9901F0C6F80022984B01F05C
:1047800DB9F802000B000A980B9901F0BCF8002251
:1047900D944B01F0AFF802000B000A980B9901F051
:1047A00DB2F802000B002000290001F0A3F802006E
:1047B00D0B000E980F9901F0A6F80022774B01F02F
:1047C00D99F832003B0001F0BCF806000F00040020
:1047D00D0D00069A079B01F00DF9002830D001233A
:1047E00D5B429C46E14400227D4B3000390001F0D4
:1047F00D8AF804000D0023E01E9B04931D9B039378
:1048000D1C9B0293089A099B0092019343460C9AB4
:1048100D5146584600F0FCF811B0F0BCBB46B2460C
:1048200DA946A046F0BD00230024069307940696E2
:1048300D80231B069C46654407951AE7002399467D
:1048400D4B466333C62B1ED804261E9B1B0526D54F
:1048500D2B0023430FD0644A644B0698079901F04F
:1048600DC1F8002879D00022614B0698079901F014
:1048700DABF8002871D01C9B4B4506DD4A46981AB3
:1048800D431E1C9303E00526DFE700231C938023C2
:1048900DDB001E9A1A431E920026002399461D9B8B
:1048A00D9E4264D29F1B02231E9A1A400A921E9AA0
:1048B00D134202D0002E00D000274B46002B07D00C
:1048C00D22002B000698079901F01DF8069007911C
:1048D00D002200230898099901F076F8002848D1A4
:1048E00D444B1E9A1340049303971C9B0293069B03
:1048F00D079C0093019443460C9A5146584600F08C
:1049000D87F8002E00D187E71E9B9B063DD54525D8
:1049100D441C4346020051462800D8474B46DA173F
:1049200D9B18534005220592013E049600220392E6
:1049300D0A3202924A46D00F01900093434622005C
:1049400D51465846FFF78AFD0A9B002B00D163E7BD
:1049500D02005F460C9E1D9D54E01C9B002B9ED0BB
:1049600D0D9B002B9BD01C9B013B1C9397E70027B5
:1049700D99E7069C079D22002900802000068446A9
:1049800D61440B0006920793AAE76525C0E7C04670
:1049900DFFFFEF7FFFFFEFFF01FCFFFF0000F03F88
:1049A00DFB799F501344D33FB3C8608B288AC63F11
:1049B00D0000F83F61436F63A787D23F71A3790968
:1049C00D4F930A400000E03F1655B5BBB16B024056
:1049D00DEF39FAFE422EE63FFF03000000002C40A7
:1049E00D00002440000018402D431CEBE2361A3F16
:1049F00D80842E41FFF7FFFF541C43465146202073
:104A000DB8472200931BAB42F6D3100004E7C04613
:104A100DF0B5DE4657464E464546E0B595B0069094
:104A200D079193469946209F1E9A1F9B10001900CF
:104A300D00F0E5FF002831D101225242BF4B1E98F4
:104A400D1F9900F0C1FF002837D101225242BC4B03
:104A500D1E981F9900F0CEFF00283DD10022B94BC2
:104A600D1E981F9900F0C6FF002850D10022B64BAA
:104A700D1E981F9900F0A8FF002848D1002200239E
:104A800D1E981F9900F0A0FF002850D100239846D2
:104A900D229B5B0500D4B6E0002458E0229B0393D3
:104AA00D219B029303230193A84B00934B465A4637
:104AB00D07990698FFF7F2FB0EE1229B0393219BCA
:104AC00D029304230193A24B00934B465A46079938
:104AD00D0698FFF7E3FBFFE00423229A1A40229980
:104AE00D0B4210D09B4B002A0FD004222299039128
:104AF00D21990291019200934B465A4607990698C7
:104B000DFFF7CCFBE8E0944BEDE70322EEE7229BA9
:104B100D0493219B039302971E9B1F9C009301946A
:104B200D4B465A4607990698FFF768FDD4E01E9A42
:104B300D1F9B0020002100F0D4FE1E901F91012329
:104B400D9846A5E70CAB30221A55013F01341F2CB6
:104B500D01D8092FF6D81E981F9900F07BFF05008C
:104B600D00F060FF02000B001E981F9900F0B9FEC7
:104B700DFA007A4B9B181A685B680A920B9300F047
:104B800DE0FE0890099100F089FF060000F046FF55
:104B900D02000B000898099900F0A3FE08900991F6
:104BA00D00226F4B00F026FF00282ED0013630007A
:104BB00D00F034FF02000B000A980B9900F00AFF79
:104BC00D002801D001350026002F2CD1280000F03F
:104BD00D29FF02000B001E981F9900F082FE0600AF
:104BE00D0F0000225E4B00F0EFFE002846D10022A0
:104BF00D5B4B3000390000F0FDFE00283ED1EB0785
:104C000D3CD501353AE0062746E70022544B08987B
:104C100D099900F0D9FE0028D6D1002E01D0F30756
:104C200DD2D50136D0E7AA461F2C11D8013F0A2153
:104C300D300000F01BFC651C30310CAB19550A21FE
:104C400D300000F013FC092E0ED906002C00EBE706
:104C500D55461F2C0CD87B1E002F09D00CAA3021D5
:104C600D11551F000134F4E72B0055461C00F0E7E9
:104C700D1F2C03D80CAB2E221A5501341F2C10D823
:104C800D0A21280000F0CAFB661C30310CAB195507
:104C900D0A21280000F0C2FB051E01D03400EDE70B
:104CA00D34000323229A1340012B1CD01F2C06D84D
:104CB00D4346002B32D00CAB2D221A550134229BCA
:104CC00D0393219B029301940CAB00934B465A46E0
:104CD00D07990698FFF7E2FA15B0F0BCBB46B2464D
:104CE00DA946A046F0BD219B002B13D04346002BB7
:104CF00D02D10C3313420FD0219B013B219319009C
:104D000D03E00CAB30221A5501348C42CED21F2C4D
:104D100DF7D9CBE72199F8E72199F6E7229B5B07B5
:104D200D04D50CAB2B221A550134C8E7229B1B0767
:104D300DC5D50CAB20221A550134C0E7FFFFEFFF9C
:104D400DFFFFEF7F65CDCD4165CDCDC1B4E2001044
:104D500DB8E20010ACE20010A8E20010A0E40010D0
:104D600D0000E03FF0B5DE4657464E464546E0B5FD
:104D700D93B082468B4690461193002900D1EBE209
:104D800D00275546119B1878002800D1E7E2252809
:104D900D09D07C1C43463A005946A847119B013364
:104DA00D11932700EEE7013311930024119A117826
:104DB00D0B00203BD8B2102803D88300D048C3582D
:104DC00D9F460B00303BDBB2092B2CD92A292FD063
:104DD00D00230A93119B1A782E2A39D000239A4664
:104DE00D119A1378683BD9B2122976D88B00C54930
:104DF00DCB589F4601231C4301321192D6E7022363
:104E000D1C4301321192D1E704231C43013211924C
:104E100DCCE708231C4301321192C7E710231C4332
:104E200D01321192C2E711A8FFF726FA0A90D1E7D5
:104E300D1C9B1A1D1C921868002804DB0A90119BFC
:104E400D01331193C6E702231C4343420A93F6E74D
:104E500D8022D20014435A1C11925A781300303B11
:104E600DDBB2092B04D92A2A07D000239A46B7E7CB
:104E700D11A8FFF701FA8246B2E71C9B1A1D1C927E
:104E800D1868002804DB8246119B01331193A7E7B4
:104E900D0020F8E780235B002343511C11915278C9
:104EA00D6C2A01D01C0018E0C0239B001C4301316B
:104EB00D119112E080232343511C11915278682ADD
:104EC00D01D01C0009E0C0231C430131119104E005
:104ED00D80235B001C4301321192119B1878030053
:104EE00D253BDAB2532A00D92CE29300864AD358D7
:104EF00D9F4680239B001C4301321192EDE78023D6
:104F000D5B001C4301321192E7E7782809D058283D
:104F100D38D06F2838D0622838D010239C430A2609
:104F200D00E01026582833D0692803D0642801D01A
:104F300D0C229443630501D50122944369282AD09C
:104F400D642828D0A30500D59FE0E30500D5B8E07F
:104F500D630600D4CAE01C9A111D1C911168FF2232
:104F600D0A4005940A9B049353460393029600232B
:104F700D0193009243463A0059462800FFF76EFA16
:104F800D070027E01026CDE70826CBE70226C9E764
:104F900D20221443C8E7A30520D4E30550D46306AB
:104FA00D66D51C9A111D1C911168FF220A40D3175A
:104FB00DD118594005940A9B0493534603930296C6
:104FC00DD20F0192009143463A0059462800FFF74F
:104FD00D45FA0700119B01331193D3E61C9BDA1D93
:104FE00D07218A43110008311C91116853689C46B2
:104FF00DDB170C930D930C9A0D9B100048400E90EF
:1050000D624653400F930E980F990C9A0D9B801A80
:1050100D99410E900F9108940A9B0793534606935E
:1050200D0496002305936346DA0F029200900191D6
:1050300D43463A0059462800FFF76EFA0700C9E7C4
:1050400D1C9A111D1C911268D317D1185940059443
:1050500D0A9B0493534603930296D20F019200913B
:1050600D43463A0059462800FFF7F8F90700B1E723
:1050700D230605D51C9A111D1C910023D25E96E7BF
:1050800D1C9A111D1C91126891E71C9BDA1D0721BA
:1050900D8A43110008311C9108940A9B07935346CB
:1050A00D06930496002305930293136854680093A6
:1050B00D019443463A0059462800FFF72DFA0700A0
:1050C00D88E71C9A111D1C9105940A9B0493534665
:1050D00D03930296002301931368009343463A000D
:1050E00D59462800FFF7BAF9070073E723060DD5D7
:1050F00D1C9A111D1C9112681204120C31E7C04646
:1051000DC0E2001004E3001050E300101C9A111DC2
:1051100D1C91126825E746281AD01C9B07330722DD
:1051200D93431A0008321C9204940A9A0392524631
:1051300D02925C681B680093019443463A005946FD
:1051400D2800FFF765FC0700119B0133119319E649
:1051500D20231C43E1E7672801D0472802D1802393
:1051600D1B011C43452801D0472801D120231C4396
:1051700D1C9B0733072293431A0008321C92049498
:1051800D0A9A0392524602925C681B68009301943E
:1051900D43463A0059462800FFF730FA0700119BA5
:1051A00D01331193EEE502231A0022409246234269
:1051B00D1FD001241C9B1A1D1C927A1C9146187835
:1051C00D43463A005946A8475346002B16D1119B2A
:1051D00D013311934F46D5E5561C434659462020C1
:1051E00DB847230032005C1C9D42F5D83D001700E6
:1051F00DE0E701233A002F000A9DF4E74A46A9464D
:1052000D0A9D06E0571C434659462020C8473400E6
:1052100D3A00661CA542F5D84D469146D7E71C9B32
:1052200D1A1D1C921B6899465346002B00D1013B59
:1052300D4E4601E0013613003278002A02D05A1E84
:1052400D002BF7D14B46F21A10928023DB0026007B
:1052500D1E401C4203D0524501D9534610930223E0
:1052600D1A0022400B92234205D03A0037004C46DB
:1052700DA946554620E03A00109B5F46B3462E00E6
:1052800D06E0551C434639002020B04723002A0074
:1052900D5C1C0A999942F4D835005E46BB461094C1
:1052A00D37004C46A946554606E01D000134561CF4
:1052B00D43465946C84732002078002804D0002FB5
:1052C00DF4D06B1E002DF0D117004D460B9B002B1B
:1052D00D03D1119B0133119354E50A9F109B06E0F6
:1052E00D561C434659462020A847230032005C1C1B
:1052F00D9F42F5D81700ECE721231C431C9B1A1D78
:1053000D1C921B6800930594082304935346039342
:1053100D102302930023019343463A005946280077
:1053200DFFF79CF80700119B013311932AE57C1CB4
:1053300D43463A0059462520A847119B0133119346
:1053400D27001FE57C1C43463A005946A847119B90
:1053500D01331193270015E50A4B9A4610E5AA462D
:1053600D474502D343465A1E00E03A00434659468C
:1053700D0020D047380013B0F0BCBB46B246A9465A
:1053800DA046F0BD6942001000B585B002900391B2
:1053900D0121009313004A4202A90248FFF7E2FCE3
:1053A00D05B000BD6B42001001480421014B1847A8
:1053B00D000E0020E5530010014B5B6818470000FC
:1053C00D000E002010B5010018231B881422108830
:1053D00D984710BD10B5010018231B8816221088A0
:1053E00D984710BDF0B5C64600B507000E00002564
:1053F00D0123984600E00135B5420AD2AC003C19B4
:1054000D2068FFF7DFFF20600028F4D100239846C5
:1054100DF1E7404680BCB846F0BD0000124A936FDC
:1054200D9B0815D29066D166002905D0FFE7FFE7EE
:1054300DFFE7516F106F704704B580210906C21741
:1054400D5140002800D0C84307F0FEFC002104BDE8
:1054500DF0B5146E556E576F166FFFF7E3FF1466B8
:1054600D556657671667F0BD000000D0114A936F5F
:1054700D9B0813D210665166002905D0FFE7FFE7A0
:1054800DFFE7516F106F704704B5002801D0002061
:1054900DC04307F0D9FC002104BDC046F0B5146E21
:1054A00D556E576F166FFFF7E5FF14665566576714
:1054B00D1667F0BD000000D094464A4A926F9208DC
:1054C00D624601D228E0C046F0B5464E346E756E88
:1054D00D776F366F00F020F89446424A1466556691
:1054E00D576716676246F0BD94463E4A926F920822
:1054F00D624601D254E0C046F0B53A4E346E756E38
:1055000D776F366F00F04CF89446364A1466556640
:1055100D576716676246F0BD002B24DB11D00029BA
:1055200D3EDA00B5C943404200D1013100F038F8F0
:1055300DC943404200D10131DB43524200D1013316
:1055400D00BD002AEBD1002801D1002905D0002093
:1055500DC90FC90701D1C043410800B507F064FC6C
:1055600D0022002300BD00B500290ADBDB435242B7
:1055700D00D1013300F014F8C943404200D101318C
:1055800D00BDC943404200D10131DB43524200D13D
:1055900D013300F005F8DB43524200D1013300BD69
:1055A00D002923D1002B18D1002A0CD0BC460D4F59
:1055B00D38667A6600210023FFE7FFE7FFE77A6F81
:1055C00D386F67467047002801D00748010000B5C5
:1055D00D07F02AFC0022002300BD02000B00002072
:1055E00D00217047000000D0FFFFFFFF002B00D00F
:1055F00DBFE0130C28D1002AE7D080B4114F3966D3
:1056000D7A66FFE7FFE730B4040C7B6F396F1B043C
:1056100D23433B667A66FFE7FFE7FFE7C04684B2A8
:1056200D7B6F3D6F1B0423433B667A66FFE7FFE705
:1056300DC04600232C042D0C7A6F386F0019694178
:1056400DB0BC7047000000D0F0B594460025140E94
:1056500D01D112020835140F01D112010435940F36
:1056600D01D192000235D40F01D152000135D40B76
:1056700D0134254F7C66254C3C660E0C93B2FFE73A
:1056800DFFE7FFE73C6F6643360C7703BE46734377
:1056900DDF0B5B04C01AB941130C7343DB18C91A35
:1056A00DCE086643360CB64493B273431F0F1B01ED
:1056B00DC01AB941130C73431F0B1B05C01AB94116
:1056C00D860D8F023E436643360C092D24DB520AAC
:1056D00D7243801A7703460A6643360C16235B1B0A
:1056E00DDE40DF40BF1964466643821B70460435B9
:1056F00D06330100D940A840C01900D30131A242A0
:1057000D06D20023F0BD0000000000D0FFFFFFFF18
:1057100D121B0130F3D3F1E709277F1BFE406446CE
:1057200DA2B27243801A00D20139220C7243130CBB
:1057300D1204821A99410B0070460435133701008B
:1057400DF940A840801900D30131002B02D1A242AB
:1057500D0AD2F0BD013000D30131121BFAD2013B48
:1057600DF8D1A24200D2F0BD013000D30131121B9D
:1057700DF7E7F0B51C0C00D080E00CB400251C0A36
:1057800D04D11B02160E3343120208351C0B04D133
:1057900D1B01160F3343120104359C0B04D19B00E2
:1057A00D960F334392000235DC0B02D192185B4108
:1057B00D01351C00971864410134464F7C66464CF8
:1057C00D3C660E0CFFE7FFE7FFE7C0463C6F664304
:1057D00D360C7703BE4697B27743C01B00D2013912
:1057E00DC01B00D201399FB27743C91BC91B170CCF
:1057F00D77437E04FF0B801BB941CE086643360C00
:1058000D0C2D33DBB644120B1F053A431B0B97B21D
:1058100D7743C01B00D201399FB27743C91B170CC8
:1058200D77433E043F0C801BB941860D8F023E43EA
:1058300D664329277F1BFE400C3D7746AF40BF19BD
:1058400D30BCA2B2ABB272437343801A9941220CA1
:1058500D7243130C1204801A994102000B00013798
:1058600D001BA941F9D2781E0021F0BD0C277F1B2A
:1058700DFE4077467F0BAF40FF19E0E700245D1C2B
:1058800D07D0144F7D663966FFE7FFE7FFE7FFE7B7
:1058900D3C6F95B29EB265436643401BB141150CFA
:1058A00D1E0C6543664336042F0C3E432D04401BEE
:1058B00DB141994204D202000B0020000021F0BD3D
:1058C00D01D19042F7D3801A994101349942F2D314
:1058D00DF6E70000000000D0FFFFFFFF4840414009
:1058E00D484018B41B4B5B68FC46019308BD04DFB0
:1058F00DB75B001018B4174B1B68FC46019308BD2D
:1059000D00DFC15B00109446134A926F920809D2D2
:1059100D624618B40F4BDB68FC46019308BD0CDFE3
:1059200D795E00100C4AF0B5146E556E576F166FF8
:1059300D6246FFF7EEFF084A14665566576716670D
:1059400DF0BD18B4034B9B68FC46019308BD08DFFE
:1059500D1D5D001028A50120000000D0FFB55040AE
:1059600D4240504059404B40594000E0FFB5154F63
:1059700D4C00640D03D0BC4204D10C0314D800209C
:1059800D090D09055C00640D03D0BC4204D11C0354
:1059900D0AD800221B0D1B0501264B4009D44B4094
:1059A00D03D58B4200D18242FFBD9942FCD190427A
:1059B00DFFBD0B43DB1803431343F5D0C94349180F
:1059C00DFFBD0000FF07000000B5FFF7CFFF8041CE
:1059D00D00BDC04600B5FFF7C9FF01D9002000BDCD
:1059E00D012000BD00B5FFF7B9FF01D9002000BDB2
:1059F00D012000BD00B5FFF7B1FF804100BD0120C2
:105A000D40054A00121804D85A00121801D8002077
:105A100D70470120704700207047000000210028CA
:105A200D05D17047C1174840401AFAD0C90713B5C0
:105A300D064B1B6898470CBC441CA2401005120B6A
:105A400D0349091B09051943114310BD28A601205F
:105A500D1F04000010B54C00620D8023D218DB002E
:105A600DD21A5B057E2A10DD9E3A13DACC17090394
:105A700D490819435242D140640001341532202A9D
:105A800D05DAD0400843604310BD002010BD084624
:105A900D604310BDC80FC018013810BD18B4044BB9
:105AA00D5B6AFC46019308BD24DF296000100000ED
:105AB00D28A5012070B513231C78012C14D0012CBE
:105AC00D14DC022C02DC1F4A1F4B9A641F48FFF79F
:105AD00D79FC1F4B186070BD99001A481A4A8850FE
:105AE00D01331F2BF8D9EAE70023FAE71948FFF72E
:105AF00D71FC05001848FFF76DFC023803789B0018
:105B000D7F2B19DD802229000F4800F0D9FB022CD4
:105B100DD7D1124B1A88B5231B029A4209D1104BCB
:105B200D1A88104B9A4204D10F4B1A880F4B9A4288
:105B300DC7D00020FEF77AFB0D4B0E4A32210E48DE
:105B400DFEF7DAFA7D5B001028A501204C3300002A
:105B500D28A601205344000053460000543800008D
:105B600DD8380000494600009C3800005946000016
:105B700DF0E40010A4E5001044E5001007B5604600
:105B800D002800D100BE01880A0A0230DF2AFAD1AE
