:020000041000EA
:1000000000B5324B212058609868022188439860DF
:10001000D860186158612E4B002199600221596106
:100020000121F02299502B49196001219960352056
:1000300000F044F80222904214D00621196600F024
:1000400034F8196E01211966002018661A6600F04E
:100050002CF8196E196E196E052000F02FF8012189
:100060000842F9D1002199601B49196000215960AB
:100070001A491B48016001219960EB211966A021F2
:10008000196600F012F800219960164914480160C1
:100090000121996001BC002800D000471248134993
:1000A000086003C880F30888084703B5996A0420EC
:1000B0000142FBD001200142F8D103BD02B5186610
:1000C0001866FFF7F2FF186E186E02BD00000240BE
:1000D000000000180000070000035F00212200005C
:1000E000F4000018222000A00001001008ED00E03C
:1000F00000000000000000000000000074B24E7A12
:1001000000200420F7010010C3010010C5010010F9
:10011000C1010010C1010010C1010010C101001097
:10012000C1010010C1010010C1010010C701001081
:10013000C1010010C1010010C9010010CB01001065
:10014000CD010010CD010010CD010010CD01001037
:10015000CD010010CD010010CD010010CD01001027
:10016000CD010010CD010010CD010010CD01001017
:10017000CD010010CD010010CD010010CD01001007
:10018000CD010010CD010010CD010010CD010010F7
:10019000CD010010CD010010CD010010CD010010E7
:1001A000CD010010CD010010CD010010CD010010D7
:1001B000CD010010CD010010CD010010CD010010C7
:1001C00000BE00BE00BE00BE00BE00BEEFF3058054
:1001D000103800BEF2EB8871280D0010480D001099
:1001E0003402001090A31AE700201F49086006C8D7
:1001F00081F3088810471D48006800282FD10DA4FE
:100200000ECC002902D000F012F8F9E71849194A7B
:10021000002000E001C19142FCD1174988471749ED
:1002200088471749884700BEFDE701C901C29A42C5
:10023000FBD37047480D001000000020B4010020DF
:10024000FC0E00100000042000000420FC0E001032
:10025000001004200010042000000000704709482E
:1002600000F090FA0047000008ED00E0000000D028
:1002700000020020240400205D0200105906001036
:100280005D0300105756000006005250ABB3605398
:10029000CC0C001006005250861C0302D70C001034
:1002A000060052505422A29DF50C00100500525039
:1002B000DE65F468FC0E0010F8B5C0460448054B36
:1002C00010B5834203D0044B002B00D0984710BDDB
:1002D000B4010020B40100200000000006480749D6
:1002E000091A8B10C90FC91810B5491003D0044B57
:1002F000002B00D0984710BDB4010020B4010020AD
:100300000000000010B5074C2378002B09D1FFF73F
:10031000D5FF054B002B02D0044800E000BF0123AD
:10032000237010BD0003002000000000080A001028
:10033000054B10B5002B03D00449054800E000BF71
:10034000FFF7CCFF10BDC0460000000004030020F2
:10035000080A00100048704719801F00FEE700BE21
:10036000FEE7000073B50C0016000500FFF7F2FF72
:100370002C23802298430F4B120418430E4B6946DE
:100380001A600E4B07311A6801235340DB050C4AF3
:10039000DB0D1360A0238722DB05D2009E501D6079
:1003A000596080219C604904D86018690842FCD1DA
:1003B000985876BD10008000102000503404005082
:1003C0003414005010B50400FFF7C4FF80220E4B18
:1003D000120418400D4B012118430D4B49421A607D
:1003E0000C4B1A6801235340DB050B4ADB0D1360ED
:1003F000A0238722DB05D2009950084A1C605A606E
:1004000040229A60186110BD33F8FFFF3806800063
:10041000102000503404005034140050000200201A
:10042000A02386220121D200DB05995080225204AC
:1004300019691142FCD18722D200985870470000F8
:100440008023012210B5124C5B05E018FC215242BA
:10045000FFF788FF0F4BE358984216D10E4B0F4A17
:10046000D968914203D0D9680D4A914201D1002246
:10047000DA6004220B4B1A600B4BE418201C0B496A
:10048000086003C880F308880847002010BDC046F4
:1004900000100000FC00001000800540FB5ECD8EC7
:1004A00004A1327100E000400001001008ED00E0FE
:1004B000F7B50C00FA220021802705005200080041
:1004C00000F0AEF9314E240B7F01002C44D12E00F8
:1004D000AB681136591EFF360B0A30000193FFF747
:1004E00071FF2A4F019B0093009B0137FF37002BC0
:1004F0003DD100F057F90122019B30001902524210
:10050000FFF730FFA04222D12E0010363000FFF757
:1005100059FFFFF785FF80221D49520004001B4848
:1005200000F05AFA00F03EF90122802130005242D8
:100530004900FFF717FFA04209D1F02380211B06D5
:10054000E818490100F058FA124B134ADA60802289
:10055000124BD2051A60F7BD3000390000F04CFA9A
:1005600080235B01F618013C00F01CF9ADE700F0B8
:1005700019F9FFF755FF80220400054938005200A1
:1005800000F02AFA009B013BADE7C04600100000D6
:100590000002002000800540F24EFAE300B0054062
:1005A0000C235843124B10B5C01880235B004360E6
:1005B000012913D00368802452015A40E0236401CA
:1005C0001A4004432260032203684B401340236017
:1005D00001238B4082681342FCD010BDC02303244A
:1005E0009B0103431C6083680B42FCD0E2E7C046DA
:1005F0000080004037B50C2000F0CCF80023114DEE
:10060000AB6700F02FF901220F4B1A606B6C012BC6
:10061000FCD103220D4B1A60AC6B012CFCD10225DE
:100620000623210000950A4A0A4800F02FF9290004
:1006300000220420FFF7B4FF002221000520FFF76D
:10064000AFFF37BD008000403CB0004030B00040FC
:10065000002F685900800240F8B5404DEE682C69C3
:10066000FFF7C8FF04233E4A3E49136018008A681A
:100670009043FBD13C4B9E421FD123051A0D002B0A
:1006800022D18021394B49055B18A3421CD2384B3B
:10069000EB606A6181235B059C4221D3324B9E4211
:1006A00002D0334B9E4201D1FFF7CAFE314800F021
:1006B00069F800210300080098472D4B9E4203D1A2
:1006C0006B6901336B61E5E7FFF7BAFE0028E1D102
:1006D000294B264CE418264BEB602C616861D9E766
:1006E0002368214A934203D080235B01E418D1E7B9
:1006F000224B62689A42F7D1270001221037380056
:10070000A1685242FFF72EFEE3689842ECD1012225
:10071000FC2138005242FFF725FE23000D33FF3342
:100720001B689842E0D1A368154A991880220F4BA4
:10073000090B520509039B185B18A342D4D2002968
:10074000ACD06B69022BA9D82000FFF7B1FE0021C5
:100750003222080000F064F8FEE7C0460080054041
:1007600000F0004000C00040FB5ECD8E0010000095
:1007700004A132715542000000100010A952AEC50C
:10078000FF0F0000142310B50100188804331B88E4
:10079000984710BD8023024A9B000343D3627047F1
:1007A00000800540024B1A68024B5A607047C046F1
:1007B0001C0400200080054003008020124AC00570
:1007C00010B5124C106012480460E020114CC004B7
:1007D000002906D02060002B05D180231B06236052
:1007E00010BD1060F7E7FA208022C0005843520481
:1007F000094B904205D21860FFF7D4FF8023DB0538
:10080000EDE7064A1A60F7E700B00540FCFF01007B
:100810000820014000A005401C040020FFFFFF004D
:1008200070B50400100080220A4BD2051A600A4BF2
:10083000002C0CD00125094A2C43DA61084A624099
:100840001A6259629C620021FFF7B6FF70BDDC613D
:10085000F9E7C04600B0054000800540D3C007B0AE
:100860002D3FF84FAA22064B12011A602F2205498C
:10087000DA60054A11605A68002AFCDA7047C046FF
:100880000040024000B0FA0000600240F8B51700D6
:1008900004000C201E000D0000F074F82D4BFA1817
:1008A0002D4B9A4205D911212C4B2D4A2D48FFF78B
:1008B00056FD2D494143380000F064F802009823AA
:1008C000103A5B009A4203D91921284B244AEDE7DC
:1008D000731E062B03D8069B013B062B03D91C2154
:1008E000234B1F4AE2E7069A330416031E4323688C
:1008F000002B0FDA3F2223681340AB420AD1A368D2
:100900001B051B0D834205D1EE22E368D202134082
:10091000B3421BD0174B9C4219D080235B01164A6F
:1009200016491360164A13601F008A689743FBD16B
:10093000C023221D9B01134321222560A0601A6061
:100940002268002AFCDA0822E6601A60F8BD8023DB
:100950009B01E4E780E84BD380F8A932A00B00109C
:10096000AF0C0010FF0B001040420F004A0C0010AB
:10097000660C001000C0024000E0004000C00040D3
:1009800000F00040114A936F9B0813D21066516625
:10099000002905D0FFE7FFE7FFE7516F106F7047B1
:1009A00004B5002801D00020C04300F01DF800214C
:1009B00004BDC046F0B5146E556E576F166FFFF745
:1009C000E5FF1466556657671667F0BD000000D056
:1009D000F8B5C0460000000001B40248844601BCDE
:1009E000604700BFED00002001B40248844601BC0E
:1009F000604700BF9901002001B40248844601BC51
:100A0000604700BF41000020312E31300006005207
:100A1000503ABCA911080A0010666C6173685F6FD8
:100A2000666673202B20636F756E74203C3D2050EA
:100A300049434F5F464C4153485F53495A455F42D3
:100A400059544553002F686F6D652F72756E6E6532
:100A5000722F776F726B2F7069636F2F7069636F7E
:100A60002F6C69622F7069636F2D73646B2F7372C3
:100A7000632F7270325F636F6D6D6F6E2F6861727E
:100A800064776172655F666C6173682F666C617311
:100A9000682E6300636F6E6E6563745F696E746564
:100AA000726E616C5F666C61736820262620666CCE
:100AB0006173685F657869745F78697020262620A5
:100AC000666C6173685F72616E67655F65726173A2
:100AD0006520262620666C6173685F666C75736896
:100AE0005F636163686500636F6E6E6563745F6901
:100AF0006E7465726E616C5F666C61736820262629
:100B000020666C6173685F657869745F78697020CE
:100B1000262620666C6173685F72616E67655F7020
:100B2000726F6772616D20262620666C6173685F44
:100B3000666C7573685F636163686500636F6E6E92
:100B40006563745F696E7465726E616C5F666C611B
:100B5000736820262620666C6173685F6578697407
:100B60005F78697020262620666C6173685F666C0A
:100B70007573685F636163686500666C6173685F65
:100B800072616E67655F70726F6772616D00666C2F
:100B90006173685F72616E67655F6572617365003E
:100BA00076636F5F66726571203E3D202850494331
:100BB0004F5F504C4C5F56434F5F4D494E5F46521E
:100BC00045515F4D485A202A204D485A2920262653
:100BD0002076636F5F66726571203C3D2028504926
:100BE000434F5F504C4C5F56434F5F4D41585F46FB
:100BF0005245515F4D485A202A204D485A29002F0E
:100C0000686F6D652F72756E6E65722F776F726B80
:100C10002F7069636F2F7069636F2F6C69622F701B
:100C200069636F2D73646B2F7372632F7270325F01
:100C3000636F6D6D6F6E2F68617264776172655F4F
:100C4000706C6C2F706C6C2E630066626469762029
:100C50003E3D203136202626206662646976203C9F
:100C60003D203332300028706F73745F64697631D1
:100C7000203E3D203120262620706F73745F64690A
:100C80007631203C3D2037292026262028706F739E
:100C9000745F64697632203E3D2031202626207024
:100CA0006F73745F64697632203C3D203729007091
:100CB0006C6C5F696E697400446562756700626F91
:100CC0006F74325F7732357130383000312E352E07
:100CD00030007069636F00696E7465726D65646978
:100CE0006174655F7069636F2D666C6173686C6FAA
:100CF00061646572004D61792020362032303233D4
:100D00000006005250BBFF3CB6D20C001006005249
:100D100050E182887FBE0C001006005250D3F0755F
:100D200042B80C00100000000D0A0010AC020010C8
:100D3000A002001094020010010D001088020010A3
:100D40000D0D0010190D0010084A10B51378002B76
:100D50000AD18023064807495B051C68C450043348
:100D60008B42FAD10123137010BDC046200400202D
:100D70001C0300100001001010B5024B013398470E
:100D800010BDC0461C0300208023F0B50A180400E3
:100D90000D0085B09B039A4205D941211D4B1E4A87
:100DA0001E4800F0A1F81826142733881C493888FB
:100DB000984733881B4903903888984733881A49E5
:100DC00002903888984733880190184938889847A6
:100DD000039B0600002B07D0029B002B04D0019B35
:100DE000002B01D0002803D14921114B0A4AD7E733
:100DF000FFF7AAFF039B9847029B98478022200099
:100E0000D82329005202019CA047B047FFF7B4FF46
:100E100005B0F0BD190A00108E0B0010450A001035
:100E20004946000045580000524500004643000076
:100E3000940A00108023F0B5140085B01218050044
:100E400003919B039A4205D958211D4B1D4A1E4808
:100E500000F04AF81826142733881C493888984728
:100E600033881B4902903888984733881949019084
:100E70003888984733880090174938889847029BEC
:100E80000600002B07D0019B002B04D0009B002BF9
:100E900001D0002803D16021104B0A4AD7E7FFF7A1
:100EA00053FF029B9847019B984722002800039913
:100EB000009B9847B047FFF75FFF05B0F0BDC04605
:100EC000190A00107A0B0010450A0010494600006C
:100ED000455800005250000046430000E70A001049
:100EE0007047C0460000000001B40248844601BCBF
:0C0EF000604700BF5F03001031030010DA
:1010000000B5324B212058609868022188439860CF
:10101000D860186158612E4B0021996002215961F6
:101020000121F02299502B49196001219960352046
:1010300000F044F80222904214D00621196600F014
:1010400034F8196E01211966002018661A6600F03E
:101050002CF8196E196E196E052000F02FF8012179
:101060000842F9D1002199601B491960002159609B
:101070001A491B48016001219960EB211966A021E2
:10108000196600F012F800219960164914480160B1
:101090000121996001BC002800D000471248134983
:1010A000086003C880F30888084703B5996A0420DC
:1010B0000142FBD001200142F8D103BD02B5186600
:1010C0001866FFF7F2FF186E186E02BD00000240AE
:1010D000000000180000070000035F00212200004C
:1010E000F4000018222000A00001001008ED00E02C
:1010F00000000000000000000000000074B24E7A02
:1011000000200420F7110010C3110010C5110010B9
:10111000C1110010C1110010C1110010C111001047
:10112000C1110010C1110010C1110010C711001031
:10113000C1110010C1110010C9110010CB11001015
:10114000CD110010CD110010CD110010CD110010E7
:10115000CD110010CD110010CD110010CD110010D7
:10116000CD110010CD110010CD110010CD110010C7
:10117000CD110010CD110010CD110010CD110010B7
:10118000CD110010CD110010CD110010CD110010A7
:10119000CD110010CD110010CD110010CD11001097
:1011A000CD110010CD110010CD110010CD11001087
:1011B000CD110010CD110010CD110010CD11001077
:1011C00000BE00BE00BE00BE00BE00BEEFF3058044
:1011D000103800BEF2EB887150E4001078E4001083
:1011E0003412001090A31AE700201F49086006C8B7
:1011F00081F3088810471D48006800282FD10DA4EE
:101200000ECC002902D000F012F8F9E71849194A6B
:10121000002000E001C19142FCD1174988471749DD
:1012200088471749884700BEFDE701C901C29A42B5
:10123000FBD3704778E40010C00000205415002054
:101240000CF9001000000420000004200CF900102C
:10125000001004200010042000000000704709481E
:1012600003F0E0FA0047000008ED00E0000000D0C5
:1012700058150020AC260220A1350010B51300102F
:101280005D3500105756000006005250ABB3605356
:1012900048CC0010060052505422A29D58CC001099
:1012A00005005250DE65F4680CF90010F8B5C04630
:1012B0000448054B10B5834203D0044B002B00D0EB
:1012C000984710BD54150020541500200000000060
:1012D00006480749091A8B10C90FC91810B54910DB
:1012E00003D0044B002B00D0984710BD54150020AC
:1012F000541500200000000010B5074C2378002B87
:1013000009D1FFF7D5FF054B002B02D0044800E0C0
:1013100000BF0123237010BD5816002000000000FC
:10132000E8B90010054B10B5002B03D0044905485F
:1013300000E000BFFFF7CCFF10BDC046000000007A
:101340005C160020E8B9001010B504F04DFB10BD8C
:1013500010B5104A1049114804F03AFB104804F047
:1013600007FB104804F004FB09F064FE00280CD0D1
:1013700009F06CFE01000C4804F02AFB09F06AFE3B
:1013800001000A4804F024FB10BD094804F0F0FAFB
:10139000FAE7C046E8B90010F0B9001000BA001032
:1013A00008BA001020BA00103CBA001048BA001069
:1013B0005CBA001010B5FFF7C7FF094804F0D8FA6F
:1013C0000849094804F004FBFFF7C2FF00F090F958
:1013D00000F03CF800F0DEF906F03EFE002010BD03
:1013E0008CBA001001000000ACBA001010B501204A
:1013F00004F05AF900230370024B012B00D010BDFA
:101400000370FCE70100000010B5002008F064F84C
:1014100001200021404208F097FB002008F0E4FD85
:10142000F6E700B591B0002008F092FD002801D148
:1014300011B000BD002008F0AFFD0028F8D0402218
:101440006946002008F0B8FDF2E7000010B582B050
:10145000C022002401941F23009300235200084956
:10146000084806F083FD802201941E230093002388
:1014700052000549054806F079FD02B010BDC0468E
:10148000C0BA001009140010C8BA001023140010CC
:10149000F0B595B0050014009278E3781B02134371
:1014A000032B40D024D8012B36D0022B55D109F084
:1014B000CDFD070009F0CEFD06004322002103A860
:1014C00004F028F943236A461373413B53733900F0
:1014D0000E2068440AF0B6F83100362068440AF05D
:1014E000B1F8432303AA2100280008F04FFC18E0BC
:1014F000042B32D1FFF77AFF03AE0323337001339D
:1015000073700378B37004F0EDF833783200210083
:10151000280008F03BFC04E00323134A210008F0F4
:1015200035FC15B0F0BD01A804F090FB0A220021A3
:1015300003A804F0EFF80A236A461373073B5373BA
:10154000082201A90E20684404F0EAF80A2303AA3D
:101550002100280008F01AFCE3E70223034A2100D7
:10156000280008F013FCDCE7D0BA0010CCBA001059
:10157000F0B583B005001400012942D113785B0651
:101580009B0F012B34D0022B3ED15378022B0BD072
:10159000032B21D0012B01D0002033E036331B4A2E
:1015A000210008F0F3FB2DE0127963791B0213434D
:1015B000072B01D0002025E06B469F1D144E022210
:1015C0003100380004F0ACF83B883200083A2100C2
:1015D000280008F0DBFB15E0127963791B02134346
:1015E000032B01D000200DE02200FFF751FF09E09E
:1015F0005378222B01D0002004E0110008F0AAFB50
:1016000000E0012003B0F0BD0020FBE7D4BA0010D9
:1016100008BC001000487047ECBB00100048704741
:1016200088BB0010004870474CBB001070B5002804
:101630000DD0052824D88000124BC55828000AF088
:1016400009F8C0B21F2800D91F2000230EE00D4B5F
:1016500019680D480222023004F062F8012007E008
:101660005A1CEC5C5100084BCC52D3B29842F7D8CC
:1016700001304000C0239B0003430348038070BD3A
:101680000020FCE7E80B00200C18002000B583B018
:101690000122094B1868524201A905F071FA01288C
:1016A000F6D1019B1A791900002008F059FF00209B
:1016B00008F074FFECE7C0461826022000B583B09E
:1016C000802200230193203300930023520003491A
:1016D000034806F04BFC03B000BDC046B4BC00108C
:1016E0008D160010014B18687047C046182602205E
:1016F00010B5002204210A2005F09CF8054B186063
:10170000002802D0FFF7DAFF10BD034804F060F9AB
:10171000FAE7C04618260220BCBC001000B585B010
:1017200004F072FA174B02221A60174B1A688023D2
:10173000DB015340E022D2011340144A1360FA2027
:10174000400006F031FE0F4B04221A600E4B1B685E
:10175000DB05FBD50C4B5A6801AB0D490191082103
:10176000197100215971DA800393FFF7BBFF002341
:10177000002203A905F0A2F8FA20400006F014FEAA
:10178000E1E7C04600E0044000C0044000D004404F
:101790003B4324DD00B583B0802200230193203336
:1017A0000093002352000349034806F0DFFB03B017
:1017B00000BDC046D0BC00101D17001010B583003E
:1017C000084A944663441C6840226240C024144086
:1017D0008022520113431C60C000034B9C466044AE
:1017E000416010BD04C0014000400140034B1B6834
:1017F00002201840431E9841C0B2704700C0064006
:10180000EFF3108072B6034B1B68002BFBD0BFF3C5
:101810005F8F70472C0100D0BFF35F8F024B002217
:101820001A6080F3108870472C0100D0F8B50600CC
:101830000C001500FFF7E4FFE308F718F15C07223E
:101840002240012393400B4205D1DBB20B433B7096
:10185000FFF7E2FFF8BD2100280001F01DFFF0B501
:1018600083B00600019114001F00FFF7C9FF00E0DC
:101870000134BC420CD8E308F518F35C0721214081
:1018800001228A401A42F3D1D2B21A432A7001E0EF
:1018900001246442FFF7C0FF002C02DB200003B0EC
:1018A000F0BD019B002BF9D0089801F0F5FE000077
:1018B000002307E0054A9A189200BFF35F8F0021CA
:1018C000116001331F2BF5D97047C046400000342A
:1018D000054A1078431CDBB21370172B02D9130092
:1018E00010221A707047C046000C002010B501008D
:1018F000024A0348FFF79AFF10BDC046D8BC00104B
:10190000041C002000B583B00100044B00931F238A
:1019100018220348FFF7A3FF03B000BDF8BC001076
:10192000041C0020074B9B68103080001950BFF347
:101930005F8FBFF35F8F044B0021196082F3108823
:101940007047C04600ED00E0240100D010B5091A30
:10195000081F0A4B9C466144094A914208D8C307B4
:1019600006D440104005400D064B184380B210BD10
:10197000054B064AA321064801F0F4FDFC070000D0
:10198000FE0F000000E0FFFF14BD001074BF001048
:1019900044BD001010B5091A04394C08090B08D1D0
:1019A0004905490D064A11430180064B23434380F4
:1019B00010BD054B054AAB21054801F0D3FDC046DB
:1019C00000F0FFFF00F8FFFF90BD001048BF0010BF
:1019D00044BD001001238340034A10681840431E91
:1019E0009841C0B27047C04600E100E0002904D031
:1019F000034B1860034B18607047034B1860FBE7FC
:101A000080E200E000E100E080E100E010B50123A9
:101A100083401800FFF7EAFF10BD0000024B9B68EF
:101A200010308000C058704700ED00E070B5040031
:101A30000D00EFF3108672B60C4B1B68002BFBD029
:101A4000BFF35F8F2000FFF7E9FF094B984201D0F9
:101A5000A84205D1320029002000FFF763FF70BDC6
:101A6000044B054A8621054801F07CFD240100D085
:101A7000CD110010A0BD0010A8BF001044BD001083
:101A8000F0B5DE4657464E464546E0B589B081463C
:101A900001911500EFF3108A72B6744B1B68002B8E
:101AA000FBD0BFF35F8F724B0027DF57002F40DB67
:101AB0007C00E419A4006F4824180622A2566C4B3F
:101AC0001A706D4B9A684B4610339B00D35898465A
:101AD0001E001B1A2F2B38D9684B98452FD105AE05
:101AE000674B33807B009B46D8198000614B98463A
:101AF000404402306349FFF729FF7080624BB38096
:101B0000FF23B371F571019B07935F44BF00474406
:101B10000ECE0EC701231C43A046524641464846FE
:101B2000FFF700FF09B0F0BCBB46B246A946A0468D
:101B3000F0BD564B564AD721564801F013FD564B7F
:101B4000534ADE21534801F00DFDC04340440C21AF
:101B500002F0BCFE002912D101239E43B34633009C
:101B60000026DA79AA4211D90621595600290CDB40
:101B70004A00521892001E003E4B9B18F1E7474B5B
:101B8000434AEA21434801F0EDFC1E00002E3AD002
:101B900005AB434A1A80813A5A800623F3560293D2
:101BA000002B17DA3F4805AB9B469880029A9A7142
:101BB000DD71019A0792301D2100FFF7C7FEB0804A
:101BC000B7717B00DB199B002A4FFF185B4607CBE0
:101BD00007C7A2E77800C0198000264BC018043060
:101BE000321DB388D90A1C2907D15B05591502316A
:101BF00049005118FFF7AAFED5E72B4B2B4AB1211C
:101C0000244801F0AFFC05AE1D4B33807B000293EE
:101C1000D8198000174A9046020042440392901C53
:101C20001849FFF793FE7080039A101D5946FFF77D
:101C30008DFEB0801E4B5A464146521A52415343C4
:101C40001B0DB371F571019A0792029B9C46674484
:101C5000BF0047440ECE0EC7114B5A461380813B3E
:101C6000538001231C43A04657E7C046240100D0FF
:101C7000A8260220040C002000ED00E0CD11001089
:101C800000A1FFFF340C002001BDFFFFD8BD0010F4
:101C900090BF001044BD001000BE001028BE001010
:101CA0000148000001BD00009CBE001080BF001074
:101CB000AAAA0000F0B5CE46474680B583B006001C
:101CC0000D00EFF3108872B6564B1B68002BFBD04B
:101CD000BFF35F8F544B9A6834001034A300D75879
:101CE000524B9F4207D0AF4200D198E00197504B32
:101CF000FB1A2F2B09D9424639003000FFF712FE9C
:101D000003B0C0BCB946B046F0BD3000FFF762FE7C
:101D1000814600213000FFF779FEBFF35F8FEFF3BC
:101D20000581002901D08C4211D10123019C9C43E3
:101D30000022A368AB4212D00622A256002A0DDB75
:101D400053009B189B002200394CE418F1E7362120
:101D5000384B394AFF31394801F004FC2200AB42CC
:101D600056D106256557002D38DB6B005B199A00AC
:101D70002F4B9B189A68A260DA79E27106229A5674
:101D8000A2719B795BB2002B0FDA2D48A0806B000B
:101D90005B199B00264AD3182A4A1178997115704D
:101DA00049463000FFF732FEA5E7201D6B005B19A6
:101DB0009B001F4A9B181A1D9B88D90A1C2907D112
:101DC0005B055B15023359005118FFF7BFFDDDE7D6
:101DD0001D4B1E4AB121194801F0C4FB002912D144
:101DE000002A0ED0FF239371194B9380154A137864
:101DF000A371184B0E49641A644163431B0D1370A1
:101E0000CEE70A4FF2E7201D1349FFF7C3FDC7E7EE
:101E10006A21124B084AFF31084801F0A3FB034F27
:101E200069E7C046240100D000ED00E0CD110010AC
:101E3000040C0020B4BE001060BF001044BD0010B0
:101E400001BD0000A82602209CBE001080BF00102B
:101E500001BDFFFFAAAA00003E0C0020E8BE001052
:101E600010B5032304009C43064A94466444226848
:101E70001840C000FC3383409A43130081400B4359
:101E8000236010BD00E400E070B5012101432E4B3A
:101E9000CB1A2F2B28D8EFF30583002B2BD0EFF391
:101EA000108C72B6294A1268002AFBD0BFF35F8FEC
:101EB000274A0400244D641B64416243120D54B24E
:101EC000244A92689B00D2588A421BD00022032ADF
:101ED00032D853009B189B001B49CB189B795BB2EF
:101EE000A3421FD00132F2E7C7211B4B1B4A490016
:101EF0001B4801F037FB92211A4B184AFF31184852
:101F000001F030FB134A92681749D150174B1A78E9
:101F100082711C70BFF35F8F0C4B00221A608CF330
:101F2000108870BD0D005300991889006918FF26AC
:101F30008E710F4A8A80E9E7D1210E4B074A49008A
:101F4000074801F00FFBC046040C0020240100D01C
:101F5000AAAA000000ED00E0F0BE00102CBF0010A7
:101F600044BD001018BF0010CD110010A82602209B
:101F700001BDFFFF24BF00100022044B02E0044912
:101F800002C30132072AFAD97047C04600E400E0D4
:101F900080808080024B9C466144890001607047CC
:101FA0004000003410B50400FFF792FC010020004F
:101FB000FFF7F0FF01235B426360BFF35F8F10BD4B
:101FC00010B50400FFF784FC01002000FFF7E2FFDA
:101FD00001235B42636000232372BFF35F8F10BD58
:101FE000034B9C46614489000160BFF35F8F7047DB
:101FF0004000003410B504000120FFF783FC01000D
:102000002000FFF7EDFF10BD70B505000C000800C3
:1020100000F00AFE0949200000F04AFDFFF758FCD5
:10202000074B9C466044800068602C75D0231B06DB
:102030001B786B75A400034BE55070BD4523001061
:10204000400000348420002010B5084B1A68EFF3DC
:10205000108172B61368002BFCD0BFF35F8F03486A
:1020600004F062F80020002110BDC0464425002085
:1020700010B5002922D003681B7B99421ED8174B4C
:102080009C466144090183689C4661440C68496828
:10209000002A19D003681B7B9A4215D883680F4821
:1020A0008446624412019A181068536802000120A5
:1020B0008B4201D80ED00020C0B210BD084B094A97
:1020C0003C21094801F04EFA054B064A3C210648DE
:1020D00001F048FAA242EFD8EDE7C046FFFFFF0F3C
:1020E00068C1001088C3001020C1001010B500297D
:1020F0001ED0037B99421BD84B005B18033B04683E
:10210000A4466344002919D0002A1DD0914221D051
:10211000002A25D0047BA24222D8046850008018EF
:10212000033820188170197800291FD11A7010BD4A
:10213000104B114A6821114801F014FA104B114A52
:102140006F310E4801F00EFA0F4B0E4A70210B480A
:1021500001F008FA0D4B0B4A7121084801F002FA10
:10216000044B054A6821054801F0FCF941701A70DA
:10217000DDE7C0468CC10010F4C30010A8C10010F8
:1021800000C20010D0C300100CC2001018C2001012
:1021900070B506000D001400002914D0002A14D0D8
:1021A000806873689847002806D022002900300014
:1021B000FFF79CFF280007E02A0021003000FFF70E
:1021C00095FF200000E0100070BD0800FCE7000053
:1021D000F0B583B00500009201930AAB1C780BABFD
:1021E0001F78002C26D003685A7B944207D1012324
:1021F000002B19D1002C3BD1200003B0F0BD002CE6
:102200000CD01A7B944209D81A6863001B19033B4F
:10221000D3189B78002BEBD00123E9E73E4B3F4AD4
:1022200068213F4801F09EF93E4B3F4A67213F48F5
:1022300001F098F903689C7B002CDBD012D01A7B4C
:1022400094420FD862001219033A19688C4662440E
:1022500051789973002900D1D9730023937053707A
:102260001370C7E72C4B2D4A68212D4801F07AF9ED
:10227000002C3AD02B681B7B9C4236D82C4BE318A1
:102280001B01AA6894466344009A1A60019A5A6036
:10229000089A9A60099ADA602E68002C2BD030D008
:1022A000337B9C422DD863001B19033B3268944654
:1022B000634400229A705A701A70717B22003000B9
:1022C000FFF766FF7073844200D095E7287D009A7F
:1022D000019B00F035FC061E01D0002F17D00C9B8F
:1022E000002B00D188E71E7086E7124B124A3C2172
:1022F0000E4801F037F9114B114AA521084801F0A9
:1023000031F9054B054A6821054801F02BF9286889
:10231000210000F04DFEE2E78CC10010F4C3001074
:10232000A8C1001030C2001000C4001020C100106D
:10233000FFFFFF0F68C1001088C300101CC1001010
:10234000E4C30010F0B5DE4657464E464546E0B5BC
:102350008BB00990002308938200B54BD658370004
:1023600052E0B44BB44A3F21B44801F0FBF8B44BFF
:10237000B44A3C21B44801F0F5F8002901D1002805
:1023800069D10021404600F009FEA04219D12A6817
:102390006B6806920793AB689846EB689A4643468B
:1023A000002B14D0002C18D03B681B7B9C4214D807
:1023B000631EFA68D35C08931B021843386100203F
:1023C00015E0A24BA24A8E219F4801F0CBF8A14B09
:1023D0009F4A92219C4801F0C5F8994B9E4A4121A1
:1023E000994801F0BFF800239A46984600207B6880
:1023F000BFF35F8F00221A6086F310884346002BDC
:1024000032D1002800D10CE100F046FB02000B1E87
:10241000A7DB00200021069007917868EFF3108673
:1024200072B601680029FCD0BFF35F8F3968884617
:102430004C7B002CD7D09AD0097B8C4297D8874907
:1024400065182D01B9688C46654428686968801A4A
:102450009941002991DD2A686B68099800F070FBAA
:1024600000239A469846C2E7089B1B0223439946DD
:1024700051461800C04705000E007A68EFF3108B34
:1024800072B6136859424B41D9B2002BF9D1BFF350
:102490005F8F002E1EDB002E46DD3B69002B47D0F0
:1024A0004B456DD100F0F8FA02000B1E6EDB52199D
:1024B0007341002B70DB002B72DB00210491013192
:1024C0000391029451460191414600913800FFF773
:1024D0007FFE4CE03B69002BDDD04B4514D1069AC2
:1024E000079B521BB341002B14DB002B16DB002192
:1024F00004910131039102945146019141460091AA
:102500003800FFF765FE32E0554B514AA1214E4895
:1025100001F028F801225242524BE6E7454B464A69
:102520003F21464801F01EF8002E01D1002DB4D104
:102530003B68002C50D05A7B944237D101210029AE
:102540004AD1DA7B002A4DD19A7B002A03D1DA7B6B
:10255000002A5AD19C73DC73002C5CD03B681B7B37
:102560009C4258D8FA68013C135D0133135500238F
:102570003B617A68BFF35F8F13608BF3108843E78A
:10258000374B334AA421304800F0ECFF294B2A4A4C
:102590003F212A4800F0E6FF01225242314B8AE7F0
:1025A000244B254A3F21254800F0DCFF002C0DD0AC
:1025B0001A7B94420AD862001219033A18688446BA
:1025C00062449278002ABAD00121B8E7264B274A04
:1025D0006821274800F0C6FF264B274AF6212448E9
:1025E00000F0C0FF002A0AD0197B8A4207D85100A8
:1025F0008A18033A19688C4662445470A4E71A4B4F
:102600001A4A68211A4800F0ADFF1C4B1A4AFB21F8
:10261000174800F0A7FF0A4B0F4A41210A4800F073
:10262000A1FF0BB0F0BCBB46B246A946A046F0BD28
:102630008420002028C0001054C3001044C00010A3
:1026400068C1001088C3001020C1001058C20010DB
:102650006CC3001070C20010ACC30010FFFFFF0F6E
:102660007CC20010FFFFFF7F8CC10010F4C300107C
:10267000A8C10010B8C20010C0C30010DCC2001016
:1026800010B50C4B5B68002B04D00A210A48FFF7F9
:1026900081FC10BD074C2300084A1021206800F07F
:1026A0008DFB032000F0ECF903212000FFF7ACFCC8
:1026B000EBE7C0464C0C00204425002071200010A0
:1026C00010B5064B5B68002B01D0044810BD044BCD
:1026D000044A5E21044800F045FFC0464C0C00202F
:1026E000F0C2001094C3001020C10010F0B5DE4607
:1026F00057464E464546E0B58BB0804616001F0053
:10270000149B9A46159B994616AB1B789B461F2334
:1027100002AA9446634400221A702BE0002809D0D4
:1027200042461268127B904204D8421E4146C96854
:102730008A5C41E0404B414A4121414800F012FF90
:1027400007984CE0361BAF41002F07DB002F11DA52
:102750003C4B3D4A3F213D4800F004FF01267642B4
:102760003B4FF3E7374B384A3F21384800F0FAFE39
:10277000002F4FDB43465A68EFF3108472B613689C
:1027800059424B41D9B20791002BF8D1BFF35F8F6B
:102790001F3302AA944663440493002303930293D5
:1027A0004B4601935346009332003B004046FFF7EF
:1027B0000FFD031EB2D1020041464968BFF35F8F8F
:1027C00000250D6084F31088002B29D01F2302A957
:1027D0008C4663441B78002BB2D112021043002BAD
:1027E00020D05B46002B1DD04946D04704000D0089
:1027F00003000B431DD00029A4DB00F04DF90600B7
:102800000F1EAFDB36196F41002FB1DA0126764279
:102810000F4FADE70B4B0C4A3F210C4800F0A2FED6
:10282000012040420BB0F0BCBB46B246A946A046D0
:10283000F0BD0798F6E7C04668C10010ACC30010B1
:1028400020C1001028C0001054C3001044C0001064
:10285000FFFFFF7FF8B504004268EFF3108572B602
:10286000136858424341D8B2002BF9D1BFF35F8FB0
:10287000CBB22268567BB3421BD10120002848D03E
:10288000206988422BD0090AC9B2002B2ED02068BB
:10289000007B83422AD8581EE668305C88422BD0E1
:1028A00000206368BFF35F8F00221A6085F31088F1
:1028B000F8BD002B0DD0167BB3420AD85E00F61887
:1028C000033E1768BC466644B678002ED6D0012079
:1028D000D4E7134B134A6821134800F043FE9521B7
:1028E000124B134A4900134800F03CFE124B134AA6
:1028F0004121104800F036FE1900100000F058FB8E
:102900000028CED132210E4B094AFF31094800F090
:1029100029FE23698B42C4D100232361C1E7C0464D
:102920008CC10010F4C30010A8C1001014C3001023
:102930003CC3001020C1001068C10010ACC30010DF
:1029400038C3001070B584B005000C00EFF30583A8
:10295000002B1ED1FFF7B4FE002302930193224BFC
:1029600000932A002300FFF7C1FE061E23DD20BFCF
:10297000FFF7A6FE3100FFF76DFF1C4B5B6A9C4220
:102980002DD81A4A926AAA422CD29C4225D0012004
:1029900026E0164B5B6A994209D8144A926A824231
:1029A00007D2994201D001201AE0002018E000204F
:1029B00016E0012014E00D4B5B6A9C4209D80B4ADB
:1029C000926AAA4207D29C4201D0012008E000206E
:1029D00006E0002004E0012002E0002000E00020EA
:1029E00004B070BD0120FBE7492000100040054005
:1029F00070B5EFF305801038EFF3108C72B61A4BF8
:102A00001B68002BFBD0BFF35F8F012213008340B4
:102A100016494B6316490B60164909780C00C440EF
:102A2000224214D0114A546A8200134D52599442E2
:102A300006D38200114C125999430E4B197007E0CE
:102A40000A4A031D9B0099589950002200E0002279
:102A5000BFF35F8F044B002119608CF31088002AAC
:102A600000D0904770BDC046280100D0004005400E
:102A70003C700540A926022048250020EC1A0020C1
:102A800010B50100024A0348FEF7D0FE10BDC04653
:102A900018C40010A7260220044B5B6A034A906A00
:102AA0001900536A9942F9D17047C0460040054069
:102AB00070B504000D00EFF3108672B61B4B1B6857
:102AC000002BFBD0BFF35F8F002D1CD02000FEF742
:102AD000A5FF174B83420BD019002000FEF7A6FF7D
:102AE00001212000FEF792FF0123A340114A136049
:102AF000A400114BE550BFF35F8F0C4B00221A600E
:102B000086F3108870BDA2000B4B0021D15001222A
:102B1000A2400A490B7893430B7005492000FFF748
:102B2000C9F800212000FEF771FFE4E7280100D07A
:102B3000F129001038600540EC1A0020A926022077
:102B4000F0B5DE4600B584B00400150001921E0009
:102B50000293FFF7A1FF03958E4202D84ED1854222
:102B60004CD9EFF3108B72B6274B1B68002BFBD0B0
:102B7000BFF35F8F254A17780125A540EBB23B4391
:102B80001370234B5D63221D92000199D150A20066
:102B90002049029850501B6A2B4212D11C4B1B6CCF
:102BA0002B4208D00020BFF35F8F174B00221A6022
:102BB0008BF3108823E0184B184AC521184800F001
:102BC000D1FCFFF769FF8E4214D802D1039B8342E8
:102BD00010D80E4B1B78BB420ED00D4B1D625D63AF
:102BE0001F2004400123A3400E4A1360074B1F70AF
:102BF0001E38D8E70020D6E70120D4E7012004B032
:102C000080BCBB46F0BDC046280100D0A9260220EA
:102C100000400540482500203CC40010B0C400100E
:102C200060C4001080E200E0EFF3108C72B60B4B32
:102C30001B68002BFBD0BFF35F8F01238340084A42
:102C4000136208490A789A430A70BFF35F8F034BF7
:102C500000221A608CF310887047C046280100D00B
:102C600000400540A926022010B500291ED0037B94
:102C700099421BD84B005B18033B0468A44663448D
:102C8000002919D0002A1DD0914221D0002A25D038
:102C9000047BA24222D80468500080180338201810
:102CA0008170197800291FD11A7010BD104B114A7C
:102CB0006821114800F056FC104B114A6F310E4844
:102CC00000F050FC0F4B0E4A70210B4800F04AFCFC
:102CD0000D4B0B4A7121084800F044FC044B054A97
:102CE0006821054800F03EFC41701A70DDE7C046DF
:102CF0008CC10010C8C50010A8C1001000C200108F
:102D0000B4C500100CC2001018C2001070B5060047
:102D10000D001400002914D0002A14D080687368B4
:102D20009847002806D0220029003000FFF79CFFBA
:102D3000280007E02A0021003000FFF795FF20005F
:102D400000E0100070BD0800FCE7000010B5002393
:102D5000437301338373037BC3730123027B9A4262
:102D600014D9002B0CD0027B934209D85A00D218F8
:102D7000033A01688C4662440133DBB25370EDE7DD
:102D80000B4B0C4A68210C4800F0ECFB002A09D0E0
:102D9000924207D8016853009A18033A8A18002310
:102DA000537010BD024B034A6821034800F0DAFB60
:102DB0008CC10010C8C50010A8C1001010B5017367
:102DC00042608360FFF7C2FF10BD000070B50400D1
:102DD000081E00D170BD002934D0237B994231D820
:102DE0004B005B18033B2268944663445A78002AE0
:102DF000F0D02DD0237B9A422AD853009B18033B56
:102E000021688C4663445D7800215970002825D0E4
:102E1000237B984222D843001B18033B21688C4631
:102E200063440021597001002000FFF76FFF060086
:102E300029002000FFF7CAFF020031002000FFF741
:102E400065FFC7E7084B094A6821094800F08AFB7B
:102E5000054B064A6821064800F084FB024B034AF2
:102E60006821034800F07EFB8CC10010C8C500102B
:102E7000A8C1001070B505000C00160000292FD065
:102E800034D0037B994231D84B005B18033B026876
:102E9000944663445A78002A2ED19A78002A31D178
:102EA0001978FFF793FF0300002E0AD0EA7B002A6F
:102EB0002ED1AA7B002A03D1EA7B002A3BD1AC7336
:102EC000EC73002B3DD1002C4FD02B7B9C424CD877
:102ED0002B6861000C19033C1C190023637070BD42
:102EE000254B264A3821264800F03CFB254B264A34
:102EF0006821264800F036FB254B204A3A2120481D
:102F000000F030FB234B1D4A3B211D4800F02AFBFB
:102F1000002A0AD0297B8A4207D851008A18033A2E
:102F200029688C4662445470C3E7164B164A6821E0
:102F3000164800F017FB184B104A4221104800F0C9
:102F400011FB002B0BD02A7B934208D843001B189F
:102F5000033B2A689446634400229A70B3E7094B06
:102F6000094A6821094800F0FDFA064B064A682123
:102F7000064800F0F7FAC046CCC40010A0C5001007
:102F8000D4C400108CC10010C8C50010A8C1001026
:102F90001CC5001044C50010DCC2001070B5040050
:102FA0000A00457B2900FFF765FF6073280070BDAC
:102FB00070B50400002967D0437B8B420ED00029F6
:102FC00011D0037B99420ED84B005B18033B02687B
:102FD000D0188378002B0CD1002056E00121FFF798
:102FE000DDFF012051E0294B294A6821294800F0E2
:102FF000B9FA002B20D0227B93421DD85A00D31857
:10300000033B2268D2182568EB5C8B421AD0002B58
:103010001BD0227B934218D85A00D318033B226856
:10302000D21853788B4216D0002BF0D11A4B1B4A82
:103030006B211B4800F096FA144B154A682115487D
:1030400000F090FA4378137007E0104B104A6821A3
:10305000104800F087FA4378537000238370437060
:1030600001222000FFF706FF0200617B814205D0AC
:103070002000FFF74BFE6073012006E0094B074A72
:103080007121074800F06EFA002070BD8CC100105D
:10309000C8C50010A8C1001024BF001088C50010CA
:1030A000D4C4001068C5001070B504000D000620DF
:1030B00000F07EF9C000290001F008FCC60908D024
:1030C0000E4B9E4217D87F2318400130350046082A
:1030D00000E001256562A6622C3480208001044353
:1030E00000232360062000F063F98000A9018919FC
:1030F00001F0ECFB70BD0026014DEBE7FEFF000088
:10310000FFFF0000002909D00A22064B9C466044BC
:10311000434258414000044BC25270478022520043
:10312000F3E7C0460080FCBF5825002070B50500BD
:103130000C00062000F03CF9002829D0164B9D42D7
:1031400027D08022D203154B1A60154B1A60154BFD
:103150009B6811009943FAD100212800FFF7D2FFA4
:1031600021002800FFF7A0FF2C002C34E96A602220
:103170004A406E21114080225201224311600A4BC5
:103180002B6380239B01234310221A600323AB642B
:1031900070BD80221204D6E70080034000E00040AA
:1031A00000F0004000C0004001030000F8B5DE461A
:1031B00057464E464546E0B505000F0092460A9A2E
:1031C00093424ED31A0E91461E020A9A00233000F3
:1031D000494601F0B9FB80466C006419A4002F4BEE
:1031E0009C4664446368834200D260602B1FDBB25C
:1031F0009B46012B3BD9C0239B0123438022120114
:103200001A60AB00264A9958002905D0506901F090
:103210005DFB01300138FDD153465A0123685A4005
:10322000E0231A4080235B0123431A605A46012A97
:1032300028D980239B012343802212011A60434630
:103240006360424600233000494601F07DFBAD003B
:10325000134B58510120F0BCBB46B246A946A046CC
:10326000F8BD104B104A2D21104800F07BF9012FBA
:10327000C1D1C0239B01234303221A60A368DB074B
:10328000FCD5C9E72168794003220A401A60A26888
:103290000123BB401342FAD0CBE7C0460080004078
:1032A000081C0020D4C500103CC60010E8C5001062
:1032B00030B583B00C2000F017F9FEF797FA00281C
:1032C0000DD0002304E099002D4A2E488850013388
:1032D000092BF8D92A4B2C4A5A6203B030BD2B4B2C
:1032E00000229A6700F008F9294B01221A60274B47
:1032F0005B6C012BFBD1274B03221A60234B9B6B8A
:10330000012BFBD1013300930433234A01212348CD
:1033100000F054F805230093214A0121214800F0D0
:103320004DF8214B0093002202210420FFF73EFFBD
:103330001E4D00952B00002201210520FFF736FFCE
:10334000104C00942300002200210720FFF72EFFDD
:1033500000942300002200210820FFF727FF0A4BDA
:1033600000932300002200210920FFF71FFF009592
:103370002B00002200210620FFF718FFADE7C04612
:10338000081C0020006CDC021BB70000008000401D
:103390003CB0004030B00040002F6859008002402F
:1033A000008C864700C00240001BB70040597307DD
:1033B0008000014BC0587047081C0020F0B5C6467D
:1033C00000B504000D00170098460C2001F07EFAAD
:1033D0000600394BFA18394B9A4241D843011B1A5F
:1033E0009901C91AC90009188901380001F06EFA5B
:1033F0000200103A98235B009A4237D84346013BBB
:10340000062B39D8069B013B062B35D83F09B7421E
:1034100038D343461E04069B1A0316432368002B29
:1034200036DB274B9C4244D080225201254B1A6048
:10343000254B1A60254B9B6811009943FAD12560F2
:10344000A060231DC02292011A4321231360236828
:10345000002BFCDAE6600823136080BCB846F0BDA0
:103460001B4B1C4A11211C4800F07CF81B4B194ACD
:103470001921194800F076F8194B164A1C211648F4
:1034800000F070F8174B134A2321134800F06AF834
:1034900022683F231340AB42C3D1A3681B051B0D19
:1034A0008342BED1E368EE22D2021340B342B8D1C8
:1034B000D3E780229201B9E780E84BD380F8A932A4
:1034C00000C0024000E0004000F0004000C00040AA
:1034D0004CC600107CC70010ACC60010F8C6001027
:1034E00014C7001060C7001080239B000343014AEB
:1034F000D362704700800540064BAA2212011A6071
:103500002F22DA60044B054A1A60024B5B68002BDD
:10351000FBDA7047004002400060024000B0FA0051
:1035200000BEFDE703000A4A1268002A08D0084AD4
:103530001068C318074A9A4206D3054A13607047B9
:10354000034A05491160F2E701204042F7E7C0460F
:103550007C1C002000000420AC26022010B5FFF7E0
:10356000DFFF000010B582B00C001900002A0CD05B
:10357000084B002A0BD0019200932300020006485A
:1035800002F026FA0120FFF7CBFF044BF1E7034AD4
:10359000F1E7C04688C7001098C70010BCBA0010F9
:1035A00070B52B4B2B4A1A602B4B2C4A1A602C4BB4
:1035B0009A682A4B9343FAD12A4C01E008CC9847E9
:1035C000294B9C42FAD3FFF773FE234B274A1A601C
:1035D000234B9B68DB43DB01FAD1254B40229A67E2
:1035E0005A671A67DA66234C09E0234B234A86217F
:1035F0002348FFF7B7FF2000FEF7D4FC0834214B27
:103600009C4209D22368002BF5D0012BEDD120007C
:10361000FEF7D6FC0C34F2E71B4CA1681B4DC02210
:10362000280002F07DF8A560EFF30583002B00D0A1
:1036300000BEFEF73DF9FEF79FFCFFF721F8144CA2
:1036400001E008CC9847134B9C42FAD370BDC046AA
:1036500000E00040BFCDFBFE00F00040FE7F3C00DC
:1036600000C000403815002048150020FFFFFF0172
:1036700000F0014028150020C8C700105CC80010E9
:10368000E8C700103815002000ED00E00000002021
:1036900048150020541500200FB400B583B0084829
:1036A00002F066F9049B002B07D005A901911800D0
:1036B00002F06EF9034802F05BF90120FFF730FFDA
:1036C00038C8001048C8001010B50148FFF7E4FFE3
:1036D0004CC80010704710B5002802D00B6849682C
:1036E000984710BD0100002007E083001B185B0015
:1036F000501C08601078C01830380A681378303BC6
:10370000DBB2092BF1D97047F0B5DE4657464E467D
:103710004546E0B583B093461F000C9B9A460D9C2E
:103720000E9B99460F9B9B0703D0B8460F000600DF
:1037300022E00192A34688464E46B9460700B442AD
:1037400007D2551C4B4641462020B84701342A0079
:10375000F5E73D004F465C46019B9B46B146464619
:10376000B84637002E0007E0013C551C5346185D53
:1037700043463900B0472A00002CF5D135003E0001
:1037800047460F9B9B0707D4100003B0F0BCBB4615
:10379000B246A946A046F0BDB0464E46B9462F00F7
:1037A0005D46531BB342EFD2541C4B46414620208A
:1037B000B8472200F5E7F0B5CE46474680B585B05C
:1037C000944698460C9D0D9C0EAB1B789946109A1A
:1037D000119B129EB7071CD4002B0CD0F7070AD5FB
:1037E0004F46002F02D10C37374204D0013B02E094
:1037F00030272F550134944201D21F2CF8D9F707F6
:1038000007D59C4205D21F2C03D830272F550134F1
:10381000F5E7F70615D5770505D4002C03D09442BB
:1038200024D09C4222D00F9A102A2BD00F9A102A13
:1038300030D00F9A022A35D01F2C02D830222A55B8
:1038400001341F2C05D84A46002A31D02D222A5592
:103850000134039602930194009543466246FFF7B4
:1038600053FF05B0C0BCB946B046F0BD621E012C86
:1038700006D00F9F102F01D01400D4E7023CD2E7EE
:103880001400D0E7B206D1D41F2CCFD878222A5505
:103890000134D1E7B206CCD51F2CCAD858222A55FC
:1038A0000134C9E71F2CC7D860322A550134C3E759
:1038B000720703D52B222A550134CAE73207C8D52F
:1038C00020222A550134C4E7F0B5DE4657464E465D
:1038D0004546E0B593B081468A46089209931CABF1
:1038E00010CB1B789B461E9D219B9846002C03D134
:1038F000102342469A4390468023DB0046461E40F2
:1039000042461A4212D0002C22D000260EE030335C
:10391000D9B2771C0AAB99552900200000F0D6FFD8
:10392000AC4216D31F2F14D83E00040029002000FB
:1039300000F0CCFFCBB2092BE9D94246920605D55F
:103940004121C918C9B20A39C9B2E2E76121F8E7D1
:10395000270043460693209B05931F9B04930395E2
:103960005B46029301970AAB0093099B089A514664
:103970004846FFF720FF13B0F0BCBB46B246A9464D
:10398000A046F0BDF0B5DE4657464E464546E0B58A
:1039900095B0089009910A920B931E9E1F9C20AB34
:1039A0001B789B46229B9946239D269B9A46330073
:1039B000234303D1103352469A4392468023DB00BF
:1039C00057461F4052461A4219D0330023432DD088
:1039D000002714E03033DAB27B1C98460CABDA5582
:1039E0004A462B003000210000F0AEFFA5421FD850
:1039F00019D043461F2B1BD8474606000C004A46E9
:103A00002B003000210000F09FFFD3B2092BE1D939
:103A10005246920605D54122D218D2B20A3AD2B203
:103A2000DAE76122F8E7B145E3D901E000239846DF
:103A300053460693259B0593249B04934B4603937F
:103A40005B460293434601930CAB00930B9B0A9A8F
:103A500009990898FFF7AFFE15B0F0BCBB46B24617
:103A6000A946A046F0BD0000F0B5DE4657464E46DA
:103A70004546E0B591B083468A460C9298461A9C1A
:103A800008941B9D099522002B002000290001F0BD
:103A9000E6F9002800D0E5E001225242D74B200091
:103AA000290001F0D7F9002800D0DBE001225242C2
:103AB000D34B2000290001F0B7F9002800D0D1E055
:103AC00000220023089E3000099D290001F0ACF976
:103AD000002800D0DDE0089809990690079180231E
:103AE000DB001E9A1A400D921E9A1A4201D106233B
:103AF0001C930698079904000D000A000600024373
:103B000000D1D1E0080D4005400DBE4CA4466044F4
:103B10000A03120BBC4B13431F0001F0B3F9BB4A5D
:103B2000BB4B01F03EF9BB4ABB4B01F013F904005B
:103B30000D000022B94B3000390001F002F9B84AFB
:103B4000B84B01F02EF902000B002000290001F013
:103B500001F901F0AFF9814601F094F904000D007C
:103B6000B14AB24B01F01DF90022B14B01F0F2F85D
:103B700001F0A0F90600AF4AAF4B2000290001F088
:103B800010F904000D00300001F07CF9AB4AAC4B99
:103B900001F007F902000B002000290001F0D1F824
:103BA00004000D0002000B0001F0FBF80A900B91DD
:103BB000A44BF31800261F0522002B00200029002B
:103BC00001F0C8F80E900F9122002B0000208021F8
:103BD000C90501F0B6F804000D0000229A4B0A98BE
:103BE0000B9901F0C0F80022984B01F0B3F80200E5
:103BF0000B000A980B9901F0B6F80022944B01F0E3
:103C0000A9F802000B000A980B9901F0ACF8020029
:103C10000B002000290001F09DF802000B000E9817
:103C20000F9901F0A0F80022774B01F093F83200D1
:103C30003B0001F0B6F806000F0004000D00069AE4
:103C4000079B01F007F9002830D001235B429C4616
:103C5000E14400227D4B3000390001F084F804007B
:103C60000D0023E01E9B04931D9B03931C9B02935A
:103C7000089A099B0092019343460C9A5146584674
:103C800000F0FCF811B0F0BCBB46B246A946A04615
:103C9000F0BD0023002406930794069680231B069C
:103CA0009C46654407951AE7002399464B466333C3
:103CB000C62B1ED804261E9B1B0526D52B0023438E
:103CC0000FD0644A644B0698079901F0BBF80028AE
:103CD00079D00022614B0698079901F0A5F80028D9
:103CE00071D01C9B4B4506DD4A46981A431E1C9317
:103CF00003E00526DFE700231C938023DB001E9AE8
:103D00001A431E920026002399461D9B9E4264D2B0
:103D10009F1B02231E9A1A400A921E9A134202D037
:103D2000002E00D000274B46002B07D022002B008E
:103D30000698079901F017F80690079100220023D2
:103D40000898099901F070F8002848D1444B1E9A50
:103D50001340049303971C9B0293069B079C0093BC
:103D6000019443460C9A5146584600F087F8002EBD
:103D700000D187E71E9B9B063DD54525441C434645
:103D8000020051462800D8474B46DA179B1853408B
:103D900005220592013E0496002203920A32029205
:103DA0004A46D00F019000934346220051465846A0
:103DB000FFF78AFD0A9B002B00D163E702005F46F4
:103DC0000C9E1D9D54E01C9B002B9ED00D9B002B38
:103DD0009BD01C9B013B1C9397E7002799E7069C0F
:103DE000079D2200290080200006844661440B00C4
:103DF00006920793AAE76525C0E7C046FFFFEF7F5D
:103E0000FFFFEFFF01FCFFFF0000F03FFB799F5039
:103E10001344D33FB3C8608B288AC63F0000F83FE5
:103E200061436F63A787D23F71A379094F930A401B
:103E30000000E03F1655B5BBB16B0240EF39FAFE0A
:103E4000422EE63FFF03000000002C40000024400B
:103E5000000018402D431CEBE2361A3F80842E41AF
:103E6000FFF7FFFF541C434651462020B84722006D
:103E7000931BAB42F6D3100004E7C046F0B5DE4614
:103E800057464E464546E0B595B006900791934695
:103E90009946209F1E9A1F9B1000190000F0DFFF1B
:103EA000002831D101225242BF4B1E981F9900F0C9
:103EB000BBFF002837D101225242BC4B1E981F99EC
:103EC00000F0C8FF00283DD10022B94B1E981F9971
:103ED00000F0C0FF002850D10022B64B1E981F9959
:103EE00000F0A2FF002848D1002200231E981F994D
:103EF00000F09AFF002850D100239846229B5B05D2
:103F000000D4B6E0002458E0229B0393219B029347
:103F100003230193A84B00934B465A4607990698F2
:103F2000FFF7F2FB0EE1229B0393219B02930423F4
:103F30000193A24B00934B465A4607990698FFF708
:103F4000E3FBFFE00423229A1A4022990B4210D08F
:103F50009B4B002A0FD004222299039121990291B0
:103F6000019200934B465A4607990698FFF7CCFBFF
:103F7000E8E0944BEDE70322EEE7229B0493219BBC
:103F8000039302971E9B1F9C009301944B465A4635
:103F900007990698FFF768FDD4E01E9A1F9B002042
:103FA000002100F0CEFE1E901F9101239846A5E748
:103FB0000CAB30221A55013F01341F2C01D8092FB8
:103FC000F6D81E981F9900F075FF050000F05AFF03
:103FD00002000B001E981F9900F0B3FEFA007A4B06
:103FE0009B181A685B680A920B9300F0DAFE08903F
:103FF000099100F083FF060000F040FF02000B0073
:104000000898099900F09DFE0890099100226F4BD5
:1040100000F020FF00282ED00136300000F02EFFE7
:1040200002000B000A980B9900F004FF002801D051
:1040300001350026002F2CD1280000F023FF0200BC
:104040000B001E981F9900F07CFE06000F00002256
:104050005E4B00F0E9FE002846D100225B4B3000A9
:10406000390000F0F7FE00283ED1EB073CD50135C2
:104070003AE0062746E70022544B0898099900F0D9
:10408000D3FE0028D6D1002E01D0F307D2D50136B9
:10409000D0E7AA461F2C11D8013F0A21300000F0BA
:1040A00015FC651C30310CAB19550A21300000F0AD
:1040B0000DFC092E0ED906002C00EBE755461F2CEF
:1040C0000CD87B1E002F09D00CAA302111551F00DF
:1040D0000134F4E72B0055461C00F0E71F2C03D8F1
:1040E0000CAB2E221A5501341F2C10D80A2128009F
:1040F00000F0C4FB661C30310CAB19550A212800B6
:1041000000F0BCFB051E01D03400EDE734000323B2
:10411000229A1340012B1CD01F2C06D84346002B9B
:1041200032D00CAB2D221A550134229B0393219BD4
:10413000029301940CAB00934B465A46079906989C
:10414000FFF7E2FA15B0F0BCBB46B246A946A0465E
:10415000F0BD219B002B13D04346002B02D10C3322
:1041600013420FD0219B013B2193190003E00CABBC
:1041700030221A5501348C42CED21F2CF7D9CBE70E
:104180002199F8E72199F6E7229B5B0704D50CAB50
:104190002B221A550134C8E7229B1B07C5D50CAB4F
:1041A00020221A550134C0E7FFFFEFFFFFFFEF7F2A
:1041B00065CDCD4165CDCDC178C800107CC800105B
:1041C00070C800106CC8001068CA00100000E03F02
:1041D000F0B5DE4657464E464546E0B593B08246BA
:1041E0008B4690461193002900D1EBE200275546FB
:1041F000119B1878002800D1E7E2252809D07C1C03
:1042000043463A005946A847119B013311932700B2
:10421000EEE7013311930024119A11780B00203B33
:10422000D8B2102803D88300D048C3589F460B004B
:10423000303BDBB2092B2CD92A292FD000230A933B
:10424000119B1A782E2A39D000239A46119A137896
:10425000683BD9B2122976D88B00C549CB589F4606
:1042600001231C4301321192D6E702231C43013281
:104270001192D1E704231C4301321192CCE70823A9
:104280001C4301321192C7E710231C4301321192E3
:10429000C2E711A8FFF726FA0A90D1E71C9B1A1D66
:1042A0001C921868002804DB0A90119B01331193BB
:1042B000C6E702231C4343420A93F6E78022D2005A
:1042C00014435A1C11925A781300303BDBB2092B6D
:1042D00004D92A2A07D000239A46B7E711A8FFF786
:1042E00001FA8246B2E71C9B1A1D1C92186800282E
:1042F00004DB8246119B01331193A7E70020F8E706
:1043000080235B002343511C119152786C2A01D009
:104310001C0018E0C0239B001C430131119112E0E6
:1043200080232343511C11915278682A01D01C002C
:1043300009E0C0231C430131119104E080235B009C
:104340001C4301321192119B18780300253BDAB20D
:10435000532A00D92CE29300864AD3589F468023E3
:104360009B001C4301321192EDE780235B001C434C
:1043700001321192E7E7782809D0582838D06F2801
:1043800038D0622838D010239C430A2600E010263B
:10439000582833D0692803D0642801D00C229443D4
:1043A000630501D50122944369282AD0642828D0C6
:1043B000A30500D59FE0E30500D5B8E0630600D46F
:1043C000CAE01C9A111D1C911168FF220A40059435
:1043D0000A9B049353460393029600230193009291
:1043E00043463A0059462800FFF76EFA070027E0D7
:1043F0001026CDE70826CBE70226C9E72022144382
:10440000C8E7A30520D4E30550D4630666D51C9AFB
:10441000111D1C911168FF220A40D317D118594071
:1044200005940A9B0493534603930296D20F01927C
:10443000009143463A0059462800FFF745FA070025
:10444000119B01331193D3E61C9BDA1D07218A438C
:10445000110008311C91116853689C46DB170C93BE
:104460000D930C9A0D9B100048400E9062465340ED
:104470000F930E980F990C9A0D9B801A99410E90EC
:104480000F9108940A9B07935346069304960023C2
:1044900005936346DA0F02920090019143463A0079
:1044A00059462800FFF76EFA0700C9E71C9A111D4C
:1044B0001C911268D317D118594005940A9B049394
:1044C000534603930296D20F0192009143463A005D
:1044D00059462800FFF7F8F90700B1E7230605D58C
:1044E0001C9A111D1C910023D25E96E71C9A111D87
:1044F0001C91126891E71C9BDA1D07218A43110069
:1045000008311C9108940A9B07935346069304961E
:104510000023059302931368546800930194434663
:104520003A0059462800FFF72DFA070088E71C9A41
:10453000111D1C9105940A9B049353460393029604
:10454000002301931368009343463A00594628001C
:10455000FFF7BAF9070073E723060DD51C9A111D62
:104560001C9112681204120C31E7C04684C8001076
:10457000C8C8001014C900101C9A111D1C911268A3
:1045800025E746281AD01C9B0733072293431A00BD
:1045900008321C9204940A9A0392524602925C6872
:1045A0001B680093019443463A0059462800FFF7E0
:1045B00065FC0700119B0133119319E620231C436E
:1045C000E1E7672801D0472802D180231B011C4363
:1045D000452801D0472801D120231C431C9B0733C9
:1045E000072293431A0008321C9204940A9A0392F9
:1045F000524602925C681B680093019443463A005D
:1046000059462800FFF730FA0700119B0133119338
:10461000EEE502231A002240924623421FD00124D5
:104620001C9B1A1D1C927A1C9146187843463A002E
:104630005946A8475346002B16D1119B01331193BD
:104640004F46D5E5561C434659462020B84723001F
:1046500032005C1C9D42F5D83D001700E0E70123C5
:104660003A002F000A9DF4E74A46A9460A9D06E053
:10467000571C434659462020C84734003A00661C60
:10468000A542F5D84D469146D7E71C9B1A1D1C92B2
:104690001B6899465346002B00D1013B4E4601E072
:1046A000013613003278002A02D05A1E002BF7D1AF
:1046B0004B46F21A10928023DB0026001E401C425B
:1046C00003D0524501D95346109302231A002240C9
:1046D0000B92234205D03A0037004C46A946554676
:1046E00020E03A00109B5F46B3462E0006E0551CC2
:1046F000434639002020B04723002A005C1C0A9959
:104700009942F4D835005E46BB46109437004C46BB
:10471000A946554606E01D000134561C434659463D
:10472000C84732002078002804D0002FF4D06B1E38
:10473000002DF0D117004D460B9B002B03D1119B90
:104740000133119354E50A9F109B06E0561C434623
:1047500059462020A847230032005C1C9F42F5D810
:104760001700ECE721231C431C9B1A1D1C921B689D
:104770000093059408230493534603931023029354
:104780000023019343463A0059462800FFF79CF85E
:104790000700119B013311932AE57C1C43463A0024
:1047A00059462520A847119B0133119327001FE587
:1047B0007C1C43463A005946A847119B013311938C
:1047C000270015E50A4B9A4610E5AA46474502D34D
:1047D00043465A1E00E03A00434659460020D0475F
:1047E000380013B0F0BCBB46B246A946A046F0BDA7
:1047F000D536001000B585B00290039101210093D9
:1048000013004A4202A90248FFF7E2FC05B000BDCE
:10481000D736001001480421014B1847800C0020B6
:104820004548001010B5010018231B881422108879
:10483000984710BD10B5010018231B881622108858
:10484000984710BDF0B5C64600B507000E0000251C
:104850000123984600E00135B5420AD2AC003C196C
:104860002068FFF7DFFF20600028F4D1002398467E
:10487000F1E7404680BCB846F0BD0000124A936F95
:104880009B0815D29066D166002905D0FFE7FFE7A7
:10489000FFE7516F106F704704B580210906C217FA
:1048A0005140002800D0C84307F056F8002104BD4D
:1048B000F0B5146E556E576F166FFFF7E3FF146671
:1048C000556657671667F0BD000000D0114A936F18
:1048D0009B0813D210665166002905D0FFE7FFE759
:1048E000FFE7516F106F704704B5002801D000201A
:1048F000C04307F031F8002104BDC046F0B5146E86
:10490000556E576F166FFFF7E5FF146655665767CC
:104910001667F0BD000000D094464A4A926F920894
:10492000624601D228E0C046F0B5464E346E756E40
:10493000776F366F00F020F89446424A1466556649
:10494000576716676246F0BD94463E4A926F9208DA
:10495000624601D254E0C046F0B53A4E346E756EF0
:10496000776F366F00F04CF89446364A14665566F9
:10497000576716676246F0BD002B24DB11D0002973
:104980003EDA00B5C943404200D1013100F038F8A9
:10499000C943404200D10131DB43524200D10133CF
:1049A00000BD002AEBD1002801D1002905D000204C
:1049B000C90FC90701D1C043410800B506F0BCFFCB
:1049C0000022002300BD00B500290ADBDB43524270
:1049D00000D1013300F014F8C943404200D1013145
:1049E00000BDC943404200D10131DB43524200D1F6
:1049F000013300F005F8DB43524200D1013300BD22
:104A0000002923D1002B18D1002A0CD0BC460D4F11
:104A100038667A6600210023FFE7FFE7FFE77A6F39
:104A2000386F67467047002801D00748010000B57D
:104A300006F082FF0022002300BD02000B000020D0
:104A400000217047000000D0FFFFFFFF002B00D0C7
:104A5000BFE0130C28D1002AE7D080B4114F39668B
:104A60007A66FFE7FFE730B4040C7B6F396F1B04F5
:104A700023433B667A66FFE7FFE7FFE7C04684B261
:104A80007B6F3D6F1B0423433B667A66FFE7FFE7BE
:104A9000C04600232C042D0C7A6F386F0019694131
:104AA000B0BC7047000000D0F0B594460025140E4D
:104AB00001D112020835140F01D112010435940FEF
:104AC00001D192000235D40F01D152000135D40B2F
:104AD0000134254F7C66254C3C660E0C93B2FFE7F3
:104AE000FFE7FFE73C6F6643360C7703BE46734330
:104AF000DF0B5B04C01AB941130C7343DB18C91AEE
:104B0000CE086643360CB64493B273431F0F1B01A5
:104B1000C01AB941130C73431F0B1B05C01AB941CE
:104B2000860D8F023E436643360C092D24DB520A64
:104B30007243801A7703460A6643360C16235B1BC2
:104B4000DE40DF40BF1964466643821B7046043571
:104B500006330100D940A840C01900D30131A24258
:104B600006D20023F0BD0000000000D0FFFFFFFFD1
:104B7000121B0130F3D3F1E709277F1BFE40644687
:104B8000A2B27243801A00D20139220C7243130C74
:104B90001204821A99410B00704604351337010044
:104BA000F940A840801900D30131002B02D1A24264
:104BB0000AD2F0BD013000D30131121BFAD2013B01
:104BC000F8D1A24200D2F0BD013000D30131121B56
:104BD000F7E7F0B51C0C00D080E00CB400251C0AEF
:104BE00004D11B02160E3343120208351C0B04D1EC
:104BF0001B01160F3343120104359C0B04D19B009B
:104C0000960F334392000235DC0B02D192185B41C0
:104C100001351C00971864410134464F7C66464CB0
:104C20003C660E0CFFE7FFE7FFE7C0463C6F6643BC
:104C3000360C7703BE4697B27743C01B00D20139CA
:104C4000C01B00D201399FB27743C91BC91B170C87
:104C500077437E04FF0B801BB941CE086643360CB8
:104C60000C2D33DBB644120B1F053A431B0B97B2D6
:104C70007743C01B00D201399FB27743C91B170C81
:104C800077433E043F0C801BB941860D8F023E43A3
:104C9000664329277F1BFE400C3D7746AF40BF1976
:104CA00030BCA2B2ABB272437343801A9941220C5A
:104CB0007243130C1204801A994102000B00013751
:104CC000001BA941F9D2781E0021F0BD0C277F1BE3
:104CD000FE4077467F0BAF40FF19E0E700245D1CE4
:104CE00007D0144F7D663966FFE7FFE7FFE7FFE770
:104CF0003C6F95B29EB265436643401BB141150CB3
:104D00001E0C6543664336042F0C3E432D04401BA6
:104D1000B141994204D202000B0020000021F0BDF5
:104D200001D19042F7D3801A994101349942F2D3CC
:104D3000F6E70000000000D0FFFFFFFF48404140C1
:104D4000484018B41B4B5B68FC46019308BD04DF68
:104D50001750001018B4174B1B68FC46019308BD90
:104D600000DF215000109446134A926F920809D236
:104D7000624618B40F4BDB68FC46019308BD0CDF9C
:104D8000D95200100C4AF0B5146E556E576F166F5D
:104D90006246FFF7EEFF084A1466556657671667C6
:104DA000F0BD18B4034B9B68FC46019308BD08DFB7
:104DB0007D51001040230020000000D0FFB550407E
:104DC0004240504059404B40594000E0FFB5154F1C
:104DD0004C00640D03D0BC4204D10C0314D8002055
:104DE000090D09055C00640D03D0BC4204D11C030D
:104DF0000AD800221B0D1B0501264B4009D44B404D
:104E000003D58B4200D18242FFBD9942FCD1904232
:104E1000FFBD0B43DB1803431343F5D0C9434918C7
:104E2000FFBD0000FF07000000B5FFF7CFFF804186
:104E300000BDC04600B5FFF7C9FF01D9002000BD85
:104E4000012000BD00B5FFF7B9FF01D9002000BD6A
:104E5000012000BD00B5FFF7B1FF804100BD01207A
:104E600040054A00121804D85A00121801D8002030
:104E70007047012070470020704700000021002883
:104E800005D17047C1174840401AFAD0C90713B579
:104E9000064B1B6898470CBC441CA2401005120B23
:104EA0000349091B09051943114310BD4024002083
:104EB0001F04000010B54C00620D8023D218DB00E7
:104EC000D21A5B057E2A10DD9E3A13DACC1709034D
:104ED000490819435242D140640001341532202A56
:104EE00005DAD0400843604310BD002010BD0846DD
:104EF000604310BDC80FC018013810BD18B4044B72
:104F00005B6AFC46019308BD24DF89540010000051
:104F10004023002070B513231C78012C14D0012CE1
:104F200014DC022C02DC1F4A1F4B9A641F48FFF757
:104F300079FC1F4B186070BD99001A481A4A8850B6
:104F400001331F2BF8D9EAE70023FAE71948FFF7E6
:104F500071FC05001848FFF76DFC023803789B00D0
:104F60007F2B19DD802229000F4800F0D9FB022C8D
:104F7000D7D1124B1A88B5231B029A4209D1104B84
:104F80001A88104B9A4204D10F4B1A880F4B9A4241
:104F9000C7D00020FEF780FB0D4B0E4A32210E4891
:104FA000FEF7E0FADD4F0010402300204C330000F4
:104FB00040240020534400005346000054380000B1
:104FC000D8380000494600009C38000059460000CF
:104FD000B8CA001070CB001018CB001007B560469F
:104FE000002800D100BE01880A0A0230DF2AFAD167
:104FF000C9B2820804D3028840880004104300E04C
:105000000068024A5050039007BD00004023002072
:105010000FB403BC0CBCF0B50124E407634000E00E
:10502000F0B50C0DCF0F661E3605891B640503D342
:10503000C943404200D30131640D03D0661CF60A17
:1050400007D0E41B00207F00791C89078912803C6F
:1050500024031D0DDF0F6E1E36059B1B6D0503D34C
:10506000DB43524200D301336D0D03D06E1CF60AB0
:1050700007D0ED1B00227F007B1C9B079B12803D0D
:105080002D032F1B661B58D4A446202E46DA20374A
:105090001400BC401D00BD40F24033412A4380183B
:1050A0005941CB0F05D0C943C0430022644250414F
:1050B000514162464D0D28D10D0D07D100281FD05A
:1050C000241940414941013A0D0DF9D0640006D33D
:1050D000013000D30131002C01D140084000013AD9
:1050E0000BD4941CE40A04D112051144DB071944C3
:1050F000F0BDD907204B194300E0D9070020F0BDCF
:105100000029DDD1002CDBD1F0BD0132C6074008FB
:10511000CD0728434908002EE1D0D9E73C2E29DAF3
:10512000203E40371400BC4000D00124F24014431C
:105130001A00BB401C43D317ACE7AC46202F08DA5B
:1051400020360400B4400D00B540F84039412843F2
:10515000A5E73C2F0CDA203F40360400B44000D0D5
:105160000124F84004430800B1400C43C117EAE7AA
:1051700010001900002494E70000F07FF0B50C0D3A
:10518000661E3605891BE60A6405640D02D0651C9F
:10519000ED0A04D0002001210905803C2403A44627
:1051A0001C0D671E3F05DB1BE70A6405640D02D07A
:1051B000651CED0A04D0002201231B05803C24035A
:1051C0007740644497B484B296B27443070C7E432C
:1051D000150C6F4380B26843361802D301200004D7
:1051E0003F183004350C00197D41844688B29AB2CC
:1051F00050430C0C62431F0C7C438EB27E439219C9
:1052000002D301263604A4191604170C3618674178
:1052100001BC81B29AB25143040C62431B0C5C4343
:1052200080B25843121802D301200004241810043D
:10523000130C401863412D185E410020474106BC05
:1052400088B293B258430C0C6343120C544389B296
:1052500051435B1802D301210904641819041A0C84
:10526000091862416D1856410020474118BCF902E7
:10527000720D1143F0026A0D1043ED020A0D03D1C5
:105280006D1940414941013B124E9B1B7600B342D0
:105290000ED26D0007D301300026714166463543BA
:1052A00001D1400840001B05C918E4072144F0BDA6
:1052B0000BDA013306D1013004D101314F0D01D099
:1052C0004908F2E7E1070020F0BD01363105002072
:1052D000EBE70000FF030000F0B51C0D671E3F0563
:1052E000DB1BE70A6405640D02D0661CF60A04D0D5
:1052F000002201231B05803C2403D0252D06002617
:10530000F6432E661E096E66CE0FF619B4464900A6
:105310004F0D02D07E1CF60A03D000200021403F32
:105320003F033E1BB600B444013F7F05C91B49083B
:105330002E6F013676089C02950D25437543ED13BB
:105340007543AD1301356D10F603761B0CB4CC021A
:10535000450D2C43A2B2B3B25A43270C7B43350C04
:105360006F43A4B26C431B1902D3012424043F19D8
:105370001C041D0CA4187D4124196D41009A91B2A2
:10538000ACB26143170C7C432B0C5F4392B25A437F
:10539000A41802D301221204BF182204230C5218AD
:1053A0007B41019C6C431B19520ED9010A434401F5
:1053B000A01A81B2B2B2514303145A43360C73435C
:1053C00087B27743D617D21900277E4136049B193E
:1053D0001704160C7F185E417316ED18F3010026B2
:1053E00080337541A90F06D16400690AE8055B0A9C
:1053F000184309D22FE00422944480337541A90A4E
:10540000A8059B0A184326D3404149412404009A29
:10541000019B0D005543641B4343E41A95B286B2C9
:105420007543170C7E43030C5F4392B25A43B61880
:1054300002D301221204BF183204330C52197B41EB
:1054400052429C41002C02D40022013051414008BC
:10545000CA071043490802B06246D7079210084BAA
:10546000D218084B9A4203D212058918C919F0BD07
:105470000020002A01DC3900F0BD01331905F5E7F1
:10548000FD030000FE070000002200B5203200F0FE
:1054900004F8080000BD000000220B150AD410B566
:1054A000944600F031F81414013400DA0021CB17CF
:1054B000144C20470020002170476244343A0CD439
:1054C0000C2A07DA04009140904052422032D44026
:1054D000214310BDD843D94310BD203207D40C4618
:1054E0009440524220321141D040204310BD080068
:1054F000C917203203D452422032104110BD180087
:10550000190010BDBB5400100A0DCC0F531E1B0513
:10551000C91A520503D3C943404200D30131520D89
:1055200003D0531CDB0A07D0121B00206400611C4F
:1055300089078912803A1203014BD21A7047000082
:10554000FF03000051434343C9188C46110C83B23A
:105550004B4310B4040C614392B280B25043624397
:105560001C041B0C001910BC59411304120CC01868
:10557000514161447047000070B513231D782A48DB
:10558000FFF758F90400012D11D0012D09DDA31EEC
:105590001B789B007F2B40DD80222100234800F0F8
:1055A000BFF82348FFF73EF9224B186070BD542224
:1055B00001001E4800F0B4F81F4B1A881F4B9A4296
:1055C0001CD1A7239B011A881D4B9A4216D11D4B53
:1055D0001A881D4B9A4211D11C4B1A8894239B01A7
:1055E0009A420BD11A4B1A881A4B9A4206D11A4B7F
:1055F0001A681A4B9A4201D1152307E01848FEF7A2
:105600004BF899001748094A885001331F2BF8D9E5
:10561000144A064B1A62DA61B7E7134B134A422168
:105620001348FDF79FFFC046534600004424002066
:105630004C33000040240020EE290000C40F00007D
:10564000C20D0000962B0000C0B50000182B000012
:10565000CC2A000010B50000FC2C000051ED87643E
:10566000BCBA00107556001084CB00100CCC001092
:10567000B8CB001007B56046002800D100BE0188F5
:105680000A0A0230DF2AFAD1C9B2820804D302889A
:1056900040880004104300E00068024A5050039024
:1056A00007BD00004424002070B504000A4E3000FD
:1056B00006F08AF9200005F0E1FC0500300006F054
:1056C00033F9002D05D02C19044B9C4201D8280039
:1056D00070BD0348FDF7E0FF2815002000000420FE
:1056E00020CC001070B50400054D280006F06CF9C0
:1056F000200005F0CDFC280006F016F970BDC0466C
:105700002815002001480421014B1847900C002067
:1057100045480010014B1B6818470000900C002002
:10572000014B5B6818470000900C002010B5030087
:10573000080011001B68984710BD0000F8B507006D
:105740000D001600437D002B02D0002400200CE049
:1057500003681100280098472DE03B7D10E00221EE
:1057600015483B689847601C0134B44214DA002C99
:10577000F3DD2B19013B1B780D3B5A425341DBB241
:105780002A5D0A2AF0D1002BEED1A042E7DA211AD5
:1057900028183B689847E2E7B04203DA311A281824
:1057A0003B689847002E06DDAD19013D2B780D3B77
:1057B0005A4253413B75F8BDA0CC001070B50500AE
:1057C0000368002B16D00C4B1C6805E0290004C9A7
:1057D0002000FFF7B3FF2469002C09D02368002BB9
:1057E000F9D0064B1B68002BF0D0A342F3D1EDE7B4
:1057F00000232B6070BDC046701C0020781C002068
:1058000070B505000C000B68802B05D021684B1C7F
:1058100023606418257170BD0800FFF7CFFFF5E71E
:1058200010B5FDF739F902000B1E0BDB0D48002106
:1058300012184B41002B0BDB002B0DDB0A4806F046
:10584000A3F810BD094B0A4A3F210A48FDF78AFE1A
:1058500001225242084BEFE7044B054A3F2105481D
:10586000FDF780FE40420F003015002028C00010D8
:1058700088CC001044C00010FFFFFF7F10B5024825
:1058800006F052F810BDC04630150020F0B5CE46E7
:10589000474680B583B006000D0090461C00FFF718
:1058A000BFFF81466B1C05D0002C08D0194F1A4B46
:1058B0001C6807E0300005F0CDFE0500F4E7174F47
:1058C000F5E72469002C17D02368002BF9D0144B7E
:1058D0001B68002B01D0A342F3D12A003100200025
:1058E000B8474346002BECD06B46D91D0A230B70FA
:1058F00001222000B847E4E74B46002B07D16B1E7E
:105900009D41E8B203B0C0BCB946B046F0BDFFF758
:10591000B5FFF4E72D570010701C00203D57001014
:10592000781C0020094A01E010331A001368002B8C
:1059300008D08342F8D1002907D1036913600023FE
:10594000036102E0002900D010607047701C002045
:1059500010B5064B1C6801E098472469002C03D061
:105960006368002BF8D1F8E710BDC046701C00201A
:1059700070B5050005F06EFE040000230122010051
:105980002800FFF783FFFFF7E3FF200070BD000052
:1059900070B5A2B004000E00FFF742FF050000231F
:1059A00001933300220001A90848FEF723FF0400F9
:1059B00001A8FFF703FFFFF7CBFF002D02D1200066
:1059C00022B070BDFFF75AFFF9E7C046015800103A
:1059D0000FB400B583B004A901C90191FFF7D8FF46
:1059E00003B008BC04B0184710B500F0F9F8012066
:1059F00010BD0000F0B583B005000E0000240FE0DC
:105A00006B46D91D0D230B700020002816D1936919
:105A10009B06FCD40B78136001300131F5E70134AB
:105A2000B44219DA0D4B1A682F5D0D4BD318594249
:105A30004B415B000B495B5EBB42E1D06B46D91D1D
:105A40000F7000200028EAD193699B06FCD40B78E4
:105A5000136001300131F5E703B0F0BD5C25002093
:105A60000080FCBF58250020F0B583B006000F0071
:105A7000002504E06B4607331B782B702500BD42E0
:105A800015DA174B1A6893691024210019401C423B
:105A90000DD16C1C75196B46D81D0029EAD193698C
:105AA000DB06FCD41368037001310130F5E70D4BC0
:105AB0001B68002B0CD00A4B1A685023936311000B
:105AC0003431536B38221A4080235B010B431A6038
:105AD000002D02D0280003B0F0BD033DFAE7C04618
:105AE0005C250020FC1B002010B5064B1B68002B1A
:105AF00006D0054A126800219163044A106898474D
:105B000010BDC046FC1B00205C250020001C0020AE
:105B100070B504000E001C4B1B681C4A98184242CA
:105B2000504114300500002C03D0194A1268002A95
:105B300006D0002C19D0164B1C60164B1E6070BD91
:105B40001549FBF773FF01212800FBF75FFF0E4BA0
:105B50001A685023936311003431536B38221A4072
:105B600080235B010B431A60E5E7094A1268002AAB
:105B7000E1D000229A6300212800FBF747FF064985
:105B80002800FCF797F8D6E75C2500200080FCBFD2
:105B9000FC1B0020001C0020E95A001070B50D000D
:105BA0001C000D4B1860002A0BDA002C0EDA0A4B91
:105BB00018682900FDF7BAFA01210848FFF7B2FE7C
:105BC00070BD02211000FBF7F9FDEEE70221200075
:105BD000FBF7F4FDEBE7C0465C250020A00C00209D
