:020000041000EA
:0400000AFFA0C0DEB5
:1000000D00B5324B212058609868022188439860D2
:1000100DD860186158612E4B0021996002215961F9
:1000200D0121F02299502B49196001219960352049
:1000300D00F044F80222904214D00621196600F017
:1000400D34F8196E01211966002018661A6600F041
:1000500D2CF8196E196E196E052000F02FF801217C
:1000600D0842F9D1002199601B491960002159609E
:1000700D1A491B48016001219960EB211966A021E5
:1000800D196600F012F800219960164914480160B4
:1000900D0121996001BC002800D000471248134986
:1000A00D086003C880F30888084703B5996A0420DF
:1000B00D0142FBD001200142F8D103BD02B5186603
:1000C00D1866FFF7F2FF186E186E02BD00000240B1
:1000D00D000000180000070000035F00212200004F
:1000E00DF4000018222000A00001001008ED00E02F
:1000F00D00000000000000000000000074B24E7A05
:1001000D00200420F7010010C3010010C5010010EC
:1001100DC1010010C1010010C1010010C10100108A
:1001200DC1010010C1010010C1010010C701001074
:1001300DC1010010C1010010C9010010CB01001058
:1001400DCD010010CD010010CD010010CD0100102A
:1001500DCD010010CD010010CD010010CD0100101A
:1001600DCD010010CD010010CD010010CD0100100A
:1001700DCD010010CD010010CD010010CD010010FA
:1001800DCD010010CD010010CD010010CD010010EA
:1001900DCD010010CD010010CD010010CD010010DA
:1001A00DCD010010CD010010CD010010CD010010CA
:1001B00DCD010010CD010010CD010010CD010010BA
:1001C00D00BE00BE00BE00BE00BE00BEEFF3058047
:1001D00D103800BEF2EB8871380D0010580D00106C
:1001E00D3402001090A31AE700201F49086006C8CA
:1001F00D81F3088810471D48006800282FD10DA4F1
:1002000D0ECC002902D000F012F8F9E71849194A6E
:1002100D002000E001C19142FCD1174988471749E0
:1002200D88471749884700BEFDE701C901C29A42B8
:1002300DFBD37047580D001000000020B4010020C2
:1002400D0C0F001000000420000004200C0F001003
:1002500D0010042000100420000000007047094821
:1002600D00F090FA0047000008ED00E0000000D01B
:1002700D00020020240400205D0200105906001029
:1002800D5D0300105756000006005250ABB360538B
:1002900DDC0C001006005250861C0302E70C001007
:1002A00D060052505422A29D050D0010050052501B
:1002B00DDE65F4680C0F0010F8B5C0460448054B18
:1002C00D10B5834203D0044B002B00D0984710BDCE
:1002D00DB4010020B40100200000000006480749C9
:1002E00D091A8B10C90FC91810B5491003D0044B4A
:1002F00D002B00D0984710BDB4010020B4010020A0
:1003000D0000000010B5074C2378002B09D1FFF732
:1003100DD5FF054B002B02D0044800E000BF0123A0
:1003200D237010BD0003002000000000080A00101B
:1003300D054B10B5002B03D00449054800E000BF64
:1003400DFFF7CCFF10BDC0460000000004030020E5
:1003500D080A00100048704719801F00FEE700BE14
:1003600DFEE7000073B50C0016000500FFF7F2FF65
:1003700D2C23802298430F4B120418430E4B6946D1
:1003800D1A600E4B07311A6801235340DB050C4AE6
:1003900DDB0D1360A0238722DB05D2009E501D606C
:1003A00D596080219C604904D86018690842FCD1CD
:1003B00D985876BD10008000102000503404005075
:1003C00D3414005010B50400FFF7C4FF80220E4B0B
:1003D00D120418400D4B012118430D4B49421A6070
:1003E00D0C4B1A6801235340DB050B4ADB0D1360E0
:1003F00DA0238722DB05D2009950084A1C605A6061
:1004000D40229A60186110BD33F8FFFF3806800056
:1004100D102000503404005034140050000200200D
:1004200DA02386220121D200DB059950802252049F
:1004300D19691142FCD18722D200985870470000EB
:1004400D8023012210B5124C5B05E018FC215242AD
:1004500DFFF788FF0F4BE358984216D10E4B0F4A0A
:1004600DD968914203D0D9680D4A914201D1002239
:1004700DDA6004220B4B1A600B4BE418201C0B495D
:1004800D086003C880F308880847002010BDC046E7
:1004900D00100000FC00001000800540FB5ECD8EBA
:1004A00D04A1327100E000400001001008ED00E0F1
:1004B00DF7B50C00FA220021802705005200080034
:1004C00D00F0AEF9314E240B7F01002C44D12E00EB
:1004D00DAB681136591EFF360B0A30000193FFF73A
:1004E00D71FF2A4F019B0093009B0137FF37002BB3
:1004F00D3DD100F057F90122019B30001902524203
:1005000DFFF730FFA04222D12E0010363000FFF74A
:1005100D59FFFFF785FF80221D49520004001B483B
:1005200D00F05AFA00F03EF90122802130005242CB
:1005300D4900FFF717FFA04209D1F02380211B06C8
:1005400DE818490100F058FA124B134ADA6080227C
:1005500D124BD2051A60F7BD3000390000F04CFA8D
:1005600D80235B01F618013C00F01CF9ADE700F0AB
:1005700D19F9FFF755FF8022040005493800520094
:1005800D00F02AFA009B013BADE7C04600100000C9
:1005900D0002002000800540F24EFAE300B0054055
:1005A00D0C235843124B10B5C01880235B004360D9
:1005B00D012913D00368802452015A40E0236401BD
:1005C00D1A4004432260032203684B40134023600A
:1005D00D01238B4082681342FCD010BDC02303243D
:1005E00D9B0103431C6083680B42FCD0E2E7C046CD
:1005F00D0080004037B50C2000F0CCF80023114DE1
:1006000DAB6700F02FF901220F4B1A606B6C012BB9
:1006100DFCD103220D4B1A60AC6B012CFCD10225D1
:1006200D0623210000950A4A0A4800F02FF92900F7
:1006300D00220420FFF7B4FF002221000520FFF760
:1006400DAFFF37BD008000403CB0004030B00040EF
:1006500D002F685900800240F8B5404DEE682C69B6
:1006600DFFF7C8FF04233E4A3E49136018008A680D
:1006700D9043FBD13C4B9E421FD123051A0D002BFD
:1006800D22D18021394B49055B18A3421CD2384B2E
:1006900DEB606A6181235B059C4221D3324B9E4204
:1006A00D02D0334B9E4201D1FFF7CAFE314800F014
:1006B00D69F800210300080098472D4B9E4203D195
:1006C00D6B6901336B61E5E7FFF7BAFE0028E1D1F5
:1006D00D294B264CE418264BEB602C616861D9E759
:1006E00D2368214A934203D080235B01E418D1E7AC
:1006F00D224B62689A42F7D1270001221037380049
:1007000DA1685242FFF72EFEE3689842ECD1012218
:1007100DFC2138005242FFF725FE23000D33FF3335
:1007200D1B689842E0D1A368154A991880220F4B97
:1007300D090B520509039B185B18A342D4D200295B
:1007400DACD06B69022BA9D82000FFF7B1FE0021B8
:1007500D3222080000F064F8FEE7C0460080054034
:1007600D00F0004000C00040FB5ECD8E0010000088
:1007700D04A132715542000000100010A952AEC5FF
:1007800DFF0F0000142310B50100188804331B88D7
:1007900D984710BD8023024A9B000343D3627047E4
:1007A00D00800540024B1A68024B5A607047C046E4
:1007B00D1C0400200080054003008020124AC00563
:1007C00D10B5124C106012480460E020114CC004AA
:1007D00D002906D02060002B05D180231B06236045
:1007E00D10BD1060F7E7FA208022C0005843520474
:1007F00D094B904205D21860FFF7D4FF8023DB052B
:1008000DEDE7064A1A60F7E700B00540FCFF01006E
:1008100D0820014000A005401C040020FFFFFF0040
:1008200D70B50400100080220A4BD2051A600A4BE5
:1008300D002C0CD00125094A2C43DA61084A62408C
:1008400D1A6259629C620021FFF7B6FF70BDDC6130
:1008500DF9E7C04600B0054000800540D3C007B0A1
:1008600D2D3FF84FAA22064B12011A602F2205497F
:1008700DDA60054A11605A68002AFCDA7047C046F2
:1008800D0040024000B0FA0000600240F8B51700C9
:1008900D040030480D001E0000F074F82E4B0100CE
:1008A00DFA182E4B9A4205D911212D4B2D4A2E485F
:1008B00DFFF755FD380000F065F802009823103A57
:1008C00D5B009A4203D91921284B264AEFE7731E84
:1008D00D062B03D8069B013B062B03D91C21244B69
:1008E00D204AE4E7069A330416031E432368002BBF
:1008F00D0FDA3F2223681340AB420AD1A3681B05D0
:1009000D1B0D834205D1EE22E368D2021340B342A0
:1009100D1BD0184B9C4219D080235B01164A1749F6
:1009200D1360174A13601F008A689743FBD1C023D9
:1009300D221D9B01134321222560A0601A602268AD
:1009400D002AFCDA0822E6601A60F8BD80239B01BC
:1009500DE4E7C046001BB70080E84BD380F8A9320E
:1009600DA80B0010BF0C0010070C00105A0C001043
:1009700D760C001000C0024000E0004000C00040B6
:1009800D00F00040114A936F9B0813D21066516618
:1009900D002905D0FFE7FFE7FFE7516F106F7047A4
:1009A00D04B5002801D00020C04300F01DF800213F
:1009B00D04BDC046F0B5146E556E576F166FFFF738
:1009C00DE5FF1466556657671667F0BD000000D049
:1009D00DF8B5C0460000000001B40248844601BCD1
:1009E00D604700BFED00002001B40248844601BC01
:1009F00D604700BF9901002001B40248844601BC44
:100A000D604700BF41000020312E313000060052FA
:100A100D503ABCA911080A0010666C6173685F6FCB
:100A200D666673202B20636F756E74203C3D2050DD
:100A300D49434F5F464C4153485F53495A455F42C6
:100A400D59544553002F686F6D652F72756E6E6525
:100A500D722F776F726B2F6669726D776172652F6A
:100A600D6669726D776172652F6C69622F7069634B
:100A700D6F2D73646B2F7372632F7270325F636FA0
:100A800D6D6D6F6E2F68617264776172655F666CF4
:100A900D6173682F666C6173682E6300636F6E6E91
:100AA00D6563745F696E7465726E616C5F666C61AF
:100AB00D736820262620666C6173685F657869749B
:100AC00D5F78697020262620666C6173685F72619D
:100AD00D6E67655F657261736520262620666C61A1
:100AE00D73685F666C7573685F63616368650063E7
:100AF00D6F6E6E6563745F696E7465726E616C5F47
:100B000D666C61736820262620666C6173685F656C
:100B100D7869745F78697020262620666C61736829
:100B200D5F72616E67655F70726F6772616D2026AF
:100B300D2620666C6173685F666C7573685F6361B0
:100B400D63686500636F6E6E6563745F696E74656F
:100B500D726E616C5F666C61736820262620666C10
:100B600D6173685F657869745F78697020262620E7
:100B700D666C6173685F666C7573685F63616368EB
:100B800D6500666C6173685F72616E67655F707238
:100B900D6F6772616D00666C6173685F72616E671D
:100BA00D655F65726173650076636F5F667265710F
:100BB00D203E3D20285049434F5F504C4C5F5643DB
:100BC00D4F5F4D494E5F465245515F4B485A202A63
:100BD00D204B485A292026262076636F5F66726562
:100BE00D71203C3D20285049434F5F504C4C5F567F
:100BF00D434F5F4D41585F465245515F4B485A2018
:100C000D2A204B485A29002F686F6D652F72756E1B
:100C100D6E65722F776F726B2F6669726D77617269
:100C200D652F6669726D776172652F6C69622F70C1
:100C300D69636F2D73646B2F7372632F7270325FE4
:100C400D636F6D6D6F6E2F68617264776172655F32
:100C500D706C6C2F706C6C2E63006662646976200C
:100C600D3E3D203136202626206662646976203C82
:100C700D3D203332300028706F73745F64697631B4
:100C800D203E3D203120262620706F73745F6469ED
:100C900D7631203C3D2037292026262028706F7381
:100CA00D745F64697632203E3D2031202626207007
:100CB00D6F73745F64697632203C3D203729007074
:100CC00D6C6C5F696E697400446562756700626F74
:100CD00D6F74325F7732357130383000312E352EEA
:100CE00D31007069636F00696E7465726D6564695A
:100CF00D6174655F7069636F2D666C6173686C6F8D
:100D000D61646572004F63742020372032303233B6
:100D100D0006005250BBFF3CB6E20C00100600521C
:100D200D50E182887FCE0C001006005250D3F07532
:100D300D42C80C00100000000D0A0010AC0200109B
:100D400DA002001094020010110D00108802001076
:100D500D1D0D0010290D0010084A10B51378002B39
:100D600D0AD18023064807495B051C68C45004332B
:100D700D8B42FAD10123137010BDC0462004002010
:100D800D1C0300100001001010B5024B01339847F1
:100D900D10BDC0461C0300208023F0B50A180400C6
:100DA00D0D0085B09B039A4205D941211D4B1E4A6A
:100DB00D1E4800F0A1F81826142733881C493888DE
:100DC00D984733881B4903903888984733881A49C8
:100DD00D0290388898473388019018493888984789
:100DE00D039B0600002B07D0029B002B04D0019B18
:100DF00D002B01D0002803D14921114B0A4AD7E716
:100E000DFFF7AAFF039B9847029B9847802220007B
:100E100DD82329005202019CA047B047FFF7B4FF29
:100E200D05B0F0BD190A0010960B0010450A001010
:100E300D4946000045580000524500004643000059
:100E400D9C0A00108023F0B5140085B0121805001F
:100E500D03919B039A4205D958211D4B1D4A1E48EB
:100E600D00F04AF81826142733881C49388898470B
:100E700D33881B4902903888984733881949019067
:100E800D3888984733880090174938889847029BCF
:100E900D0600002B07D0019B002B04D0009B002BDC
:100EA00D01D0002803D16021104B0A4AD7E7FFF784
:100EB00D53FF029B9847019B9847220028000399F6
:100EC00D009B9847B047FFF75FFF05B0F0BDC046E8
:100ED00D190A0010820B0010450A00104946000047
:100EE00D455800005250000046430000EF0A001024
:100EF00D7047C0460000000001B40248844601BCA2
:0C0F000D604700BF5F03001031030010BC
:1000000CFFFFFFFFFFFFFFFFFFFFFFFFFFFFFFFFF4
:1000000CFFFFFFFFFFFFFFFFFFFFFFFFFFFFFFFFF4
:0A00000BFFFFFFFFFFFFFFFFFFFFF5
:020000041000EA
:0400000AFFA1C0DEB4
:1010000D00B5324B212058609868022188439860C2
:1010100DD860186158612E4B0021996002215961E9
:1010200D0121F02299502B49196001219960352039
:1010300D00F044F80222904214D00621196600F007
:1010400D34F8196E01211966002018661A6600F031
:1010500D2CF8196E196E196E052000F02FF801216C
:1010600D0842F9D1002199601B491960002159608E
:1010700D1A491B48016001219960EB211966A021D5
:1010800D196600F012F800219960164914480160A4
:1010900D0121996001BC002800D000471248134976
:1010A00D086003C880F30888084703B5996A0420CF
:1010B00D0142FBD001200142F8D103BD02B51866F3
:1010C00D1866FFF7F2FF186E186E02BD00000240A1
:1010D00D000000180000070000035F00212200003F
:1010E00DF4000018222000A00001001008ED00E01F
:1010F00D00000000000000000000000074B24E7AF5
:1011000D00200420F7110010C3110010C5110010AC
:1011100DC1110010C1110010C1110010C11100103A
:1011200DC1110010C1110010C1110010C711001024
:1011300DC1110010C1110010C9110010CB11001008
:1011400DCD110010CD110010CD110010CD110010DA
:1011500DCD110010CD110010CD110010CD110010CA
:1011600DCD110010CD110010CD110010CD110010BA
:1011700DCD110010CD110010CD110010CD110010AA
:1011800DCD110010CD110010CD110010CD1100109A
:1011900DCD110010CD110010CD110010CD1100108A
:1011A00DCD110010CD110010CD110010CD1100107A
:1011B00DCD110010CD110010CD110010CD1100106A
:1011C00D00BE00BE00BE00BE00BE00BEEFF3058037
:1011D00D103800BEF2EB8871040E01102C0E0110B8
:1011E00D3412001090A31AE700201F49086006C8AA
:1011F00D81F3088810471D48006800282FD10DA4E1
:1012000D0ECC002902D000F012F8F9E71849194A5E
:1012100D002000E001C19142FCD1174988471749D0
:1012200D88471749884700BEFDE701C901C29A42A8
:1012300DFBD370472C0E0110C00000208417002036
:1012400DF02401100000042000000420F0240110FF
:1012500D0010042000100420000000007047094811
:1012600D04F020FE0047000008ED00E0000000D073
:1012700D881700205CA90320094C0010B51300103D
:1012800DC54B00105756000006005250ABB36053CB
:1012900D7CF40010060052505422A29D8CF40010D4
:1012A00D05005250DE65F468F0240110F8B5C04613
:1012B00D0448054B10B5834203D0044B002B00D0DE
:1012C00D984710BD841700208417002000000000EF
:1012D00D06480749091A8B10C90FC91810B54910CE
:1012E00D03D0044B002B00D0984710BD841700206D
:1012F00D841700200000000010B5074C2378002B48
:1013000D09D1FFF7D5FF054B002B02D0044800E0B3
:1013100D00BF0123237010BD8818002000000000BD
:1013200DC8DA0010054B10B5002B03D00449054851
:1013300D00E000BFFFF7CCFF10BDC046000000006D
:1013400D8C180020C8DA001010B505F0F7FE10BD9E
:1013500D10B5104A1049114805F0E4FE104805F08B
:1013600DB1FE104805F0AEFE0BF07CFE00280CD04F
:1013700D0BF084FE01000C4805F0D4FE0BF082FE4C
:1013800D01000A4805F0CEFE10BD094805F09AFE91
:1013900DFAE7C046C8DA0010D0DA0010E0DA001023
:1013A00DE8DA001000DB00101CDB001028DB001059
:1013B00D3CDB0010F0B5ADB0FFF7C6FF444805F0BB
:1013C00D81FE00F04EFD0100424805F0ABFE424BA0
:1013D00DDA68424B9A4200D172E04149414805F02A
:1013E00DA1FEFFF7B5FF00F0EFFE00F07DFD00F070
:1013F00D53FF00F017FD00F049F93B4805F092FE50
:1014000D28AB3A4C1A00210061C961C2096811600C
:1014100D374D2A00374921A800F052FF0022012143
:1014200D21A800F087FF01B2334805F07BFE1DAB0C
:1014300D220010321900C1CAC1C112680A602A0007
:1014400D2E4916A800F03CFF0022002116A800F03E
:1014500D71FF01B22A4805F065FE12AB2200203261
:1014600D1900C1CAC1C112680A602A0025490BA81A
:1014700D00F0AAFF002201210BA801F0C7F801001E
:1014800D214805F04FFE07AB30341A0043CC43C260
:1014900D216811602A001D49684600F095FF002261
:1014A00D0121684601F0B2F80100194805F03AFE35
:1014B00D0A2005F0D3FD08F027FB00202DB0F0BD6C
:1014C00D144805F0FFFD044B0022DA6085E7C046A5
:1014D00D6CDB001098DB001000800540F24EFAE343
:1014E00D01000000D4DB0010F0DB001040DC001028
:1014F00D80EE360000C0034000DC00100000044008
:1015000D10DC00100000205020DC001000003050D6
:1015100D30DC0010B4DB0010F0B5CE46474680B588
:1015200D83B080460D0016001F000AAB1B7899464C
:1015300D01200BF087FD3C4C0C2800D96EE03B4B95
:1015400D1C40C3021C430C22944308231C433849FE
:1015500D0C4038490C4038490C4001210C433749A7
:1015600D0C4002218C4394431C4308331C4310331D
:1015700D9C4380231B041C43002E04D0A022D205C3
:1015800D8723DB00D65082012D4B9C46624480237D
:1015900D9B011343802212041A6042001E23134044
:1015A00D0B9A5201F02149000A40134301221343C3
:1015B00D244A12685340DB05DB0D234A13604B466A
:1015C00D002B07D0A021C905204A8E588023DB00AF
:1015D00D33438B50AD088301A022D205944663445A
:1015E00D42461A6001AA5A609D60DC608201A02308
:1015F00DDB059C4662441369DB01F7D46246872301
:1016000DDB00D3585F40114B0021D1500BF012FD80
:1016100D380003B0C0BCB946B046F0BD0C4B0D4A06
:1016200DC3210D4803F0D2FA10801F00FF87FFFF82
:1016300D3FF8FFFFFFFFBFFFFFFFDFFFFFFF7FFF54
:1016400D10000050340400503414005034040000D5
:1016500D80DC001004DD0010A0DC001000B583B0AC
:1016600D012252420123019300931300FFF754FF0F
:1016700D03B000BD00B583B0012200230193009398
:1016800D5242FFF749FF03B000BD000030B585B0F1
:1016900D094805F017FD6846084B020032CB32C2EF
:1016A00D1B6813601021FFF7D9FF0100044805F0F6
:1016B00D39FD05B030BDC04620DD00104CDD0010F9
:1016C00D34DD0010042901D000207047002801D11D
:1016D00D0130FAE76420F8E770B504000D000F4EF5
:1016E00D00223A21306800F09FFA20603068002215
:1016F00D0A2100F099FA28602468A04200DB70BD31
:1017000D064B186800F080FA8442F8D0034B186835
:1017100D01220A2100F088FA2860F0E7D4A5012003
:1017200D30B5C9B014001D0000290AD02D4B186822
:1017300D2A00210000F0C4FA46A947A8FFF7CCFF04
:1017400D22E0294805F0BEFC0620FF3000F032FAF9
:1017500D244B1860EAE702A800F016F9049B234A0F
:1017600D1268934201D0214A136002AB9B89204A33
:1017700D1288934201D01E4A1380280005F04EFBBB
:1017800D46A947A8FFF7A8FF164B186800F03CFACA
:1017900D469CA04220D901344694200005F020FB40
:1017A00D0500104B1968220000F0DCFA8822520067
:1017B00D002102A805F04AFB0C4B1B680193049312
:1017C00D0B4B1B8802AA93811100280000F078F8BA
:1017D00D0028C0D100BEBEE700200AF03BFE49B094
:1017E00D30BDC046D4A501205CDD001010A803203B
:1017F00D52A9032010B5044805F064FC034B196889
:1018000D034800F047F910BD7CDD00101CA301203A
:1018100D001F002000B585B08022074B02930223E4
:1018200D01931E330093002352000449044808F02D
:1018300DE5F805B000BDC04688A8032090DD001076
:1018400DC100002010B5034B1868002801D008F026
:1018500D8DF910BD88A803200300303BDBB2092BA6
:1018600D07D80A781201D2B20A7013430B70012007
:1018700D704720231843C0B20300613BDBB2192B24
:1018800D09D80B781B01DBB20B70573840B21843E7
:1018900D08700120ECE70020EAE770B505000C00A8
:1018A00D00230B700078FFF7D7FF002800D170BD23
:1018B00D68782100FFF7D0FF0028F8D00120F6E767
:1018C00DF0B5C3B00D0000E001300378002B01D05E
:1018D00D3A2BF9D1441C3A2B1ED0002043B0F0BD59
:1018E00D0823FF336B441B786A469355DF19FFB20B
:1018F00D023401360821FF3169442000FFF7CDFF86
:1019000D002803D082235B009E42E9D9002E37DDEB
:1019100D002F04D00020E1E700270026EAE76B4600
:1019200D1A782A709B786946497809020B436B80B7
:1019300D6B46DC782C7101A928000E3005F08CFA6D
:1019400D042C03D00A2C0AD00120C7E76B461B7963
:1019500D1B026A4652799B181B04AB60F2E76B467B
:1019600DDB79DE3B5A425341DBB26A469371002B61
:1019700D08D05379127912021343AB810120ADE7E0
:1019800D0020ABE70220A9E770B504000379042B12
:1019900D20D00D2B02D0012B18D070BD8289114B98
:1019A00D9A42FAD1104E3568280010300F4BC018EE
:1019B00D21000E31227805F04FFA2078281830607A
:1019C00DC021490204F0C2FA3160E6E7084805F08B
:1019D00D79FBE2E7074805F075FBA168064805F0BD
:1019E00DA1FBDAE7A1FF00001CA30120001F0020CE
:1019F00D9CDD0010A8DD0010B4DD001030B583B003
:101A000D0C0000232DE06B46DA1D1570002106E059
:101A100D83699B06FCD413780360013101320029E0
:101A200DF6D018E06B46DA1D0D231370002106E089
:101A300D83699B06FCD413780360013101320029C0
:101A400DF6D01CE083699B06FCD41378036001314A
:101A500D01320029F6D023780D3B5A425341DBB2B7
:101A600D01342578002D0FD0002BCCD1074BC31896
:101A700D5A4253415B00064A9B5EAB42D2D06B4645
:101A800DDA1D15700021E4E703B030BD0080FCBF06
:101A900DF8A70120F0B5D6464F464646C0B504001E
:101AA00D102398468844224BCD182D0B2D03214F22
:101AB00D0760214B436081601030FFF7DBFDE06074
:101AC00D1E4E1F493000FFF799FFEFF3108A72B6D3
:101AD00DFFF7A0FE07F0D8FD1A493000FFF78EFF83
:101AE00D80239B029946290018000BF09DFF42466A
:101AF00D210048460BF080FFFFF7A4FE07F062FEC1
:101B000D11493000FFF77AFF8AF3108800200AF0A0
:101B100DA1FC0E493000FFF771FF0D4BDF600D4A40
:101B200D1A61FA2292000021002002F047FDFEE723
:101B300D0F100000FB5ECD8EA952AEC500400340D4
:101B400DCCDD0010FCDD00101CDE00103CDE0010B2
:101B500D0080054000000210C068704710B5046891
:101B600DFFF7FAFF201810BD70B505000C000668D0
:101B700D8E420ED8FFF7F2FF84420AD20134A41B25
:101B800D2800FFF7E9FF0100200004F0DFF97018CD
:101B900D70BD034B034A9621034803F017F8C04666
:101BA00D68DE001074DF001090DE001003688360A3
:101BB00D4360704770B50500102005F011F9041E43
:101BC00D09D0681CE06005F00BF9051E206004D0FB
:101BD00D2000FFF7EBFF200070BD200005F01EF97F
:101BE00D2C00F8E710B5FFF7B7FF013810BD70B541
:101BF00D45688468A54204D3FFF7F4FF2C1B001B36
:101C000D70BD601B0138FBE770B50500FFF7EAFFFB
:101C100D04002800FFF7EBFF201A70BD10B5FFF789
:101C200DE6FF4342584110BDF0B5D6464F464646F5
:101C300DC0B5060089461700FFF790FF050030007C
:101C400DFFF7E2FF0400B84220D933689846B36825
:101C500D42469B1A9A46BA443000FFF77DFF0100B9
:101C600D504604F073F98844454515D94346ED1A9D
:101C700DE41BAC4200D92C002200494640460BF033
:101C800DE3FC00280ED04346C41AE4192000E0BC42
:101C900DBA46B146A846F0BD064B074AA4210748EF
:101CA00D02F094FF3A1949463000FFF7BDFF0400DA
:101CB00DECE7C046CCDE001084DF001090DE001093
:101CC00DF0B5D6464F464646C0B506008946904605
:101CD00DFFF744FF07003000FFF789FF824600251C
:101CE00D10E01C4B1C4AD5211C4802F06FFF4B46DF
:101CF00D5919220005F0B0F873681B1973602D197E
:101D000DBB420BD045450CD07068B842E9D23B1AA6
:101D100D4246541B9C42EAD91C00E8E733687360C5
:101D200DF0E7C24505D37068E0BCBA46B146A84697
:101D300DF0BD71683000FFF717FFB0603000FFF79E
:101D400D6DFF0028EFD1064B034AE221034802F054
:101D500D3DFFC046DCDE001060DF001090DE00109D
:101D600DF0DE0010F0B5D6464F464646C0B581466A
:101D700D0E0090460800FFF747FF8246404539D3D5
:101D800D3000FFF7EBFE0700002511E010211A4B84
:101D900D1A4AFF311A4802F019FF4B465819220012
:101DA00D05F05AF8B3681B19B3602D19BB420BD05F
:101DB00D45450CD0B168B942E8D27B1A4246541B56
:101DC00D9C42EAD91C00E8E73368B360F0E73000C5
:101DD00DFFF71AFF4044504505D1B068E0BCBA4644
:101DE00DB146A846F0BD8D21064B044A4900044872
:101DF00D02F0ECFE0020F1E708DF00104CDF0010D0
:101E000D90DE00101CDF001010B5012004F0E8FF7B
:101E100D00230370024B012B00D010BD0370FCE7B3
:101E200D0100000010B5012006F0CCF9014B18603F
:101E300D10BDC04628A8032010B5040000F0D6FE42
:101E400D0123A340D022120693620022012120001B
:101E500D00F0A0FE10BD012393409843914008432C
:101E600D704770B51620FFF7E7FF1520FFF7E4FF69
:101E700D1420FFF7E1FFD0252D066968890D012497
:101E800D214000220020FFF7E6FF6968490D21403F
:101E900D0122FFF7E0FF6968090D21400222FFF7DB
:101EA00DDAFF70BD10B5002009F0E0F80120002127
:101EB00D404209F007FC002009F05AFEF6E700B594
:101EC00D91B0002009F008FE002801D111B000BD2D
:101ED00D002009F025FE0028F8D040226946002098
:101EE00D09F02EFEF2E7000030B585B0C0220025C6
:101EF00D0295012401941F230093002352000849E9
:101F000D084807F07BFD8022029501941E23009363
:101F100D002352000449054807F070FD05B030BD9F
:101F200D94DF0010A51E00109CDF0010BF1E0010D6
:101F300DF0B595B0050014009278E3781B021343B9
:101F400D062B00D971E09B003B4AD3589F460323D3
:101F500D3A4A210009F0DEFC15B0F0BD0BF08EF809
:101F600D07000BF08FF806004322002103A804F0B0
:101F700D6DFF43236A461373413B537339000E20A3
:101F800D68440BF0B1FB3100362068440BF0ACFB1C
:101F900D432303AA2100280009F0BCFCDCE701A8BB
:101FA00D05F0FEF90A22002103A804F04FFF0A23D1
:101FB00D6A461373073B5373082201A90E20684428
:101FC00D04F04AFF0A2303AA2100280009F0A2FC0D
:101FD00DC2E7FFF719FF03AE0323337001337370AC
:101FE00D0378B37004F01AFF337832002100280013
:101FF00D09F090FCB0E703AA114B196803919B8877
:1020000D93800623210009F085FCA5E703AE032389
:1020100D337003337370FFF724FFB07033783200E1
:1020200D2100280009F076FC96E70223054A2100DD
:1020300D280009F06FFC8FE7A0DF0010C8DF00104B
:1020400DBCDF0010C4DF0010F0B583B00500140034
:1020500D012942D113785B069B0F012B34D0022B43
:1020600D3ED15378022B0BD0032B21D0012B01D065
:1020700D002033E036331B4A210009F04BFC2DE0E4
:1020800D127963791B021343072B01D0002025E041
:1020900D6B469F1D144E02223100380004F0DCFE09
:1020A00D3B883200083A2100280009F033FC15E086
:1020B00D127963791B021343032B01D000200DE02D
:1020C00D2200FFF735FF09E05378222B01D00020C5
:1020D00D04E0110009F002FC00E0012003B0F0BDA6
:1020E00D0020FBE7CCDF00104CE1001000487047EA
:1020F00D30E1001000487047BCE000100048704708
:1021000D80E0001070B500280DD0052824D880007F
:1021100D124BC55828000BF0EFFAC0B21F2800D99A
:1021200D1F2000230EE00D4B19680D4802220230CE
:1021300D04F092FE012007E05A1CEC5C5100084BA4
:1021400DCC52D3B29842F7D801304000C0239B0047
:1021500D03430348038070BD0020FCE7180E0020E8
:1021600D3C1A002000B583B00122094B1868524279
:1021700D01A906F0CDF80128F6D1019B1A791900B5
:1021800D00200AF007FA00200AF0A0F9ECE7C0469B
:1021900DC4A8032000B583B080220023019320330F
:1021A00D0093002352000349034807F059FC03B084
:1021B00D00BDC04698E2001065210010014B186863
:1021C00D7047C046C4A8032010B5002204210A2080
:1021D00D05F0E0FE054B1860002802D0FFF7DAFF8E
:1021E00D10BD034804F09EFFFAE7C046C4A80320C3
:1021F00DA0E2001000B585B005F0B0F8214B022229
:1022000D1A60FA20400007F08DFE23E01D4B0422DA
:1022100D1A601D4B1B68DB05FBD51B4B5A6801ABC8
:1022200D1A4901910821197100215971DA8003931E
:1022300DFFF7C4FF0023002203A905F0EFFE144BA6
:1022400D186800230022002105F0E8FEFA20400066
:1022500D07F068FE01210E4B1868494206F000F99F
:1022600D094B1A68120B07231340042BCED0064BD3
:1022700D1A688023DB015340E022D2011340054A46
:1022800D1360C3E700E0044000C004403B4324DD7D
:1022900D28A8032000D0044000B583B0802200237D
:1022A00D019320330093002352000349034807F0A4
:1022B00DD7FB03B000BDC046B4E20010F5210010FD
:1022C00DF0B5C64600B504000F0090461D001C2257
:1022D00D002104F0BBFD276065610126E6764146CD
:1022E00D380000F03FFA20610121286800F03AFC27
:1022F00D0121A86800F036FC0121686800F032FC6D
:1023000DE86800F073FC3200EB689A40D0231B069E
:1023100D5A62EA6896405E61002304E0E2180021EB
:1023200D11760133DBB2022BF8D9200080BCB84600
:1023300DF0BD000070B582B00400C37E002B3CD010
:1023400D002304E000206D46E8540133DBB2022B7C
:1023500DF8D9012368460370002A06D0002309012D
:1023600D19436B465970002307E080235B42F6E763
:1023700D01AA0021D1540133DBB2022BF8D96369D4
:1023800DDB6801252A009A40D0263606B26100BED0
:1023900D032301AA694620680BF056FB6369DB68CD
:1023A00D9D4075616B4658790002C0239B00184013
:1023B00D6B469B79184302B070BD024804F0B2FE23
:1023C00DF9E7C046BCE20010F0B5DE4657464E4672
:1023D00D4546E0B593B003900D0004921C000593A3
:1023E00D0C2200210FA804F031FD0F9501212800CA
:1023F00D02F0B4F981461090052000F0ADFB04F019
:1024000D27FC774904F005FC01907649280002F07D
:1024100DC3F983460290A368984663689A46236879
:1024200D00930BAC10220021200004F00FFD80233F
:1024300D5B020B93F8235B020C938023DB020D935D
:1024400DC0231B030D9307AA11002300C1CBC1C1EB
:1024500D18008C461B680B605F467E1C624B08990A
:1024600D1940FB010B4331030B4308930A99C90033
:1024700DCF088021890539430A915C490B400893A7
:1024800D2100C8CAC8C1614609680160584B0B409C
:1024900D52461A4380235B0313430E93554A134050
:1024A00D009AD20313430E93534A134042469202AD
:1024B00D13430E93514A0D9B1A40514B13430D93E9
:1024C00D504A13408122120413430D93019E301C78
:1024D00D04F0E6FB84B2002C6ED0200004F0B8FBB3
:1024E00D011C301C04F08BFB8721C90504F0A7FBF0
:1024F00D04F0D6FBC0B20002240404430B94012463
:1025000D220043469A40230051468B401A4393467E
:1025100D130000224946280002F05AF9009B9C4006
:1025200D5B4623435A464946280002F09FF9364B35
:1025300D9D4243D007239B465946504600F012FB5F
:1025400D5946009800F00EFB5946404600F00AFB34
:1025500D0121404600F038FB2A00383280239B01D0
:1025600D13431C600BAB029A4946280002F0CCF9CC
:1025700D2A680124230049468B409A4313432B605C
:1025800D059DE86800F032FB2200EB689A40D023ED
:1025900D1B065A62EA6894405C611C220021039E6E
:1025A00D300004F053FC0FAA331D13CA13C3049B50
:1025B00D33617561002309E000209CE706239B46EB
:1025C00DBAE7F218002111760133DBB2022BF8D9EC
:1025D00D300013B0F0BCBB46B246A946A046F0BDD4
:1025E00D00BA5B4A3CE300107F00FEFFFFFFFF9F38
:1025F00DE0FF0FFCFF7FF0FFFF83FFFFFFFFF5C143
:1026000D00000210FFFF0AFE0000205070B582B0DE
:1026100D0400C37E002B08D01E4804F083FD37E074
:1026200D00206D46E8540133DBB2022BF8D90123AB
:1026300D68460370002A06D00023090119436B4632
:1026400D5970002307E080235B42F6E701AA0021C1
:1026500DD1540133DBB2022BF8D96369DB68012554
:1026600D2A009A40D0263606B261201D032301AA06
:1026700D69460BF0D1F96369DB689D4075616B4666
:1026800D58790002C0239B0018406B469B79184374
:1026900D02B070BDFCE20010F0B5DE4657464E4666
:1026A00D4546E0B583B082468846062000F054FAD0
:1026B00D53465B68022213400193042353449B4607
:1026C00DC0239B0159460B431A600224814647469D
:1026D00D00E02C00FE2C1FD84B4600930026A51CB5
:1026E00D28023A000023002104F06CFA002903D1DE
:1026F00DB142EED14845ECD94E46B84680256D0025
:1027000D012D0ED96F1E21007943300003F01EFC00
:1027100D404506D83D00F3E74E46B84680256D008E
:1027200DEEE753461C616B1E1B0252461268534066
:1027300DFF221202134080204001524610430360D5
:1027400D80239B015A461343019A1A602900614365
:1027500D300003F0FBFB03B0F0BCBB46B246A9460C
:1027600DA046F0BD70B50400174B984228D08022CA
:1027700D9202164B1A60164B1A60164B9B6810008E
:1027800D9843FAD12000FFF787FF656802210D40BD
:1027900D231DC02292011A43116026680722724040
:1027A00DCF261640802252012243166080229201CC
:1027B00D13431D602434144303222260196070BD3D
:1027C00D80225202D5E7C04600C0034000E0004021
:1027D00D00F0004000C00040034B1B680220184071
:1027E00D431E9841C0B2704700C00640EFF3108001
:1027F00D72B6034B1B68002BFBD0BFF35F8F704786
:1028000D2C0100D0BFF35F8F024B00221A6080F3C2
:1028100D108870472C0100D0F8B506000C0015008B
:1028200DFFF7E4FFE308F718F15C072222400123CC
:1028300D93400B4205D1DBB20B433B70FFF7E2FF38
:1028400DF8BD2100280002F05BFAF0B583B0060058
:1028500D019114001F00FFF7C9FF00E00134BC42D5
:1028600D0CD8E308F518F35C0721214001228A40BA
:1028700D1A42F3D1D2B21A432A7001E00124644204
:1028800DFFF7C0FF002C02DB200003B0F0BD019B61
:1028900D002BF9D0089802F033FA000070B505004E
:1028A00D0C00FFF7A3FFE308EE18EA5C07210C40CC
:1028B00D0123A340134204D09A433270FFF7A2FFC5
:1028C00D70BD034B034A2C31034802F07FF9C0461B
:1028D00D48E30010C0E3001068E30010002307E098
:1028E00D054A9A189200BFF35F8F002111600133E2
:1028F00D1F2BF5D97047C04640000034054A1078AB
:1029000D431CDBB21370172B02D9130010221A705F
:1029100D7047C046300E002010B50100024A034832
:1029200DFFF77AFF10BDC046D0E30010881E0020CF
:1029300D00B583B00100044B00931F2318220348F8
:1029400DFFF783FF03B000BDF0E30010881E0020E9
:1029500DF8B5DE4657464E464546E0B505000F0034
:1029600D92460A9A934250D31A0E91461E020A9A23
:1029700D00233000494603F027FB80466C006419A4
:1029800DA400304B9C4664446368834200D260606F
:1029900D2B1FDBB29B46012B3DD9C0239B0123434B
:1029A00D802212011A60AB00274A9958002907D0DE
:1029B00D506903F0CBFA431C5800C0180338FDD200
:1029C00D53465A0123685A40E0231A4080235B0185
:1029D00D23431A605A46012A28D980239B01234399
:1029E00D802212011A604346636042460023300084
:1029F00D494603F0E9FAAD00134B58510120F0BCE4
:102A000DBB46B246A946A046F8BD104B104A33212D
:102A100D104802F0DBF8012FBFD1C0239B012343E7
:102A200D03221A60A368DB07FCD5C9E7216879404A
:102A300D03220A401A60A2680123BB401342FAD058
:102A400DCBE7C046008000408C1E00200CE4001037
:102A500D7CE4001020E4001030B583B00C2001F0B0
:102A600D5FFDFFF7B9FE00280DD0002304E09900AB
:102A700D2D4A2E4888500133092BF8D92A4B2C4A60
:102A800D5A6203B030BD2B4B00229A6701F0BAFD9C
:102A900D294B01221A60274B5B6C012BFBD1274B75
:102AA00D03221A60234B9B6B012BFBD10133009347
:102AB00D0433234A0121234801F0A2FC052300938E
:102AC00D214A0121214801F09BFC214B009300225A
:102AD00D02210420FFF73CFF1E4D00952B00002224
:102AE00D01210520FFF734FF104C00942300002234
:102AF00D00210720FFF72CFF009423000022002166
:102B000D0820FFF725FF0A4B009323000022002128
:102B100D0920FFF71DFF00952B0000220021062044
:102B200DFFF716FFADE7C0468C1E0020006CDC02DF
:102B300D1BB70000008000403CB0004030B00040AA
:102B400D002F685900800240008C864700C002406B
:102B500D001BB700405973078000014BC0587047E8
:102B600D8C1E002010B58300084A944663441C68EF
:102B700D40226240C02414408022520113431C6045
:102B800DC000034B9C466044416010BD04C0014031
:102B900D0040014080000B4B9C46604400290DD045
:102BA00D0823002A0CD004221343026853400C2240
:102BB00D1340802252011043036070470023F0E759
:102BC00D0022F1E704C00140C000074B9C46604461
:102BD00D090203685940C0239B00194080235B0103
:102BE00D184301607047C0460440014010B50123F1
:102BF00D8340D0221206936293610521FFF7B2FF45
:102C000D10BD0000074B9B68103080001950BFF3BA
:102C100D5F8FBFF35F8F044B0021196082F3108823
:102C200D7047C04600ED00E0240100D010B5091A30
:102C300D081F0A4B9C466144094A914208D8C307B4
:102C400D06D440104005400D064B184380B210BD10
:102C500D054B064AA321064801F0B8FFFC0700000A
:102C600DFE0F000000E0FFFF8CE40010F4E6001002
:102C700DBCE4001010B5091A04394C08090B08D131
:102C800D4905490D064A11430180064B23434380F4
:102C900D10BD054B054AAB21054801F097FFC04615
:102CA00D00F0FFFF00F8FFFF10E50010C8E6001070
:102CB00DBCE4001001238340034A10681840431EF2
:102CC00D9841C0B27047C04600E100E0002904D031
:102CD00D034B1860034B18607047034B1860FBE7FC
:102CE00D80E200E000E100E080E100E010B50123AA
:102CF00D83401800FFF7EAFF10BD0000024B9B68F0
:102D000D10308000C058704700ED00E070B5040031
:102D100D0D00EFF3108672B60C4B1B68002BFBD029
:102D200DBFF35F8F2000FFF7E9FF094B984201D0F9
:102D300DA84205D1320029002000FFF763FF70BDC6
:102D400D044B054A8621054801F040FF240100D0BF
:102D500DCD11001020E5001028E70010BCE4001094
:102D600DF0B5DE4657464E464546E0B589B081463C
:102D700D01911500EFF3108A72B6744B1B68002B8E
:102D800DFBD0BFF35F8F724B0027DF57002F40DB67
:102D900D7C00E419A4006F4824180622A2566C4B3F
:102DA00D1A706D4B9A684B4610339B00D35898465A
:102DB00D1E001B1A2F2B38D9684B98452FD105AE05
:102DC00D674B33807B009B46D8198000614B98463A
:102DD00D404402306349FFF729FF7080624BB38096
:102DE00DFF23B371F571019B07935F44BF00474407
:102DF00D0ECE0EC701231C43A046524641464846FF
:102E000DFFF700FF09B0F0BCBB46B246A946A0468D
:102E100DF0BD564B564AD721564801F0D7FE564BBA
:102E200D534ADE21534801F0D1FEC04340440C21EA
:102E300D03F08CF8002912D101239E43B3463300D1
:102E400D0026DA79AA4211D90621595600290CDB40
:102E500D4A00521892001E003E4B9B18F1E7474B5B
:102E600D434AEA21434801F0B1FE1E00002E3AD03C
:102E700D05AB434A1A80813A5A800623F3560293D2
:102E800D002B17DA3F4805AB9B469880029A9A7142
:102E900DDD71019A0792301D2100FFF7C7FEB0804A
:102EA00DB7717B00DB199B002A4FFF185B4607CBE0
:102EB00D07C7A2E77800C0198000264BC018043060
:102EC00D321DB388D90A1C2907D15B05591502316A
:102ED00D49005118FFF7AAFED5E72B4B2B4AB1211C
:102EE00D244801F073FE05AE1D4B33807B00029329
:102EF00DD8198000174A9046020042440392901C54
:102F000D1849FFF793FE7080039A101D5946FFF77D
:102F100D8DFEB0801E4B5A464146521A52415343C4
:102F200D1B0DB371F571019A0792029B9C46674484
:102F300DBF0047440ECE0EC7114B5A461380813B3E
:102F400D538001231C43A04657E7C046240100D0FF
:102F500D59A90320340E002000ED00E0CD11001022
:102F600D00A1FFFF640E002001BDFFFF58E500101A
:102F700D10E70010BCE4001080E50010A8E500107B
:102F800D0148000001BD00001CE6001000E7001024
:102F900DAAAA0000F0B5CE46474680B583B006001C
:102FA00D0D00EFF3108872B6564B1B68002BFBD04B
:102FB00DBFF35F8F544B9A6834001034A300D75879
:102FC00D524B9F4207D0AF4200D198E00197504B32
:102FD00DFB1A2F2B09D9424639003000FFF712FE9C
:102FE00D03B0C0BCB946B046F0BD3000FFF762FE7D
:102FF00D814600213000FFF779FEBFF35F8FEFF3BD
:1030000D0581002901D08C4211D10123019C9C43E3
:1030100D0022A368AB4212D00622A256002A0DDB75
:1030200D53009B189B002200394CE418F1E7362120
:1030300D384B394AFF31394801F0C8FD2200AB4207
:1030400D56D106256557002D38DB6B005B199A00AC
:1030500D2F4B9B189A68A260DA79E27106229A5674
:1030600DA2719B795BB2002B0FDA2D48A0806B000B
:1030700D5B199B00264AD3182A4A1178997115704D
:1030800D49463000FFF732FEA5E7201D6B005B19A6
:1030900D9B001F4A9B181A1D9B88D90A1C2907D112
:1030A00D5B055B15023359005118FFF7BFFDDDE7D6
:1030B00D1D4B1E4AB121194801F088FD002912D17E
:1030C00D002A0ED0FF239371194B9380154A137864
:1030D00DA371184B0E49641A644163431B0D1370A1
:1030E00DCEE70A4FF2E7201D1349FFF7C3FDC7E7EF
:1030F00D6A21124B084AFF31084801F067FD034F62
:1031000D69E7C046240100D000ED00E0CD110010AC
:1031100D340E002034E60010E0E60010BCE4001090
:1031200D01BD000059A903201CE6001000E70010A6
:1031300D01BDFFFFAAAA00006E0E002068E6001078
:1031400D10B5032304009C43064A94466444226848
:1031500D1840C000FC3383409A43130081400B4359
:1031600D236010BD00E400E070B5012101432E4B3A
:1031700DCB1A2F2B28D8EFF30583002B2BD0EFF391
:1031800D108C72B6294A1268002AFBD0BFF35F8FEC
:1031900D274A0400244D641B64416243120D54B24E
:1031A00D244A92689B00D2588A421BD00022032ADF
:1031B00D32D853009B189B001B49CB189B795BB2EF
:1031C00DA3421FD00132F2E7C7211B4B1B4A490016
:1031D00D1B4801F0FBFC92211A4B184AFF3118488D
:1031E00D01F0F4FC134A92681749D150174B1A7825
:1031F00D82711C70BFF35F8F0C4B00221A608CF331
:1032000D108870BD0D005300991889006918FF26AC
:1032100D8E710F4A8A80E9E7D1210E4B074A49008A
:1032200D074801F0D3FCC046340E0020240100D025
:1032300DAAAA000000ED00E070E60010ACE6001058
:1032400DBCE4001098E60010CD11001059A9032020
:1032500D01BDFFFFA4E600100022044B02E004496B
:1032600D02C30132072AFAD97047C04600E400E0D4
:1032700D80808080024B9C466144890001607047CC
:1032800D4000003410B50400FFF738FB01002000AA
:1032900DFFF7F0FF01235B426360BFF35F8F10BD4B
:1032A00D10B50400FFF72AFB01002000FFF7E2FF35
:1032B00D01235B42636000232372BFF35F8F10BD58
:1032C00D034B9C46614489000160BFF35F8F7047DB
:1032D00D4000003410B504000120FFF729FB010068
:1032E00D2000FFF7EDFF10BD70B505000C000800C4
:1032F00D00F046FE0949200000F086FDFFF7FEFABA
:1033000D074B9C466044800068602C75D0231B06DB
:1033100D1B786B75A400034BE55070BD253600106E
:1033200D4000003420A3012010B5084B1A68EFF3BC
:1033300D108172B61368002BFCD0BFF35F8F03486A
:1033400D04F09AFA0020002110BDC046E4A7012028
:1033500D10B5002922D003681B7B99421ED8174B4C
:1033600D9C466144090183689C4661440C68496828
:1033700D002A19D003681B7B9A4215D883680F4821
:1033800D8446624412019A181068536802000120A5
:1033900D8B4201D80ED00020C0B210BD084B094A97
:1033A00D3C21094801F012FC054B064A3C21064818
:1033B00D01F00CFCA242EFD8EDE7C046FFFFFF0F76
:1033C00D00E9001028EB0010B0E8001010B500293E
:1033D00D1ED0037B99421BD84B005B18033B04683E
:1033E00DA4466344002919D0002A1DD0914221D052
:1033F00D002A25D0047BA24222D8046850008018F0
:1034000D033820188170197800291FD11A7010BD4A
:1034100D104B114A6821114801F0D8FB104B114A8D
:1034200D6F310E4801F0D2FB0F4B0E4A70210B4845
:1034300D01F0CCFB0D4B0B4A7121084801F0C6FB86
:1034400D044B054A6821054801F0C0FB41701A7014
:1034500DDDE7C04624E9001094EB001040E90010B0
:1034600DA0E9001070EB0010ACE90010B8E90010F5
:1034700D70B506000D001400002914D0002A14D0D8
:1034800D806873689847002806D022002900300014
:1034900DFFF79CFF280007E02A0021003000FFF70E
:1034A00D95FF200000E0100070BD0800FCE7000053
:1034B00DF0B583B00500009201930AAB1C780BABFD
:1034C00D1F78002C26D003685A7B944207D1012324
:1034D00D002B19D1002C3BD1200003B0F0BD002CE6
:1034E00D0CD01A7B944209D81A6863001B19033B50
:1034F00DD3189B78002BEBD00123E9E73E4B3F4AD5
:1035000D68213F4801F062FB3E4B3F4A67213F482F
:1035100D01F05CFB03689C7B002CDBD012D01A7B86
:1035200D94420FD862001219033A19688C4662440E
:1035300D51789973002900D1D9730023937053707A
:1035400D1370C7E72C4B2D4A68212D4801F03EFB27
:1035500D002C3AD02B681B7B9C4236D82C4BE318A1
:1035600D1B01AA6894466344009A1A60019A5A6036
:1035700D089A9A60099ADA602E68002C2BD030D008
:1035800D337B9C422DD863001B19033B3268944654
:1035900D634400229A705A701A70717B22003000B9
:1035A00DFFF766FF7073844200D095E7287D009A7F
:1035B00D019B00F071FC061E01D0002F17D00C9B53
:1035C00D002B00D188E71E7086E7124B124A3C2172
:1035D00D0E4801F0FBFA114B114AA521084801F0E4
:1035E00DF5FA054B054A6821054801F0EFFA286800
:1035F00D210000F089FEE2E724E9001094EB0010B1
:1036000D40E90010D0E90010A0EB0010B0E8001068
:1036100DFFFFFF0F00E9001028EB0010ACE80010D1
:1036200D84EB0010F0B5DE4657464E464546E0B5F4
:1036300D8BB00990002308938200B54BD658370004
:1036400D52E0B44BB44A3F21B44801F0BFFAB44B39
:1036500DB44A3C21B44801F0B9FA002901D100283F
:1036600D69D10021404600F045FEA04219D12A68DB
:1036700D6B6806920793AB689846EB689A4643468B
:1036800D002B14D0002C18D03B681B7B9C4214D807
:1036900D631EFA68D35C08931B021843386100203F
:1036A00D15E0A24BA24A8E219F4801F08FFAA14B43
:1036B00D9F4A92219C4801F089FA994B9E4A4121DB
:1036C00D994801F083FA00239A46984600207B68BA
:1036D00DBFF35F8F00221A6086F310884346002BDC
:1036E00D32D1002800D10CE100F04AFB02000B1E84
:1036F00DA7DB00200021069007917868EFF3108674
:1037000D72B601680029FCD0BFF35F8F3968884617
:1037100D4C7B002CD7D09AD0097B8C4297D8874907
:1037200D65182D01B9688C46654428686968801A4A
:1037300D9941002991DD2A686B68099800F0ACFB6E
:1037400D00239A469846C2E7089B1B0223439946DD
:1037500D51461800C04705000E007A68EFF3108B34
:1037600D72B6136859424B41D9B2002BF9D1BFF350
:1037700D5F8F002E1EDB002E46DD3B69002B47D0F0
:1037800D4B456DD100F0FCFA02000B1E6EDB521999
:1037900D7341002B70DB002B72DB00210491013192
:1037A00D0391029451460191414600913800FFF773
:1037B00D7FFE4CE03B69002BDDD04B4514D1069AC2
:1037C00D079B521BB341002B14DB002B16DB002192
:1037D00D04910131039102945146019141460091AA
:1037E00D3800FFF765FE32E0554B514AA1214E4896
:1037F00D01F0ECF901225242524BE6E7454B464AA5
:1038000D3F21464801F0E2F9002E01D1002DB4D13F
:1038100D3B68002C50D05A7B944237D101210029AE
:1038200D4AD1DA7B002A4DD19A7B002A03D1DA7B6B
:1038300D002A5AD19C73DC73002C5CD03B681B7B37
:1038400D9C4258D8FA68013C135D0133135500238F
:1038500D3B617A68BFF35F8F13608BF3108843E78A
:1038600D374B334AA421304801F0B0F9294B2A4A8D
:1038700D3F212A4801F0AAF901225242314B8AE731
:1038800D244B254A3F21254801F0A0F9002C0DD0ED
:1038900D1A7B94420AD862001219033A18688446BA
:1038A00D62449278002ABAD00121B8E7264B274A04
:1038B00D6821274801F08AF9264B274AF62124482A
:1038C00D01F084F9002A0AD0197B8A4207D85100E9
:1038D00D8A18033A19688C4662445470A4E71A4B4F
:1038E00D1A4A68211A4801F071F91C4B1A4AFB213A
:1038F00D174801F06BF90A4B0F4A41210A4801F0B4
:1039000D65F90BB0F0BCBB46B246A946A046F0BD6A
:1039100D20A30120B0E70010F4EA0010CCE700105E
:1039200D00E9001028EB0010B0E80010F8E90010D5
:1039300D0CEB001010EA00104CEB0010FFFFFF0F16
:1039400D1CEA0010FFFFFF7F24E9001094EB00102C
:1039500D40E9001058EA001060EB00107CEA0010FE
:1039600D10B50C4B5B68002B04D00A210A48FFF7F9
:1039700D81FC10BD074C2300084A1021206800F07F
:1039800DC9FB032000F0F0F903212000FFF7ACFC88
:1039900DEBE7C0467C0E0020E4A701205133001058
:1039A00D10B5064B5B68002B01D0044810BD044BCD
:1039B00D044A5E21044801F009F9C0467C0E00203E
:1039C00D90EA001034EB0010B0E80010F0B5DE46C0
:1039D00D57464E464546E0B58BB0804616001F0053
:1039E00D149B9A46159B994616AB1B789B461F2335
:1039F00D02AA9446634400221A702BE0002809D0D5
:103A000D42461268127B904204D8421E4146C96854
:103A100D8A5C41E0404B414A4121414801F0D6F8D2
:103A200D07984CE0361BAF41002F07DB002F11DA52
:103A300D3C4B3D4A3F213D4801F0C8F801267642F6
:103A400D3B4FF3E7374B384A3F21384801F0BEF87A
:103A500D002F4FDB43465A68EFF3108472B613689C
:103A600D59424B41D9B20791002BF8D1BFF35F8F6B
:103A700D1F3302AA944663440493002303930293D5
:103A800D4B4601935346009332003B004046FFF7EF
:103A900D0FFD031EB2D1020041464968BFF35F8F8F
:103AA00D00250D6084F31088002B29D01F2302A957
:103AB00D8C4663441B78002BB2D112021043002BAD
:103AC00D20D05B46002B1DD04946D04704000D0089
:103AD00D03000B431DD00029A4DB00F051F90600B3
:103AE00D0F1EAFDB36196F41002FB1DA012676427A
:103AF00D0F4FADE70B4B0C4A3F210C4801F066F818
:103B000D012040420BB0F0BCBB46B246A946A046D0
:103B100DF0BD0798F6E7C04600E900104CEB001029
:103B200DB0E80010B0E70010F4EA0010CCE7001088
:103B300DFFFFFF7FF8B50400002900D162E0426865
:103B400DEFF3108572B6136858424341D8B2002B7B
:103B500DF9D1BFF35F8FCBB22268567BB3421BD135
:103B600D0120002848D0206988422BD0090AC9B20B
:103B700D002B2ED02068007B83422AD8581EE66881
:103B800D305C88422BD000206368BFF35F8F00222A
:103B900D1A6085F31088F8BD002B0DD0167BB3424B
:103BA00D0AD85E00F618033E1768BC466644B67820
:103BB00D002ED6D00120D4E7134B144A68211448A7
:103BC00D01F004F82C21134B134AFF31134800F078
:103BD00DFDFF134B134A4121104800F0F7FF190068
:103BE00D100000F091FB0028CED199210E4B0A4A0E
:103BF00D49000A4800F0EAFF23698B42C4D1002333
:103C000D2361C1E70020C6E724E9001094EB001002
:103C100D40E90010B4EA0010DCEA0010B0E8001032
:103C200D00E900104CEB0010D8EA001070B584B01C
:103C300D05000C00EFF30583002B1ED1FFF7B0FE3E
:103C400D002302930193224B00932A002300FFF7D8
:103C500DBDFE061E23DD20BFFFF7A2FE3100FFF7DC
:103C600D69FF1C4B5B6A9C422DD81A4A926AAA4284
:103C700D2CD29C4225D0012026E0164B5B6A99423E
:103C800D09D8144A926A824207D2994201D0012082
:103C900D1AE0002018E0002016E0012014E00D4B82
:103CA00D5B6A9C4209D80B4A926AAA4207D29C428F
:103CB00D01D0012008E0002006E0002004E00120F2
:103CC00D02E0002000E0002004B070BD0120FBE701
:103CD00D293300100040054070B5EFF30580103812
:103CE00DEFF3108C72B61A4B1B68002BFBD0BFF391
:103CF00D5F8F01221300834016494B6316490B60F9
:103D000D164909780C00C440224214D0114A546A55
:103D100D8200134D5259944206D38200114C125910
:103D200D99430E4B197007E00A4A031D9B009958E1
:103D300D9950002200E00022BFF35F8F044B002159
:103D400D19608CF31088002A00D0904770BDC046D2
:103D500D280100D0004005403C7005405AA90320C1
:103D600DE8A70120701D002010B50100024A03488C
:103D700DFEF752FD10BDC046B8EB001057A9032049
:103D800D044B5B6A034A906A1900536A9942F9D150
:103D900D7047C04600400540084B5B6A01E0074B89
:103DA00D5B6A8B42FBD301E0044B5B6A8B4203D110
:103DB00D024B9B6A8342F7D37047C04600400540D3
:103DC00D70B504000D00FFF7DBFF02000B002000B3
:103DD00D2900801859418B4202D804D1824202D960
:103DE00D01204042C117002902DBFFF7D5FF70BD4E
:103DF00D024B034A3F21034800F0E8FEB0E70010F4
:103E000D74EC0010CCE7001070B504000D00EFF35A
:103E100D108672B61B4B1B68002BFBD0BFF35F8F58
:103E200D002D1CD02000FEF769FF174B83420BD0ED
:103E300D19002000FEF76AFF01212000FEF756FF52
:103E400D0123A340114A1360A400114BE550BFF3A9
:103E500D5F8F0C4B00221A6086F3108870BDA20094
:103E600D0B4B0021D1500122A2400A490B789343FC
:103E700D0B7005492000FFF78DF800212000FEF79B
:103E800D35FFE4E7280100D0D93C0010386005402B
:103E900D701D00205AA90320F0B5DE4600B584B090
:103EA00D0400150001921E000293FFF769FF0395B0
:103EB00D8E4202D84ED185424CD9EFF3108B72B69B
:103EC00D274B1B68002BFBD0BFF35F8F254A17785C
:103ED00D0125A540EBB23B431370234B5D63221DBF
:103EE00D92000199D150A2002049029850501B6AAE
:103EF00D2B4212D11C4B1B6C2B4208D00020BFF360
:103F000D5F8F174B00221A608BF3108823E0184B3C
:103F100D184AC521184800F059FEFFF731FF8E42AF
:103F200D14D802D1039B834210D80E4B1B78BB4291
:103F300D0ED00D4B1D625D631F2004400123A34075
:103F400D0E4A1360074B1F701E38D8E70020D6E7C6
:103F500D0120D4E7012004B080BCBB46F0BDC046B3
:103F600D280100D05AA9032000400540E8A70120F0
:103F700DDCEB001058EC001000EC001080E200E0CB
:103F800DEFF3108C72B60B4B1B68002BFBD0BFF3FD
:103F900D5F8F01238340084A136208490A789A43C8
:103FA00D0A70BFF35F8F034B00221A608CF31088E9
:103FB00D7047C046280100D0004005405AA9032093
:103FC00D10B500291ED0037B99421BD84B005B18FE
:103FD00D033B0468A4466344002919D0002A1DD070
:103FE00D914221D0002A25D0047BA24222D8046818
:103FF00D50008018033820188170197800291FD1BE
:1040000D1A7010BD104B114A6821114800F0DEFDE9
:1040100D104B114A6F310E4800F0D8FD0F4B0E4A70
:1040200D70210B4800F0D2FD0D4B0B4A7121084851
:1040300D00F0CCFD044B054A6821054800F0C6FD93
:1040400D41701A70DDE7C04624E9001090ED0010B4
:1040500D40E90010A0E900107CED0010ACE9001063
:1040600DB8E9001070B506000D001400002914D039
:1040700D002A14D0806873689847002806D0220063
:1040800D29003000FFF79CFF280007E02A002100DF
:1040900D3000FFF795FF200000E0100070BD080014
:1040A00DFCE7000010B50023437301338373037BDA
:1040B00DC3730123027B9A4214D9002B0CD0027BCF
:1040C00D934209D85A00D218033A01688C466244CB
:1040D00D0133DBB25370EDE70B4B0C4A68210C48F2
:1040E00D00F074FD002A09D0924207D801685300F0
:1040F00D9A18033A8A180023537010BD024B034AD5
:1041000D6821034800F062FD24E9001090ED0010D5
:1041100D40E9001010B5017342608360FFF7C2FFE4
:1041200D10BD000070B50400081E00D170BD00293F
:1041300D34D0237B994231D84B005B18033B226866
:1041400D944663445A78002AF0D02DD0237B9A42AE
:1041500D2AD853009B18033B21688C4663445D7835
:1041600D00215970002825D0237B984222D8430086
:1041700D1B18033B21688C466344002159700100D4
:1041800D2000FFF76FFF060029002000FFF7CAFF90
:1041900D020031002000FFF765FFC7E7084B094A11
:1041A00D6821094800F012FD054B064A68210648B2
:1041B00D00F00CFD024B034A6821034800F006FD98
:1041C00D24E9001090ED001040E9001070B50500D5
:1041D00D0C00160000292FD034D0037B994231D822
:1041E00D4B005B18033B0268944663445A78002ADF
:1041F00D2ED19A78002A31D11978FFF793FF030059
:1042000D002E0AD0EA7B002A2ED1AA7B002A03D1E8
:1042100DEA7B002A3BD1AC73EC73002B3DD1002C13
:1042200D4FD02B7B9C424CD82B6861000C19033C62
:1042300D1C190023637070BD254B264A3821264872
:1042400D00F0C4FC254B264A6821264800F0BEFC30
:1042500D254B204A3A21204800F0B8FC234B1D4A3B
:1042600D3B211D4800F0B2FC002A0AD0297B8A426E
:1042700D07D851008A18033A29688C466244547055
:1042800DC3E7164B164A6821164800F09FFC184BE1
:1042900D104A4221104800F099FC002B0BD02A7BCC
:1042A00D934208D843001B18033B2A689446634485
:1042B00D00229A70B3E7094B094A6821094800F0BA
:1042C00D85FC064B064A6821064800F07FFCC04677
:1042D00D8CEC001068ED001094EC001024E9001037
:1042E00D90ED001040E90010E4EC00100CED001012
:1042F00D7CEA001070B504000A00457B2900FFF729
:1043000D65FF6073280070BD70B50400002967D08B
:1043100D437B8B420ED0002911D0037B99420ED8DE
:1043200D4B005B18033B0268D0188378002B0CD12F
:1043300D002056E00121FFF7DDFF012051E0294B60
:1043400D294A6821294800F041FC002B20D0227B0E
:1043500D93421DD85A00D318033B2268D218256802
:1043600DEB5C8B421AD0002B1BD0227B934218D8CA
:1043700D5A00D318033B2268D21853788B4216D0BB
:1043800D002BF0D11A4B1B4A6B211B4800F01EFC71
:1043900D144B154A6821154800F018FC437813702A
:1043A00D07E0104B104A6821104800F00FFC4378CD
:1043B00D537000238370437001222000FFF706FF26
:1043C00D0200617B814205D02000FFF74BFE607338
:1043D00D012006E0094B074A7121074800F0F6FB62
:1043E00D002070BD24E9001090ED001040E9001090
:1043F00DA4E6001050ED001094EC001030ED00100C
:1044000DF0B5C64600B504000E0017001D00374874
:1044100D01F09CFD8046364BFA18364B9A4239D83E
:1044200D0100380001F092FD0200103A98235B0064
:1044300D9A4235D86B1E062B38D8069B013B062BAE
:1044400D34D83F09474537D32D04069B1A0315432E
:1044500D2368002B36DB284B9C4244D0802252012E
:1044600D264B1A60264B1A60264B9B681100994308
:1044700DFAD12660A060231DC02292011A43212388
:1044800D13602368002BFCDAE5600823136080BC01
:1044900DB846F0BD1C4B1D4A11211D4800F096FB7E
:1044A00D1C4B1A4A19211A4800F090FB1A4B174A57
:1044B00D1C21174800F08AFB184B144A232114487D
:1044C00D00F084FB22683F231340B342C3D1A3689D
:1044D00D1B051B0D8342BED1E368EE22D2021340B1
:1044E00DAB42B8D1D3E780229201B9E7001BB700E8
:1044F00D80E84BD380F8A93200C0024000E00040B4
:1045000D00F0004000C000409CED0010D4EE001003
:1045100DFCED001050EE00106CEE0010B8EE001027
:1045200D80239B000343014AD362704700800540FE
:1045300D024B1A68024B5A607047C04614A3012003
:1045400D0080054010B50200164B8020C005186094
:1045500D154B1648186000290AD0154BE021C904E7
:1045600D1960002A09D1124B802212061A6010BD63
:1045700D0C4BE021C9041960F3E753019B1A980015
:1045800D801800010B4B186080235B04984202D306
:1045900D084B094A1A60FFF7CBFF054B8022D20565
:1045A00D1A60E4E700B0054008200140FCFF01005F
:1045B00D00A0054014A30120FFFFFF0010B503006C
:1045C00D10000C4A8024E4051460002B0DD001224C
:1045D00D1343094A094CD461094C5C401462516281
:1045E00D93620021FFF7AEFF10BD034B0022DA618D
:1045F00DF7E7C04600B0054000800540D3C007B0C6
:1046000D2D3FF84F064BAA2212011A602F22DA60B5
:1046100D044B054A1A60024B5B68002BFBDA7047AE
:1046200D004002400060024000B0FA000523CB5666
:1046300D002B01DB934211D1094B9C466044434250
:1046400D58418000074BC058097901238B40013B2D
:1046500D9340184043425841C0B270470020FCE7D8
:1046600D0000D0AF2C1C002070B50A79202A19D873
:1046700D174B9C466044434258418000154BC4582B
:1046800D01239340013B497949B2002910DB080011
:1046900D2025AA1A914218DC8B401C4201D0012022
:1046A00D404270BD0C4B0D4A40210D4800F08EFA72
:1046B00D2020801A002805DB1A0082401442F0D019
:1046C00D0138F7E701204042EBE701204042E8E7DF
:1046D00D0000D0AF2C1C0020E0EE001098EF001071
:1046E00D0CEF001070B505000C001600FFF79EFFD3
:1046F00D002801D0002007E0154800F001FB8319C8
:1047000D12339B005A510130237983420FD92378FC
:1047100D617809021943A27812041143E3781B064C
:1047200D0B4342009A5A530BE9D19219E7E7012244
:1047300D9A401300013B074A944665446A4255412D
:1047400DB340054AAD00A9580B43AB5070BDC046F0
:1047500D60EF00100000D0AF2C1C002010B582B00F
:1047600D0A4B9C466044434258418400E31C084A6E
:1047700D009222000748FEF768F8844202DC001B15
:1047800D02B010BD01204042FAE7C0460000D0AF94
:1047900D74EF001058A90320F8B505000E00FEF7C0
:1047A00D25F8070031002800FFF75EFF041E09DB26
:1047B00D020031002800FFF795FF3800FEF722F8C0
:1047C00D2000F8BD014800F09BFAC04660EF0010D4
:1047D00DF0B5D6464F464646C0B507000E0090468A
:1047E00D1D004B005A18D20082181100DC310968E7
:1047F00D8A46CC32126891469B19DB00C833C31828
:1048000D0433C02292011343802292021A6018E0F1
:1048100D280001F041FB42018023DB0413437400A7
:1048200DA419E4003C192200DC3213604246C24058
:1048300D01231A40E0231B021343D83423606B1E5F
:1048400D1D40002DE4D171008B19DB00FB18DC330A
:1048500D52461A608919C9007F18CC374B463B6008
:1048600DE0BCBA46B146A846F0BD0000F0B5D6464C
:1048700D4F464646C0B507000E0090461D004B0042
:1048800D5A18D20082181100DC3109688A46CC32E0
:1048900D126891469B19DB00C833C3180433C0223C
:1048A00D92011343802292021A6017E0280001F052
:1048B00DF3FA42018023DB0413437400A419E400CE
:1048C00D3C192200DC3213604246C24001231A40DB
:1048D00D0C4B1343D83423606B1E1D40002DE5D1C6
:1048E00D71008B19DB00FB18DC3352461A608919F5
:1048F00DC9007F18CC374B463B60E0BCBA46B14689
:1049000DA846F0BD80E0000070B58AB004000D002F
:1049100D160002680121A9408A430260002B34D0A1
:1049200D69004919C90041180A00C8321868106099
:1049300D043258681060043298681060DB68DC310E
:1049400D0B6069004B19DB00D033E3188022520154
:1049500D1343802212061A601A60234BAB40A360EA
:1049600D2B1D01221000984080239B0123431860CA
:1049700D2800083082401A601F2216404919C900CC
:1049800D6418D83426600AB070BD1022002106A824
:1049900D02F05CFA80235B020693F8235B02079317
:1049A00D8023DB020893C0231B030893102206A962
:1049B00D02A802F051FA6B005B19DB00E3181A0034
:1049C00DC83202991160039A01921A00CC320199F2
:1049D00D1160049A01921A00D03201991160059A62
:1049E00DDC331A60ADE7C0460101010170B5046BFF
:1049F00DE30701D4200070BD02003032C0239B01BB
:104A000D13430A4A1A60456A826AAD01AD18AD02B8
:104A100D0620FEF7A1F8064901F098FA01002800DA
:104A200D01F094FA0021FFF7CBF9E3E70103000051
:104A300D4E0E000070B504000E001500FFF7D6FFF6
:104A400D22002C32E16A4E40354080235B01134336
:104A500D1D60206370BD000070B505000C000620C0
:104A600DFEF77AF8C000210001F070FAC60908D0EF
:104A700D0E4B9E4216D87F23184001303400460855
:104A800D00E001246C62AE62002200212800FFF7D5
:104A900DD1FF0620FEF760F88000A101891901F011
:104AA00D55FA70BD0026024CECE7C046FEFF000033
:104AB00DFFFF000010B505394901013AD20011433D
:104AC00D002B09D002220A43012B07D000211143EC
:104AD00D6E22FFF7AFFF10BD0022F4E70421F6E7C9
:104AE00D002909D00A22064B9C4660444342584196
:104AF00D4000044BC252704780225200F3E7C0467B
:104B000D0080FCBFF8A7012070B505000C00062041
:104B100DFEF722F8061E27D0164B9D4226D0802286
:104B200DD203154B1A60154B1A60154B9B6811007B
:104B300D9943FAD100212800FFF7D2FF2100280068
:104B400DFFF78AFF06000023012208212800FFF746
:104B500DB1FF2A002C3280239B01134310221A60CF
:104B600D084B2B630323AB64300070BD802212040D
:104B700DD7E7C0460080034000E0004000F0004051
:104B800D00C000400103000000BEFDE703000A4A1B
:104B900D1268002A08D0084A1068C318074A9A42BA
:104BA00D06D3054A13607047034A05491160F2E7C1
:104BB00D01204042F7E7C046109F0120000004206D
:104BC00D5CA9032010B5FFF7DFFF000010B582B020
:104BD00D0C001900002A0CD0084B002A0BD00192B2
:104BE00D009323000200064802F09CFA0120FFF713
:104BF00DCBFF044BF1E7034AF1E7C046B8EF0010D5
:104C000DC8EF001064DE001070B52B4B2B4A1A60F4
:104C100D2B4B2C4A1A602C4B9A682A4B9343FAD192
:104C200D2A4C01E008CC9847294B9C42FAD3FDF75A
:104C300D13FF234B274A1A60234B9B68DB43DB0191
:104C400DFAD1254B40229A675A671A67DA66234CC8
:104C500D09E0234B234A87212348FFF7B7FF2000A4
:104C600DFEF710FB0834214B9C4209D22368002B20
:104C700DF5D0012BEDD12000FEF712FB0C34F2E73D
:104C800D1B4CA1681B4DC022280002F0E5F8A56061
:104C900DEFF30583002B00D000BEFDF71FFEFEF7DE
:104CA00DDBFAFEF75DFE144C01E008CC9847134B80
:104CB00D9C42FAD370BDC04600E00040BFCDFBFE64
:104CC00D00F00040FE7F3C0000C00040681700204F
:104CD00D78170020FFFFFF0100F00140581700205A
:104CE00DF8EF001090F0001018F000106817002079
:104CF00D00ED00E000000020781700208417002050
:104D000D0FB400B583B0084802F0DCF9049B002B0A
:104D100D07D005A90191180002F0E4F9034802F04B
:104D200DD1F90120FFF730FF70F00010B0DB00105B
:104D300D10B50148FFF7E4FF80F00010704710B583
:104D400D002802D00B684968984710BD010000206B
:104D500D07E083001B185B00501C08601078C0181A
:104D600D30380A681378303BDBB2092BF1D9704724
:104D700DF0B5DE4657464E464546E0B583B0934600
:104D800D1F000C9B9A460D9C0E9B99460F9B9B07F3
:104D900D03D0B8460F00060022E00192A3468846D4
:104DA00D4E46B9460700B44207D2551C4B46414604
:104DB00D2020B84701342A00F5E73D004F465C46F8
:104DC00D019B9B46B1464646B84637002E0007E08C
:104DD00D013C551C5346185D43463900B0472A0027
:104DE00D002CF5D135003E0047460F9B9B0707D49D
:104DF00D100003B0F0BCBB46B246A946A046F0BDBC
:104E000DB0464E46B9462F005D46531BB342EFD216
:104E100D541C4B4641462020B8472200F5E7F0B51B
:104E200DCE46474680B585B0944698460C9D0D9C60
:104E300D0EAB1B789946109A119B129EB7071CD486
:104E400D002B0CD0F7070AD54F46002F02D10C3797
:104E500D374204D0013B02E030272F5501349442F4
:104E600D01D21F2CF8D9F70707D59C4205D21F2C6C
:104E700D03D830272F550134F5E7F70615D57705FB
:104E800D05D4002C03D0944224D09C4222D00F9AFA
:104E900D102A2BD00F9A102A30D00F9A022A35D013
:104EA00D1F2C02D830222A5501341F2C05D84A4612
:104EB00D002A31D02D222A550134039602930194F4
:104EC00D009543466246FFF753FF05B0C0BCB94697
:104ED00DB046F0BD621E012C06D00F9F102F01D0E1
:104EE00D1400D4E7023CD2E71400D0E7B206D1D4C7
:104EF00D1F2CCFD878222A550134D1E7B206CCD554
:104F000D1F2CCAD858222A550134C9E71F2CC7D8DF
:104F100D60322A550134C3E7720703D52B222A5577
:104F200D0134CAE73207C8D520222A550134C4E717
:104F300DF0B5DE4657464E464546E0B593B0814640
:104F400D8A46089209931CAB10CB1B789B461E9D7D
:104F500D219B9846002C03D1102342469A4390463C
:104F600D8023DB0046461E4042461A4212D0002CDA
:104F700D22D000260EE03033D9B2771C0AAB9955FA
:104F800D2900200000F0E2FFAC4216D31F2F14D8E9
:104F900D3E0004002900200000F0D8FFCBB2092B01
:104FA00DE9D94246920605D54121C918C9B20A3937
:104FB00DC9B2E2E76121F8E7270043460693209B3B
:104FC00D05931F9B049303955B46029301970AABD0
:104FD00D0093099B089A51464846FFF720FF13B0EE
:104FE00DF0BCBB46B246A946A046F0BDF0B5DE46C4
:104FF00D57464E464546E0B595B0089009910A9240
:1050000D0B931E9E1F9C20AB1B789B46229B9946A3
:1050100D239D269B9A463300234303D110335246DA
:1050200D9A4392468023DB0057461F4052461A4250
:1050300D19D0330023432DD0002714E03033DAB2DA
:1050400D7B1C98460CABDA554A462B0030002100EC
:1050500D00F0BAFFA5421FD819D043461F2B1BD80D
:1050600D474606000C004A462B003000210000F098
:1050700DABFFD3B2092BE1D95246920605D5412299
:1050800DD218D2B20A3AD2B2DAE76122F8E7B145C4
:1050900DE3D901E00023984653460693259B0593DB
:1050A00D249B04934B4603935B4602934346019323
:1050B00D0CAB00930B9B0A9A09990898FFF7AFFE6A
:1050C00D15B0F0BCBB46B246A946A046F0BD0000E7
:1050D00DF0B5DE4657464E464546E0B591B083469F
:1050E00D8A460C9298461A9C08941B9D099522009D
:1050F00D2B002000290001F0F2F9002800D0E5E096
:1051000D01225242D74B2000290001F0E3F900287B
:1051100D00D0DBE001225242D34B2000290001F0E8
:1051200DC3F9002800D0D1E000220023089E3000F2
:1051300D099D290001F0B8F9002800D0DDE008989C
:1051400D0999069007918023DB001E9A1A400D9253
:1051500D1E9A1A4201D106231C9306980799040042
:1051600D0D000A000600024300D1D1E0080D4005F4
:1051700D400DBE4CA44660440A03120BBC4B1343B6
:1051800D1F0001F0BFF9BB4ABB4B01F04AF9BB4A06
:1051900DBB4B01F01FF904000D000022B94B30008C
:1051A00D390001F00EF9B84AB84B01F03AF9020096
:1051B00D0B002000290001F00DF901F0BBF981462B
:1051C00D01F0A0F904000D00B14AB24B01F029F92C
:1051D00D0022B14B01F0FEF801F0ACF90600AF4A28
:1051E00DAF4B2000290001F01CF904000D00300028
:1051F00D01F088F9AB4AAC4B01F013F902000B003A
:1052000D2000290001F0DDF804000D0002000B0064
:1052100D01F007F90A900B91A44BF31800261F0516
:1052200D22002B002000290001F0D4F80E900F91E0
:1052300D22002B0000208021C90501F0C2F80400D6
:1052400D0D0000229A4B0A980B9901F0CCF8002220
:1052500D984B01F0BFF802000B000A980B9901F072
:1052600DC2F80022944B01F0B5F802000B000A9829
:1052700D0B9901F0B8F802000B002000290001F095
:1052800DA9F802000B000E980F9901F0ACF800225E
:1052900D774B01F09FF832003B0001F0C2F8060099
:1052A00D0F0004000D00069A079B01F013F900286A
:1052B00D30D001235B429C46E14400227D4B3000FF
:1052C00D390001F090F804000D0023E01E9B0493BB
:1052D00D1D9B03931C9B0293089A099B00920193BB
:1052E00D43460C9A5146584600F0FCF811B0F0BCFC
:1052F00DBB46B246A946A046F0BD00230024069346
:1053000D0794069680231B069C46654407951AE76D
:1053100D002399464B466333C62B1ED804261E9B8D
:1053200D1B0526D52B0023430FD0644A644B0698EA
:1053300D079901F0C7F8002879D00022614B069833
:1053400D079901F0B1F8002871D01C9B4B4506DD83
:1053500D4A46981A431E1C9303E00526DFE70023F7
:1053600D1C938023DB001E9A1A431E9200260023F5
:1053700D99461D9B9E4264D29F1B02231E9A1A4082
:1053800D0A921E9A134202D0002E00D000274B46DF
:1053900D002B07D022002B000698079901F023F867
:1053A00D06900791002200230898099901F07CF8D6
:1053B00D002848D1444B1E9A1340049303971C9B1D
:1053C00D0293069B079C0093019443460C9A514609
:1053D00D584600F087F8002E00D187E71E9B9B06EC
:1053E00D3DD54525441C4346020051462800D8476B
:1053F00D4B46DA179B18534005220592013E049641
:1054000D002203920A3202924A46D00F0190009375
:1054100D4346220051465846FFF78AFD0A9B002B52
:1054200D00D163E702005F460C9E1D9D54E01C9B5E
:1054300D002B9ED00D9B002B9BD01C9B013B1C93E6
:1054400D97E7002799E7069C079D220029008020F9
:1054500D0006844661440B0006920793AAE7652572
:1054600DC0E7C046FFFFEF7FFFFFEFFF01FCFFFF2F
:1054700D0000F03FFB799F501344D33FB3C8608BBE
:1054800D288AC63F0000F83F61436F63A787D23F6C
:1054900D71A379094F930A400000E03F1655B5BB43
:1054A00DB16B0240EF39FAFE422EE63FFF030000DA
:1054B00D00002C4000002440000018402D431CEB40
:1054C00DE2361A3F80842E41FFF7FFFF541C4346FE
:1054D00D51462020B8472200931BAB42F6D3100053
:1054E00D04E7C046F0B5DE4657464E464546E0B5A4
:1054F00D95B00690079193469946209F1E9A1F9B43
:1055000D1000190000F0EBFF002831D101225242AA
:1055100DBF4B1E981F9900F0C7FF002837D10122FD
:1055200D5242BC4B1E981F9900F0D4FF00283DD16C
:1055300D0022B94B1E981F9900F0CCFF002850D1C6
:1055400D0022B64B1E981F9900F0AEFF002848D1DF
:1055500D002200231E981F9900F0A6FF002850D1AD
:1055600D00239846229B5B0500D4B6E0002458E04A
:1055700D229B0393219B029303230193A84B00933A
:1055800D4B465A4607990698FFF7F2FB0EE1229B10
:1055900D0393219B029304230193A24B00934B464B
:1055A00D5A4607990698FFF7E3FBFFE00423229A7A
:1055B00D1A4022990B4210D09B4B002A0FD0042287
:1055C00D2299039121990291019200934B465A46DB
:1055D00D07990698FFF7CCFBE8E0944BEDE7032223
:1055E00DEEE7229B0493219B039302971E9B1F9C26
:1055F00D009301944B465A4607990698FFF768FDAC
:1056000DD4E01E9A1F9B0020002100F0DAFE1E90B0
:1056100D1F9101239846A5E70CAB30221A55013F87
:1056200D01341F2C01D8092FF6D81E981F9900F0B0
:1056300D81FF050000F066FF02000B001E981F9908
:1056400D00F0BFFEFA007A4B9B181A685B680A924D
:1056500D0B9300F0E6FE0890099100F08FFF060015
:1056600D00F04CFF02000B000898099900F0A9FE0C
:1056700D0890099100226F4B00F02CFF00282ED0CE
:1056800D0136300000F03AFF02000B000A980B992A
:1056900D00F010FF002801D001350026002F2CD17D
:1056A00D280000F02FFF02000B001E981F9900F03C
:1056B00D88FE06000F0000225E4B00F0F5FE00286C
:1056C00D46D100225B4B3000390000F003FF00286B
:1056D00D3ED1EB073CD501353AE0062746E70022DF
:1056E00D544B0898099900F0DFFE0028D6D1002E02
:1056F00D01D0F307D2D50136D0E7AA461F2C11D819
:1057000D013F0A21300000F021FC651C30310CAB4B
:1057100D19550A21300000F019FC092E0ED906008A
:1057200D2C00EBE755461F2C0CD87B1E002F09D003
:1057300D0CAA302111551F000134F4E72B005546FA
:1057400D1C00F0E71F2C03D80CAB2E221A55013488
:1057500D1F2C10D80A21280000F0D0FB661C303118
:1057600D0CAB19550A21280000F0C8FB051E01D00D
:1057700D3400EDE734000323229A1340012B1CD093
:1057800D1F2C06D84346002B32D00CAB2D221A55B8
:1057900D0134229B0393219B029301940CAB009344
:1057A00D4B465A4607990698FFF7E2FA15B0F0BC3A
:1057B00DBB46B246A946A046F0BD219B002B13D097
:1057C00D4346002B02D10C3313420FD0219B013BDA
:1057D00D2193190003E00CAB30221A5501348C4291
:1057E00DCED21F2CF7D9CBE72199F8E72199F6E70F
:1057F00D229B5B0704D50CAB2B221A550134C8E74D
:1058000D229B1B07C5D50CAB20221A550134C0E7CE
:1058100DFFFFEFFFFFFFEF7F65CDCD4165CDCDC123
:1058200DACF00010B0F00010A4F00010A0F00010CB
:1058300D98F200100000E03FF0B5DE4657464E46A8
:1058400D4546E0B593B082468B46904611930029AC
:1058500D00D1EBE200275546119B1878002800D1A6
:1058600DE7E2252809D07C1C43463A005946A84753
:1058700D119B013311932700EEE70133119300249F
:1058800D119A11780B00203BD8B2102803D8830051
:1058900DD048C3589F460B00303BDBB2092B2CD9A7
:1058A00D2A292FD000230A93119B1A782E2A39D03A
:1058B00D00239A46119A1378683BD9B2122976D8EB
:1058C00D8B00C549CB589F4601231C4301321192D1
:1058D00DD6E702231C4301321192D1E704231C4366
:1058E00D01321192CCE708231C4301321192C7E714
:1058F00D10231C4301321192C2E711A8FFF726FABB
:1059000D0A90D1E71C9B1A1D1C921868002804DB15
:1059100D0A90119B01331193C6E702231C434342A6
:1059200D0A93F6E78022D20014435A1C11925A783A
:1059300D1300303BDBB2092B04D92A2A07D00023F0
:1059400D9A46B7E711A8FFF701FA8246B2E71C9B0A
:1059500D1A1D1C921868002804DB8246119B013326
:1059600D1193A7E70020F8E780235B002343511C28
:1059700D119152786C2A01D01C0018E0C0239B00B5
:1059800D1C430131119112E080232343511C1191CD
:1059900D5278682A01D01C0009E0C0231C43013154
:1059A00D119104E080235B001C4301321192119B85
:1059B00D18780300253BDAB2532A00D92CE2930064
:1059C00D864AD3589F4680239B001C430132119277
:1059D00DEDE780235B001C4301321192E7E7782845
:1059E00D09D0582838D06F2838D0622838D01023E5
:1059F00D9C430A2600E01026582833D0692803D08E
:105A000D642801D00C229443630501D501229443EF
:105A100D69282AD0642828D0A30500D59FE0E30586
:105A200D00D5B8E0630600D4CAE01C9A111D1C9184
:105A300D1168FF220A4005940A9B04935346039371
:105A400D029600230193009243463A0059462800DE
:105A500DFFF76EFA070027E01026CDE70826CBE703
:105A600D0226C9E720221443C8E7A30520D4E30585
:105A700D50D4630666D51C9A111D1C911168FF2226
:105A800D0A40D317D118594005940A9B04935346E5
:105A900D03930296D20F0192009143463A00594664
:105AA00D2800FFF745FA0700119B01331193D3E648
:105AB00D1C9BDA1D07218A43110008311C911168C6
:105AC00D53689C46DB170C930D930C9A0D9B10009D
:105AD00D48400E90624653400F930E980F990C9AC2
:105AE00D0D9B801A99410E900F9108940A9B079374
:105AF00D534606930496002305936346DA0F0292EC
:105B000D0090019143463A0059462800FFF76EFA7E
:105B100D0700C9E71C9A111D1C911268D317D118E3
:105B200D594005940A9B0493534603930296D20F52
:105B300D0192009143463A0059462800FFF7F8F9C3
:105B400D0700B1E7230605D51C9A111D1C910023F2
:105B500DD25E96E71C9A111D1C91126891E71C9B51
:105B600DDA1D07218A43110008311C9108940A9B04
:105B700D07935346069304960023059302931368E7
:105B800D54680093019443463A0059462800FFF7A4
