:020000041000EA
:1000000000B5324B212058609868022188439860DF
:10001000D860186158612E4B002199600221596106
:100020000121F02299502B49196001219960352056
:1000300000F044F80222904214D00621196600F024
:1000400034F8196E01211966002018661A6600F04E
:100050002CF8196E196E196E052000F02FF8012189
:100060000842F9D1002199601B49196000215960AB
:100070001A491B48016001219960EB211966A021F2
:10008000196600F012F800219960164914480160C1
:100090000121996001BC002800D000471248134993
:1000A000086003C880F30888084703B5996A0420EC
:1000B0000142FBD001200142F8D103BD02B5186610
:1000C0001866FFF7F2FF186E186E02BD00000240BE
:1000D000000000180000070000035F00212200005C
:1000E000F4000018222000A00001001008ED00E03C
:1000F00000000000000000000000000074B24E7A12
:1001000000200420F7010010C3010010C5010010F9
:10011000C1010010C1010010C1010010C101001097
:10012000C1010010C1010010C1010010C701001081
:10013000C1010010C1010010C9010010CB01001065
:10014000CD010010CD010010CD010010CD01001037
:10015000CD010010CD010010CD010010CD01001027
:10016000CD010010CD010010CD010010CD01001017
:10017000CD010010CD010010CD010010CD01001007
:10018000CD010010CD010010CD010010CD010010F7
:10019000CD010010CD010010CD010010CD010010E7
:1001A000CD010010CD010010CD010010CD010010D7
:1001B000CD010010CD010010CD010010CD010010C7
:1001C00000BE00BE00BE00BE00BE00BEEFF3058054
:1001D000103800BEF2EB88714CDC001078DC0010A7
:1001E0003402001090A31AE700201F49086006C8D7
:1001F00081F3088810471D48006800282FD10DA4FE
:100200000ECC002902D000F012F8F9E71849194A7B
:10021000002000E001C19142FCD1174988471749ED
:1002200088471749884700BEFDE701C901C29A42C5
:10023000FBD3704778DC0010C0000020641500205C
:100240001CF1001000000420000004201CF100102C
:10025000001004200010042000000000704709482E
:1002600003F014FC0047000008ED00E0000000D09F
:1002700068150020C0260220FD270010C1030010D1
:10028000B92700105756000006005250ABB3605318
:100290005CC3001006005250861C03026CC30010A1
:1002A000060052505422A29D7CC3001005005250FB
:1002B000DE65F4681CF10010F8B5C0460448054B33
:1002C00010B5834203D0044B002B00D0984710BDDB
:1002D000641500206415002000000000064807494E
:1002E000091A8B10C90FC91810B5491003D0044B57
:1002F000002B00D0984710BD641500206415002025
:100300000000000010B5074C2378002B09D1FFF73F
:10031000D5FF054B002B02D0044800E000BF0123AD
:10032000237010BD681600200000000018B00010F7
:10033000054B10B5002B03D00449054800E000BF71
:10034000FFF7CCFF10BDC046000000006C16002077
:1003500018B0001010B504F07BFC10BD10B5104AA9
:100360001049114804F068FC104804F035FC1048AE
:1003700004F032FC0AF078F900280CD00AF080F979
:1003800001000C4804F058FC0AF07EF901000A480C
:1003900004F052FC10BD094804F01EFCFAE7C04608
:1003A00018B0001020B0001030B0001038B00010AD
:1003B00050B000106CB0001078B000108CB000107D
:1003C00010B5FFF7C7FF0D4804F006FC00F04BF82E
:1003D00001000B4804F030FC0A490B4804F02CFCE7
:1003E000FFF7BCFF00F0F2F900F080F800F056FAD9
:1003F00000F01AF807F010F9002010BDBCB0001092
:10040000E8B000100000000004B1001010B5012099
:1004100004F07EFA00230370024B012B00D010BDC4
:100420000370FCE70000000010B5012005F052FC4D
:10043000014B186010BDC0469425022010B5040081
:1004400000F072FA0123A340D02212069362002228
:100450000121200000F04EFA10BD01239340984383
:1004600091400843704770B51620FFF7E7FF15204D
:10047000FFF7E4FF1420FFF7E1FFD0252D066968A0
:10048000890D0124214000220020FFF7E6FF696862
:10049000490D21400122FFF7E0FF6968090D214065
:1004A0000222FFF7DAFF70BD10B5002008F006FB4E
:1004B00001200021404208F02BFE002009F07EF8C8
:1004C000F6E700B591B0002009F02CF8002801D122
:1004D00011B000BD002009F049F80028F8D04022F2
:1004E0006946002009F052F8F2E7000030B585B007
:1004F000C02200250295012401941F2300930023AC
:1005000052000849084807F001F88022029501943A
:100510001E230093002352000449054806F0F6FF0D
:1005200005B030BD20B10010A904001028B10010A2
:10053000C3040010F0B595B0050014009278E3787C
:100540001B021343062B00D971E09B003B4AD35892
:100550009F4603233A4A210008F002FF15B0F0BD80
:100560000AF08EF807000AF08FF8060043220021F7
:1005700003A804F003FA43236A461373413B537301
:1005800039000E2068440AF077FB310036206844B9
:100590000AF072FB432303AA2100280008F0E0FEC2
:1005A000DCE701A804F086FC0A22002103A804F07D
:1005B000E5F90A236A461373073B5373082201A91E
:1005C0000E20684404F0E0F90A2303AA2100280061
:1005D00008F0C6FEC2E7FFF719FF03AE032333702E
:1005E000013373700378B37004F0B0F933783200DC
:1005F0002100280008F0B4FEB0E703AA114B1968E7
:1006000003919B8893800623210008F0A9FEA5E7AB
:1006100003AE0323337003337370FFF724FFB0700E
:10062000337832002100280008F09AFE96E7022372
:10063000054A2100280008F093FE8FE72CB1001036
:1006400054B1001048B1001050B10010F0B583B0A3
:1006500005001400012942D113785B069B0F012B82
:1006600034D0022B3ED15378022B0BD0032B21D058
:10067000012B01D0002033E036331B4A210008F063
:100680006FFE2DE0127963791B021343072B01D013
:10069000002025E06B469F1D144E022231003800D9
:1006A00004F072F93B883200083A2100280008F073
:1006B00057FE15E0127963791B021343032B01D017
:1006C00000200DE02200FFF735FF09E05378222BD0
:1006D00001D0002004E0110008F026FE00E0012017
:1006E00003B0F0BD0020FBE758B10010B8B2001015
:1006F000004870479CB200100048704738B20010A4
:1007000000487047FCB1001070B500280DD00528D6
:1007100024D88000124BC55828000AF0B5FAC0B2A0
:100720001F2800D91F2000230EE00D4B19680D482B
:100730000222023004F028F9012007E05A1CEC5C88
:100740005100084BCC52D3B29842F7D80130400048
:10075000C0239B0003430348038070BD0020FCE7D7
:10076000000C00201C18002000B583B00122094BAA
:100770001868524201A905F053FB0128F6D1019BEC
:100780001A791900002009F01FFA002009F0B8F9C1
:10079000ECE7C0462C26022000B583B0802200235F
:1007A000019320330093002352000349034806F0CD
:1007B000DFFE03B000BDC04664B30010690700103F
:1007C000014B18687047C0462C26022010B5002245
:1007D00004210A2005F066F9054B1860002802D0B4
:1007E000FFF7DAFF10BD034804F026FAFAE7C04627
:1007F0002C2602206CB3001000B585B004F038FB45
:10080000214B02221A60FA20400007F0B1F823E0E1
:100810001D4B04221A601D4B1B68DB05FBD51B4BCF
:100820005A6801AB1A4901910821197100215971C7
:10083000DA800393FFF7C4FF0023002203A905F029
:1008400075F9144B186800230022002105F06EF999
:10085000FA20400007F08CF801210E4B186849423D
:1008600005F086FB094B1A68120B07231340042B73
:10087000CED0064B1A688023DB015340E022D20120
:100880001340054A1360C3E700E0044000C0044081
:100890003B4324DD9425022000D0044000B583B002
:1008A0008022002301932033009300235200034948
:1008B000034806F05DFE03B000BDC04680B30010E3
:1008C000F907001010B58300084A944663441C6879
:1008D00040226240C02414408022520113431C6015
:1008E000C000034B9C466044416010BD04C0014001
:1008F0000040014080000B4B9C46604400290DD015
:100900000823002A0CD004221343026853400C220F
:100910001340802252011043036070470023F0E728
:100920000022F1E704C0014010B501238340D0222A
:100930001206936293610521FFF7C4FF10BD00000A
:10094000034B1B6802201840431E9841C0B27047F9
:1009500000C00640EFF3108072B6034B1B68002BFB
:10096000FBD0BFF35F8F70472C0100D0BFF35F8FC8
:10097000024B00221A6080F3108870472C0100D0CF
:10098000F8B506000C001500FFF7E4FFE308F718C0
:10099000F15C07222240012393400B4205D1DBB2D8
:1009A0000B433B70FFF7E2FFF8BD2100280001F088
:1009B000A1FFF0B583B00600019114001F00FFF7FE
:1009C000C9FF00E00134BC420CD8E308F518F35C21
:1009D0000721214001228A401A42F3D1D2B21A43A0
:1009E0002A7001E001246442FFF7C0FF002C02DB03
:1009F000200003B0F0BD019B002BF9D0089801F056
:100A000079FF0000002307E0054A9A189200BFF31F
:100A10005F8F0021116001331F2BF5D97047C0464D
:100A200040000034054A1078431CDBB21370172BCA
:100A300002D9130010221A707047C046180C00200B
:100A400010B50100024A0348FFF79AFF10BDC046E7
:100A500088B30010141C002000B583B00100044BC3
:100A600000931F2318220348FFF7A3FF03B000BD24
:100A7000A8B30010141C0020074B9B6810308000A6
:100A80001950BFF35F8FBFF35F8F044B00211960D4
:100A900082F310887047C04600ED00E0240100D0CA
:100AA00010B5091A081F0A4B9C466144094A914235
:100AB00008D8C30706D440104005400D064B184324
:100AC00080B210BD054B064AA321064801F078FE0E
:100AD000FC070000FE0F000000E0FFFFC4B30010A1
:100AE0002CB60010F4B3001010B5091A04394C08E4
:100AF000090B08D14905490D064A11430180064BEF
:100B00002343438010BD054B054AAB21054801F046
:100B100057FEC04600F0FFFF00F8FFFF48B400108A
:100B200000B60010F4B3001001238340034A10689C
:100B30001840431E9841C0B27047C04600E100E033
:100B4000002904D0034B1860034B18607047034B17
:100B50001860FBE780E200E000E100E080E100E0F7
:100B600010B5012383401800FFF7EAFF10BD000015
:100B7000024B9B6810308000C058704700ED00E0C9
:100B800070B504000D00EFF3108672B60C4B1B68B5
:100B9000002BFBD0BFF35F8F2000FFF7E9FF094B6D
:100BA000984201D0A84205D1320029002000FFF769
:100BB00063FF70BD044B054A8621054801F000FE25
:100BC000240100D0CD01001058B4001060B6001010
:100BD000F4B30010F0B5DE4657464E464546E0B544
:100BE00089B0814601911500EFF3108A72B6744BFB
:100BF0001B68002BFBD0BFF35F8F724B0027DF57C2
:100C0000002F40DB7C00E419A4006F482418062262
:100C1000A2566C4B1A706D4B9A684B4610339B0072
:100C2000D35898461E001B1A2F2B38D9684B98456D
:100C30002FD105AE674B33807B009B46D8198000CF
:100C4000614B9846404402306349FFF729FF7080AA
:100C5000624BB380FF23B371F571019B07935F442F
:100C6000BF0047440ECE0EC701231C43A046524688
:100C700041464846FFF700FF09B0F0BCBB46B2460C
:100C8000A946A046F0BD564B564AD721564801F01A
:100C900097FD564B534ADE21534801F091FDC04366
:100CA00040440C2102F046FF002912D101239E434B
:100CB000B34633000026DA79AA4211D906215956E3
:100CC00000290CDB4A00521892001E003E4B9B1874
:100CD000F1E7474B434AEA21434801F071FD1E000A
:100CE000002E3AD005AB434A1A80813A5A80062337
:100CF000F3560293002B17DA3F4805AB9B469880CA
:100D0000029A9A71DD71019A0792301D2100FFF756
:100D1000C7FEB080B7717B00DB199B002A4FFF181C
:100D20005B4607CB07C7A2E77800C0198000264BB7
:100D3000C0180430321DB388D90A1C2907D15B05BD
:100D40005915023149005118FFF7AAFED5E72B4B80
:100D50002B4AB121244801F033FD05AE1D4B3380F1
:100D60007B000293D8198000174A90460200424443
:100D70000392901C1849FFF793FE7080039A101D90
:100D80005946FFF78DFEB0801E4B5A464146521A17
:100D9000524153431B0DB371F571019A0792029BA7
:100DA0009C466744BF0047440ECE0EC7114B5A46BF
:100DB0001380813B538001231C43A04657E7C04664
:100DC000240100D0BC2602201C0C002000ED00E015
:100DD000CD01001000A1FFFF4C0C002001BDFFFF62
:100DE00090B4001048B60010F4B30010B8B400106E
:100DF000E0B400100148000001BD000054B500102F
:100E000038B60010AAAA0000F0B5CE46474680B515
:100E100083B006000D00EFF3108872B6564B1B68C6
:100E2000002BFBD0BFF35F8F544B9A683400103413
:100E3000A300D758524B9F4207D0AF4200D198E051
:100E40000197504BFB1A2F2B09D94246390030002D
:100E5000FFF712FE03B0C0BCB946B046F0BD30008B
:100E6000FFF762FE814600213000FFF779FEBFF3F5
:100E70005F8FEFF30581002901D08C4211D101234E
:100E8000019C9C430022A368AB4212D00622A256CA
:100E9000002A0DDB53009B189B002200394CE418FC
:100EA000F1E73621384B394AFF31394801F088FCE7
:100EB0002200AB4256D106256557002D38DB6B006A
:100EC0005B199A002F4B9B189A68A260DA79E2713D
:100ED00006229A56A2719B795BB2002B0FDA2D483D
:100EE000A0806B005B199B00264AD3182A4A117810
:100EF0009971157049463000FFF732FEA5E7201DB5
:100F00006B005B199B001F4A9B181A1D9B88D90A0E
:100F10001C2907D15B055B15023359005118FFF7F7
:100F2000BFFDDDE71D4B1E4AB121194801F048FC09
:100F3000002912D1002A0ED0FF239371194B938000
:100F4000154A1378A371184B0E49641A6441634320
:100F50001B0D1370CEE70A4FF2E7201D1349FFF770
:100F6000C3FDC7E76A21124B084AFF31084801F068
:100F700027FC034F69E7C046240100D000ED00E0E4
:100F8000CD0100101C0C00206CB5001018B600102C
:100F9000F4B3001001BD0000BC26022054B50010BF
:100FA00038B6001001BDFFFFAAAA0000560C0020B1
:100FB000A0B5001010B5032304009C43064A9446D4
:100FC000644422681840C000FC3383409A431300F5
:100FD00081400B43236010BD00E400E070B50121A7
:100FE00001432E4BCB1A2F2B28D8EFF30583002B70
:100FF0002BD0EFF3108C72B6294A1268002AFBD06E
:10100000BFF35F8F274A0400244D641B6441624391
:10101000120D54B2244A92689B00D2588A421BD0C7
:101020000022032A32D853009B189B001B49CB187F
:101030009B795BB2A3421FD00132F2E7C7211B4B61
:101040001B4A49001B4801F0BBFB92211A4B184A6E
:10105000FF31184801F0B4FB134A92681749D15088
:10106000174B1A7882711C70BFF35F8F0C4B0022F4
:101070001A608CF3108870BD0D0053009918890018
:101080006918FF268E710F4A8A80E9E7D1210E4B3D
:10109000074A4900074801F093FBC0461C0C00209A
:1010A000240100D0AAAA000000ED00E0A8B50010BD
:1010B000E4B50010F4B30010D0B50010CD0100105D
:1010C000BC26022001BDFFFFDCB500100022044B4E
:1010D00002E0044902C30132072AFAD97047C04628
:1010E00000E400E080808080024B9C4661448900DF
:1010F000016070474000003410B50400FFF792FC17
:1011000001002000FFF7F0FF01235B426360BFF3A3
:101110005F8F10BD10B50400FFF784FC01002000B4
:10112000FFF7E2FF01235B42636000232372BFF3FA
:101130005F8F10BD034B9C46614489000160BFF383
:101140005F8F70474000003410B504000120FFF7A6
:1011500083FC01002000FFF7EDFF10BD70B5050016
:101160000C00080000F046FE0949200000F086FD52
:10117000FFF758FC074B9C466044800068602C7564
:10118000D0231B061B786B75A400034BE55070BD84
:1011900099140010400000349420002010B5084B32
:1011A0001A68EFF3108172B61368002BFCD0BFF3FE
:1011B0005F8F034804F0E8F80020002110BDC0460E
:1011C0005425002010B5002922D003681B7B9942CA
:1011D0001ED8174B9C466144090183689C466144B4
:1011E0000C684968002A19D003681B7B9A4215D8FD
:1011F00083680F488446624412019A181068536845
:10120000020001208B4201D80ED00020C0B210BDD8
:10121000084B094A3C21094801F0D2FA054B064A1D
:101220003C21064801F0CCFAA242EFD8EDE7C046D7
:10123000FFFFFF0F38B8001060BA0010E8B70010C9
:1012400010B500291ED0037B99421BD84B005B18B8
:10125000033B0468A4466344002919D0002A1DD02A
:10126000914221D0002A25D0047BA24222D80468D2
:1012700050008018033820188170197800291FD178
:101280001A7010BD104B114A6821114801F098FAEC
:10129000104B114A6F310E4801F092FA0F4B0E4A73
:1012A00070210B4801F08CFA0D4B0B4A7121084854
:1012B00001F086FA044B054A6821054801F080FADE
:1012C00041701A70DDE7C0465CB80010CCBA00105F
:1012D00078B80010D8B80010A8BA0010E4B8001010
:1012E000F0B8001070B506000D001400002914D0ED
:1012F000002A14D0806873689847002806D022001E
:1013000029003000FFF79CFF280007E02A00210099
:101310003000FFF795FF200000E0100070BD0800CE
:10132000FCE70000F0B583B00500009201930AAB22
:101330001C780BAB1F78002C26D003685A7B944294
:1013400007D10123002B19D1002C3BD1200003B081
:10135000F0BD002C0CD01A7B944209D81A686300A7
:101360001B19033BD3189B78002BEBD00123E9E733
:101370003E4B3F4A68213F4801F022FA3E4B3F4A2C
:1013800067213F4801F01CFA03689C7B002CDBD0EE
:1013900012D01A7B94420FD862001219033A1968CE
:1013A0008C46624451789973002900D1D973002387
:1013B000937053701370C7E72C4B2D4A68212D484A
:1013C00001F0FEF9002C3AD02B681B7B9C4236D8EA
:1013D0002C4BE3181B01AA6894466344009A1A60D8
:1013E000019A5A60089A9A60099ADA602E68002C6D
:1013F0002BD030D0337B9C422DD863001B19033B8C
:1014000032689446634400229A705A701A70717B55
:1014100022003000FFF766FF7073844200D095E72A
:10142000287D009A019B00F071FC061E01D0002F60
:1014300017D00C9B002B00D188E71E7086E7124B5B
:10144000124A3C210E4801F0BBF9114B114AA5216B
:10145000084801F0B5F9054B054A6821054801F037
:10146000AFF92868210000F089FEE2E75CB80010BF
:10147000CCBA001078B8001008B90010D8BA001023
:10148000E8B70010FFFFFF0F38B8001060BA001077
:10149000E4B70010BCBA0010F0B5DE4657464E4621
:1014A0004546E0B58BB00990002308938200B54B08
:1014B000D658370052E0B44BB44A3F21B44801F04B
:1014C0007FF9B44BB44A3C21B44801F079F90029C2
:1014D00001D1002869D10021404600F045FEA0421C
:1014E00019D12A686B6806920793AB689846EB6837
:1014F0009A464346002B14D0002C18D03B681B7B27
:101500009C4214D8631EFA68D35C08931B021843EC
:101510003861002015E0A24BA24A8E219F4801F0BD
:101520004FF9A14B9F4A92219C4801F049F9994BF0
:101530009E4A4121994801F043F900239A46984672
:1015400000207B68BFF35F8F00221A6086F310884B
:101550004346002B32D1002800D10CE100F04AFBB9
:1015600002000B1EA7DB002000210690079178687F
:10157000EFF3108672B601680029FCD0BFF35F8FCD
:10158000396888464C7B002CD7D09AD0097B8C4296
:1015900097D8874965182D01B9688C466544286835
:1015A0006968801A9941002991DD2A686B68099859
:1015B00000F0ACFB00239A469846C2E7089B1B024A
:1015C0002343994651461800C04705000E007A682B
:1015D000EFF3108B72B6136859424B41D9B2002B0E
:1015E000F9D1BFF35F8F002E1EDB002E46DD3B6975
:1015F000002B47D04B456DD100F0FCFA02000B1ECA
:101600006EDB52197341002B70DB002B72DB002163
:101610000491013103910294514601914146009198
:101620003800FFF77FFE4CE03B69002BDDD04B45D7
:1016300014D1069A079B521BB341002B14DB002BDD
:1016400016DB00210491013103910294514601916E
:10165000414600913800FFF765FE32E0554B514A94
:10166000A1214E4801F0ACF801225242524BE6E76C
:10167000454B464A3F21464801F0A2F8002E01D1D1
:10168000002DB4D13B68002C50D05A7B944237D106
:10169000012100294AD1DA7B002A4DD19A7B002A08
:1016A00003D1DA7B002A5AD19C73DC73002C5CD006
:1016B0003B681B7B9C4258D8FA68013C135D0133A0
:1016C000135500233B617A68BFF35F8F13608BF380
:1016D000108843E7374B334AA421304801F070F8B3
:1016E000294B2A4A3F212A4801F06AF80122524236
:1016F000314B8AE7244B254A3F21254801F060F809
:10170000002C0DD01A7B94420AD862001219033AB9
:101710001868844662449278002ABAD00121B8E75A
:10172000264B274A6821274801F04AF8264B274ACA
:10173000F621244801F044F8002A0AD0197B8A4295
:1017400007D851008A18033A19688C4662445470CD
:10175000A4E71A4B1A4A68211A4801F031F81C4BC9
:101760001A4AFB21174801F02BF80A4B0F4A412176
:101770000A4801F025F80BB0F0BCBB46B246A946BA
:10178000A046F0BD94200020E8B600102CBA00104E
:1017900004B7001038B8001060BA0010E8B70010A5
:1017A00030B9001044BA001048B9001084BA0010D3
:1017B000FFFFFF0F54B90010FFFFFF7F5CB8001060
:1017C000CCBA001078B8001090B9001098BA001088
:1017D000B4B9001010B50C4B5B68002B04D00A2183
:1017E0000A48FFF781FC10BD074C2300084A10216E
:1017F000206800F0C9FB032000F0F0F9032120006D
:10180000FFF7ACFCEBE7C046640C00205425002039
:10181000C511001010B5064B5B68002B01D00448C1
:1018200010BD044B044A5E21044800F0C9FFC046C5
:10183000640C0020C8B900106CBA0010E8B70010A2
:10184000F0B5DE4657464E464546E0B58BB080467D
:1018500016001F00149B9A46159B994616AB1B78E1
:101860009B461F2302AA9446634400221A702BE071
:10187000002809D042461268127B904204D8421ECA
:101880004146C9688A5C41E0404B414A4121414898
:1018900000F096FF07984CE0361BAF41002F07DBA6
:1018A000002F11DA3C4B3D4A3F213D4800F088FFB4
:1018B000012676423B4FF3E7374B384A3F21384801
:1018C00000F07EFF002F4FDB43465A68EFF3108491
:1018D00072B6136859424B41D9B20791002BF8D127
:1018E000BFF35F8F1F3302AA94466344049300231F
:1018F000039302934B4601935346009332003B00FF
:101900004046FFF70FFD031EB2D102004146496871
:10191000BFF35F8F00250D6084F31088002B29D062
:101920001F2302A98C4663441B78002BB2D11202FC
:101930001043002B20D05B46002B1DD04946D047DA
:1019400004000D0003000B431DD00029A4DB00F0B0
:1019500051F906000F1EAFDB36196F41002FB1DAC7
:10196000012676420F4FADE70B4B0C4A3F210C4846
:1019700000F026FF012040420BB0F0BCBB46B2464F
:10198000A946A046F0BD0798F6E7C04638B8001053
:1019900084BA0010E8B70010E8B600102CBA0010A6
:1019A00004B70010FFFFFF7FF8B50400002900D145
:1019B00062E04268EFF3108572B613685842434103
:1019C000D8B2002BF9D1BFF35F8FCBB22268567B20
:1019D000B3421BD10120002848D0206988422BD077
:1019E000090AC9B2002B2ED02068007B83422AD876
:1019F000581EE668305C88422BD000206368BFF335
:101A00005F8F00221A6085F31088F8BD002B0DD07F
:101A1000167BB3420AD85E00F618033E1768BC4630
:101A20006644B678002ED6D00120D4E7134B144A72
:101A30006821144800F0C4FE2C21134B134AFF31D7
:101A4000134800F0BDFE134B134A4121104800F02B
:101A5000B7FE1900100000F091FB0028CED19921AB
:101A60000E4B0A4A49000A4800F0AAFE23698B423D
:101A7000C4D100232361C1E70020C6E75CB8001091
:101A8000CCBA001078B80010ECB9001014BA0010ED
:101A9000E8B7001038B8001084BA001010BA00106F
:101AA00070B584B005000C00EFF30583002B1ED148
:101AB000FFF7B0FE002302930193224B00932A000C
:101AC0002300FFF7BDFE061E23DD20BFFFF7A2FEA9
:101AD0003100FFF769FF1C4B5B6A9C422DD81A4A04
:101AE000926AAA422CD29C4225D0012026E0164BB5
:101AF0005B6A994209D8144A926A824207D2994293
:101B000001D001201AE0002018E0002016E001209A
:101B100014E00D4B5B6A9C4209D80B4A926AAA42B8
:101B200007D29C4201D0012008E0002006E00020FE
:101B300004E0012002E0002000E0002004B070BDBD
:101B40000120FBE79D1100100040054070B5EFF348
:101B500005801038EFF3108C72B61A4B1B68002BFF
:101B6000FBD0BFF35F8F01221300834016494B6304
:101B700016490B60164909780C00C440224214D063
:101B8000114A546A8200134D5259944206D382007E
:101B9000114C125999430E4B197007E00A4A031D64
:101BA0009B0099589950002200E00022BFF35F8FFC
:101BB000044B002119608CF31088002A00D0904754
:101BC00070BDC046280100D0004005403C70054073
:101BD000BD26022058250020FC1A002010B5010067
:101BE000024A0348FEF7CCFE10BDC046F0BA001012
:101BF000BB260220044B5B6A034A906A1900536AB1
:101C00009942F9D17047C04600400540084B5B6AD5
:101C100001E0074B5B6A8B42FBD301E0044B5B6A3C
:101C20008B4203D1024B9B6A8342F7D37047C04675
:101C30000040054070B504000D00FFF7DBFF020017
:101C40000B0020002900801859418B4202D804D192
:101C5000824202D901204042C117002902DBFFF76E
:101C6000D5FF70BD024B034A3F21034800F0A8FD99
:101C7000E8B60010ACBB001004B7001070B504004B
:101C80000D00EFF3108672B61B4B1B68002BFBD0C8
:101C9000BFF35F8F002D1CD02000FEF769FF174BAC
:101CA00083420BD019002000FEF76AFF01212000BB
:101CB000FEF756FF0123A340114A1360A400114B05
:101CC000E550BFF35F8F0C4B00221A6086F310883B
:101CD00070BDA2000B4B0021D1500122A2400A4945
:101CE0000B7893430B7005492000FFF78DF8002116
:101CF0002000FEF735FFE4E7280100D04D1B00105F
:101D000038600540FC1A0020BD260220F0B5DE46F2
:101D100000B584B00400150001921E000293FFF785
:101D200069FF03958E4202D84ED185424CD9EFF31C
:101D3000108B72B6274B1B68002BFBD0BFF35F8F55
:101D4000254A17780125A540EBB23B431370234B7E
:101D50005D63221D92000199D150A2002049029892
:101D600050501B6A2B4212D11C4B1B6C2B4208D0CB
:101D70000020BFF35F8F174B00221A608BF310888F
:101D800023E0184B184AC521184800F019FDFFF749
:101D900031FF8E4214D802D1039B834210D80E4BE0
:101DA0001B78BB420ED00D4B1D625D631F200440AB
:101DB0000123A3400E4A1360074B1F701E38D8E75B
:101DC0000020D6E70120D4E7012004B080BCBB4648
:101DD000F0BDC046280100D0BD26022000400540CD
:101DE0005825002014BB001090BB001038BB001019
:101DF00080E200E0EFF3108C72B60B4B1B68002BF7
:101E0000FBD0BFF35F8F01238340084A1362084968
:101E10000A789A430A70BFF35F8F034B00221A605F
:101E20008CF310887047C046280100D00040054060
:101E3000BD26022010B500291ED0037B99421BD875
:101E40004B005B18033B0468A4466344002919D087
:101E5000002A1DD0914221D0002A25D0047BA24225
:101E600022D804685000801803382018817019782F
:101E700000291FD11A7010BD104B114A682111485A
:101E800000F09EFC104B114A6F310E4800F098FC98
:101E90000F4B0E4A70210B4800F092FC0D4B0B4A81
:101EA0007121084800F08CFC044B054A6821054864
:101EB00000F086FC41701A70DDE7C0465CB8001087
:101EC000C8BC001078B80010D8B80010B4BC00101E
:101ED000E4B80010F0B8001070B506000D00140052
:101EE000002914D0002A14D080687368984700280D
:101EF00006D0220029003000FFF79CFF280007E0F1
:101F00002A0021003000FFF795FF200000E01000BC
:101F100070BD0800FCE7000010B5002343730133D7
:101F20008373037BC3730123027B9A4214D9002B72
:101F30000CD0027B934209D85A00D218033A0168A8
:101F40008C4662440133DBB25370EDE70B4B0C4A15
:101F500068210C4800F034FC002A09D0924207D8CE
:101F6000016853009A18033A8A180023537010BD71
:101F7000024B034A6821034800F022FC5CB80010C1
:101F8000C8BC001078B8001010B5017342608360BF
:101F9000FFF7C2FF10BD000070B50400081E00D19D
:101FA00070BD002934D0237B994231D84B005B1897
:101FB000033B2268944663445A78002AF0D02DD01F
:101FC000237B9A422AD853009B18033B21688C46F6
:101FD00063445D7800215970002825D0237B984206
:101FE00022D843001B18033B21688C466344002120
:101FF000597001002000FFF76FFF06002900200044
:10200000FFF7CAFF020031002000FFF765FFC7E7B6
:10201000084B094A6821094800F0D2FB054B064AE3
:102020006821064800F0CCFB024B034A68210348B4
:1020300000F0C6FB5CB80010C8BC001078B80010F7
:1020400070B505000C00160000292FD034D0037B9A
:10205000994231D84B005B18033B026894466344B5
:102060005A78002A2ED19A78002A31D11978FFF7B0
:1020700093FF0300002E0AD0EA7B002A2ED1AA7B10
:10208000002A03D1EA7B002A3BD1AC73EC73002B0E
:102090003DD1002C4FD02B7B9C424CD82B6861004B
:1020A0000C19033C1C190023637070BD254B264A94
:1020B0003821264800F084FB254B264A6821264813
:1020C00000F07EFB254B204A3A21204800F078FBA7
:1020D000234B1D4A3B211D4800F072FB002A0AD009
:1020E000297B8A4207D851008A18033A29688C460E
:1020F00062445470C3E7164B164A6821164800F034
:102100005FFB184B104A4221104800F059FB002B8E
:102110000BD02A7B934208D843001B18033B2A6844
:102120009446634400229A70B3E7094B094A682138
:10213000094800F045FB064B064A6821064800F0B6
:102140003FFBC046C4BB0010A0BC0010CCBB0010BD
:102150005CB80010C8BC001078B800101CBC00109F
:1021600044BC0010B4B9001070B504000A00457BEF
:102170002900FFF765FF6073280070BD70B504008B
:10218000002967D0437B8B420ED0002911D0037BFE
:1021900099420ED84B005B18033B0268D018837835
:1021A000002B0CD1002056E00121FFF7DDFF0120BC
:1021B00051E0294B294A6821294800F001FB002BF6
:1021C00020D0227B93421DD85A00D318033B2268AB
:1021D000D2182568EB5C8B421AD0002B1BD0227BD7
:1021E000934218D85A00D318033B2268D218537868
:1021F0008B4216D0002BF0D11A4B1B4A6B211B4887
:1022000000F0DEFA144B154A6821154800F0D8FAA0
:102210004378137007E0104B104A6821104800F013
:10222000CFFA43785370002383704370012220005B
:10223000FFF706FF0200617B814205D02000FFF717
:102240004BFE6073012006E0094B074A71210748E5
:1022500000F0B6FA002070BD5CB80010C8BC0010D9
:1022600078B80010DCB5001088BC0010CCBB0010A2
:1022700068BC001070B5046BE30701D4200070BD8A
:1022800002003032C0239B0113430A4A1A60456A98
:10229000826AAD01AD18AD02062000F0BDF9064915
:1022A00001F048FC0100280001F044FC0021FFF788
:1022B000C1FCE3E7010300004E0E000070B504000E
:1022C0000E001500FFF7D6FF22002C32E16A4E40C7
:1022D000354080235B0113431D60206370BD000007
:1022E00070B505000C00062000F096F9C000210032
:1022F00001F020FCC60908D00E4B9E4216D87F2361
:10230000184001303400460800E001246C62AE62DF
:10231000002200212800FFF7D1FF062000F07CF901
:102320008000A101891901F005FC70BD0026024C56
:10233000ECE7C046FEFF0000FFFF000010B50539C6
:102340004901013AD2001143002B09D002220A436D
:10235000012B07D0002111436E22FFF7AFFF10BD04
:102360000022F4E70421F6E7002909D00A22064BEF
:102370009C466044434258414000044BC25270475F
:1023800080225200F3E7C0460080FCBF6825002091
:1023900070B505000C00062000F03EF9061E27D09F
:1023A000164B9D4226D08022D203154B1A60154B46
:1023B0001A60154B9B6811009943FAD1002128003F
:1023C000FFF7D2FF21002800FFF78AFF0600002355
:1023D000012208212800FFF7B1FF2A002C328023B8
:1023E0009B01134310221A60084B2B630323AB6439
:1023F000300070BD80221204D7E7C0460080034041
:1024000000E0004000F0004000C000400103000078
:10241000F8B5DE4657464E464546E0B505000F0086
:1024200092460A9A934250D31A0E91461E020A9A75
:1024300000233000494601F0BBFB80466C00641964
:10244000A400304B9C4664446368834200D26060C1
:102450002B1FDBB29B46012B3DD9C0239B0123439D
:10246000802212011A60AB00274A9958002907D030
:10247000506901F05FFB431C5800C0180338FDD2BF
:1024800053465A0123685A40E0231A4080235B01D7
:1024900023431A605A46012A28D980239B012343EB
:1024A000802212011A6043466360424600233000D6
:1024B000494601F07DFBAD00134B58510120F0BCA3
:1024C000BB46B246A946A046F8BD104B104A332180
:1024D000104800F075F9012FBFD1C0239B012343A1
:1024E00003221A60A368DB07FCD5C9E7216879409D
:1024F00003220A401A60A2680123BB401342FAD0AB
:10250000CBE7C04600800040181C0020D4BC00105F
:1025100044BD0010E8BC001030B583B00C2000F0C2
:1025200011F9FEF70DFA00280DD0002304E0990000
:102530002D4A2E4888500133092BF8D92A4B2C4AB2
:102540005A6203B030BD2B4B00229A6700F002F9AB
:10255000294B01221A60274B5B6C012BFBD1274BC7
:1025600003221A60234B9B6B012BFBD10133009399
:102570000433234A0121234800F054F80523009333
:10258000214A0121214800F04DF8214B00930022FF
:1025900002210420FFF73CFF1E4D00952B00002276
:1025A00001210520FFF734FF104C00942300002286
:1025B00000210720FFF72CFF0094230000220021B8
:1025C0000820FFF725FF0A4B00932300002200217B
:1025D0000920FFF71DFF00952B0000220021062097
:1025E000FFF716FFADE7C046181C0020006CDC02A8
:1025F0001BB70000008000403CB0004030B00040FD
:10260000002F685900800240008C864700C00240BD
:10261000001BB700405973078000014BC05870473A
:10262000181C0020F0B5C64600B504000E001700C7
:102630001D00374801F07EFA8046364BFA18364BBB
:102640009A4239D80100380001F074FA0200103AB9
:1026500098235B009A4235D86B1E062B38D8069B10
:10266000013B062B34D83F09474537D32D04069B41
:102670001A0315432368002B36DB284B9C4244D0B9
:1026800080225201264B1A60264B1A60264B9B680B
:1026900011009943FAD12660A060231DC022920147
:1026A0001A43212313602368002BFCDAE56008231A
:1026B000136080BCB846F0BD1C4B1D4A11211D485B
:1026C00000F07EF81C4B1A4A19211A4800F078F8DD
:1026D0001A4B174A1C21174800F072F8184B144A7D
:1026E0002321144800F06CF822683F231340B342C2
:1026F000C3D1A3681B051B0D8342BED1E368EE2244
:10270000D2021340AB42B8D1D3E780229201B9E79D
:10271000001BB70080E84BD380F8A93200C002400C
:1027200000E0004000F0004000C0004054BD001038
:102730008CBE0010B4BD001008BE001024BE0010F6
:1027400070BE001080239B000343014AD362704790
:1027500000800540064BAA2212011A602F22DA607F
:10276000044B054A1A60024B5B68002BFBDA70478A
:10277000004002400060024000B0FA0000BEFDE7E9
:1027800003000A4A1268002A08D0084A1068C318D1
:10279000074A9A4206D3054A13607047034A05491F
:1027A0001160F2E701204042F7E7C0468C1C002090
:1027B00000000420C026022010B5FFF7DFFF000054
:1027C00010B582B00C001900002A0CD0084B002A6A
:1027D0000BD00192009323000200064802F02CFA6D
:1027E0000120FFF7CBFF044BF1E7034AF1E7C046B6
:1027F00098BE0010A8BE001088B0001070B52B4B1A
:102800002B4A1A602B4B2C4A1A602C4B9A682A4B85
:102810009343FAD12A4C01E008CC9847294B9C42BB
:10282000FAD3FFF779FE234B274A1A60234B9B68A4
:10283000DB43DB01FAD1254B40229A675A671A67BE
:10284000DA66234C09E0234B234A87212348FFF70C
:10285000B7FF2000FEF750FC0834214B9C4209D200
:102860002368002BF5D0012BEDD12000FEF752FCA0
:102870000C34F2E71B4CA1681B4DC022280002F06B
:1028800083F8A560EFF30583002B00D000BEFEF7B0
:10289000B9F8FEF71BFCFEF79DFF144C01E008CCD5
:1028A0009847134B9C42FAD370BDC04600E00040ED
:1028B000BFCDFBFE00F00040FE7F3C0000C00040AA
:1028C0004815002058150020FFFFFF0100F00140CF
:1028D00038150020D8BE001070BF0010F8BE0010E0
:1028E0004815002000ED00E00000002058150020F1
:1028F000641500200FB400B583B0084802F06CF9ED
:10290000049B002B07D005A90191180002F074F96F
:10291000034802F061F90120FFF730FF50BF0010BB
:1029200000B1001010B50148FFF7E4FF60BF0010D0
:10293000704710B5002802D00B684968984710BD51
:102940000100002007E083001B185B00501C08609A
:102950001078C01830380A681378303BDBB2092B86
:10296000F1D97047F0B5DE4657464E464546E0B5CC
:1029700083B093461F000C9B9A460D9C0E9B994674
:102980000F9B9B0703D0B8460F00060022E0019280
:10299000A34688464E46B9460700B44207D2551CA6
:1029A0004B4641462020B84701342A00F5E73D0058
:1029B0004F465C46019B9B46B1464646B8463700AB
:1029C0002E0007E0013C551C5346185D4346390074
:1029D000B0472A00002CF5D135003E0047460F9B3A
:1029E0009B0707D4100003B0F0BCBB46B246A94613
:1029F000A046F0BDB0464E46B9462F005D46531B7B
:102A0000B342EFD2541C4B4641462020B847220027
:102A1000F5E7F0B5CE46474680B585B09446984672
:102A20000C9D0D9C0EAB1B789946109A119B129E23
:102A3000B7071CD4002B0CD0F7070AD54F46002F40
:102A400002D10C37374204D0013B02E030272F552A
:102A50000134944201D21F2CF8D9F70707D59C42C4
:102A600005D21F2C03D830272F550134F5E7F70680
:102A700015D5770505D4002C03D0944224D09C4270
:102A800022D00F9A102A2BD00F9A102A30D00F9AEA
:102A9000022A35D01F2C02D830222A5501341F2C8F
:102AA00005D84A46002A31D02D222A5501340396F2
:102AB00002930194009543466246FFF753FF05B029
:102AC000C0BCB946B046F0BD621E012C06D00F9FB7
:102AD000102F01D01400D4E7023CD2E71400D0E755
:102AE000B206D1D41F2CCFD878222A550134D1E791
:102AF000B206CCD51F2CCAD858222A550134C9E7B2
:102B00001F2CC7D860322A550134C3E7720703D59A
:102B10002B222A550134CAE73207C8D520222A556C
:102B20000134C4E7F0B5DE4657464E464546E0B5AB
:102B300093B081468A46089209931CAB10CB1B7850
:102B40009B461E9D219B9846002C03D11023424694
:102B50009A4390468023DB0046461E4042461A4276
:102B600012D0002C22D000260EE03033D9B2771CD0
:102B70000AAB99552900200000F0DCFFAC4216D3C7
:102B80001F2F14D83E0004002900200000F0D2FFBF
:102B9000CBB2092BE9D94246920605D54121C91885
:102BA000C9B20A39C9B2E2E76121F8E72700434612
:102BB0000693209B05931F9B049303955B4602930A
:102BC00001970AAB0093099B089A51464846FFF7C4
:102BD00020FF13B0F0BCBB46B246A946A046F0BDEC
:102BE000F0B5DE4657464E464546E0B595B00890EE
:102BF00009910A920B931E9E1F9C20AB1B789B464B
:102C0000229B9946239D269B9A463300234303D15A
:102C1000103352469A4392468023DB0057461F40AA
:102C200052461A4219D0330023432DD0002714E016
:102C30003033DAB27B1C98460CABDA554A462B008F
:102C40003000210000F0B4FFA5421FD819D0434640
:102C50001F2B1BD8474606000C004A462B003000AD
:102C6000210000F0A5FFD3B2092BE1D9524692060C
:102C700005D54122D218D2B20A3AD2B2DAE761229D
:102C8000F8E7B145E3D901E000239846534606939F
:102C9000259B0593249B04934B4603935B46029329
:102CA000434601930CAB00930B9B0A9A0999089831
:102CB000FFF7AFFE15B0F0BCBB46B246A946A04632
:102CC000F0BD0000F0B5DE4657464E464546E0B53D
:102CD00091B083468A460C9298461A9C08941B9D94
:102CE000099522002B002000290001F0ECF90028B2
:102CF00000D0E5E001225242D74B2000290001F02C
:102D0000DDF9002800D0DBE001225242D34B200045
:102D1000290001F0BDF9002800D0D1E000220023F5
:102D2000089E3000099D290001F0B2F9002800D06A
:102D3000DDE008980999069007918023DB001E9A30
:102D40001A400D921E9A1A4201D106231C9306982E
:102D5000079904000D000A000600024300D1D1E0EB
:102D6000080D4005400DBE4CA44660440A03120BFA
:102D7000BC4B13431F0001F0B9F9BB4ABB4B01F038
:102D800044F9BB4ABB4B01F019F904000D000022C5
:102D9000B94B3000390001F008F9B84AB84B01F0DE
:102DA00034F902000B002000290001F007F901F0BE
:102DB000B5F9814601F09AF904000D00B14AB24B11
:102DC00001F023F90022B14B01F0F8F801F0A6F967
:102DD0000600AF4AAF4B2000290001F016F90400AD
:102DE0000D00300001F082F9AB4AAC4B01F00DF957
:102DF00002000B002000290001F0D7F804000D00AC
:102E000002000B0001F001F90A900B91A44BF3189A
:102E100000261F0522002B002000290001F0CEF81B
:102E20000E900F9122002B0000208021C90501F097
:102E3000BCF804000D0000229A4B0A980B9901F08F
:102E4000C6F80022984B01F0B9F802000B000A986E
:102E50000B9901F0BCF80022944B01F0AFF802008E
:102E60000B000A980B9901F0B2F802000B00200049
:102E7000290001F0A3F802000B000E980F9901F051
:102E8000A6F80022774B01F099F832003B0001F0E0
:102E9000BCF806000F0004000D00069A079B01F025
:102EA0000DF9002830D001235B429C46E14400220A
:102EB0007D4B3000390001F08AF804000D0023E05A
:102EC0001E9B04931D9B03931C9B0293089A099BD2
:102ED0000092019343460C9A5146584600F0FCF884
:102EE00011B0F0BCBB46B246A946A046F0BD0023D7
:102EF000002406930794069680231B069C4665448F
:102F000007951AE7002399464B466333C62B1ED814
:102F100004261E9B1B0526D52B0023430FD0644A95
:102F2000644B0698079901F0C1F8002879D0002277
:102F3000614B0698079901F0ABF8002871D01C9BF3
:102F40004B4506DD4A46981A431E1C9303E00526AE
:102F5000DFE700231C938023DB001E9A1A431E9296
:102F60000026002399461D9B9E4264D29F1B02238C
:102F70001E9A1A400A921E9A134202D0002E00D0C6
:102F800000274B46002B07D022002B0006980799FC
:102F900001F01DF806900791002200230898099976
:102FA00001F076F8002848D1444B1E9A1340049350
:102FB00003971C9B0293069B079C00930194434636
:102FC0000C9A5146584600F087F8002E00D187E74A
:102FD0001E9B9B063DD54525441C43460200514699
:102FE0002800D8474B46DA179B1853400522059214
:102FF000013E0496002203920A3202924A46D00F02
:10300000019000934346220051465846FFF78AFD3F
:103010000A9B002B00D163E702005F460C9E1D9DBA
:1030200054E01C9B002B9ED00D9B002B9BD01C9B27
:10303000013B1C9397E7002799E7069C079D220018
:10304000290080200006844661440B000692079305
:10305000AAE76525C0E7C046FFFFEF7FFFFFEFFF50
:1030600001FCFFFF0000F03FFB799F501344D33F6A
:10307000B3C8608B288AC63F0000F83F61436F6386
:10308000A787D23F71A379094F930A400000E03F20
:103090001655B5BBB16B0240EF39FAFE422EE63F42
:1030A000FF03000000002C400000244000001840F6
:1030B0002D431CEBE2361A3F80842E41FFF7FFFFC1
:1030C000541C434651462020B8472200931BAB4274
:1030D000F6D3100004E7C046F0B5DE4657464E462C
:1030E0004546E0B595B00690079193469946209FD6
:1030F0001E9A1F9B1000190000F0E5FF002831D137
:1031000001225242BF4B1E981F9900F0C1FF0028B8
:1031100037D101225242BC4B1E981F9900F0CEFFBE
:1031200000283DD10022B94B1E981F9900F0C6FF20
:10313000002850D10022B64B1E981F9900F0A8FF1E
:10314000002848D1002200231E981F9900F0A0FFFC
:10315000002850D100239846229B5B0500D4B6E09E
:10316000002458E0229B0393219B029303230193A5
:10317000A84B00934B465A4607990698FFF7F2FB77
:103180000EE1229B0393219B029304230193A24B04
:1031900000934B465A4607990698FFF7E3FBFFE07A
:1031A0000423229A1A4022990B4210D09B4B002AEA
:1031B0000FD0042222990391219902910192009348
:1031C0004B465A4607990698FFF7CCFBE8E0944B2C
:1031D000EDE70322EEE7229B0493219B03930297E2
:1031E0001E9B1F9C009301944B465A4607990698D4
:1031F000FFF768FDD4E01E9A1F9B0020002100F01D
:10320000D4FE1E901F9101239846A5E70CAB3022F7
:103210001A55013F01341F2C01D8092FF6D81E98EA
:103220001F9900F07BFF050000F060FF02000B001B
:103230001E981F9900F0B9FEFA007A4B9B181A6885
:103240005B680A920B9300F0E0FE0890099100F091
:1032500089FF060000F046FF02000B00089809995C
:1032600000F0A3FE0890099100226F4B00F026FFAA
:1032700000282ED00136300000F034FF02000B0091
:103280000A980B9900F00AFF002801D001350026AA
:10329000002F2CD1280000F029FF02000B001E98FF
:1032A0001F9900F082FE06000F0000225E4B00F026
:1032B000EFFE002846D100225B4B3000390000F0C1
:1032C000FDFE00283ED1EB073CD501353AE006274C
:1032D00046E70022544B0898099900F0D9FE0028CF
:1032E000D6D1002E01D0F307D2D50136D0E7AA46B9
:1032F0001F2C11D8013F0A21300000F01BFC651C77
:1033000030310CAB19550A21300000F013FC092EA6
:103310000ED906002C00EBE755461F2C0CD87B1E5F
:10332000002F09D00CAA302111551F000134F4E7F9
:103330002B0055461C00F0E71F2C03D80CAB2E22A7
:103340001A5501341F2C10D80A21280000F0CAFB9E
:10335000661C30310CAB19550A21280000F0C2FB65
:10336000051E01D03400EDE734000323229A1340F8
:10337000012B1CD01F2C06D84346002B32D00CAB9F
:103380002D221A550134229B0393219B0293019411
:103390000CAB00934B465A4607990698FFF7E2FAA2
:1033A00015B0F0BCBB46B246A946A046F0BD219B75
:1033B000002B13D04346002B02D10C3313420FD005
:1033C000219B013B2193190003E00CAB30221A55DD
:1033D00001348C42CED21F2CF7D9CBE72199F8E7E4
:1033E0002199F6E7229B5B0704D50CAB2B221A55DB
:1033F0000134C8E7229B1B07C5D50CAB20221A5508
:103400000134C0E7FFFFEFFFFFFFEF7F65CDCD4148
:1034100065CDCDC18CBF001090BF001084BF0010DF
:1034200080BF001078C100100000E03FF0B5DE461C
:1034300057464E464546E0B593B082468B46904689
:103440001193002900D1EBE200275546119B187813
:10345000002800D1E7E2252809D07C1C43463A0029
:103460005946A847119B013311932700EEE701331A
:1034700011930024119A11780B00203BD8B2102828
:1034800003D88300D048C3589F460B00303BDBB2C3
:10349000092B2CD92A292FD000230A93119B1A78A3
:1034A0002E2A39D000239A46119A1378683BD9B254
:1034B000122976D88B00C549CB589F4601231C435F
:1034C00001321192D6E702231C4301321192D1E757
:1034D00004231C4301321192CCE708231C43013220
:1034E0001192C7E710231C4301321192C2E711A8C1
:1034F000FFF726FA0A90D1E71C9B1A1D1C92186848
:10350000002804DB0A90119B01331193C6E70223C4
:103510001C4343420A93F6E78022D20014435A1C0C
:1035200011925A781300303BDBB2092B04D92A2AB6
:1035300007D000239A46B7E711A8FFF701FA8246A1
:10354000B2E71C9B1A1D1C921868002804DB8246F7
:10355000119B01331193A7E70020F8E780235B005C
:103560002343511C119152786C2A01D01C0018E0A1
:10357000C0239B001C430131119112E0802323439F
:10358000511C11915278682A01D01C0009E0C02317
:103590001C430131119104E080235B001C43013284
:1035A0001192119B18780300253BDAB2532A00D9F7
:1035B0002CE29300864AD3589F4680239B001C43ED
:1035C00001321192EDE780235B001C43013211921E
:1035D000E7E7782809D0582838D06F2838D06228F3
:1035E00038D010239C430A2600E01026582833D0F8
:1035F000692803D0642801D00C229443630501D5C7
:103600000122944369282AD0642828D0A30500D534
:103610009FE0E30500D5B8E0630600D4CAE01C9A39
:10362000111D1C911168FF220A4005940A9B049306
:1036300053460393029600230193009243463A00B7
:1036400059462800FFF76EFA070027E01026CDE75D
:103650000826CBE70226C9E720221443C8E7A305C2
:1036600020D4E30550D4630666D51C9A111D1C9125
:103670001168FF220A40D317D118594005940A9BBC
:103680000493534603930296D20F0192009143464E
:103690003A0059462800FFF745FA0700119B01330D
:1036A0001193D3E61C9BDA1D07218A4311000831D0
:1036B0001C91116853689C46DB170C930D930C9A70
:1036C0000D9B100048400E90624653400F930E9899
:1036D0000F990C9A0D9B801A99410E900F910894A6
:1036E0000A9B07935346069304960023059363466B
:1036F000DA0F02920090019143463A0059462800A1
:10370000FFF76EFA0700C9E71C9A111D1C91126899
:10371000D317D118594005940A9B04935346039339
:103720000296D20F0192009143463A005946280072
:10373000FFF7F8F90700B1E7230605D51C9A111D1C
:103740001C910023D25E96E71C9A111D1C911268F1
:1037500091E71C9BDA1D07218A43110008311C9157
:1037600008940A9B079353460693049600230593F7
:103770000293136854680093019443463A005946F3
:103780002800FFF72DFA070088E71C9A111D1C91ED
:1037900005940A9B049353460393029600230193D6
:1037A0001368009343463A0059462800FFF7BAF9D8
:1037B000070073E723060DD51C9A111D1C91126892
:1037C0001204120C31E7C04698BF0010DCBF001095
:1037D00028C000101C9A111D1C91126825E746286C
:1037E0001AD01C9B0733072293431A0008321C92FD
:1037F00004940A9A0392524602925C681B680093F2
:10380000019443463A0059462800FFF765FC07003B
:10381000119B0133119319E620231C43E1E767282C
:1038200001D0472802D180231B011C43452801D029
:10383000472801D120231C431C9B073307229343B5
:103840001A0008321C9204940A9A03925246029279
:103850005C681B680093019443463A00594628006F
:10386000FFF730FA0700119B01331193EEE50223B5
:103870001A002240924623421FD001241C9B1A1D8D
:103880001C927A1C9146187843463A005946A8473C
:103890005346002B16D1119B013311934F46D5E5AA
:1038A000561C434659462020B847230032005C1C72
:1038B0009D42F5D83D001700E0E701233A002F00B4
:1038C0000A9DF4E74A46A9460A9D06E0571C43466E
:1038D00059462020C84734003A00661CA542F5D856
:1038E0004D469146D7E71C9B1A1D1C921B689946B2
:1038F0005346002B00D1013B4E4601E00136130038
:103900003278002A02D05A1E002BF7D14B46F21A09
:1039100010928023DB0026001E401C4203D052453B
:1039200001D95346109302231A0022400B922342DE
:1039300005D03A0037004C46A946554620E03A00EB
:10394000109B5F46B3462E0006E0551C43463900E7
:103950002020B04723002A005C1C0A999942F4D821
:1039600035005E46BB46109437004C46A946554686
:1039700006E01D000134561C43465946C847320034
:103980002078002804D0002FF4D06B1E002DF0D139
:1039900017004D460B9B002B03D1119B0133119354
:1039A00054E50A9F109B06E0561C434659462020CA
:1039B000A847230032005C1C9F42F5D81700ECE7B3
:1039C00021231C431C9B1A1D1C921B680093059409
:1039D0000823049353460393102302930023019377
:1039E00043463A0059462800FFF79CF80700119B10
:1039F000013311932AE57C1C43463A0059462520A1
:103A0000A847119B0133119327001FE57C1C4346F7
:103A10003A005946A847119B01331193270015E539
:103A20000A4B9A4610E5AA46474502D343465A1E1A
:103A300000E03A00434659460020D047380013B012
:103A4000F0BCBB46B246A946A046F0BD31290010E5
:103A500000B585B0029003910121009313004A4202
:103A600002A90248FFF7E2FC05B000BD33290010AF
:103A700001480421014B1847900C0020AD3A00107A
:103A8000014B5B6818470000900C002010B5010046
:103A900018231B8814221088984710BD10B5010008
:103AA00018231B8816221088984710BDF0B5C6460B
:103AB00000B507000E0000250123984600E00135FF
:103AC000B5420AD2AC003C192068FFF7DFFF206046
:103AD0000028F4D100239846F1E7404680BCB84660
:103AE000F0BD0000124A936F9B0815D29066D16614
:103AF000002905D0FFE7FFE7FFE7516F106F704720
:103B000004B580210906C2175140002800D0C843DF
:103B100007F042FA002104BDF0B5146E556E576FE0
:103B2000166FFFF7E3FF1466556657671667F0BD1B
:103B3000000000D0114A936F9B0813D210665166A3
:103B4000002905D0FFE7FFE7FFE7516F106F7047CF
:103B500004B5002801D00020C04307F01DFA002161
:103B600004BDC046F0B5146E556E576F166FFFF763
:103B7000E5FF1466556657671667F0BD000000D074
:103B800094464A4A926F9208624601D228E0C046A3
:103B9000F0B5464E346E756E776F366F00F020F8D4
:103BA0009446424A14665566576716676246F0BDEA
:103BB00094463E4A926F9208624601D254E0C04653
:103BC000F0B53A4E346E756E776F366F00F04CF884
:103BD0009446364A14665566576716676246F0BDC6
:103BE000002B24DB11D000293EDA00B5C943404246
:103BF00000D1013100F038F8C943404200D1013111
:103C0000DB43524200D1013300BD002AEBD1002832
:103C100001D1002905D00020C90FC90701D1C04337
:103C2000410800B507F0A8F90022002300BD00B547
:103C300000290ADBDB43524200D1013300F014F8C3
:103C4000C943404200D1013100BDC943404200D1C7
:103C50000131DB43524200D1013300F005F8DB4370
:103C6000524200D1013300BD002923D1002B18D1CD
:103C7000002A0CD0BC460D4F38667A66002100231E
:103C8000FFE7FFE7FFE77A6F386F67467047002866
:103C900001D00748010000B507F06EF900220023AB
:103CA00000BD02000B00002000217047000000D082
:103CB000FFFFFFFF002B00D0BFE0130C28D1002A2C
:103CC000E7D080B4114F39667A66FFE7FFE730B47A
:103CD000040C7B6F396F1B0423433B667A66FFE756
:103CE000FFE7FFE7C04684B27B6F3D6F1B042343B1
:103CF0003B667A66FFE7FFE7C04600232C042D0CE5
:103D00007A6F386F00196941B0BC7047000000D06D
:103D1000F0B594460025140E01D112020835140F97
:103D200001D112010435940F01D192000235D40F54
:103D300001D152000135D40B0134254F7C66254C4E
:103D40003C660E0C93B2FFE7FFE7FFE73C6F66436C
:103D5000360C7703BE467343DF0B5B04C01AB941D0
:103D6000130C7343DB18C91ACE086643360CB644ED
:103D700093B273431F0F1B01C01AB941130C734355
:103D80001F0B1B05C01AB941860D8F023E436643C7
:103D9000360C092D24DB520A7243801A7703460A37
:103DA0006643360C16235B1BDE40DF40BF196446BA
:103DB0006643821B7046043506330100D940A84093
:103DC000C01900D30131A24206D20023F0BD000089
:103DD000000000D0FFFFFFFF121B0130F3D3F1E71B
:103DE00009277F1BFE406446A2B27243801A00D2AC
:103DF0000139220C7243130C1204821A99410B00F0
:103E00007046043513370100F940A840801900D3EB
:103E10000131002B02D1A2420AD2F0BD013000D301
:103E20000131121BFAD2013BF8D1A24200D2F0BDFF
:103E3000013000D30131121BF7E7F0B51C0C00D0A4
:103E400080E00CB400251C0A04D11B02160E33437B
:103E5000120208351C0B04D11B01160F334312014B
:103E600004359C0B04D19B00960F3343920002351E
:103E7000DC0B02D192185B4101351C00971864419C
:103E80000134464F7C66464C3C660E0CFFE7FFE76C
:103E9000FFE7C0463C6F6643360C7703BE4697B2D9
:103EA0007743C01B00D20139C01B00D201399FB239
:103EB0007743C91BC91B170C77437E04FF0B801B7C
:103EC000B941CE086643360C0C2D33DBB644120BD9
:103ED0001F053A431B0B97B27743C01B00D2013931
:103EE0009FB27743C91B170C77433E043F0C801BDE
:103EF000B941860D8F023E43664329277F1BFE4052
:103F00000C3D7746AF40BF1930BCA2B2ABB2724392
:103F10007343801A9941220C7243130C1204801AC5
:103F2000994102000B000137001BA941F9D2781E0C
:103F30000021F0BD0C277F1BFE4077467F0BAF4072
:103F4000FF19E0E700245D1C07D0144F7D66396639
:103F5000FFE7FFE7FFE7FFE73C6F95B29EB26543DF
:103F60006643401BB141150C1E0C65436643360485
:103F70002F0C3E432D04401BB141994204D2020054
:103F80000B0020000021F0BD01D19042F7D3801A30
:103F9000994101349942F2D3F6E70000000000D0C5
:103FA000FFFFFFFF48404140484018B41B4B5B688F
:103FB000FC46019308BD04DF7F42001018B4174B84
:103FC0001B68FC46019308BD00DF8942001094463F
:103FD000134A926F920809D2624618B40F4BDB68FD
:103FE000FC46019308BD0CDF414500100C4AF0B5BA
:103FF000146E556E576F166F6246FFF7EEFF084A54
:104000001466556657671667F0BD18B4034B9B6876
:10401000FC46019308BD08DFE54300105023002053
:10402000000000D0FFB550404240504059404B4046
:10403000594000E0FFB5154F4C00640D03D0BC4261
:1040400004D10C0314D80020090D09055C00640D8F
:1040500003D0BC4204D11C030AD800221B0D1B054F
:1040600001264B4009D44B4003D58B4200D18242FC
:10407000FFBD9942FCD19042FFBD0B43DB180343C7
:104080001343F5D0C9434918FFBD0000FF070000E6
:1040900000B5FFF7CFFF804100BDC04600B5FFF778
:1040A000C9FF01D9002000BD012000BD00B5FFF708
:1040B000B9FF01D9002000BD012000BD00B5FFF708
:1040C000B1FF804100BD012040054A00121804D80C
:1040D0005A00121801D800207047012070470020B4
:1040E000704700000021002805D17047C1174840E3
:1040F000401AFAD0C90713B5064B1B6898470CBC89
:10410000441CA2401005120B0349091B0905194361
:10411000114310BD502400201F04000010B54C00B6
:10412000620D8023D218DB00D21A5B057E2A10DDD7
:104130009E3A13DACC170903490819435242D14079
:10414000640001341532202A05DAD0400843604368
:1041500010BD002010BD0846604310BDC80FC01838
:10416000013810BD18B4044B5B6AFC46019308BDCE
:1041700024DFF146001000005023002070B5132307
:104180001C78012C14D0012C14DC022C02DC1F4AF8
:104190001F4B9A641F48FFF779FC1F4B186070BDD6
:1041A00099001A481A4A885001331F2BF8D9EAE7B8
:1041B0000023FAE71948FFF771FC05001848FFF7DC
:1041C0006DFC023803789B007F2B19DD80222900CB
:1041D0000F4800F0D9FB022CD7D1124B1A88B52317
:1041E0001B029A4209D1104B1A88104B9A4204D1F3
:1041F0000F4B1A880F4B9A42C7D00020FEF77AFB6C
:104200000D4B0E4A32210E48FEF7DAFA45420010F5
:10421000502300204C330000502400205344000061
:104220005346000054380000D838000049460000CA
:104230009C38000059460000C8C100107CC2001024
:104240001CC2001007B56046002800D100BE0188DE
:104250000A0A0230DF2AFAD1C9B2820804D30288DE
:1042600040880004104300E00068024A5050039068
:1042700007BD0000502300200FB403BC0CBCF0B5F8
:104280000124E407634000E0F0B50C0DCF0F661E7B
:104290003605891B640503D3C943404200D301316D
:1042A000640D03D0661CF60A07D0E41B00207F00D3
:1042B000791C89078912803C24031D0DDF0F6E1EB7
:1042C00036059B1B6D0503D3DB43524200D30133FC
:1042D0006D0D03D06E1CF60A07D0ED1B00227F0087
:1042E0007B1C9B079B12803D2D032F1B661B58D404
:1042F000A446202E46DA20371400BC401D00BD40E5
:10430000F24033412A4380185941CB0F05D0C943AD
:10431000C043002264425041514162464D0D28D1B4
:104320000D0D07D100281FD0241940414941013A01
:104330000D0DF9D0640006D3013000D30131002CFB
:1043400001D140084000013A0BD4941CE40A04D186
:1043500012051144DB071944F0BDD907204B19435E
:1043600000E0D9070020F0BD0029DDD1002CDBD111
:10437000F0BD0132C6074008CD0728434908002E8A
:10438000E1D0D9E73C2E29DA203E40371400BC406A
:1043900000D00124F24014431A00BB401C43D31741
:1043A000ACE7AC46202F08DA20360400B4400D00FC
:1043B000B540F84039412843A5E73C2F0CDA203FAF
:1043C00040360400B44000D00124F8400443080003
:1043D000B1400C43C117EAE710001900002494E72C
:1043E0000000F07FF0B50C0D661E3605891BE60A4D
:1043F0006405640D02D0651CED0A04D00020012183
:104400000905803C2403A4461C0D671E3F05DB1BE9
:10441000E70A6405640D02D0651CED0A04D0002291
:1044200001231B05803C24037740644497B484B285
:1044300096B27443070C7E43150C6F4380B26843F9
:10444000361802D3012000043F183004350C00193F
:104450007D41844688B29AB250430C0C62431F0CD3
:104460007C438EB27E43921902D301263604A419EE
:104470001604170C3618674101BC81B29AB2514339
:10448000040C62431B0C5C4380B25843121802D3E5
:104490000120000424181004130C401863412D1847
:1044A0005E410020474106BC88B293B258430C0CD1
:1044B0006343120C544389B251435B1802D3012168
:1044C0000904641819041A0C091862416D18564140
:1044D0000020474118BCF902720D1143F0026A0D29
:1044E0001043ED020A0D03D16D1940414941013BD2
:1044F000124E9B1B7600B3420ED26D0007D30130E3
:10450000002671416646354301D1400840001B0535
:10451000C918E4072144F0BD0BDA013306D101309C
:1045200004D101314F0D01D04908F2E7E107002025
:10453000F0BD013631050020EBE70000FF0300006D
:10454000F0B51C0D671E3F05DB1BE70A6405640D13
:1045500002D0661CF60A04D0002201231B05803C11
:104560002403D0252D060026F6432E661E096E660E
:10457000CE0FF619B44649004F0D02D07E1CF60A44
:1045800003D000200021403F3F033E1BB600B4444F
:10459000013F7F05C91B49082E6F013676089C0232
:1045A000950D25437543ED137543AD1301356D101E
:1045B000F603761B0CB4CC02450D2C43A2B2B3B269
:1045C0005A43270C7B43350C6F43A4B26C431B1931
:1045D00002D3012424043F191C041D0CA4187D419E
:1045E00024196D41009A91B2ACB26143170C7C431F
:1045F0002B0C5F4392B25A43A41802D30122120437
:10460000BF182204230C52187B41019C6C431B19D8
:10461000520ED9010A434401A01A81B2B2B25143E9
:1046200003145A43360C734387B27743D617D21913
:1046300000277E4136049B191704160C7F185E4133
:104640007316ED18F301002680337541A90F06D1CA
:104650006400690AE8055B0A184309D22FE00422C6
:10466000944480337541A90AA8059B0A184326D3B0
:10467000404149412404009A019B0D005543641BAD
:104680004343E41A95B286B27543170C7E43030C7C
:104690005F4392B25A43B61802D301221204BF18E4
:1046A0003204330C52197B4152429C41002C02D4FB
:1046B0000022013051414008CA071043490802B0A6
:1046C0006246D7079210084BD218084B9A4203D281
:1046D00012058918C919F0BD0020002A01DC390033
:1046E000F0BD01331905F5E7FD030000FE070000EA
:1046F000002200B5203200F004F8080000BD0000E0
:1047000000220B150AD410B5944600F031F81414A9
:10471000013400DA0021CB17144C2047002000217F
:1047200070476244343A0CD40C2A07DA04009140F2
:10473000904052422032D440214310BDD843D94347
:1047400010BD203207D40C46944052422032114111
:10475000D040204310BD0800C917203203D4524274
:104760002032104110BD1800190010BD2347001061
:104770000A0DCC0F531E1B05C91A520503D3C9439A
:10478000404200D30131520D03D0531CDB0A07D045
:10479000121B00206400611C89078912803A1203F1
:1047A000014BD21A70470000FF03000051434343FE
:1047B000C9188C46110C83B24B4310B4040C6143EE
:1047C00092B280B2504362431C041B0C001910BC0F
:1047D00059411304120CC018514161447047000044
:1047E00070B513231D782A48FFF758F90400012DEE
:1047F00011D0012D09DDA31E1B789B007F2B40DD0E
:1048000080222100234800F0BFF82348FFF73EF93B
:10481000224B186070BD542201001E4800F0B4F80D
:104820001F4B1A881F4B9A421CD1A7239B011A8841
:104830001D4B9A4216D11D4B1A881D4B9A4211D11D
:104840001C4B1A8894239B019A420BD11A4B1A884D
:104850001A4B9A4206D11A4B1A681A4B9A4201D146
:10486000152307E01848FEF745F899001748094A4C
:10487000885001331F2BF8D9144A064B1A62DA61AB
:10488000B7E7134B134A42211348FDF799FFC0467F
:1048900053460000542400204C33000050240020D4
:1048A000EE290000C40F0000C20D0000962B00008E
:1048B000C0B50000182B0000CC2A000010B5000085
:1048C000FC2C000051ED876488B00010DD4800101A
:1048D00090C2001020C30010C4C2001007B560468B
:1048E000002800D100BE01880A0A0230DF2AFAD16E
:1048F000C9B2820804D3028840880004104300E053
:104900000068024A5050039007BD00005424002064
:1049100070B504000A4E300006F06EFB200005F072
:10492000C7FE0500300006F017FB002D05D02C193E
:10493000044B9C4201D8280070BD0348FDF7DAFF04
:10494000381500200000042034C3001070B50400A6
:10495000054D280006F050FB200005F0B3FE2800AE
:1049600006F0FAFA70BDC04638150020014804214F
:10497000014B1847A00C0020AD3A0010014B1B68FA
:1049800018470000A00C0020014B5B68184700008E
:10499000A00C002010B50300080011001B68984708
:1049A00010BD0000F8B507000D001600437D002B78
:1049B00002D0002400200CE0036811002800984772
:1049C0002DE03B7D10E0022115483B689847601CB4
:1049D0000134B44214DA002CF3DD2B19013B1B78AF
:1049E0000D3B5A425341DBB22A5D0A2AF0D1002B1B
:1049F000EED1A042E7DA211A28183B689847E2E78F
:104A0000B04203DA311A28183B689847002E06DDB9
:104A1000AD19013D2B780D3B5A4253413B75F8BD12
:104A2000C4C3001070B505000368002B16D00C4BF2
:104A30001C6805E0290004C92000FFF7B3FF2469C2
:104A4000002C09D02368002BF9D0064B1B68002BE3
:104A5000F0D0A342F3D1EDE700232B6070BDC04638
:104A6000801C0020881C002070B505000C000B681D
:104A7000802B05D021684B1C23606418257170BD04
:104A80000800FFF7CFFFF5E710B5FDF7B3F8020018
:104A90000B1E0BDB0D48002112184B41002B0BDBCA
:104AA000002B0DDB0A4806F087FA10BD094B0A4AB5
:104AB0003F210A48FDF784FE01225242084BEFE7EE
:104AC000044B054A3F210548FDF77AFE40420F009E
:104AD00040150020E8B60010ACC3001004B7001069
:104AE000FFFFFF7F10B5024806F036FA10BDC04642
:104AF00040150020F0B5CE46474680B583B006008D
:104B00000D0090461C00FFF7BFFF81466B1C05D0CF
:104B1000002C08D0194F1A4B1C6807E0300006F033
:104B2000B3F80500F4E7174FF5E72469002C17D018
:104B30002368002BF9D0144B1B68002B01D0A34233
:104B4000F3D12A0031002000B8474346002BECD0B7
:104B50006B46D91D0A230B7001222000B847E4E7F9
:104B60004B46002B07D16B1E9D41E8B203B0C0BC81
:104B7000B946B046F0BDFFF7B5FFF4E79549001020
:104B8000801C0020A5490010881C0020094A01E073
:104B900010331A001368002B08D08342F8D1002983
:104BA00007D1036913600023036102E0002900D0EC
:104BB00010607047801C002010B5064B1C6801E097
:104BC00098472469002C03D06368002BF8D1F8E7DC
:104BD00010BDC046801C002070B5050006F054F8DA
:104BE00004000023012201002800FFF783FFFFF7E4
:104BF000E3FF200070BD000070B5A2B004000E00FD
:104C0000FFF742FF0500002301933300220001A9B2
:104C10000848FEF71DFF040001A8FFF703FFFFF798
:104C2000CBFF002D02D1200022B070BDFFF75AFF4C
:104C3000F9E7C046694A00100FB400B583B004A973
:104C400001C90191FFF7D8FF03B008BC04B01847B1
:104C500010B500F0F9F8012010BD0000F0B583B0E8
:104C600005000E0000240FE06B46D91D0D230B70CC
:104C70000020002816D193699B06FCD40B781360A2
:104C800001300131F5E70134B44219DA0D4B1A68ED
:104C90002F5D0D4BD31859424B415B000B495B5EB6
:104CA000BB42E1D06B46D91D0F7000200028EAD12D
:104CB00093699B06FCD40B78136001300131F5E752
:104CC00003B0F0BD6C2500200080FCBF68250020EB
:104CD000F0B583B006000F00002504E06B460733F3
:104CE0001B782B702500BD4215DA174B1A689369A3
:104CF0001024210019401C420DD16C1C75196B4603
:104D0000D81D0029EAD19369DB06FCD4136803702F
:104D100001310130F5E70D4B1B68002B0CD00A4B1D
:104D20001A685023936311003431536B38221A40B0
:104D300080235B010B431A60002D02D0280003B0D2
:104D4000F0BD033DFAE7C0466C2500200C1C002096
:104D500010B5064B1B68002B06D0054A12680021CF
:104D60009163044A1068984710BDC0460C1C00208F
:104D70006C250020101C002070B504000E001C4B98
:104D80001B681C4A98184242504114300500002C00
:104D900003D0194A1268002A06D0002C19D0164BED
:104DA0001C60164B1E6070BD1549FBF7E9FE012122
:104DB0002800FBF7D5FE0E4B1A68502393631100B1
:104DC0003431536B38221A4080235B010B431A6045
:104DD000E5E7094A1268002AE1D000229A6300211F
:104DE0002800FBF7BDFE06492800FCF70DF8D6E7C2
:104DF0006C2500200080FCBF0C1C0020101C002033
:104E0000514D001070B50D001C000D4B1860002AAC
:104E10000BDA002C0EDA0A4B18682900FDF7B8FAF5
:104E200001210848FFF7B2FE70BD02211000FBF718
:104E300049FDEEE702212000FBF744FDEBE7C04609
:104E40006C250020B00C002010B5064B1B78064BDB
:104E50001B78E1210123002249020448FFF7D2FF19
:104E600010BDC04670DC001074DC00100040034030
:104E70000123084A1360084A1360084B9A6801230B
:104E80009343FAD1064B01221A60054B1B68DB05E0
:104E9000FBD5704700E0004000F0004000C000403B
:104EA00000C0044010B5024800F00CF810BDC04628
:104EB0004823002010B508220149FFF765FD10BD09
:104EC0004823002070B588B0040004AD0026049685
:104ED0000922002105A8FFF751FD009609220021B3
:104EE00001A8FFF74BFD4B232B700D2269462800CC
:104EF00006F02AF8002304E05A1D69468A5CE25451
:104F00000133072BF8DD08B070BD704700000000CA
:104F10000BA10CC9126892009B581868203080F3CE
:104F20000988022080F31488BFF36F8F3FBCAE4620
:104F300008BC04BC62B61847C046C046C046C0465E
:104F4000000000D0A420002002E0D0231B069B6DAF
:104F5000D0231B061B6DDB07F7D4D0231B06FF22D3
:104F60001A65024B802252051A60704704ED00E07A
:104F7000EFF309811AA00CC8106880001B1818688C
:104F800020390160F0C144464D4656465F46F0C1A7
:104F9000146E556E566F176F3039F0C1106808B532
:104FA00072B601F081FE62B60CBC11680868103060
:104FB000F0C8A046A946B246BB4680F309880D2238
:104FC00012073038F0C81466556656671767F0C880
:104FD0001847C046C046C046C046C046C046C04648
:104FE000000000D0A420002010B5FDF79BFC0000BD
:104FF00010B5EFF3108472B602F0CEF802F03EFB6B
:10500000002803D0044B802252051A6002F062F996
:1050100084F3108810BDC04604ED00E070B50400B4
:105020000D00FCF7E7FD02000B1E0BDBA41A9D41EF
:105030000C48012149420019694100290CDC07D0C4
:10504000002070BD084B094A3F210948FDF7B8FB15
:10505000FA239B009842F3D3FA2292000023FEF732
:105060008FFDEEE718FCFFFFE8B60010D4C6001075
:1050700004B7001010B5031F802464041C60043BB7
:105080001960043B02491960143B1A60403810BD96
:10509000E94F001010B5D0231B061B689B000A4A7D
:1050A0009B58002B08D1094B802252051A60BFF390
:1050B0004F8FBFF36F8F10BD6C21054B054AFF3139
:1050C0000548FDF77DFBC0464023002004ED00E0CD
:1050D00088C5001054C70010B8C50010D0231B06A7
:1050E0001B689900084A8A58002A0AD00B00002140
:1050F0000548195005481B58BFF35F8F116083F3B3
:10510000108862B67047C0464023002078250220F0
:1051100010B5D0231B061B68984204D0D0231B0671
:1051200000225A6510BD8821024B034AFF31034813
:10513000FDF746FB14C6001048C70010B8C50010A4
:1051400010B5094C00232360084A13600520FDF7C1
:1051500063FAFA218900FEF7EDFC0138044B186070
:105160000723236010BDC04610E000E018E000E017
:1051700014E000E070B5244B1A78D0231B061B689E
:105180009A4214D0214A1168FF231B040B43136079
:1051900002201F49404202F051FF05201D494042B4
:1051A00002F04CFFD0231B06FF221A6510E0FFF728
:1051B000C7FF164A1168FF231B060B43136001202B
:1051C0001549404202F03AFFDCE7D0231B069B6DF5
:1051D000D0231B061B6DDB07F7D4D0252D062C68CA
:1051E0000F34FF212000FBF7E5FE0C492000FBF700
:1051F000C7FC01212000FBF7B3FCFFF789FE2868FC
:1052000001F052FDFFF7F0FEC80C002020ED00E099
:10521000714F00100B4F0010F14F0010494F00105C
:1052200010B5124B1B78FF2B06D04C21104B114AA6
:10523000FF311148FDF7C4FA0E20FBF701FC0F20E7
:10524000FBF7FEFB094B00221A70D0231B061B68DC
:10525000934206D05421094B064AFF310648FDF718
:10526000AFFA074802F088FFFFF784FFC80C002060
:1052700030C6001060C70010B8C500104CC6001042
:105280008552001010B5EFF3108372B6FFF772FF6E
:1052900010B50A4B1B78FF2B0CD0EFF305800028CC
:1052A00005D0D022120612684000801810BD01F00F
:1052B000D1F9FBE7D0231B061868F7E7C80C0020DC
:1052C00010B582B0EFF30583DBB2002B28D1224B5F
:1052D0001B78FF2B2AD0D0231B061B689C001F4A7B
:1052E000A258002A2BD10268002A2ED09B001B4C0A
:1052F0001A511B4A995003681A4A944663449B10FA
:10530000012199400B021943090A174B1868012320
:105310005B4200930023012200F032F902B010BD7D
:10532000124B134A13491448FDF74AFA0368BFF3B6
:105330005F8F00221A6081F3108820BFEEE70F4BC9
:105340000B4A0F490C48FDF73BFAC4210D4B084AA4
:1053500089000948FDF734FAC80C002040230020DA
:105360007825022000FFFF2FEC25022060C60010E8
:1053700024C7001002030000B8C5001088C5001043
:105380000B030000C0C6001010B582B00C0002680C
:105390001B4B9C466244921001239340190219430F
:1053A000090A184B1B78FF2B20D040BF0368BFF3BE
:1053B0005F8F00221A6084F31088EFF30583DBB25D
:1053C000002B04D1104B186800F06CF916E0002394
:1053D00001930D4B186801AA00F0B4F9019B002B52
:1053E0000CD00A4B802252051A6007E040BF0368C8
:1053F000BFF35F8F00221A6084F3108802B010BDE3
:1054000000FFFF2FC80C0020EC25022004ED00E077
:10541000F0B583B006000F0015001C00EFF3058304
:10542000DBB2002B2ED1384B1B78FF2B30D0D02392
:105430001B061B689B00354A9B58002B35D1280062
:105440002100FFF7EBFD031E3DD03168002933D06A
:10545000D0221206126892002C4811502C49575045
:1054600032682C498C4662449210012191400A0214
:105470001143090A284A106800930023012200F012
:105480007FF827E0254B264A26492748FDF798F95B
:105490000368BFF35F8F00221A6081F31088280031
:1054A0002100FCF7FDFA040025E0D4211F4B1C4A23
:1054B00089001D48FDF784F9D6311D4B184A890033
:1054C0001948FDF77DF93368BFF35F8F00221A603A
:1054D00087F31088174B5B6A9C4209D8154A926A79
:1054E000AA420BD29C4201D0012402E0002400E039
:1054F0000024002C04D0200003B0F0BD0124F8E704
:10550000FFF7C8FDF7E7C046C80C00204023002085
:105510007825022000FFFF2FEC25022060C6001036
:10552000ECC6001046030000B8C5001088C5001086
:10553000C0C600100040054010B500F014F8014B43
:10554000186010BDEC250220002A03D1014206D1CB
:10555000100003E00840884203D00020704701207B
:10556000FCE70120FAE710B51C2002F073FE041ED0
:1055700003D0002308C000F0EFF8200010BD0000A9
:10558000F8B5CE46474680B506000D0090469946D0
:1055900000282ED00B0E1F06002B31D1002936D04B
:1055A00002F0B0FA002802D1089B002B36D101F09E
:1055B000BDFA34684A4629002000FFF7C5FF0028DD
:1055C00033D04346002B02D02300AB43336002F0BC
:1055D00019F9002F08D0002841D002F0ABFA0400DE
:1055E00083013FD52402240A2000C0BCB946B0463E
:1055F000F8BDA421254B264A49002648FDF7E0F8CE
:105600004A21254B224AFF312248FDF7D9F8A5212E
:10561000224B1F4A49001F48FDF7D2F84E21204B6C
:105620001B4AFF311B48FDF7CBF8089B002B14D019
:105630004346002B0ED139004B46002B02D080236D
:10564000DB0419432943301D089A01F047FC3C0054
:10565000089FBCE780214904EEE7089FB7E701F007
:1056600087FDBAE701F098FD34684A46290020001A
:10567000FFF76AFF002805D04346002B02D0230025
:10568000AB43336001F026FEACE7C04674C70010A0
:1056900090C8001080C70010C4C70010ECC70010ED
:1056A00004C80010F8B504000D0000280CD00B0E43
:1056B0001F06002B0ED106000C3601F037FA2069C8
:1056C00023681D43256018E0174B184A18491948EC
:1056D000FDF776F88821184B144A89001548FDF724
:1056E0006FF821681940994206D111E080218904A0
:1056F0002368194302F060F92800B0420CD04568D5
:10570000026813021B0A5101EBD421680B42F3D04B
:10571000D201EBD51F43E9E72368BB43236002F0C6
:1057200071F82068F8BDC04674C700107CC800102E
:105730001F02000080C7001058C8001010B5FFF706
:10574000B1FF10BD10B513000A000100014802F0BE
:105750003DFC10BD3D57001003000833436001229B
:1057600052428260C36003610023036070470023DC
:105770000361704743684B609A688A605160996022
:105780000861036801330360704730B50C68631C1F
:1057900010D0030008331A005B681D68A542FAD9CF
:1057A00053684B6099608A605160086103680133F7
:1057B000036030BD0269F3E70369416882688A606B
:1057C000416851605A68824206D0002202611A681C
:1057D000013A1A601868704782685A60F5E703005A
:1057E000406A002803D01B6B1B682020C01A70473A
:1057F00010B5040001F0D0FCA26BE36B9A4204D018
:10580000002401F067FD200010BD0124F9E710B568
:10581000040001F0C1FCA36B002B04D1012401F0B2
:1058200059FD200010BD0024F9E770B504001500F3
:10583000866B026C002A0CD10368002B03D0002079
:105840000136A66370BD806801F0EEFB0023A36003
:10585000F6E7002D0ED14068FFF796F86368226CDA
:10586000944663446360A26893421BD323686360D9
:105870002800E5E7C068FFF787F8236C5A42E16823
:10588000CB1AE36021688B4203D2A3689C46624432
:10589000E260022D01D00020D2E7002E04D0013EAC
:1058A0000020CDE72800CBE70020C9E770B582B023
:1058B0000190846C002C0AD0A26BE36B9A420CD24C
:1058C000A26B93420FD80025280002B070BD174B81
:1058D000174A18491848FCF773FF184B144A18491F
:1058E0001548FCF76DFF4523E65C76B2002201A95E
:1058F0002000FFF79AFF0500731C06D07F2E0FD003
:10590000013676B24523E654DEE7636A002BDBD02E
:105910002000243000F0F2FE0028D5D00125D3E786
:10592000084B034A08490448FCF74AFFA4C8001082
:1059300030CC0010A80B0000B8C80010F8C8001048
:10594000A90B000040C90010C90B000010B50300EE
:1059500008001A6C002A0AD0D9688918D9609C6896
:10596000A14201D31968D960D968FFF70DF810BDBD
:1059700070B5050001F010FC4523EC5C64B20AE050
:105980006B6A002B17D02800243000F0B7FE0028E7
:105990000ED1013C64B2002C0DDDAB6C002BEFD0BE
:1059A0002800FFF783FF0028F3D000F049FEF0E75E
:1059B00000F046FEEDE74523FF22EA5401F08AFCA1
:1059C00001F0EAFB4423EC5C64B201E0013C64B208
:1059D000002C0BDD2B69002B08D02800103000F0C4
:1059E0008DFE0028F2D000F02BFEEFE74423FF22CB
:1059F000EA5401F06FFC70BD70B504000D00002882
:105A00001DD001F0C9FB2268E36B206C01005943F3
:105A10005118A1600021A1636260013B4343D31888
:105A2000E360FF234422A3540132A354002D16D176
:105A30002369002B0AD101F04DFC012070BD0E211D
:105A40000B4B0C4AFF310C48FCF7BAFE200010301B
:105A500000F054FE0028EED001F08AFBEBE72000B6
:105A60001030FFF779FE20002430FFF775FEE2E7E3
:105A700060C9001088CC0010B8C8001070B51D00B7
:105A8000049C00290BD12460E063216401212000E3
:105A9000FFF7B2FF5023E5540023A36470BD2260DA
:105AA000F2E70000F0B583B005000F0016000028F3
:105AB0001CD00C004443002904D02000FEF73AF823
:105AC000A8421AD1230055331ED82000543002F0CA
:105AD000C1FB041E07D0020054320090330039008D
