:020000041000EA
:0400000AFFA0C0DEB5
:1000000D00B5324B212058609868022188439860D2
:1000100DD860186158612E4B0021996002215961F9
:1000200D0121F02299502B49196001219960352049
:1000300D00F044F80222904214D00621196600F017
:1000400D34F8196E01211966002018661A6600F041
:1000500D2CF8196E196E196E052000F02FF801217C
:1000600D0842F9D1002199601B491960002159609E
:1000700D1A491B48016001219960EB211966A021E5
:1000800D196600F012F800219960164914480160B4
:1000900D0121996001BC002800D000471248134986
:1000A00D086003C880F30888084703B5996A0420DF
:1000B00D0142FBD001200142F8D103BD02B5186603
:1000C00D1866FFF7F2FF186E186E02BD00000240B1
:1000D00D000000180000070000035F00212200004F
:1000E00DF4000018222000A00001001008ED00E02F
:1000F00D00000000000000000000000074B24E7A05
:1001000D00200420F7010010C3010010C5010010EC
:1001100DC1010010C1010010C1010010C10100108A
:1001200DC1010010C1010010C1010010C701001074
:1001300DC1010010C1010010C9010010CB01001058
:1001400DCD010010CD010010CD010010CD0100102A
:1001500DCD010010CD010010CD010010CD0100101A
:1001600DCD010010CD010010CD010010CD0100100A
:1001700DCD010010CD010010CD010010CD010010FA
:1001800DCD010010CD010010CD010010CD010010EA
:1001900DCD010010CD010010CD010010CD010010DA
:1001A00DCD010010CD010010CD010010CD010010CA
:1001B00DCD010010CD010010CD010010CD010010BA
:1001C00D00BE00BE00BE00BE00BE00BEEFF3058047
:1001D00D103800BEF2EB8871300A0010500A001082
:1001E00D3402001090A31AE700201F49086006C8CA
:1001F00D81F3088810471D48006800282FD10DA4F1
:1002000D0ECC002902D000F012F8F9E71849194A6E
:1002100D002000E001C19142FCD1174988471749E0
:1002200D88471749884700BEFDE701C901C29A42B8
:1002300DFBD37047500A001000000020440100203D
:1002400D940B00100000042000000420940B0010FB
:1002500D0010042000100420000000007047094821
:1002600D00F08EFA0047000008ED00E0000000D01D
:1002700D00020020240400205D020010550600102D
:1002800D5D0300105756000006005250ABB360538B
:1002900DD609001006005250861C0302E109001019
:1002A00D060052505422A29DFF0900100500525025
:1002B00DDE65F468940B0010F8B5C0460448054B94
:1002C00D10B5834203D0044B002B00D0984710BDCE
:1002D00D44010020440100200000000006480749A9
:1002E00D091A8B10C90FC91810B5491003D0044B4A
:1002F00D002B00D0984710BD440100204401002080
:1003000D0000000010B5074C2378002B09D1FFF732
:1003100DD5FF054B002B02D0044800E000BF0123A0
:1003200D237010BD0003002000000000A80900107C
:1003300D054B10B5002B03D00449054800E000BF64
:1003400DFFF7CCFF10BDC0460000000004030020E5
:1003500DA80900100048704719801F00FEE7FEE74E
:1003600D73B50C0016000500FFF7F4FF2C23802257
:1003700D98430F4B120418430E4B69461A600E4BEF
:1003800D07311A6801235340DB050C4ADB0D13605E
:1003900DA0238722DB05D2009E501D60596080216D
:1003A00D9C604904D86018690842FCD1985876BD04
:1003B00D1000800010200050340400503414005000
:1003C00D10B50400FFF7C6FF80220E4B1204184033
:1003D00D0D4B012118430D4B49421A600C4B1A6805
:1003E00D01235340DB050B4ADB0D1360A02387224D
:1003F00DDB05D2009950084A1C605A6040229A6071
:1004000D186110BD33F8FFFF380680001020005032
:1004100D340400503414005000020020A023862222
:1004200D0121D200DB059950802252041969114235
:1004300DFCD18722D20098587047000080230122FA
:1004400D10B5124C5B05E018FC215242FFF788FFF6
:1004500D0F4BE358984216D10E4B0F4AD968914273
:1004600D03D0D9680D4A914201D10022DA600422ED
:1004700D0B4B1A600B4BE418201C0B49086003C88A
:1004800D80F308880847002010BDC046001000000A
:1004900DFC00001000800540FB5ECD8E04A1327182
:1004A00D00E000400001001008ED00E0F7B50C0081
:1004B00DFA220021802705005200080000F0AEF955
:1004C00D314E240B7F01002C44D12E00AB68113628
:1004D00D591EFF360B0A30000193FFF771FF2A4FAB
:1004E00D019B0093009B0137FF37002B3DD100F09E
:1004F00D57F90122019B300019025242FFF730FFDC
:1005000DA04222D12E0010363000FFF759FFFFF721
:1005100D85FF80221D49520004001B4800F02CFA73
:1005200D00F03EF901228021300052424900FFF7D0
:1005300D17FFA04209D1F02380211B06E8184901BD
:1005400D00F02AFA124B134ADA608022124BD205C0
:1005500D1A60F7BD3000390000F01EFA80235B01F0
:1005600DF618013C00F01CF9ADE700F019F9FFF7A2
:1005700D55FF8022040005493800520000F0FCF9B7
:1005800D009B013BADE7C0460010000000020020BB
:1005900D00800540F24EFAE300B005400C235843AD
:1005A00D124B10B5C01880235B004360012913D096
:1005B00D0368802452015A40E02364011A40044329
:1005C00D2260032203684B401340236001238B40BC
:1005D00D82681342FCD010BDC02303249B0103434A
:1005E00D1C6083680B42FCD0E2E7C04600800040EF
:1005F00D37B50C2000F0CCF80023114DAB6700F09F
:1006000D2FF901220F4B1A606B6C012BFCD10322C9
:1006100D0D4B1A60AC6B012CFCD102250623210079
:1006200D00950A4A0A4800F02FF9290000220420FB
:1006300DFFF7B4FF002221000520FFF7AFFF37BD04
:1006400D008000403CB0004030B00040002F6859A1
:1006500D00800240F8B5404DEE682C69FFF7C8FFE9
:1006600D04233E4A3E49136018008A689043FBD12B
:1006700D3C4B9E421FD123051A0D002B22D1802108
:1006800D394B49055B18A3421CD2384BEB606A61AC
:1006900D81235B059C4221D3324B9E4202D0334BCA
:1006A00D9E4201D1FFF7CAFE314800F069F80021E2
:1006B00D0300080098472D4B9E4203D16B6901330F
:1006C00D6B61E5E7FFF7BAFE0028E1D1294B264C17
:1006D00DE418264BEB602C616861D9E72368214A49
:1006E00D934203D080235B01E418D1E7224B62686B
:1006F00D9A42F7D12700012210373800A1685242E3
:1007000DFFF72EFEE3689842ECD10122FC21380060
:1007100D5242FFF725FE23000D33FF331B6898422D
:1007200DE0D1A368154A991880220F4B090B520589
:1007300D09039B185B18A342D4D20029ACD06B6976
:1007400D022BA9D82000FFF7B1FE002132220800AC
:1007500D00F064F8FEE7C0460080054000F0004060
:1007600D00C00040FB5ECD8E0010000004A1327170
:1007700D5542000000100010A952AEC5FF0F000039
:1007800D142310B50100188804331B88984710BD39
:1007900D8023024A9B000343D362704700800540CB
:1007A00D024B1A68024B5A607047C0461C04002069
:1007B00D0080054003008020124AC00510B5124C80
:1007C00D106012480460E020114CC004002906D0CE
:1007D00D2060002B05D180231B06236010BD106007
:1007E00DF7E7FA208022C00058435204094B90428B
:1007F00D05D21860FFF7D4FF8023DB05EDE7064A2D
:1008000D1A60F7E700B00540FCFF01000820014029
:1008100D00A005401C040020FFFFFF0070B5040080
:1008200D100080220A4BD2051A600A4B002C0CD006
:1008300D0125094A2C43DA61084A62401A6259625D
:1008400D9C620021FFF7B6FF70BDDC61F9E7C04681
:1008500D00B0054000800540D3C007B02D3FF84FD4
:1008600DAA22064B12011A602F220549DA60054AA9
:1008700D11605A68002AFCDA7047C04600400240F9
:1008800D00B0FA0000600240F8B504000C2017001B
:1008900D1E000D0000F046F81D494143380000F0E0
:1008A00D41F8069A3304120313432268002A0FDA23
:1008B00D3F2122680A40AA420AD1A2681205120DF0
:1008C00D824205D1EE21E268C9020A409A421BD04C
:1008D00D104A944219D0802252010F490F4E0A60DE
:1008E00D0F490A601700B1688F43FBD1C022211D4B
:1008F00D92010A4321212560A06011602168002921
:1009000DFCDAE36008231360F8BD80229201E4E76E
:1009100D40420F0000C0024000E0004000C0004017
:1009200D00F00040114A936F9B0813D21066516678
:1009300D002905D0FFE7FFE7FFE7516F106F704704
:1009400D04B5002801D00020C04300F01DF800219F
:1009500D04BDC046F0B5146E556E576F166FFFF798
:1009600DE5FF1466556657671667F0BD000000D0A9
:1009700DF8B5C0460000000001B40248844601BC31
:1009800D604700BFB900002001B40248844601BC95
:1009900D604700BF2D01002001B40248844601BC10
:1009A00D604700BF41000020312E3130000600525B
:1009B00D503ABCA911A809001052656C57697468AA
:1009C00D446562496E666F00626F6F74325F773295
:1009D00D357130383000312E352E30007069636F2F
:1009E00D00696E7465726D6564696174655F7069C7
:1009F00D636F2D666C6173686C6F61646572004A1C
:100A000D756E20313120323032330006005250BB2A
:100A100DFF3CB6DC09001006005250E182887FC809
:100A200D09001006005250D3F07542B909001000AC
:100A300DAD090010AC020010A002001094020010CD
:100A400D0B0A001088020010170A0010230A00106C
:100A500D084A10B51378002B0AD1802306480749A0
:100A600D5B051C68C45004338B42FAD1012313700B
:100A700D10BDC046200400201C0300100001001012
:100A800D10B5024B0133984710BDC0461C03002022
:100A900D8023F0B5421804000D0085B09B039A42E7
:100AA00D01D900F06DF814271826388833881249BB
:100AB00D98473388039011493888984733880290B6
:100AC00D0F493888984733880E49019038889847E0
:100AD00D0600FFF7BDFF039B9847029B98478022B6
:100AE00D2000D82329005202019CA047B047FFF7F0
:100AF00DC7FF05B0F0BDC04649460000455800008F
:100B000D52450000464300008023F0B5170085B024
:100B100D8218040003919B039A4201D900F030F82A
:100B200D1426182530882B88104998472B88029059
:100B300D0F49308898472B8801900E493088984787
:100B400D2B880D490090308898470500FFF780FFEE
:100B500D029B9847019B98473A0020000399009B00
:100B600D9847A847FFF78CFF05B0F0BD4946000038
:100B700D4558000052500000464300007047C046E3
:100B800D01B40248844601BC604700BF5F030010FA
:040B900D3103001010
:1000000CFFFFFFFFFFFFFFFFFFFFFFFFFFFFFFFFF4
:1000000CFFFFFFFFFFFFFFFFFFFFFFFFFFFFFFFFF4
:1000000CFFFFFFFFFFFFFFFFFFFFFFFFFFFFFFFFF4
:1000000CFFFFFFFFFFFFFFFFFFFFFFFFFFFFFFFFF4
:1000000CFFFFFFFFFFFFFFFFFFFFFFFFFFFFFFFFF4
:1000000CFFFFFFFFFFFFFFFFFFFFFFFFFFFFFFFFF4
:1000000CFFFFFFFFFFFFFFFFFFFFFFFFFFFFFFFFF4
:1000000CFFFFFFFFFFFFFFFFFFFFFFFFFFFFFFFFF4
:1000000CFFFFFFFFFFFFFFFFFFFFFFFFFFFFFFFFF4
:1000000CFFFFFFFFFFFFFFFFFFFFFFFFFFFFFFFFF4
:1000000CFFFFFFFFFFFFFFFFFFFFFFFFFFFFFFFFF4
:0600000BFFFFFFFFFFFFF5
:020000041000EA
:0400000AFFA1C0DEB4
:1010000D00B5324B212058609868022188439860C2
:1010100DD860186158612E4B0021996002215961E9
:1010200D0121F02299502B49196001219960352039
:1010300D00F044F80222904214D00621196600F007
:1010400D34F8196E01211966002018661A6600F031
:1010500D2CF8196E196E196E052000F02FF801216C
:1010600D0842F9D1002199601B491960002159608E
:1010700D1A491B48016001219960EB211966A021D5
:1010800D196600F012F800219960164914480160A4
:1010900D0121996001BC002800D000471248134976
:1010A00D086003C880F30888084703B5996A0420CF
:1010B00D0142FBD001200142F8D103BD02B51866F3
:1010C00D1866FFF7F2FF186E186E02BD00000240A1
:1010D00D000000180000070000035F00212200003F
:1010E00DF4000018222000A00001001008ED00E01F
:1010F00D00000000000000000000000074B24E7AF5
:1011000D00200420F7110010C3110010C5110010AC
:1011100DC1110010C1110010C1110010C11100103A
:1011200DC1110010C1110010C1110010C711001024
:1011300DC1110010C1110010C9110010CB11001008
:1011400DCD110010CD110010CD110010CD110010DA
:1011500DCD110010CD110010CD110010CD110010CA
:1011600DCD110010CD110010CD110010CD110010BA
:1011700DCD110010CD110010CD110010CD110010AA
:1011800DCD110010CD110010CD110010CD1100109A
:1011900DCD110010CD110010CD110010CD1100108A
:1011A00DCD110010CD110010CD110010CD1100107A
:1011B00DCD110010CD110010CD110010CD1100106A
:1011C00D00BE00BE00BE00BE00BE00BEEFF3058037
:1011D00D103800BEF2EB88719CC30010C4C3001020
:1011E00D3412001090A31AE700201F49086006C8AA
:1011F00D81F3088810471D48006800282FD10DA4E1
:1012000D0ECC002902D000F012F8F9E71849194A5E
:1012100D002000E001C19142FCD1174988471749D0
:1012200D88471749884700BEFDE701C901C29A42A8
:1012300DFBD37047C4C30010C0000020F41400207D
:1012400DF8D700100000042000000420F8D700108B
:1012500D0010042000100420000000007047094811
:1012600D03F0F8FB0047000008ED00E0000000D09F
:1012700DF8140020C8A60320BD350010AD130010D2
:1012800DE13600105756000006005250ABB36053C4
:1012900DB8C00010060052505422A29DC8C00010C4
:1012A00D05005250DE65F468F8D70010F8B5C04659
:1012B00D0448054B10B5834203D0044B002B00D0DE
:1012C00D984710BDF4140020F41400200000000015
:1012D00D06480749091A8B10C90FC91810B54910CE
:1012E00D03D0044B002B00D0984710BDF414002000
:1012F00DF41400200000000010B5074C2378002BDB
:1013000D09D1FFF7D5FF054B002B02D0044800E0B3
:1013100D00BF0123237010BDF81500200000000050
:1013200D50B80010054B10B5002B03D004490548EB
:1013300D00E000BFFFF7CCFF10BDC046000000006D
:1013400DFC15002050B8001010B5104A1049114876
:1013500D04F032FC104804F0BBFB104804F0B8FB5D
:1013600D09F018FD00280CD009F020FD01000C48F3
:1013700D04F022FC09F01EFD01000A4804F01CFCDB
:1013800D10BD094804F0A4FBFAE7C04650B80010A0
:1013900D58B8001068B8001070B8001088B8001068
:1013A00DA4B80010B0B80010C4B8001010B5124C9D
:1013B00D04F00EFC114804F08BFBE268104B9A42CE
:1013C00D13D01049104804F0F7FBFFF7BDFF00F0F4
:1013D00D3FFD00F0E9FB00F0ABFD00F0B9FB00F0C4
:1013E00DA7F806F067F9002010BD084804F070FB5F
:1013F00D0023E360E5E7C04600800540F4B8001027
:1014000DF24EFAE30100000034B9001014B90010D7
:1014100DF0B5D64646464F46C0B582B01D000AAB64
:1014200D1B7807000120140098460E0009F0A2FC5D
:1014300D2D4AC30213402D4A13439A46002C04D063
:1014400DA0218722C905D2008C50294A8401A118F8
:1014500D802292010A43802109041160254AF0235C
:1014600D1268410094461E220A400B995B00490107
:1014700D19400A43012163460A435A4043461E4917
:1014800DD205D20D0A60002B09D0A0238022DB05E6
:1014900D9C461A49D2005B581A4363465A50A02302
:1014A00DDB05E218534601A9B60817605160966036
:1014B00DD3600F4BA0279C468021FF05644449044F
:1014C00D226816000E400A42FAD18723DB00FB5832
:1014D00D5D400A4BFE5009F045FC280002B0E0BC0F
:1014E00DBA46B146A846F0BDFDFF1FFF19809F000B
:1014F00D1000005034040050341400503404000027
:1015000D0122012300B5524283B0019300931300D1
:1015100DFFF77EFF03B000BD0023012200B583B0AD
:1015200D019300935242FFF773FF03B000BDC04615
:1015300D30B50A4885B004F0CBFA68460200084B76
:1015400D32CB32C21B6810211360FFF7D9FF0100A7
:1015500D044804F031FB05B030BDC04648B9001059
:1015600D74B900105CB9001003000020042900D0EC
:1015700D7047584258416223404298436430F7E720
:1015800D70B50F4E04000D0000223A21306800F0B6
:1015900D17FA002220600A21306800F011FA286045
:1015A00D2468A04200DB70BD306800F0FBF9844276
:1015B00DF9D001220A21306800F002FA2860F2E722
:1015C00D40A30120F0B5C64600B514001D00C6B0FD
:1015D00D00294DD02C4B984618682A00210000F0A8
:1015E00D2DFA684601A9FFF7CBFF284F284E31E0B1
:1015F00D01342000019404F0E9F8434622001968F3
:1016000D050000F063FA88220021520002A804F0C0
:1016100D33F96A463B6828000493338802A9938204
:1016200D00F066F8002800D100BE02A800F0E4F832
:1016300D049B3A68934200D03B606B4632889B8A8C
:1016400D9A4200D03380280004F0FEF8684601A9C4
:1016500DFFF796FF4346186800F0A4F9019CA042DD
:1016600DC6D8002008F0C8FD46B080BCB846F0BD15
:1016700D084804F02DFA0620FF3000F07BF9024BEC
:1016800D98461860A9E7C04640A301207CA5032019
:1016900DBEA6032084B9001010B5034804F018FA53
:1016A00D002008F0A9FD10BDA4B9001000B5084B2D
:1016B00D85B002930223802201931E3300930549C6
:1016C00D00235200044805F02DFE05B000BDC046B4
:1016D00DF4A50320B8B90010C1000020034B10B5CC
:1016E00D1868002801D005F051FF10BDF4A50320A6
:1016F00DF0B5C64600B503788846C2B0002B04D1BC
:1017000D2EE043780130002B2AD03A2BF9D120233B
:1017100D06279C466B46002400260130FF37591ED4
:1017200D0FE045782A00303AD2B2092A25D81B019C
:1017300D1343DBB2BE422CD00136E4188B55E4B214
:1017400D023005782B00303BDBB2092BE9D963461B
:1017500D1D43EDB22B00613B192B06D9002E18D17C
:1017600D002042B080BCB846F0BD573DEBB2457885
:1017700D2A00303AD2B2092AD9D962461543EDB2C0
:1017800D2A00613A192AE9D81B01573D2B43DBB2D8
:1017900DD0E7002CE4D16B461A7843461A706B469D
:1017A00D414658789B781B0203435BBA4B806B46CE
:1017B00D4046DD780E300D7101A904F063F8042D5B
:1017C00D0CD001200A2DCCD16B46DB79DE2B10D14C
:1017D00D6B4642469B885BBA9381C2E76B466A466D
:1017E00D1B7952791B029B1842461B040120936002
:1017F00DB7E70220B5E7C04670B503790400042BA6
:1018000D04D00D2B13D0012B08D070BD134804F05C
:1018100D5FF9A168124804F0CFF9F6E7114804F01A
:1018200D57F9114B1148196800F052F8EDE782890C
:1018300D0F4B9A42E9D10C4D21002E680B4B300015
:1018400D10302278C0180E3104F01CF8C021207819
:1018500D4902801903F058F92960D6E7D0B9001074
:1018600DDCB90010C4B9001088A00120681C00204C
:1018700DA1FF000070B50478002C17D000212022A4
:1018800D0D26114B00255D5F104B00290FD1A54290
:1018900D14D099690A42FCD11C60017801300D39D0
:1018A00D4C4261410478C9B2002CEED170BD9969EA
:1018B00D0A42F1D099690A42F9D1EDE799690A42D4
:1018C00DFCD11E60E5E7C04664A501200040034041
:1018D00DF8B51F4B1F4E4360816004000660103049
:1018E00D0D00FFF719FEE0601B48FFF7C3FFEFF394
:1018F00D108772B6FFF7DAFE06F056FD1748FFF7B0
:1019000DB9FF8020164B8002E918090B090309F075
:1019100D5FFF2A00802021001032800209F048FF6D
:1019200DFFF7DCFE06F04EFD0E48FFF7A3FF87F331
:1019300D10880D48FFF79EFF0C4B0D4ADE601A61B3
:1019400DFA2200210020920001F0D8FDFEE7C046EA
:1019500DA952AEC5FB5ECD8EF4B9001024BA0010AD
:1019600D0F10000044BA001064BA0010008005404A
:1019700D0000021070B50500102003F027FF041EB3
:1019800D08D0681CE06003F021FF2060002803D020
:1019900DA0606060200070BD200003F055FF0024A2
:1019A00DF8E7C046C36842688068013B904203D89F
:1019B00D101A181A181A7047801A0138FAE7C0461B
:1019C00DF8B54E4657464546DE460368E0B5140069
:1019D00D9A46C668436882688946751E934225D229
:1019E00DD31A013BEB1A9B465346D31A984614E083
:1019F00D43463100181903F087F853465F185B46CC
:101A000D711A1D1B8D4200D90D002A004946380060
:101A100D09F0ECFC00280CD164195C45E8D358465C
:101A200DF0BCBB46B246A946A046F8BD9B1AEB1AC0
:101A300DD8E7C51BAB46A344F1E7C046F8B503682C
:101A400D57464E4645469946DE4690464468C2681E
:101A500D8368E0B58A4607009144A34232D8013A23
:101A600DE31AD31A9B464346002B24D0002601E0EF
:101A700DB04516D04B4642461B1B951B9D4200D9C7
:101A800D1D005346200099192A0003F0FBFE7B68C8
:101A900D76195C197C604C45EAD13C687C60B04598
:101AA00DE8D1D84507D93D68601C401BF96803F0A3
:101AB00D2BF86D18BD602000F0BCBB46B246A946A0
:101AC00DA046F8BD1B1B013B9B46CCE7F8B5CE46A7
:101AD00D474681460E00C8684B68896880B5170077
:101AE00D421E8B4227D35B1AD31AD31A9F4227D893
:101AF00D336898468044002F18D0002501E0AF428E
:101B000D14D043467C1B5B1A9C4200D91C004B46EB
:101B100D2200581903F0B6FEB3682D191919B160DA
:101B200D4145ECD13168B160AF42EAD10800C0BC8B
:101B300DB946B046F8BDCB1A013BD31A9F42D7D94F
:101B400D0021F3E710B50121012003F05DFE10BD6A
:101B500D10B5012004F088FE014B186010BDC04681
:101B600D94A50320002010B507F0CAF9012000212B
:101B700D404207F03BFA002007F0E8FFF6E7C046C9
:101B800D00B5002091B007F0A1FF002801D111B0E0
:101B900D00BD002007F0B4FF0028F8D040226946B0
:101BA00D002007F0BDFFF2E730B51F23002501240B
:101BB00DC02285B000930A4900230295019452007A
:101BC00D084805F0AFFB1E23802200930649002331
:101BD00D029501945200054805F0A4FB05B030BDF7
:101BE00D90BA0010651B001098BA0010811B0010F0
:101BF00DF0B51400E37892781B02050095B01343FD
:101C000D052B5DD8324A9B00D3589F46314B03AA12
:101C100D196803919B8821009380062307F07EFEAF
:101C200D15B0F0BD032321002B4A07F077FEF7E72F
:101C300D09F0BCF8070009F0BDF8432206000021A9
:101C400D03A803F019FE6A4643230E201373413B8C
:101C500D53733900684409F019FC3620310068448B
:101C600D09F014FC43232100280003AA07F056FEB7
:101C700DD6E701A804F0BCF86A460A230E201373B8
:101C800D073B537301A90822684403F0FBFD0A23A7
:101C900D2100280003AA07F041FEC1E7FFF752FF1C
:101CA00D032303AE3370013373700378B37003F005
:101CB00DCBFD320021002800337807F02FFEAFE76F
:101CC00D022321002800054A07F028FEA8E7C04698
:101CD00D9CBA0010B4BA0010C0BA0010BCBA001003
:101CE00DF0B505001400012083B0012914D113783B
:101CF00D5B069B0F012B11D00020022B0CD15378CA
:101D000D022B14D0032B28D0012B05D12100280044
:101D100D184A363307F002FE03B0F0BD53780020A9
:101D200D222BF9D11100280007F0E0FDF4E76379CB
:101D300D12791B021343072BEED16B460E4E9F1DDE
:101D400D31000222380003F09DFD320021002800F1
:101D500D3B88083A07F0E2FDDEE7637912791B0252
:101D600D1343032BD8D1220001212800FFF740FF98
:101D700DD2E7C046C4BA001044BC001000487047FA
:101D800D28BC001000487047B4BB001000487047D5
:101D900D78BB001070B5002826D0052831D81A4B15
:101DA00D8000C658300009F079FBC0B2011C1F2815
:101DB00D15D8C9B2002821D00023144DAA1CF05CFF
:101DC00D0133DCB210800232A142F8D8C0230131B8
:101DD00DC9B249009B0019432800298070BD1F21FD
:101DE00DC9B20028E8D109E0084D074B0222196855
:101DF00DA81C03F047FDC1218900EDE70449034DFF
:101E000DEAE70020EAE7C046880B0020AC17002067
:101E100D0203000010B50A4C82B001222068524224
:101E200D01A904F087FD0128F7D1019B00201900BD
:101E300D1A7908F053FA002008F016FAEDE7C046BB
:101E400D30A60320014B18687047C04630A603200A
:101E500D00B5002204210A2083B004F031FC0A4BA6
:101E600D186000280CD000238022019320330093AA
:101E700D064900230648520005F07AFB03B000BD69
:101E800D044803F099FEF9E730A6032090BD001039
:101E900D151E001098BD001070B584B003F084FFBE
:101EA00D0222FA201D4B40001A6005F045FE1C4C25
:101EB00D1C4E02AD01213068494204F0C9FD236872
:101EC00D5B045B0F042B08D080232268DB01534099
:101ED00DE022D2011340144A136004220F4B1A6002
:101EE00DFC3223681342FCD0104A63682A60082232
:101EF00DEB80AA800195FFF7A5FF01A90023002221
:101F000D04F014FC002300220021306804F00EFCC4
:101F100DFA20400005F010FECCE7C04600E004407A
:101F200D00C0044094A5032000D004403B4324DDB1
:101F300D0023802200B583B0019320330093044920
:101F400D00235200034805F013FB03B000BDC0464B
:101F500DACBD0010991E0010094A83009446402222
:101F600D634410B51C68C0006240C0241440802238
:101F700D520113431C60034B9C466044416010BDED
:101F800D04C0014000400140024B18688007C00F9B
:101F900D7047C04600C0064070B5EFF3108C72B6A6
:101FA00D0D4D2B68002BFCD0BFF35F8F0724CB08A2
:101FB00DC618C05C01230C40A3401C000440034222
:101FC00D07D103433370BFF35F8F2C608CF3108800
:101FD00D70BD100001F088FB2C0100D0F8B547460C
:101FE00DCE46884680B5EFF3108C72B6214D2C6825
:101FF00D002CFCD0BFF35F8F9A422CD8D408072752
:1020000D055D061901241740BC402C421FD0072145
:1020100D0127894609E0D408055D06194C463900AB
:1020200D1440A1400C00294211D001329342F2D24A
:1020300D01204042BFF35F8F00220E4B1A608CF3DC
:1020400D108800280FDBC0BCB946B046F8BD2C4344
:1020500D10003470EEE7BFF35F8F00232B608CF31D
:1020600D1088012040424346002BECD0089801F027
:1020700D3BFBC0462C0100D030B5EFF3108C72B68F
:1020800D0A4C2368002BFCD0BFF35F8F072301227E
:1020900DCD0819408A40435D93434355BFF35F8F8D
:1020A00D002323608CF3108830BDC0462C0100D076
:1020B00D0021044B044ABFF35F8F02C39342FAD150
:1020C00D7047C046000100D0800100D0044A10784E
:1020D00D431CDBB2172B00D9102313707047C04679
:1020E00DA00B002010B50100024A0348FFF754FF72
:1020F00D10BDC046B4BD0010F01B002000B5054B4F
:1021000D83B00100009318221F230348FFF766FFD9
:1021100D03B000BDD4BD0010F01B0020012383408F
:1021200D002904D0034A1360034A13607047034A21
:1021300D1360FBE780E200E000E100E080E100E0F9
:1021400D01228240034B1B6813405A1E9341D8B2A3
:1021500D7047C04600E100E0024B10309B688000E4
:1021600DC058704700ED00E070B50D00EFF310861C
:1021700D72B60F4A1368002BFCD0BFF35F8F0D4B67
:1021800D10309B6884001B590B4A934203D09D422B
:1021900D01D001F0C7FA074B9B681D51BFF35F8F4C
:1021A00DBFF35F8F0022024B1A6086F3108870BD5B
:1021B00D240100D000ED00E0CD110010F0B5574620
:1021C00D4E46DE464546E0B585B006000291170045
:1021D00DEFF3108B72B6674A1368002BFCD0BFF378
:1021E00D5F8F0025644B5D579A46002D00DAA4E001
:1021F00D6B00624C03935B199B009846A146C1444A
:1022000D4B4652469B79103613705D4BB2009B685E
:1022100D019299580B1B2F2B34D95A4B994200D050
:1022200DA4E0039B584A9C46584B6544AD0063534C
:1022300D434602336519E418554B0121043B1B1B22
:1022400D1B055B0D13436B80524BEF71AB80FF236E
:1022500DAB71029BAB604B460B431900484B019A87
:1022600D9B689950BFF35F8FBFF35F8F0022414B87
:1022700D1A608BF3108805B0F0BCBB46B246A94678
:1022800DA046F0BD01200A008243D379BB422FD86E
:1022900D45464E46130040491B1B5B415943090DF2
:1022A00D3A4B63533A4B02356519043B5B1B1B05D7
:1022B00D354D5B0D2B4373800426B446E0444444F6
:1022C00D131F1B1B4C46A17102991B05A1604946AA
:1022D00D5B0D2B43A380314BE77101431360BDE7C9
:1022E00D5800C01880002018C679BE422BD90200B4
:1022F00D0623D356002BF3DA101D8246284880465C
:1023000D04267642B446E14450464E46361A300510
:1023100D400D824656461C48957106439680039A99
:1023200D944665441D4AAD00641922604246A3716E
:1023300D029BA280E771A36090E701F0F3F90025FD
:1023400D53465D5754E7101D824690884005001591
:1023500D84464046D444664604302018301AE026A0
:1023600D0005400D360230438046C9E701F0DAF929
:1023700D57E7C046240100D0C4A60320A40B0020BB
:1023800D00ED00E0CD11001000E0FFFF00A1FFFF08
:1023900DD40B002001BDFFFFAAAA00000148804711
:1023A00D01BD0000F0B5DE4657464E464546E0B548
:1023B00D0C0083B0EFF3108972B6584A1368002BE6
:1023C00DFCD0BFF35F8F564B9A68030010339F000C
:1023D00DD559544A9046954232D0A54243D0524EDB
:1023E00DAA1B2F2A2CD801228240924651464F4AD1
:1023F00D12681140019151464D4A1160BFF35F8F34
:1024000DEFF305829346002A33D101232A009A4324
:1024100D93689C4208D177E04B005B189B00F31842
:1024200D9968A1422AD01A00062151560029F3DAE3
:1024300D019B002B19D052463E4B1A603B4B1A6044
:1024400D374B9B68DD51BFF35F8FBFF35F8F00226A
:1024500D324B1A6089F3108803B0F0BCBB46B2460C
:1024600DA946A046F0BD1500EAE75246304B1A606A
:1024700DE6E79342C9D001F055F9C6E70621595652
:1024800D002921DB4A005018800034188046A068CE
:1024900D9860E079D871062020569871002824DBC9
:1024A00DA488F01A6405241544440019E02400059D
:1024B00D400D24022043988052181F4B9200B618ED
:1024C00D1A781970B271B3E7594600290FD1FF314F
:1024D00D91711A49918018490A789A71184A9B1B73
:1024E00D5B415A43120D0A70A2E71648E3E7164AFC
:1024F00D1649D21A083A5002400D014399801449E9
:1025000D52080A43DA8093E7062151561300002939
:1025100DB8DA5A46002AEAD14546DCE7240100D054
:1025200D00ED00E0CD110010A40B002000E100E053
:1025300D80E100E080E200E0C4A6032001BDFFFFC2
:1025400DAAAA000001BD0000DE0B002000F0FFFF75
:1025500D00F8FFFF032310B50400074A1840944606
:1025600DC0009C43FC3383406444226881409A43FD
:1025700D13000B43236010BD00E400E0F0B5EFF352
:1025800D0584C646012600B50643EFF3108C72B6DE
:1025900D1C4A1368002BFCD0BFF35F8F1A4FA400A9
:1025A00DBB681A4D1B590200984619490023521B4E
:1025B00D52415143090D2A0049B2B04515D00624A8
:1025C00D14578C4215D001330C32042BF7D1114B1B
:1025D00D1A7819708271BFF35F8F0022094B1A6050
:1025E00D8CF3108880BCB846F0BDBB680A4A1A51FE
:1025F00DEDE75A00D3189B00ED18FF23AB71074B85
:1026000DAB80E4E7240100D000ED00E0A40B002036
:1026100DAAAA0000C4A60320CD11001001BDFFFF22
:1026200D054B064A1360064A136053609360D360EE
:1026300D13615361936170478080808000E400E0F6
:1026400D04E400E0024B9C46614489000160704740
:1026500D4000003410B50400FFF738FD01002000E4
:1026600DFFF7F0FF01235B426360BFF35F8F10BD87
:1026700D10B50400FFF72AFD01002000FFF7E2FF6F
:1026800D01235B42636000232372BFF35F8F10BD94
:1026900D10B504000120FFF731FD044B9C4660444A
:1026A00D80002060BFF35F8F10BDC0464000003436
:1026B00D83680B4810B584466144624409011201D8
:1026C00D9A18591854684B6801209C4201D802D0C1
:1026D00D0020C0B210BD12680B689A42F9D8F7E716
:1026E00DFFFFFF0F074810B50268EFF3108172B6B8
:1026F00D1368002BFCD0BFF35F8F03F049FD002062
:1027000D002110BD50A50120F8B557464E4645464F
:1027100DDE46E0B599460CAB1D780DAB1B78060077
:1027200D90469A460768002D3BD02B006C003A6806
:1027300D6419033C1119374A9446B26863449446B0
:1027400D42461B0163441A604A465A600A9A9A60CF
:1027500D0B9ADA6000238B704B700B707B7B9B4662
:1027600D002B3ED02A005946B8687B6898473A68D6
:1027700D00282AD05B4658465B005B441419033B86
:1027800DA070D118D35C002B40D15B460D70280092
:1027900D7B73AB4526D0F0BCBB46B246A946A046DE
:1027A00DF8BDB87B0028F6D044003A682418033CE5
:1027B00D11194A780300BA73002A00D1FA73002266
:1027C00D05008A704A700A70B5E75B465B005B4492
:1027D00D033BD3189D701119125D002A18D15B4669
:1027E00D0B707D7342464B46307D00F0CFFA041ED0
:1027F00D06D05346002B03D12900306800F032FC7F
:1028000D0E9B2800002BC6D01C70C4E76370BCE77C
:1028100D5A70E4E7FFFFFF0FF0B5DE4657464E4610
:1028200D45460023E0B58BB00893664B8200D45823
:1028300D00239B46099000F059FA626806000F00CC
:1028400DEFF3108572B61368002BFCD0BFF35F8FCA
:1028500D23689C465B7B9946002B68D0A2685A4B37
:1028600D90464B441B01984443461A685B68100020
:1028700D1900801BB941002963DD099800F086FA23
:1028800D00230022984600230692079300239A46C0
:1028900D6368BFF35F8F5A461A6085F310885346FD
:1028A00D002B08D10028C6D10BB0F0BCBB46B246F8
:1028B00DA946A046F0BD089B414618024B46184359
:1028C00DD047626806000F00EFF3108572B61368EB
:1028D00D002BFCD0BFF35F8F002F4FDB33003B434A
:1028E00D02D02369002B60D12368D97B002907D042
:1028F00D4A00521819688C4649466244033A517091
:1029000D9A7B002A01D14A469A734A46DA734B469E
:1029100DE168013BCA5C0132CA545B4623616368BE
:1029200DBFF35F8F5A461A6085F3108883E7002343
:1029300D00229846002306920793002300209A4612
:1029400DA6E7002901D1002897D10021604600F0AB
:1029500D5DFB43461A685B680692079343469B6886
:1029600D9A464346DB689846E3684B44013B1B7827
:1029700D08931B0203432361002089E72369002B81
:1029800DB2D0069A079B921BBB41002B15DB594613
:1029900D049101210391494602914146019151460D
:1029A00D20000091FFF7B0FEB7E700F09FF932006D
:1029B00D3B0012184B41002BE9DA0122034B524226
:1029C00DE5E7C0468CA00120FFFFFF0FFFFFFF7F53
:1029D00D10B5144C6368002B04D00A211248FFF780
:1029E00D31FE10BD2300114A1021206800F05CFA61
:1029F00D032000F06FF9032000F038FA03200C4992
:102A000D00F07EF9FFF762FB0A4B9C46032323750A
:102A100DD0231B061B6860446375074B8000606004
:102A200DDC60DAE7EC0B002050A50120B126001088
:102A300D19280010400000348CA00120F0B5454647
:102A400DDE4657464E46E0B58BB01D00149B8046C2
:102A500D9B46159B14009A4616AB1B7802AA07934A
:102A600D00239946D37743465A68EFF3108672B622
:102A700D1368002BFCD0BFF35F8F02AA94461F236F
:102A800D634404934B4603930293534601935B4671
:102A900D2200009340462B00FFF736FE002300284E
:102AA00D04D04346DB681B18013B1B784246526835
:102AB00DBFF35F8F4946116086F3108800282FD031
:102AC00D02AAD27F002A08D11B0218430BB0F0BC1A
:102AD00DBB46B246A946A046F0BD079B002B1DD0B4
:102AE00D51460020D847030006000F000B4315D0B8
:102AF00D002907DAA41BBD41002DB4DA01240A4DCB
:102B000D6442B0E700F0F2F834003D0024184D4166
:102B100D002DA8DA0124044D6442A4E70020D5E776
:102B200D01204042D2E7C046FFFFFF7F70B54268EB
:102B300D0400EFF3108572B61368002BFCD0BFF3C1
:102B400D5F8F2068CEB2437BB3420AD0FF230B4088
:102B500D5A00D318026894466344033B9B78002BBC
:102B600D13D0E268FF2394460B406344013B0A0AED
:102B700D1978D2B291420ED000206368BFF35F8FF7
:102B800D00221A6085F3108870BD22698A42F3D144
:102B900D00202361F1E7310000F064FAEDE7C04653
:102BA00D70B5EFF3058305000C0084B0002B0AD03F
:102BB00D164A0020536A9C4203D8926A0130AA42F9
:102BC00D1FD304B070BD124E02930193114B02003E
:102BD00D009330000B00FFF731FF011EE8DD20BF31
:102BE00D3000FFF7A3FF094B0020596A8C42E8D84B
:102BF00D9B6A0130AB42E4D2641A631E9C41E0B281
:102C000DDFE7E41A631E9C41E0B2DAE700400540BD
:102C100DEC0B0020E5260010F0B5EFF30582D6464B
:102C200D4F4646461000C0B51038EFF3108872B607
:102C300D214C2368002BFCD0BFF35F8F01231900BB
:102C400D81401E4D1F006963AA461D4D29601D4D13
:102C500D2E78AC463500C5402F402B4209D1BFF32D
:102C600D5F8F276088F31088E0BCBA46B146A8464E
:102C700DF0BD5346144D5F6A83005D59AF420ED3CC
:102C800D124A8E439B5862461670BFF35F8F002227
:102C900D226088F31088002BE6D09847E4E70C4BB0
:102CA00D92009C46624413681360BFF35F8F00234C
:102CB00D236088F31088D7E7280100D00040054035
:102CC00D3C700540C5A6032054A50120D81A00204C
:102CD00DD03F054010B50100024A0348FFF75CF9EB
:102CE00D10BDC046F0BD0010C3A60320034B596AAA
:102CF00D0A00986A596A8A42FAD170470040054025
:102D000D70B504000D00EFF3108672B61A4A136801
:102D100D002BFCD0BFF35F8F002D1BD02000FFF7E1
:102D200D1BFA164981420AD02000FFF71DFA012136
:102D300D2000FFF7F3F90123A340114A1360114B53
:102D400DA400E550BFF35F8F00220B4B1A6086F392
:102D500D108870BD0B4BA200D5500122A2400A492C
:102D600D20000B7893430B700449FFF71BFB0021E8
:102D700D2000FFF7D3F9E5E7280100D0192C00104A
:102D800D38600540D81A0020C5A60320F0B54F467F
:102D900DD6464646C0B507002F4C616A0D00A66A9F
:102DA00D616AA942FAD18B4208D805D00120E0BC56
:102DB00DBA46B146A846F0BDB242F7D9EFF3108A34
:102DC00D72B6264801680029FCD0BFF35F8F01253C
:102DD00DBD402349204C8846097889462943C9B20C
:102DE00D8C46414660460870391D1E488900656352
:102DF00D0A51B9000B50216A0020294219D0616A8D
:102E000D0800A66A616A8142FAD18B4219D801D1B4
:102E100DB24216D8CC451DD00F4B1F201D625D63ED
:102E200D01230740BB40104A1E38136043464A46F3
:102E300D1A70BFF35F8F0022084B1A608AF3108857
:102E400DB5E70020BFF35F8F0022044B1A608AF3B1
:102E500D1088ACE70120ECE700400540280100D0C8
:102E600DC5A6032054A5012080E200E0EFF3108CED
:102E700D72B60A490B68002BFCD0BFF35F8F01239C
:102E800D8340074A0748136202789A430270BFF3E2
:102E900D5F8F00230B608CF310887047280100D0E2
:102EA00D00400540C5A6032030B583600023CCB299
:102EB00D43730133047342608373C4730D00006860
:102EC00D012C06D9421C0133DBB2137003329C4234
:102ED00DF9D1FF2129404B00591800234018033820
:102EE00D437030BDF8B5CE46474606000C0080B5A0
:102EF00D002907D04D0003686D18033D5A19577806
:102F000D002F04D12000C0BCB946B046F8BD7900F1
:102F100DC9190339884643445978894600215970A7
:102F200D517073683A002100806898473368002813
:102F300D27D1424641465D19AF709A185B5C002B54
:102F400D00D06B7014703C0049463000FFF7CAFF8B
:102F500D051ED7D021002A00B068736898473168E4
:102F600D002818D06B005B196200033B1219CB18B7
:102F700D033A9C7088188A5C002A00D05A7005703C
:102F800DC0E742469A18947059195B5D002B00D02A
:102F900D53700F70D8E763001B196A00033B521979
:102FA00DCB18033A9D7088188A5C002A00D05A709D
:102FB00D04702C00A6E7C046F8B54D006D180368E7
:102FC00D033D0E00595D17000400FFF78BFF002F26
:102FD00D0CD12368002805D00021420012189A1840
:102FE00D033A917000225B195A70F8BDE17B23689A
:102FF00D002904D04A0052189A18033A5670A27B41
:1030000D002A00D1A673E673E4E7C046F8B5467B07
:1030100D03687500AD19033D0F00595D0400FFF7FE
:1030200D61FF002F0ED12368002805D0002142003A
:1030300D12189A18033A917000225B195A70607336
:1030400D3000F8BDE17B2368002904D04A005218F6
:1030500D9A18033A5670A27B002A00D1A673E67324
:1030600DE2E7C04670B50400002943D0437B8B4294
:1030700D55D0056848004018033828188278002A72
:1030800D38D053009B18033BEA5CEE188A4202D1FC
:1030900D34E0002A08D053009B18033BEB185A78F4
:1030A00D8A42F6D142785A70002301228370437010
:1030B00D2000FFF781FF667B0500002E17D000284A
:1030C00D1AD002003100A068636898472168002873
:1030D00D17D06B005B197200033B9219CB18033AA2
:1030E00D9E7088188A5C002A23D105703500012056
:1030F00D657300E0002070BD3500F8E7437833704C
:1031000DD2E773009B196A00033B5219CB18033A9F
:1031100D9D7088188A5C002A08D10670E7E70122A5
:1031200D1900FFF749FF60730120E4E75A7006703C
:1031300DDDE75A70D9E7C04670B5040006200D00D2
:1031400D00F076F92900C00001F0DEFCC30906D0BD
:1031500D104A934215D900230F4D104A01E0402526
:1031600D012280206262A362002380012C3404437B
:1031700D2360062000F05CF92900800001F0C4FCFA
:1031800D70BD7F221040013040089D011A002D189E
:1031900D0300E6E7FEFF0000C0FF3F00FFFF000059
:1031A00D70B5040006200D0000F042F9002832D061
:1031B00D194B1A49E21853425A418023DB039C46AE
:1031C00D9205174B62441A60164B1A6010008B68FB
:1031D00D9843FBD1104B8021E3185A425341124AB8
:1031E00D5B004900995220002900FFF7A5FF6023DD
:1031F00DE16A25004B4080226E212C351940520189
:1032000D0A4B2A4311602363802310229B012B4319
:1032100D1A600323A36470BD0080FCBF00C0004092
:1032200D00E0004000F0004064A501200103000013
:1032300DF0B5DE464E4657464546E0B583B00192A1
:1032400D1A0E93461E02050000238946300059468A
:1032500D0C9A01F097FC364B6C009C466419A40047
:1032600D644463680700834200D260602B1FDBB2A9
:1032700D9846012B36D9C02380229B01234312018E
:1032800D1A602C4BAD0059599A46002923D1019A49
:1032900D236852015340E0221A4080235B012343EF
:1032A00D1A604246012A36D9802380229B0123438E
:1032B00D12011A6030003A0000235946676001F090
:1032C00D61FC53465851012003B0F0BCBB46B246D9
:1032D00DA946A046F0BD586901F016FC0130013831
:1032E00DFDD1D4E74B46012BC5D1C02303229B0151
:1032F00D23431A60023AA3681A42FCD0019A23684C
:1033000D52015A40E0231A4080235B0123431A6087
:1033100D084AAD0092464A462168514003220A40B0
:1033200D1A6001224B469A40A3681A42FCD0BBE7B3
:1033300D00800040F41B002030B50C2083B000F05D
:1033400DD5F8FEF721FE00280BD02D482D4A01009F
:1033500D0300283104C38B42FCD12B4B436203B0D5
:1033600D30BD2A4CA06700F015F90122284B1A60D8
:1033700D636C012BFCD10322264B1A60234A936BFD
:1033800D012BFCD1013300930121234A234804333F
:1033900D00F054F8052301210093214A214800F043
:1033A00D4DF8214B214D174C009300220221042092
:1033B00DFFF73EFF2B000022012100950520FFF7AE
:1033C00D37FF23000022002100940720FFF730FF74
:1033D00D23000022002100940820FFF729FF0A4B4B
:1033E00D00220093002123000920FFF721FF2B006D
:1033F00D0022002100950620FFF71AFFAFE7C04617
:1034000DF41B0020006CDC021BB7000000800040A4
:1034100D3CB0004030B00040002F685900800240A1
:1034200D008C864700C00240001BB700405973074F
:1034300D014B8000C0587047F41B0020F0B5C64604
:1034400D040000B50C2090461F000E0001F05CFB3F
:1034500D4101091A8D01691AC900091889014046EF
:1034600D01F052FB069B3F041A0323681743002B00
:1034700D22DB1A4B1A4DE21853425A4180235B014D
:1034800D9C461203174B62441A60174B1A601100C9
:1034900DAB689943FBD1C022231D92011A4321230E
:1034A00D2660A06013602368002BFCDA0823E76018
:1034B00D136080BCB846F0BD3F2322681340B34271
:1034C00DD7D1A3681B051B0D8342D2D1EE22E36831
:1034D00DD2021340BB42CCD1EBE7C0460040FDBF4A
:1034E00D00C0004000E0004000F000408023024A90
:1034F00D9B000343D36270470080054010B5140054
:1035000D80221B4BD2051A6000281AD00123194ABC
:1035100D1843194BDA61194A42401A62596298628E
:1035200D8022134BD2051A601549164A1160E0220C
:1035300DD2041A60002C07D18022134B12061A6098
:1035400D10BD0D4BD861EBE763011B1B9A00802367
:1035500D121912015B049A4200D30C4A0C4B1A60EB
:1035600D054B5A608022084BD2051A60E8E7C04629
:1035700D00B00540D3C007B0008005402D3FF84F87
:1035800DFCFF01000820014000A00540FFFFFF00E7
:1035900D80A00120AA23064A1B0113602F23054991
:1035A00DD360054B19605368002BFCDA7047C04699
:1035B00D0040024000B0FA00006002402B4B2C4A44
:1035C00D70B51A602B4A2C4B2C491A6014008B686D
:1035D00D9C43FBD12A4D2B4EB54208D2013E761BA2
:1035E00DB60808CD984723000134B342F9D1FFF74F
:1035F00DA3FE254A204B1A60204A9368DB43DB016A
:1036000DDD09002BF9D14022204B214C214E9A6728
:1036100D5A671A67DA66B44208D223682000002B75
:1036200D20D00C34FFF724F8B442F6D31A4E1B4CBD
:1036300DC022A168300002F025F9A660FEF738FD22
:1036400DFEF7EEFFFFF7C4F9154C164EB44208D243
:1036500D013E361BB60808CC98472B0001359E421B
:1036600DF9D170BDFEF7F6FF0834D4E700E0004055
:1036700DBFCDFBFEFE7F3C0000F0004000C00040CF
:1036800DD8140020E8140020FFFFFF0100F00140D6
:1036900DC8140020D81400200000002000ED00E028
:1036A00DE8140020F414002000BEFDE7094A0300D1
:1036B00D1068002805D00849C3188B4207D813603D
:1036C00D704706480449C31810608B42F7D9012092
:1036D00D4042F5E7789C012000000420C8A6032095
:1036E00D10B5FFF7E1FFC0460FB400B5084883B031
:1036F00D02F0EEF9049B002B07D005A918000191EB
:1037000D01F082F9034802F0E3F90120FFF7CCFF45
:1037100D14BE001070B9001010B50148FFF7E4FF9A
:1037200D24BE001010B50148FFF7DEFF34BE0010B7
:1037300D7047C046F8B557464E464546DE46E0B59D
:1037400D99460A9B07009A460D9B8846934615009D
:1037500D0B9E9B0710D10C9B9E420DD29D1B1400FE
:1037600D0E005D4422004B46013431002020B84745
:1037700DA542F7D1B0460B9E002E27D044467519B1
:1037800D5346AA1B013E985D21004B46B847002EBB
:1037900DF6D123002C0098460D9B9B070FD55B4659
:1037A00DE51A0C9BAB420AD94646984622004B4679
:1037B00D310020200135B84701344545F6D32000AE
:1037C00DF0BCBB46B246A946A046F8BD2C00E3E7C7
:1037D00DF0B54F464646D646C0B584B098460EABBA
:1037E00D1B78129F994694460D9C109B119EBA070B
:1037F00D25D4002E4BD19C4200D3C1E001223A408A
:1038000D92461F2C00D9BAE00C9A551E302201E0C9
:1038100D202C03D001342A55A342F9D85246002A50
:1038200D0DD0A6420BD9202C44D00C9A551E302217
:1038300D01E0202C3ED001342A55B442F9D1FA06CC
:1038400D4ED57A053FD4002C39D10F9B102B00D1CA
:1038500D7BE00F9B022B00D18CE030230C9A0124CE
:1038600D13704B46002B40D02D230C9A1355013469
:1038700D0C9B624600930397434602960194FFF713
:1038800D59FF04B0E0BCBA46B146A846F0BD0122CE
:1038900D15003D40AA463A4230D04A46002A02D190
:1038A00D0C323A4200D0013E9C42BAD21F2CABD909
:1038B00D202E28D92024FA06DAD57A0503D4A3427E
:1038C00D2ED0A6422CD00F9B102B34D00F9B022B49
:1038D00D20D0202CCCD030220C9B1B191A70013417
:1038E00D202CC5D04B46002BBED17B070DD43B07FA
:1038F00DBED520230C9A13550134B9E79C429ED2B4
:1039000D1F2C00D880E7202499E72B230C9A135500
:1039100D0134ADE7202CABD00C9B1B1901343BE0DF
:1039200D631E012C91D00F9A102A2BD00F9A022AC8
:1039300D2FD01C00CFE7BB060ED4202C98D00C9BAB
:1039400D1A19013478231370C3E7BB060DD47823FD
:1039500D0C9A01241370BEE7202C00D188E7582261
:1039600D0C9B1B191A700134B3E758230C9A0124D0
:1039700D1370B0E70C9A603301241370ABE7202469
:1039800D00265CE7023CBA06E9D40C9A12191C0019
:1039900DD8E70C9A9246534462221A7099E7C046B2
:1039A00DF0B54E46DE4657464546E0B593B09B46CC
:1039B00D1CAB20CB89461B7892461E9E089009931E
:1039C00D002D08D11023219A00249A431300219A27
:1039D00D2193520524D4219A6123920639D402AA47
:1039E00D94460A2252421F279046DBB200246744B8
:1039F00D984408E03033DBB201343B55B5420FD368
:103A000D202C0DD005003100280001F07DF8CBB23F
:103A100D0929EFD94344DBB201343B55B542EFD20E
:103A200D219B52460693209B494605931F9B089860
:103A300D0493099B039602930AAB009301945B4692
:103A400DFFF7C6FE13B0F0BCBB46B246A946A04672
:103A500DF0BD4123C3E7C046F0B54E464546DE46B0
:103A600D5746E0B595B09B4620AB1B781E9F0B9338
:103A700D229B1F9D99463B008046239E09910A92E9
:103A800D2B4308D1269A10339A431300269A00240B
:103A900D269352052CD4269A6123920642D40A22EB
:103AA00D52429246DBB200249A440EE01F2130327E
:103AB00D04ABD2B201345B181A55AE4218D8AE42DF
:103AC00D32D0202C14D0070065464A46330038000A
:103AD00D290001F057F8D2B28C46092AE6D91F21E8
:103AE00D524404ABD2B201345B181A55AE42E6D93A
:103AF00D269B40460693259B0A9A0593249B09997C
:103B000D04934B4603930B9B019402930CAB0093D0
:103B100D5B46FFF75DFE15B0F0BCBB46B246A9464D
:103B200DA046F0BD4123BAE7B945CAD9E0E7C04682
:103B300DF0B5DE4657464E464546E0B591B09A463D
:103B400D1A9B8B4699461B9B0790984608924346B5
:103B500D4A464846414601F0A0FA002800D0A5E0AB
:103B600D012248464146D74B524201F091FA0028B6
:103B700D00D09BE0012248464146D34B524201F012
:103B800D71FA002800D091E00022002348464146FA
:103B900D01F068FA002800D08BE14E46474680239D
:103BA00D1E9ADB001A400D921E9A1A4201D106236D
:103BB00D1C9333000A960B973B4300D08FE01E9B5E
:103BC00D1B0500D563E10023042409931D9B0025EB
:103BD00D9C4200D21D1B02231E9A1A400C921E9A63
:103BE00D134203D0634263415B421D40099B002B8E
:103BF00D07D00A9A0B9B3000390001F0D2F906006C
:103C000D0F00002200234846414601F02BFA002800
:103C100D03D0802109067B181F001E9AAB4B00961E
:103C200D01971340079E04931C9B089A03950293DA
:103C300D594653463000904600F078F90500002CA7
:103C400D45D01E9B2A0098061F23C017984359463E
:103C500D53466530B0470523059300230999039317
:103C600D0A330293CB0F0193CB17C81858406F1C22
:103C700D013C534600903A00594630000494FFF73A
:103C800D8FFE0C9B0500002B21D04346C41A1D9BB3
:103C900DA3421CD937001E002A0053465946202046
:103CA00D0134B8470135B442F6D310E01E9B4A46A5
:103CB00D04931D9B594603931C9B079802934346FF
:103CC00D009201935346089A00F030F90500280040
:103CD00D11B0F0BCBB46B246A946A046F0BD7C4B28
:103CE00D78009C46400D604401F0EAF9794A7A4B20
:103CF00D01F075F9794A7A4B01F04AF9794A3B039B
:103D000D1B0B1A4304000D000A981100764B00227C
:103D100D01F035F9754A764B01F061F902000B009F
:103D200D2000290001F034F901F0E2F9099001F0C9
:103D300DC7F9704A704B04000D0001F050F90022D4
:103D400D6E4B01F025F901F0D3F96D4A6D4B290049
:103D500D0C90200001F043F904000C980D0001F0C7
:103D600DAFF9694A694B01F03AF902000B002000E6
:103D700D290001F004F902000B0004000D0001F010
:103D800D2EF922002B000A900B912000290001F042
:103D900DFFF800220E900F910A980B995C4B01F0E1
:103DA00D00F900225B4B01F0F3F802000B000A98BA
:103DB00D0B9901F0F6F80022574B01F0E9F80200DB
:103DC00D0B000A980B9901F0ECF80A900B918021E9
:103DD00D22002B000020C90501F0D1F802000B00D4
:103DE00D0A980B9901F0D4F802000B000E980F9968
:103DF00D01F0D7F800223B4B01F0CAF8474B0C9C61
:103E000D9C4664442305002201F0E9F832003B0092
:103E100D04000D0001F03CF900282CD10A940B95FB
:103E200DC624099B63339C42A4411E9B6442043407
:103E300D1B0500D4CAE60A9A0B9B1100194328D022
:103E400D30003900364A374B01F01AF9002807D0F7
:103E500D002230003900344B01F004F9002818D14C
:103E600D1C9B002B00D1B1E60D9B5A1E93411C9A51
:103E700DD31A1C93AAE6099B0022013B099320004B
:103E800D2900244B01F08DF80A900B91C8E700230F
:103E900D09931C9A099B9A4211DDD01A431E1C935B
:103EA00D80231E9ADB001A43002300241E920993DF
:103EB00D8CE680231B0643444E461F006FE600230D
:103EC00D1C93EDE7FFFFEF7FFFFFEFFFFFF7FFFF16
:103ED00D01FCFFFFFB799F501344D33FB3C8608BA8
:103EE00D288AC63F0000F03F0000F83F61436F6332
:103EF00DA787D23F71A379094F930A400000E03F95
:103F000D1655B5BBB16B0240EF39FAFE422EE63FB6
:103F100D00002C400000244000001840FF0300006A
:103F200D2D431CEBE2361A3F80842E41F0B54E46F0
:103F300DDE4657464546E0B597B09946209E219FEF
:103F400D229B8346984607910C923B00320030002D
:103F500D390001F0A2F8002800D0A9E101223000BB
:103F600D3900CA4B524201F07DF8002800D0E1E043
:103F700D012230003900C64B524201F089F8002869
:103F800D00D0B7E0002230003900C24B01F080F8BC
:103F900D002800D099E0002230003900BE4B01F01E
:103FA00D61F8002800D090E0002200233000390095
:103FB00D01F058F8002800D0B1E000230D93249BA8
:103FC00D5B0501D40623984608AB9C4617220024B6
:103FD00D30234146624404E0013413550139202C4D
:103FE00D01D00929F8D888463000390001F080F851
:103FF00D4346DA00A94B05009B181A685B680892C6
:1040000D099301F05DF802000B003000390000F05B
:1040100DB6FF089A099B00F0E2FF0A900B9101F0A0
:1040200D8BF8824601F048F802000B000A980B99B4
:1040300D00F0A5FF00229A4B0A900B9101F028F891
:1040400D002800D1C0E001239C46E244504601F017
:1040500D33F802000B000898099901F009F80028BF
:1040600D02D000239A4601354346002B6AD008AB97
:1040700D17269C4608956644554614E001235B427D
:1040800D43440A2128009A4600F03EFD01343031A8
:1040900D3719397028000A2100F036FD092D00D896
:1040A00DD0E0D0460500202CE8D10EAB9846032376
:1040B00D249A1340012B00D196E02023249A0193DA
:1040C00D0392239A434602921EE0249B5846049382
:1040D00D239B00960197039343460C9A02930799ED
:1040E00D4B46FFF725FD17B0F0BCBB46B246A946BF
:1040F00DA046F0BD249B5B070ED40322694B249987
:1041000D0192039123990291009358464B460C9AC4
:1041100D0799FFF70FFBE6E70422634BEFE73B0040
:1041200D32000020002100F02AFF012306000F00BD
:1041300D0D9344E7249B0393239B02930423019344
:1041400D5A4BE1E7280000F0BBFF02000B003000E6
:1041500D390000F014FF524B002206000F0000F052
:1041600D81FF0EAB984600280AD10022300039009D
:1041700D4B4B00F08DFF002802D1EB0700D5013528
:1041800D202C94D008AA94461723280063440A21B2
:1041900D01341E1900F090FC3031280031700A21D5
:1041A00D00F08AFC051EEBD10323249A1340012B4A
:1041B00D1BD0202C00D180E70D9B002B35D02D225C
:1041C00D4146631C0A5579E700220A980B99344B36
:1041D00D00F048FF002800D046E75346002B51D190
:1041E00D01239C46E2443FE72024239B002BE0D093
:1041F00D0D9B002B03D1249A0C33134202D0239B29
:1042000D013B2393239BA342D3D908AB9C46172292
:1042100D30236244202C00D14FE7239901341355EC
:1042200D8C42C6D0202CF8D147E7249B5B0724D4C1
:1042300D249A2300120700D440E72022414601337F
:1042400D0A553BE75746089D202C00D12DE722004B
:1042500D30214046002F09D00132B154202A00D11F
:1042600D23E7D3431B191B18002BF5D10EAB984632
:1042700D2E234146541C8B5482E72B224146631C4E
:1042800D0A551BE7DB0700D4EEE6A9E7FFFFEFFFBA
:1042900DFFFFEF7F65CDCD4165CDCDC138C000109D
:1042A00D0000E03F40BE001044BE001050BE0010A4
:1042B00D249B0393239B029303230193004B23E73A
:1042C00D4CBE001010B5002800D110BD01F0F2FB5E
:1042D00DFBE7C0460B0010B5002802D049681B68EB
:1042E00D984710BDF0B55746DE464E464546E0B5FB
:1042F00D95B01C001E9B91469B46C84AC84B8246F2
:1043000D0F1E1A6000D1CFE10023207898460028B7
:1043100D00D1D1E11E005B460B9309E032004B4604
:1043200D3900751CD0472E000134207800284AD062
:1043300D2528F3D110239B460C3B9846023B0022C7
:1043400D9C460134207825000300203BDBB2102B66
:1043500D03D8B4499B00CB589F460300303B092B33
:1043600D55D9002398462A2864D000242E283FD002
:1043700D0300683BDBB2122B08D8AB499B00CB582E
:1043800D9F4680235B0068781A4301350300253B67
:1043900DDBB2532B57D8A5499B00CB589F46012321
:1043A00D01341A43CEE7634601341A43CAE7434644
:1043B00D01341A43C6E75B4601341A43C2E70823AA
:1043C00D01341A43BEE7B0463400C14503D801237A
:1043D00D5B424B4498464B46424639000020D0473D
:1043E00D200015B0F0BCBB46B246A946A046F0BDB4
:1043F00D687880230100DB0030391A436B1C0929D2
:1044000D00D85BE12A2800D168E11D00B0E7002348
:1044100D9846030041468800401801354000C018F9
:1044200D2B7801001800303830390928F3D91800DD
:1044300D88469AE70B9B02CB884600290CDB6078F7
:1044400D0B93651C91E7731C984632004B4639005F
:1044500DD04746466C1C68E702210A434146494253
:1044600D884660780B93651C7FE7782800D16DE155
:1044700D582800D197E16F2800D158E2622800D169
:1044800D8CE21023110099430B00692800D0A6E29D
:1044900D520500D533E20A220C929A0500D5FEE1B1
:1044A00DDA0500D55FE25A0600D52BE20B9A110012
:1044B00D1A0600D481E204C98C4612B2D1175018E5
:1044C00D4840614680B20B910593434604930C9B83
:1044D00DD20F039402930192009032004B463900A3
:1044E00D5046FFF75DFA6C1C06001EE780239B000B
:1044F00D68781A43013549E76878682800D15EE18C
:1045000D802301351A4341E768786C2800D15BE1BF
:1045100D80235B001A43013538E7462800D112E1AC
:1045200D07210B9B0492073342468B4319000294DB
:1045300D03920CC95046009201930B9132004B46E9
:1045400D3900FFF7F3FC6C1C0600EEE60B9B02CB6B
:1045500D0B910D93002C00D0C9E00B789C46002BDD
:1045600D00D133E202235B420B990133C8180B00D3
:1045700D02E0984200D12DE1597801330029F8D19C
:1045800D0B995B1A0C9380231100DB0019400E91DF
:1045900D1A4203D00C9BA34200D90C94022319009C
:1045A00D11400F91134200D154E16046002800D113
:1045B00D3BE10B9B32009E1B4346AB46B8460E9D1E
:1045C00D57460B93B246260000E02200002D04D082
:1045D00D731E002E00D101E11E004B464146541CB6
:1045E00DB8475346185D0028EFD10B9B5D46BA4680
:1045F00DA346474698460F9B002B00D014E10D9B18
:1046000D5E466C1C0B9390E6731C984632004B462D
:1046100D39002520D04746466C1C86E6E542001041
:1046200D7CA0012058BE00109CBE0010E8BE0010FA
:1046300D0B9B0394984621231A43193B049308338B
:1046400D0293002305924246019308CA3900904611
:1046500D009332004B465046FFF7A2F94346060041
:1046600D6C1C0B9361E6930700D4BEE00B9B3200EC
:1046700D01CB39009B46C0B24B46D0474346741C14
:1046800D4644012B00D84DE1A846554622004B4625
:1046900D013439002020A847B442F7D1AA465B4621
:1046A00D45460B936C1C40E6CE4B20789A46002372
:1046B00D9846002800D02DE6002486E60100A000D3
:1046C00D00190133400040181978303804000800F3
:1046D00D30380928F3D908001D0049E60B9BA8784E
:1046E00D10CB0235E143C9170C400B9340E60B9BF1
:1046F00D1B789C46002B00D167E1631E34E7202315
:1047000D01009943472904D180231B011A43022339
:1047100D9843452801D120231A4307210B9B04926E
:1047200D073342468B431900029403920CC950463D
:1047300D009201930B9132004B463900FFF7F8F9C7
:1047400D6C1C0600F1E520231A43E9E610230C93B7
:1047500D0C23110099430B0052052DD4692800D16B
:1047600D9BE6642800D198E6802218009200104044
:1047700D134200D0E6E0DA0500D512E10B985A0697
:1047800D00D5C8E01A0600D422E104C81204120CA8
:1047900D0B900593434604930C9B039402930023C3
:1047A00D0092019399E60C231100994314330B43A6
:1047B00D10210C915205D7D501229343CEE7C0238A
:1047C00DA8781A430235E1E5C0239B00A8781A4367
:1047D00D0235DBE50B9BC31A0C93D4E60B9B5D46B0
:1047E00DBA4693464746984605E74346012B00D8FF
:1047F00DF3E0741E4444A846554632004B4601363C
:1048000D39002020A847A642F7D1AA4645460B9B62
:1048100D220001CB39009846C0B24B46D0474346E3
:1048200D661C0B936C1C80E55E460C9A904534D942
:1048300D43469B199B1AA8461C00554632004B4611
:1048400D013639002020A847A642F7D1AA46A34633
:1048500D4546D4E60C9A531C904500D8BBE0434620
:1048600D9B199B1A9B465346A2465C46AB461D00C0
:1048700D32004B46013639002020A847A642F7D119
:1048800D434601330C930B9B54461B78AA469C461A
:1048900D5D466046002800D08BE6B346AFE60821A2
:1048A00D07208C460B9A07328243944405CA08931D
:1048B00D434607930C9B6146049300230593D30F46
:1048C00D0293D317109311930B910694109B119C87
:1048D00D1900414012912100514013911299139AE0
:1048E00DC91AA24113000A00009201933900320047
:1048F00D4B465046FFF7B0F86C1C060015E50A2232
:1049000D0C9259E70B9A01CA9446FF226146024068
:1049100D10000B91D8E504C89446FF2261460B9018
:1049200D0A4036E75B4626000B936C1CFDE408231A
:1049300D0C9313001A00642800D009E75A0500D41F
:1049400DABE539E70893434607200B9A07930C9B79
:1049500D07328243049300231100069405930293BA
:1049600D0CC90B91C0E70B9A110004C9059343467E
:1049700D8B4604930C9B03940293D30F0193D3178F
:1049800DD2185A4000924B46320039005046FFF77C
:1049900D07F85B4606000B936C1CC6E402230C93D0
:1049A00DC7E70593434604930C9B0B9A039402931C
:1049B00D019008CA93460093E5E704C98C46D117C8
:1049C00D5018484061460B917EE500230C93DAE5C3
:1049D00D04C80B90DDE60C935BE7340017E70A2261
:1049E00D0C92A7E73137001000B585B00391012176
:1049F00D02900093034813004A4202A9FFF772FC8C
:104A000D05B000BDD542001010B5094A0300146869
:104A100D84B0002C08D0012200910648524203A90F
:104A200DA047012004B010BD01F052F80020F9E7B5
:104A300D7CA00120C542001001480421014B1847FC
:104A400D200C0020754A0010014B5B6818470000D0
:104A500D200C0020142310B50100188804331B8886
:104A600D984710BD162310B50100188802331B8816
:104A700D984710BDF8B54746CE4680B50F1E19D0E4
:104A800D14239946043304000025012698464B460D
:104A900D1888434621681B88984701C4431E9841D6
:104AA00D013540420640AF42F1D13000C0BCB9469D
:104AB00DB046F8BD0126F8E7124A936F9B0815D250
:104AC00D9066D166002905D0FFE7FFE7FFE7516F3C
:104AD00D106F704704B580210906C2175140002898
:104AE00D00D0C84306F06CFE002104BDF0B5146E75
:104AF00D556E576F166FFFF7E3FF146655665767D0
:104B000D1667F0BD000000D0114A936F9B0813D2B9
:104B100D10665166002905D0FFE7FFE7FFE7516FEB
:104B200D106F704704B5002801D00020C04306F077
:104B300D47FE002104BDC046F0B5146E556E576F8B
:104B400D166FFFF7E5FF1466556657671667F0BDDC
:104B500D000000D094464A4A926F9208624601D2F4
:104B600D28E0C046F0B5464E346E756E776F366FE1
:104B700D00F020F89446424A14665566576716674A
:104B800D6246F0BD94463E4A926F9208624601D24B
:104B900D54E0C046F0B53A4E346E756E776F366F91
:104BA00D00F04CF89446364A1466556657671667FA
:104BB00D6246F0BD002B24DB11D000293EDA00B592
:104BC00DC943404200D1013100F038F8C943404299
:104BD00D00D10131DB43524200D1013300BD002A27
:104BE00DEBD1002801D1002905D00020C90FC9073C
:104BF00D01D1C043410800B506F0D2FD00220023CB
:104C000D00BD00B500290ADBDB43524200D1013360
:104C100D00F014F8C943404200D1013100BDC94331
:104C200D404200D10131DB43524200D1013300F04B
:104C300D05F8DB43524200D1013300BD002923D1D9
:104C400D002B18D1002A0CD0BC460D4F38667A6661
:104C500D00210023FFE7FFE7FFE77A6F386F674614
:104C600D7047002801D00748010000B506F098FDF7
:104C700D0022002300BD02000B0000200021704720
:104C800D000000D0FFFFFFFF002B00D0BFE0130C92
:104C900D28D1002AE7D080B4114F39667A66FFE734
:104CA00DFFE730B4040C7B6F396F1B0423433B6665
:104CB00D7A66FFE7FFE7FFE7C04684B27B6F3D6F83
:104CC00D1B0423433B667A66FFE7FFE7C0460023DC
:104CD00D2C042D0C7A6F386F00196941B0BC7047E8
:104CE00D000000D0F0B594460025140E01D112023B
:104CF00D0835140F01D112010435940F01D1920022
:104D000D0235D40F01D152000135D40B0134254F9A
:104D100D7C66254C3C660E0C93B2FFE7FFE7FFE780
:104D200D3C6F6643360C7703BE467343DF0B5B0463
:104D300DC01AB941130C7343DB18C91ACE08664368
:104D400D360CB64493B273431F0F1B01C01AB94101
:104D500D130C73431F0B1B05C01AB941860D8F022F
:104D600D3E436643360C092D24DB520A7243801AEA
:104D700D7703460A6643360C16235B1BDE40DF4085
:104D800DBF1964466643821B704604350633010025
:104D900DD940A840C01900D30131A24206D2002348
:104DA00DF0BD0000000000D0FFFFFFFF121B01301F
:104DB00DF3D3F1E709277F1BFE406446A2B272438D
:104DC00D801A00D20139220C7243130C1204821A7C
:104DD00D99410B007046043513370100F940A84086
:104DE00D801900D30131002B02D1A2420AD2F0BDAD
:104DF00D013000D30131121BFAD2013BF8D1A2428E
:104E000D00D2F0BD013000D30131121BF7E7F0B530
:104E100D1C0C00D080E00CB400251C0A04D11B0230
:104E200D160E3343120208351C0B04D11B01160F4D
:104E300D3343120104359C0B04D19B00960F334371
:104E400D92000235DC0B02D192185B4101351C003A
:104E500D971864410134464F7C66464C3C660E0CF7
:104E600DFFE7FFE7FFE7C0463C6F6643360C77036D
:104E700DBE4697B27743C01B00D20139C01B00D28A
:104E800D01399FB27743C91BC91B170C77437E04A9
:104E900DFF0B801BB941CE086643360C0C2D33DB5E
:104EA00DB644120B1F053A431B0B97B27743C01B39
:104EB00D00D201399FB27743C91B170C77433E04CB
:104EC00D3F0C801BB941860D8F023E436643292757
:104ED00D7F1BFE400C3D7746AF40BF1930BCA2B2E0
:104EE00DABB272437343801A9941220C7243130C77
:104EF00D1204801A994102000B000137001BA941D1
:104F000DF9D2781E0021F0BD0C277F1BFE4077469D
:104F100D7F0BAF40FF19E0E700245D1C07D0144F55
:104F200D7D663966FFE7FFE7FFE7FFE73C6F95B268
:104F300D9EB265436643401BB141150C1E0C654383
:104F400D664336042F0C3E432D04401BB14199425C
:104F500D04D202000B0020000021F0BD01D19042CF
:104F600DF7D3801A994101349942F2D3F6E7000044
:104F700D000000D0FFFFFFFF48404140484018B4FB
:104F800D1B4B5B68FC46019308BD04DFE351001029
:104F900D18B4174B1B68FC46019308BD00DFED519B
:104FA00D00109446134A926F920809D2624618B4C3
:104FB00D0F4BDB68FC46019308BD0CDFA5540010B8
:104FC00D0C4AF0B5146E556E576F166F6246FFF7AB
:104FD00DEEFF084A1466556657671667F0BD18B49C
:104FE00D034B9B68FC46019308BD08DF4953001035
:104FF00D4CA30120000000D0FFB55040424050406E
:1050000D59404B40594000E0FFB5154F4C00640D21
:1050100D03D0BC4204D10C0314D80020090D09059E
:1050200D5C00640D03D0BC4204D11C030AD80022DD
:1050300D1B0D1B0501264B4009D44B4003D58B425C
:1050400D00D18242FFBD9942FCD19042FFBD0B437E
:1050500DDB1803431343F5D0C9434918FFBD0000C6
:1050600DFF07000000B5FFF7CFFF804100BDC04630
:1050700D00B5FFF7C9FF01D9002000BD012000BD1B
:1050800D00B5FFF7B9FF01D9002000BD012000BD1B
:1050900D00B5FFF7B1FF804100BD012040054A007A
:1050A00D121804D85A00121801D800207047012098
:1050B00D70470020704700000021002805D170477F
:1050C00DC1174840401AFAD0C90713B5064B1B68E3
:1050D00D98470CBC441CA2401005120B0349091B38
:1050E00D09051943114310BD4CA401201F040000F4
:1050F00D10B54C00620D8023D218DB00D21A5B056F
:1051000D7E2A10DD9E3A13DACC170903490819439C
:1051100D5242D140640001341532202A05DAD040C4
:1051200D0843604310BD002010BD0846604310BD0C
:1051300DC80FC018013810BD18B4044B5B6AFC468B
:1051400D019308BD24DF5556001000004CA301202B
:1051500D132370B51C78012C15D010DD0F48FFF707
:1051600D81FC0F4D01008022280000F08BFB022CEA
:1051700D06D00C48FFF76EFC0B4B186070BD084D48
:1051800D0A4AAA64F5E7064D084A29002B0080312A
:1051900D04C38B42FCD1AA64EBE7C0465344000024
:1051A00D4CA301204C3300004CA40120B151001040
:1051B00D07B5604601880A0A0230DF2AFAD1C9B262
:1051C00D820804D3028840880004104300E0006880
:1051D00D014A5050039007BD4CA301200FB403BCEE
:1051E00D0CBCF0B50124E407634000E0F0B50C0DF4
:1051F00DCF0F661E3605891B640503D3C943404294
:1052000D00D30131640D03D0661CF60A07D0E41BF0
:1052100D00207F00791C89078912803C24031D0D15
:1052200DDF0F6E1E36059B1B6D0503D3DB4352420C
:1052300D00D301336D0D03D06E1CF60A07D0ED1BA4
:1052400D00227F007B1C9B079B12803D2D032F1B93
:1052500D661B58D4A446202E46DA20371400BC40D5
:1052600D1D00BD40F24033412A4380185941CB0FF8
:1052700D05D0C943C04300226442504151416246AA
:1052800D4D0D28D10D0D07D100281FD024194041F7
:1052900D4941013A0D0DF9D0640006D3013000D318
:1052A00D0131002C01D140084000013A0BD4941C6F
:1052B00DE40A04D112051144DB071944F0BDD907E6
:1052C00D204B194300E0D9070020F0BD0029DDD1A6
:1052D00D002CDBD1F0BD0132C6074008CD072843B5
:1052E00D4908002EE1D0D9E73C2E29DA203E40377F
:1052F00D1400BC4000D00124F24014431A00BB40FE
:1053000D1C43D317ACE7AC46202F08DA2036040037
:1053100DB4400D00B540F84039412843A5E73C2F76
:1053200D0CDA203F40360400B44000D00124F84090
:1053300D04430800B1400C43C117EAE710001900FF
:1053400D002494E70000F07FF0B50C0D661E3605C5
:1053500D891BE60A6405640D02D0651CED0A04D0B4
:1053600D002001210905803C2403A4461C0D671E65
:1053700D3F05DB1BE70A6405640D02D0651CED0AD1
:1053800D04D0002201231B05803C24037740644494
:1053900D97B484B296B27443070C7E43150C6F43D9
:1053A00D80B26843361802D3012000043F18300440
:1053B00D350C00197D41844688B29AB250430C0CCD
:1053C00D62431F0C7C438EB27E43921902D3012699
:1053D00D3604A4191604170C3618674101BC81B2A6
:1053E00D9AB25143040C62431B0C5C4380B2584388
:1053F00D121802D30120000424181004130C4018B5
:1054000D63412D185E410020474106BC88B293B21E
:1054100D58430C0C6343120C544389B251435B182F
:1054200D02D301210904641819041A0C09186241E8
:1054300D6D1856410020474118BCF902720D1143F9
:1054400DF0026A0D1043ED020A0D03D16D194041B2
:1054500D4941013B124E9B1B7600B3420ED26D00AB
:1054600D07D30130002671416646354301D140080E
:1054700D40001B05C918E4072144F0BD0BDA0133C8
:1054800D06D1013004D101314F0D01D04908F2E7A9
:1054900DE1070020F0BD013631050020EBE70000EB
:1054A00DFF030000F0B51C0D671E3F05DB1BE70A6F
:1054B00D6405640D02D0661CF60A04D00022012397
:1054C00D1B05803C2403D0252D060026F6432E66B1
:1054D00D1E096E66CE0FF619B44649004F0D02D067
:1054E00D7E1CF60A03D000200021403F3F033E1BE7
:1054F00DB600B444013F7F05C91B49082E6F013624
:1055000D76089C02950D25437543ED137543AD1338
:1055100D01356D10F603761B0CB4CC02450D2C43F2
:1055200DA2B2B3B25A43270C7B43350C6F43A4B2DE
:1055300D6C431B1902D3012424043F191C041D0CB8
:1055400DA4187D4124196D41009A91B2ACB261430A
:1055500D170C7C432B0C5F4392B25A43A41802D311
:1055600D01221204BF182204230C52187B41019C06
:1055700D6C431B19520ED9010A434401A01A81B282
:1055800DB2B2514303145A43360C734387B2774377
:1055900DD617D21900277E4136049B191704160C15
:1055A00D7F185E417316ED18F301002680337541A7
:1055B00DA90F06D16400690AE8055B0A184309D2F0
:1055C00D2FE00422944480337541A90AA8059B0A53
:1055D00D184326D3404149412404009A019B0D00F4
:1055E00D5543641B4343E41A95B286B27543170CB9
:1055F00D7E43030C5F4392B25A43B61802D3012285
:1056000D1204BF183204330C52197B4152429C4193
:1056100D002C02D40022013051414008CA0710432A
:1056200D490802B06246D7079210084BD218084BB2
:1056300D9A4203D212058918C919F0BD0020002A1B
:1056400D01DC3900F0BD01331905F5E7FD0300005C
:1056500DFE070000002200B5203200F004F808001B
:1056600D00BD000000220B150AD410B5944600F0C1
:1056700D31F81414013400DA0021CB17144C2047F3
:1056800D0020002170476244343A0CD40C2A07DA0A
:1056900D04009140904052422032D440214310BD2D
:1056A00DD843D94310BD203207D40C469440524202
:1056B00D20321141D040204310BD0800C9172032BF
:1056C00D03D452422032104110BD1800190010BDF4
:1056D00D875600100A0DCC0F531E1B05C91A520513
:1056E00D03D3C943404200D30131520D03D0531CA3
:1056F00DDB0A07D0121B00206400611C8907891288
:1057000D803A1203014BD21A70470000FF030000CC
:1057100D51434343C9188C46110C83B24B4310B40B
:1057200D040C614392B280B2504362431C041B0CC3
:1057300D001910BC59411304120CC0185141614499
:1057400D70470000132310B510481C78FFF78AF935
:1057500D0100012C0AD003DD80220D4800F092F8E3
:1057600D0C48FFF777F90C4B186010BD084C54220C
:1057700D200000F087F823002100084A54338031BF
:1057800D04C38B42FCD12262E261E9E7534600007B
:1057900D50A401204C3300004CA40120A15700104F
:1057A00D07B5604601880A0A0230DF2AFAD1C9B26C
:1057B00D820804D3028840880004104300E000688A
:1057C00D014A5050039007BD50A4012070B504004C
:1057D00D0A4E300006F034F8200005F039FB0500C4
:1057E00D300005F0CDFF002D05D0054B2C199C4246
:1057F00D01D8280070BD0348FDF776FFC8140020BE
:1058000D0000042088C0001070B505000C000B4E80
:1058100D300006F015F82800210005F0DFFA05002C
:1058200D300005F0ADFF002D05D0054B2C199C4225
:1058300D01D8280070BD0348FDF756FFC81400209D
:1058400D0000042088C0001070B50400054D28002C
:1058500D05F0F6FF200005F005FB280005F090FF90
:1058600D70BDC046C814002001480421014B1847E3
:1058700D300C0020754A0010014B1B6818470000C2
:1058800D300C0020014B5B6818470000300C0020E5
:1058900D030010B5080011001B68984710BDC046E5
:1058A00DF0B546464F46D6468046C0B50E00171E8B
:1058B00D3FDD4B1E9946214B0125002400209A46C1
:1058C00D0DE04B461B5D0D3B5A425341325DDBB241
:1058D00D0A2A0BD02B00013401359F421ADD002C12
:1058E00DEFD14346325D1B7D0A2AF3D1002BF1D156
:1058F00DA04204DA4346211A1B68301898474346E4
:1059000D50461B6802219847013428002B000135B1
:1059100D9F42E4DC874204DD4346391A1B68301888
:1059200D9847F619013E33780D3B5A425341424692
:1059300D1375E0BCBA46B146A846F0BDF8C00010DC
:1059400D10B50B00417D002903D01900FFF7A8FF0A
:1059500D10BD046811001800A047F9E7F0B5C64660
:1059600D144B06001C6800B5002C19D0031D984679
:1059700D114F02E02469002C12D02568002DF9D0BA
:1059800D3B68002B01D0A342F4D1637D3268002B1C
:1059900D0BD020004146FFF783FF2469002CECD18A
:1059A00D0023336080BCB846F0BD11004046A847C7
:1059B00DE0E7C0465C1C0020641C002070B50C00A4
:1059C00D09680500802904D04B1C236064182571DB
:1059D00D70BD2000FFF7C2FF2168F5E7F0B5DE4688
:1059E00D57464E464546E0B585B017001C000600EB
:1059F00D0D00FDF77BF90023274A12184B41002BB0
:105A000D45DB264908008A4605F0F2FE01906B1C25
:105A100D03D1300005F042FD0500002C30D1204BA4
:105A200D9946204B1C68002C20D01F4B98460A230A
:105A300D9B4602E02469002C18D02368002BF9D076
:105A400D43461B68002B01D0A342F3D12A0031003D
:105A500D2000C847002FEDD05A4602AB2000DA7166
:105A600DD91D0122C8472469002CE6D1019B002BCA
:105A700D09D105B0F0BCBB46B246A946A046F0BD63
:105A800D0A4B9946CDE7504605F07AFEF1E7012223
:105A900D074B5242B5E7C04640420F00D0140020DC
:105AA00D415900105C1C0020641C0020915800100E
:105AB00DFFFFFF7F10B582B06B4604000022D81D9A
:105AC00D012100230470FFF789FF200002B010BDF3
:105AD00D70B5040005F0E2FC002301000500012271
:105AE00D2000FFF77BFF064B1C68002C06D0636877
:105AF00D002B00D098472469002CF8D1280070BDE8
:105B000D5C1C00200A4A1368002B05D10CE01A001A
:105B100D1B691032002B07D09842F8D1002902D111
:105B200D03691360016170470029FCD01060FAE72A
:105B300D5C1C0020F0B5A3B004000D00FDF7D6F8F5
:105B400D0023184A12184B41002B27DB164E30004C
:105B500D05F04EFE00230700019322002B00134891
:105B600D01A9FEF741FF019B0500002B02D001A802
:105B700DFFF7F4FE0E4B1C68002C06D06368002B5B
:105B800D00D098472469002CF8D1002F02D12800AD
:105B900D23B0F0BD300005F0F3FDF8E70122054B11
:105BA00D5242D3E740420F00D0140020BD590010DF
:105BB00D5C1C0020FFFFFF7F0FB400B583B004A96C
:105BC00D01C90191FFF7B6FF03B008BC04B0184737
:105BD00D10B500F0C5F8012010BDC046F0B50D1E82
:105BE00D15DD0E4B0D271A680D4B4519D31859426B
:105BF00D4B410C495B005E5E20210478A64207D024
:105C000D93691942FCD101301460A842F5D1F0BD61
:105C100D93691942FCD11760F2E7C04668A50120CF
:105C200D0080FCBF64A5012030B504000D1E26DDEB
:105C300D002010211B4B013C1A689369194219D1A0
:105C400D013093691942FCD1136823548542F4D174
:105C500D154B1B68002B0CD050239363516B183BD5
:105C600D34320B401100802252010A431360002888
:105C700D15D030BD0C4B1B68002BEDD1F7E70A4B4F
:105C800D1B68002B0BD050223821064B1B689A63E2
:105C900D5A6B343311408022520113431960032093
:105CA00D4042E6E768A50120E81B0020064B10B531
:105CB00D1B68002B06D00021044A12689163044A28
:105CC00D1068984710BDC046E81B002068A501204C
:105CD00DEC1B00201D4BF0B51A68C64698461C4BB0
:105CE00D0E00D31859424B411A4F14331C000500B6
:105CF00D00B53B68002807D0002B11D0164B3D6036
:105D000D1E6080BCB846F0BD002BF7D0906300211B
:105D100D2000FCF703FA20001049FCF743FBEDE7E8
:105D200D20000E49FCF720FA01212000FCF7F6F9BE
:105D300D4346502238211B689A635A6B3433114005
:105D400D8022520113431960D8E7C04668A501208F
:105D500D0080FCBFE81B0020EC1B0020AD5C001098
:105D600D10B50C4B0C4C1B780C4B02211B780C4BBB
:105D700D00202360FCF7F0F802210120FCF7ECF87D
:105D800DE12120684902FDF70BFA01210548FFF7D3
:105D900DB9FE10BDBCC3001068A50120C0C3001022
:105DA00D00400340400C002001230121084A1360EC
:105DB00D084A1360084A080093689843FBD1074AC4
:105DC00D11608021490013680B42FCD07047C0461A
:105DD00D00E0004000F0004000C0004000C0044062
:105DE00D10B5024800F00CF810BDC04644A30120C8
:105DF00D10B508220149FFF745FD10BD44A3012050
:105E000D30B5002589B004000922002101A80095B4
:105E100DFFF732FD0922002105A80495FFF72CFD9F
:105E200D4B236A466846137004A90D2205F0A0FCA9
:105E300D1521082220006944FFF724FD09B030BD6B
:105E400D7047C04600000000000000000000000088
:105E500D0BA10CC9126892009B581868203080F372
:105E600D0988022080F31488BFF36F8F3FBCAE46C4
