:020000041000EA
:1000000000B5324B212058609868022188439860DF
:10001000D860186158612E4B002199600221596106
:100020000121F02299502B49196001219960352056
:1000300000F044F80222904214D00621196600F024
:1000400034F8196E01211966002018661A6600F04E
:100050002CF8196E196E196E052000F02FF8012189
:100060000842F9D1002199601B49196000215960AB
:100070001A491B48016001219960EB211966A021F2
:10008000196600F012F800219960164914480160C1
:100090000121996001BC002800D000471248134993
:1000A000086003C880F30888084703B5996A0420EC
:1000B0000142FBD001200142F8D103BD02B5186610
:1000C0001866FFF7F2FF186E186E02BD00000240BE
:1000D000000000180000070000035F00212200005C
:1000E000F4000018222000A00001001008ED00E03C
:1000F00000000000000000000000000074B24E7A12
:1001000000200420F7010010C3010010C5010010F9
:10011000C1010010C1010010C1010010C101001097
:10012000C1010010C1010010C1010010C701001081
:10013000C1010010C1010010C9010010CB01001065
:10014000CD010010CD010010CD010010CD01001037
:10015000CD010010CD010010CD010010CD01001027
:10016000CD010010CD010010CD010010CD01001017
:10017000CD010010CD010010CD010010CD01001007
:10018000CD010010CD010010CD010010CD010010F7
:10019000CD010010CD010010CD010010CD010010E7
:1001A000CD010010CD010010CD010010CD010010D7
:1001B000CD010010CD010010CD010010CD010010C7
:1001C00000BE00BE00BE00BE00BE00BEEFF3058054
:1001D000103800BEF2EB88718CA30010B8A3001099
:1001E0003402001090A31AE700201F49086006C8D7
:1001F00081F3088810471D48006800282FD10DA4FE
:100200000ECC002902D000F012F8F9E71849194A7B
:10021000002000E001C19142FCD1174988471749ED
:1002200088471749884700BEFDE701C901C29A42C5
:10023000FBD37047B8A30010C0000020E4130020D7
:10024000DCB600100000042000000420DCB6001022
:10025000001004200010042000000000704709482E
:1002600002F0E4FF0047000008ED00E0000000D0CD
:10027000E813002044250220951D0010B90300104A
:10028000B91E00105756000006005250ABB3605321
:10029000E8A0001006005250861C0302F8A00010CF
:1002A000060052505422A29D08A100100500525091
:1002B000DE65F468DCB60010F8B5C0460448054BAE
:1002C00010B5834203D0044B002B00D0984710BDDB
:1002D000E4130020E4130020000000000648074952
:1002E000091A8B10C90FC91810B5491003D0044B57
:1002F000002B00D0984710BDE4130020E413002029
:100300000000000010B5074C2378002B09D1FFF73F
:10031000D5FF054B002B02D0044800E000BF0123AD
:10032000237010BDE814002000000000C09A0010E7
:10033000054B10B5002B03D00449054800E000BF71
:10034000FFF7CCFF10BDC04600000000EC140020F9
:10035000C09A001010B5104A1049114803F0FAFF76
:10036000104803F083FF104803F080FF08F094FE6C
:1003700000280CD008F09CFE01000C4803F0EAFFB6
:1003800008F09AFE01000A4803F0E4FF10BD094896
:1003900003F06CFFFAE7C046C09A0010C89A00103C
:1003A000D89A0010E09A0010F89A0010149B0010E0
:1003B000209B0010349B001010B503F0D7FF0949B3
:1003C000094803F0C7FFFFF7C5FF00F095F900F0FB
:1003D0003FF800F001FA00F00FF805F09FFC002054
:1003E00010BDC04600000000649B001010B5012144
:1003F000012003F0D7FD10BD10B5012004F0FCFD75
:10040000014B186010BDC04618240220002010B512
:1004100007F0AAF801200021404207F01DF9002052
:1004200007F0CCFEF6E7C04600B5002091B007F01B
:1004300085FE002801D111B000BD002007F098FE14
:100440000028F8D040226946002007F0A1FEF2E71C
:1004500030B51F2300250124C02285B000930A492E
:100460000023029501945200084805F023FB1E2347
:10047000802200930649002302950194520005480A
:1004800005F018FB05B030BD789B00100D0400107E
:10049000809B001029040010F0B51400E3789278D6
:1004A0001B02050095B01343052B5DD8324A9B0013
:1004B000D3589F46314B03AA196803919B882100AA
:1004C0009380062307F062FD15B0F0BD03232100E1
:1004D0002B4A07F05BFDF7E708F0EAFD070008F09C
:1004E000EBFD43220600002103A803F093FD6A46BA
:1004F00043230E201373413B53733900684409F0C2
:100500000DF936203100684409F008F94323210031
:10051000280003AA07F03AFDD6E701A804F036F850
:100520006A460A230E201373073B537301A908225E
:10053000684403F075FD0A232100280003AA07F090
:1005400025FDC1E7FFF752FF032303AE33700133EC
:1005500073700378B37003F045FD3200210028006A
:10056000337807F013FDAFE7022321002800054A86
:1005700007F00CFDA8E7C046849B00109C9B001070
:10058000A89B0010A49B0010F0B5050014000120EA
:1005900083B0012914D113785B069B0F012B11D076
:1005A0000020022B0CD15378022B14D0032B28D01F
:1005B000012B05D121002800184A363307F0E6FC4C
:1005C00003B0F0BD53780020222BF9D11100280090
:1005D00007F0C4FCF4E7637912791B021343072B7D
:1005E000EED16B460E4E9F1D31000222380003F003
:1005F00017FD3200210028003B88083A07F0C6FCAE
:10060000DEE7637912791B021343032BD8D1220052
:1006100001212800FFF740FFD2E7C046AC9B001045
:100620000C9D001000487047F09C00100048704777
:100630008C9C001000487047509C001070B500283A
:1006400026D0052831D81A4B8000C658300009F052
:100650006DF8C0B2011C1F2815D8C9B2002821D0DE
:100660000023144DAA1CF05C0133DCB2108002326E
:10067000A142F8D8C0230131C9B249009B001943F7
:100680002800298070BD1F21C9B20028E8D109E0E7
:10069000084D074B02221968A81C03F0C1FCC121B8
:1006A0008900EDE70449034DEAE70020EAE7C04688
:1006B000780A00209C1600200203000010B50A4CA6
:1006C00082B001222068524201A904F0FBFC0128FB
:1006D000F7D1019B002019001A7907F099FF00203B
:1006E00007F05CFFEDE7C046B0240220014B18681C
:1006F0007047C046B024022000B5002204210A2021
:1007000083B004F0A5FB0A4B186000280CD000232E
:1007100080220193203300930649002306485200AB
:1007200005F0EEFA03B000BD044803F013FEF9E74C
:10073000B0240220B89D0010BD060010C09D00101E
:1007400070B584B003F0FEFE0222FA201D4B40007B
:100750001A6005F025FD1C4C1C4E02AD01213068CD
:10076000494204F03DFD23685B045B0F042B08D075
:1007700080232268DB015340E022D2011340144A57
:10078000136004220F4B1A60FC3223681342FCD022
:10079000104A63682A600822EB80AA800195FFF75F
:1007A000A5FF01A90023002204F088FB00230022FA
:1007B0000021306804F082FBFA20400005F0F0FCD4
:1007C000CCE7C04600E0044000C0044018240220EA
:1007D00000D004403B4324DD0023802200B583B0D9
:1007E000019320330093044900235200034805F08D
:1007F00087FA03B000BDC046D49D00104107001029
:10080000094A830094464022634410B51C68C00026
:100810006240C02414408022520113431C60034BE9
:100820009C466044416010BD04C00140004001404E
:10083000024B18688007C00F7047C04600C00640D2
:1008400070B5EFF3108C72B60D4D2B68002BFCD0F9
:10085000BFF35F8F0724CB08C618C05C01230C4090
:10086000A3401C000440034207D103433370BFF38D
:100870005F8F2C608CF3108870BD100001F020FB9E
:100880002C0100D0F8B54746CE46884680B5EFF338
:10089000108C72B6214D2C68002CFCD0BFF35F8FFA
:1008A0009A422CD8D4080727055D06190124174061
:1008B000BC402C421FD007210127894609E0D408FB
:1008C000055D06194C4639001440A1400C00294230
:1008D00011D001329342F2D201204042BFF35F8F28
:1008E00000220E4B1A608CF3108800280FDBC0BC6E
:1008F000B946B046F8BD2C4310003470EEE7BFF3A4
:100900005F8F00232B608CF3108801204042434608
:10091000002BECD0089801F0D3FAC0462C0100D08F
:100920000021044B044ABFF35F8F02C39342FAD104
:100930007047C046000100D0800100D0044A107802
:10094000431CDBB2172B00D9102313707047C0462D
:10095000900A002010B50100024A0348FFF770FF1B
:1009600010BDC046DC9D0010941A002000B5054B58
:1009700083B00100009318221F230348FFF782FF72
:1009800003B000BDFC9D0010941A00200123834099
:10099000002904D0034A1360034A13607047034AD6
:1009A0001360FBE780E200E000E100E080E100E0AE
:1009B00001228240034B1B6813405A1E9341D8B258
:1009C0007047C04600E100E0024B10309B68800099
:1009D000C058704700ED00E070B50D00EFF31086D1
:1009E00072B60F4A1368002BFCD0BFF35F8F0D4B1C
:1009F00010309B6884001B590B4A934203D09D42E0
:100A000001D001F07BFA074B9B681D51BFF35F8F4C
:100A1000BFF35F8F0022024B1A6086F3108870BD0F
:100A2000240100D000ED00E0CD010010F0B55746E4
:100A30004E46DE464546E0B585B0060002911700F9
:100A4000EFF3108B72B6674A1368002BFCD0BFF32C
:100A50005F8F0025644B5D579A46002D00DAA4E0B5
:100A60006B00624C03935B199B009846A146C144FE
:100A70004B4652469B79103613705D4BB2009B6813
:100A8000019299580B1B2F2B34D95A4B994200D005
:100A9000A4E0039B584A9C46584B6544AD00635301
:100AA000434602336519E418554B0121043B1B1BD7
:100AB0001B055B0D13436B80524BEF71AB80FF2323
:100AC000AB71029BAB604B460B431900484B019A3C
:100AD0009B689950BFF35F8FBFF35F8F0022414B3C
:100AE0001A608BF3108805B0F0BCBB46B246A9462D
:100AF000A046F0BD01200A008243D379BB422FD823
:100B000045464E46130040491B1B5B415943090DA6
:100B10003A4B63533A4B02356519043B5B1B1B058B
:100B2000354D5B0D2B4373800426B446E0444444AA
:100B3000131F1B1B4C46A17102991B05A16049465E
:100B40005B0D2B43A380314BE77101431360BDE77D
:100B50005800C01880002018C679BE422BD9020068
:100B60000623D356002BF3DA101D82462848804610
:100B700004267642B446E14450464E46361A3005C5
:100B8000400D824656461C48957106439680039A4E
:100B9000944665441D4AAD00641922604246A37123
:100BA000029BA280E771A36090E701F0A7F90025FE
:100BB00053465D5754E7101D824690884005001546
:100BC00084464046D444664604302018301AE02655
:100BD0000005400D360230438046C9E701F08EF92A
:100BE00057E7C046240100D040250220940A002087
:100BF00000ED00E0CD01001000E0FFFF00A1FFFFCD
:100C0000C40A002001BDFFFFAAAA000001488047D6
:100C100001BD0000F0B5DE4657464E464546E0B5FC
:100C20000C0083B0EFF3108972B6584A1368002B9A
:100C3000FCD0BFF35F8F564B9A68030010339F00C0
:100C4000D559544A9046954232D0A54243D0524E8F
:100C5000AA1B2F2A2CD801228240924651464F4A85
:100C600012681140019151464D4A1160BFF35F8FE8
:100C7000EFF305829346002A33D101232A009A43D9
:100C800093689C4208D177E04B005B189B00F318F7
:100C90009968A1422AD01A00062151560029F3DA98
:100CA000019B002B19D052463E4B1A603B4B1A60F9
:100CB000374B9B68DD51BFF35F8FBFF35F8F00221F
:100CC000324B1A6089F3108803B0F0BCBB46B246C1
:100CD000A946A046F0BD1500EAE75246304B1A601F
:100CE000E6E79342C9D001F009F9C6E70621595653
:100CF000002921DB4A005018800034188046A06883
:100D00009860E079D871062020569871002824DB7D
:100D1000A488F01A6405241544440019E024000551
:100D2000400D24022043988052181F4B9200B618A1
:100D30001A781970B271B3E7594600290FD1FF3103
:100D400091711A49918018490A789A71184A9B1B27
:100D50005B415A43120D0A70A2E71648E3E7164AB0
:100D60001649D21A083A5002400D0143998014499D
:100D700052080A43DA8093E70621515613000029EE
:100D8000B8DA5A46002AEAD14546DCE7240100D009
:100D900000ED00E0CD010010940A002000E100E029
:100DA00080E100E080E200E04025022001BDFFFF7D
:100DB000AAAA000001BD0000CE0A002000F0FFFF3B
:100DC00000F8FFFF032310B50400074A18409446BB
:100DD000C0009C43FC3383406444226881409A43B2
:100DE00013000B43236010BD00E400E0F0B5EFF307
:100DF0000584C646012600B50643EFF3108C72B693
:100E00001C4A1368002BFCD0BFF35F8F1A4FA4005D
:100E1000BB681A4D1B590200984619490023521B02
:100E200052415143090D2A0049B2B04515D006245C
:100E300014578C4215D001330C32042BF7D1114BCF
:100E40001A7819708271BFF35F8F0022094B1A6004
:100E50008CF3108880BCB846F0BDBB680A4A1A51B2
:100E6000EDE75A00D3189B00ED18FF23AB71074B39
:100E7000AB80E4E7240100D000ED00E0940A0020FC
:100E8000AAAA000040250220CD01001001BDFFFFED
:100E9000054B064A1360064A136053609360D360A3
:100EA00013615361936170478080808000E400E0AB
:100EB00004E400E0024B9C466144890001607047F5
:100EC0004000003410B50400FFF738FD0100200099
:100ED000FFF7F0FF01235B426360BFF35F8F10BD3C
:100EE00010B50400FFF72AFD01002000FFF7E2FF24
:100EF00001235B42636000232372BFF35F8F10BD49
:100F000010B504000120FFF731FD044B9C466044FE
:100F100080002060BFF35F8F10BDC04640000034EA
:100F200083680B4810B5844661446244090112018C
:100F30009A18591854684B6801209C4201D802D075
:100F40000020C0B210BD12680B689A42F9D8F7E7CA
:100F5000FFFFFF0F074810B50268EFF3108172B66C
:100F60001368002BFCD0BFF35F8F03F0D9FC002087
:100F7000002110BDD8230020F8B557464E464546FF
:100F8000DE46E0B599460CAB1D780DAB1B7806002C
:100F900090469A460768002D3BD02B006C003A68BB
:100FA0006419033C1119374A9446B2686344944665
:100FB00042461B0163441A604A465A600A9A9A6084
:100FC0000B9ADA6000238B704B700B707B7B9B4617
:100FD000002B3ED02A005946B8687B6898473A688B
:100FE00000282AD05B4658465B005B441419033B3B
:100FF000A070D118D35C002B40D15B460D70280047
:101000007B73AB4526D0F0BCBB46B246A946A04692
:10101000F8BDB87B0028F6D044003A682418033C99
:1010200011194A780300BA73002A00D1FA7300221A
:1010300005008A704A700A70B5E75B465B005B4446
:10104000033BD3189D701119125D002A18D15B461D
:101050000B707D7342464B46307D00F0CFFA041E84
:1010600006D05346002B03D12900306800F032FC33
:101070000E9B2800002BC6D01C70C4E76370BCE731
:101080005A70E4E7FFFFFF0FF0B5DE4657464E46C5
:1010900045460023E0B58BB00893664B8200D458D8
:1010A00000239B46099000F059FA626806000F0081
:1010B000EFF3108572B61368002BFCD0BFF35F8F7F
:1010C00023689C465B7B9946002B68D0A2685A4BEC
:1010D00090464B441B01984443461A685B681000D5
:1010E0001900801BB941002963DD099800F086FAD8
:1010F00000230022984600230692079300239A4675
:101100006368BFF35F8F5A461A6085F310885346B1
:10111000002B08D10028C6D10BB0F0BCBB46B246AC
:10112000A946A046F0BD089B414618024B4618430D
:10113000D047626806000F00EFF3108572B613689F
:10114000002BFCD0BFF35F8F002F4FDB33003B43FE
:1011500002D02369002B60D12368D97B002907D0F6
:101160004A00521819688C4649466244033A517045
:101170009A7B002A01D14A469A734A46DA734B4653
:10118000E168013BCA5C0132CA545B462361636873
:10119000BFF35F8F5A461A6085F3108883E70023F8
:1011A00000229846002306920793002300209A46C7
:1011B000A6E7002901D1002897D10021604600F060
:1011C0005DFB43461A685B680692079343469B683B
:1011D0009A464346DB689846E3684B44013B1B78DC
:1011E00008931B0203432361002089E72369002B36
:1011F000B2D0069A079B921BBB41002B15DB5946C8
:1012000004910121039149460291414601915146C1
:1012100020000091FFF7B0FEB7E700F09FF9320021
:101220003B0012184B41002BE9DA0122034B5242DA
:10123000E5E7C046181F0020FFFFFF0FFFFFFF7FFD
:1012400010B5144C6368002B04D00A211248FFF734
:1012500031FE10BD2300114A1021206800F05CFA15
:10126000032000F06FF9032000F038FA03200C4946
:1012700000F07EF9FFF762FB0A4B9C4603232375BF
:10128000D0231B061B6860446375074B80006060B9
:10129000DC60DAE7DC0A0020D8230020210F0010F0
:1012A0008910001040000034181F0020F0B545469A
:1012B000DE4657464E46E0B58BB01D00149B804677
:1012C0009B46159B14009A4616AB1B7802AA0793FF
:1012D00000239946D37743465A68EFF3108672B6D7
:1012E0001368002BFCD0BFF35F8F02AA94461F2324
:1012F000634404934B4603930293534601935B4626
:101300002200009340462B00FFF736FE0023002802
:1013100004D04346DB681B18013B1B7842465268E9
:10132000BFF35F8F4946116086F3108800282FD0E5
:1013300002AAD27F002A08D11B0218430BB0F0BCCE
:10134000BB46B246A946A046F0BD079B002B1DD068
:1013500051460020D847030006000F000B4315D06C
:10136000002907DAA41BBD41002DB4DA01240A4D7F
:101370006442B0E700F0F2F834003D0024184D411B
:10138000002DA8DA0124044D6442A4E70020D5E72B
:1013900001204042D2E7C046FFFFFF7F70B54268A0
:1013A0000400EFF3108572B61368002BFCD0BFF376
:1013B0005F8F2068CEB2437BB3420AD0FF230B403D
:1013C0005A00D318026894466344033B9B78002B71
:1013D00013D0E268FF2394460B406344013B0A0AA2
:1013E0001978D2B291420ED000206368BFF35F8FAC
:1013F00000221A6085F3108870BD22698A42F3D1F9
:1014000000202361F1E7310000F064FAEDE7C04607
:1014100070B5EFF3058305000C0084B0002B0AD0F3
:10142000164A0020536A9C4203D8926A0130AA42AD
:101430001FD304B070BD124E02930193114B0200F2
:10144000009330000B00FFF731FF011EE8DD20BFE5
:101450003000FFF7A3FF094B0020596A8C42E8D8FF
:101460009B6A0130AB42E4D2641A631E9C41E0B235
:10147000DFE7E41A631E9C41E0B2DAE70040054072
:10148000DC0A0020550F0010F0B5EFF30582D646B8
:101490004F4646461000C0B51038EFF3108872B6BC
:1014A000214C2368002BFCD0BFF35F8F0123190070
:1014B00081401E4D1F006963AA461D4D29601D4DC8
:1014C0002E78AC463500C5402F402B4209D1BFF3E2
:1014D0005F8F276088F31088E0BCBA46B146A84603
:1014E000F0BD5346144D5F6A83005D59AF420ED381
:1014F000124A8E439B5862461670BFF35F8F0022DC
:10150000226088F31088002BE6D09847E4E70C4B64
:1015100092009C46624413681360BFF35F8F002300
:10152000236088F31088D7E7280100D000400540E9
:101530003C70054041250220DC2300207C1900205E
:10154000D03F054010B50100024A0348FFF778F983
:1015500010BDC046189E00103F250220034B596A5B
:101560000A00986A596A8A42FAD1704700400540D9
:1015700070B504000D00EFF3108672B61A4A1368B6
:10158000002BFCD0BFF35F8F002D1BD02000FFF796
:101590001BFA164981420AD02000FFF71DFA0121EB
:1015A0002000FFF7F3F90123A340114A1360114B08
:1015B000A400E550BFF35F8F00220B4B1A6086F347
:1015C000108870BD0B4BA200D5500122A2400A49E1
:1015D00020000B7893430B700449FFF71BFB00219D
:1015E0002000FFF7D3F9E5E7280100D089140010A7
:1015F000386005407C19002041250220F0B54F4697
:10160000D6464646C0B507002F4C616A0D00A66A53
:10161000616AA942FAD18B4208D805D00120E0BC0A
:10162000BA46B146A846F0BDB242F7D9EFF3108AE8
:1016300072B6264801680029FCD0BFF35F8F0125F0
:10164000BD402349204C8846097889462943C9B2C0
:101650008C46414660460870391D1E488900656306
:101660000A51B9000B50216A0020294219D0616A41
:101670000800A66A616A8142FAD18B4219D801D169
:10168000B24216D8CC451DD00F4B1F201D625D63A2
:1016900001230740BB40104A1E38136043464A46A8
:1016A0001A70BFF35F8F0022084B1A608AF310880C
:1016B000B5E70020BFF35F8F0022044B1A608AF366
:1016C0001088ACE70120ECE700400540280100D07D
:1016D00041250220DC23002080E200E0EFF3108CA3
:1016E00072B60A490B68002BFCD0BFF35F8F012351
:1016F0008340074A0748136202789A430270BFF397
:101700005F8F00230B608CF310887047280100D096
:10171000004005404125022030B583600023CCB253
:1017200043730133047342608373C4730D00006814
:10173000012C06D9421C0133DBB2137003329C42E8
:10174000F9D1FF2129404B005918002340180338D4
:10175000437030BDF8B5CE46474606000C0080B554
:10176000002907D04D0003686D18033D5A195778BA
:10177000002F04D12000C0BCB946B046F8BD7900A6
:10178000C91903398846434459788946002159705C
:10179000517073683A0021008068984733680028C8
:1017A00027D1424641465D19AF709A185B5C002B09
:1017B00000D06B7014703C0049463000FFF7CAFF40
:1017C000051ED7D021002A00B06873689847316899
:1017D000002818D06B005B196200033B1219CB186C
:1017E000033A9C7088188A5C002A00D05A700570F1
:1017F000C0E742469A18947059195B5D002B00D0DF
:1018000053700F70D8E763001B196A00033B52192D
:10181000CB18033A9D7088188A5C002A00D05A7051
:1018200004702C00A6E7C046F8B54D006D1803689B
:10183000033D0E00595D17000400FFF78BFF002FDA
:101840000CD12368002805D00021420012189A18F4
:10185000033A917000225B195A70F8BDE17B23684E
:10186000002904D04A0052189A18033A5670A27BF5
:10187000002A00D1A673E673E4E7C046F8B5467BBC
:1018800003687500AD19033D0F00595D0400FFF7B3
:1018900061FF002F0ED12368002805D000214200EF
:1018A00012189A18033A917000225B195A706073EB
:1018B0003000F8BDE17B2368002904D04A005218AB
:1018C0009A18033A5670A27B002A00D1A673E673D9
:1018D000E2E7C04670B50400002943D0437B8B4249
:1018E00055D0056848004018033828188278002A27
:1018F00038D053009B18033BEA5CEE188A4202D1B1
:1019000034E0002A08D053009B18033BEB185A78A8
:101910008A42F6D142785A700023012283704370C4
:101920002000FFF781FF667B0500002E17D00028FE
:101930001AD002003100A068636898472168002827
:1019400017D06B005B197200033B9219CB18033A56
:101950009E7088188A5C002A23D10570350001200A
:10196000657300E0002070BD3500F8E74378337000
:10197000D2E773009B196A00033B5219CB18033A54
:101980009D7088188A5C002A08D10670E7E701225A
:101990001900FFF749FF60730120E4E75A700670F1
:1019A000DDE75A70D9E7C04670B5040006200D0087
:1019B00000F076F92900C00001F092FCC30906D0BE
:1019C000104A934215D900230F4D104A01E04025DB
:1019D000012280206262A362002380012C34044330
:1019E0002360062000F05CF92900800001F078FCFB
:1019F00070BD7F221040013040089D011A002D1853
:101A00000300E6E7FEFF0000C0FF3F00FFFF00000D
:101A100070B5040006200D0000F042F9002832D015
:101A2000194B1A49E21853425A418023DB039C4662
:101A30009205174B62441A60164B1A6010008B68AF
:101A40009843FBD1104B8021E3185A425341124A6C
:101A50005B004900995220002900FFF7A5FF602391
:101A6000E16A25004B4080226E212C35194052013D
:101A70000A4B2A4311602363802310229B012B43CE
:101A80001A600323A36470BD0080FCBF00C0004047
:101A900000E0004000F00040EC23002001030000C3
:101AA000F0B5DE464E4657464546E0B583B0019256
:101AB0001A0E93461E02050000238946300059463F
:101AC0000C9A01F04BFC364B6C009C466419A40048
:101AD000644463680700834200D260602B1FDBB25E
:101AE0009846012B36D9C02380229B012343120143
:101AF0001A602C4BAD0059599A46002923D1019AFE
:101B0000236852015340E0221A4080235B012343A3
:101B10001A604246012A36D9802380229B01234342
:101B200012011A6030003A0000235946676001F044
:101B300015FC53465851012003B0F0BCBB46B246D9
:101B4000A946A046F0BD586901F0CAFB0130013832
:101B5000FDD1D4E74B46012BC5D1C02303229B0105
:101B600023431A60023AA3681A42FCD0019A236800
:101B700052015A40E0231A4080235B0123431A603C
:101B8000084AAD0092464A462168514003220A4065
:101B90001A6001224B469A40A3681A42FCD0BBE768
:101BA00000800040981A002030B50C2083B000F06F
:101BB000D5F8FEF73DFE00280BD02D482D4A010038
:101BC0000300283104C38B42FCD12B4B436203B08A
:101BD00030BD2A4CA06700F0C9F80122284B1A60DA
:101BE000636C012BFCD10322264B1A60234A936BB2
:101BF000012BFCD1013300930121234A23480433F4
:101C000000F054F8052301210093214A214800F0F7
:101C10004DF8214B214D174C009300220221042046
:101C2000FFF73EFF2B000022012100950520FFF762
:101C300037FF23000022002100940720FFF730FF28
:101C400023000022002100940820FFF729FF0A4BFF
:101C500000220093002123000920FFF721FF2B0021
:101C60000022002100950620FFF71AFFAFE7C046CB
:101C7000981A0020006CDC021BB7000000800040B6
:101C80003CB0004030B00040002F68590080024056
:101C9000008C864700C00240001BB7004059730704
:101CA000014B8000C0587047981A0020F0B5C64616
:101CB000040000B50C2090461F000E0001F010FB40
:101CC0004101091A8D01691AC900091889014046A4
:101CD00001F006FB069B3F041A0323681743002B01
:101CE00022DB1A4B1A4DE21853425A4180235B0102
:101CF0009C461203174B62441A60174B1A6011007E
:101D0000AB689943FBD1C022231D92011A432123C2
:101D10002660A06013602368002BFCDA0823E760CC
:101D2000136080BCB846F0BD3F2322681340B34225
:101D3000D7D1A3681B051B0D8342D2D1EE22E368E5
:101D4000D2021340BB42CCD1EBE7C0460040FDBFFE
:101D500000C0004000E0004000F000408023024A44
:101D60009B000343D362704700800540AA23064AC4
:101D70001B0113602F230549D360054B196053687D
:101D8000002BFCDA7047C0460040024000B0FA0069
:101D9000006002402B4B2C4A70B51A602B4A2C4B2A
:101DA0002C491A6014008B689C43FBD12A4D2B4EA2
:101DB000B54208D2013E761BB60808CD98472300ED
:101DC0000134B342F9D1FFF7EFFE254A204B1A60E8
:101DD000204A9368DB43DB01DD09002BF9D1402267
:101DE000204B214C214E9A675A671A67DA66B44233
:101DF00008D223682000002B20D00C34FFF770F8A5
:101E0000B442F6D31A4E1B4CC022A168300002F037
:101E100007F9A660FEF784FDFFF73AF8FFF710FA1E
:101E2000154C164EB44208D2013E361BB60808CCFB
:101E300098472B0001359E42F9D170BDFFF742F85B
:101E40000834D4E700E00040BFCDFBFEFE7F3C003D
:101E500000F0004000C00040C8130020D81300204C
:101E6000FFFFFF0100F00140B8130020C81300205D
:101E70000000002000ED00E0D8130020E413002053
:101E800000BEFDE7094A03001068002805D0084994
:101E9000C3188B4207D81360704706480449C3181B
:101EA00010608B42F7D901204042F5E70C1B00205F
:101EB000000004204425022010B5FFF7E1FFC046D2
:101EC0000FB400B5084883B002F0D0F9049B002B92
:101ED00007D005A91800019101F082F9034802F02A
:101EE000C5F90120FFF7CCFF3C9E00104C9E00106E
:101EF00010B50148FFF7E4FF509E001010B50148EF
:101F0000FFF7DEFF609E00107047C046F8B55746E9
:101F10004E464546DE46E0B599460A9B07009A467E
:101F20000D9B8846934615000B9E9B0710D10C9B7A
:101F30009E420DD29D1B14000E005D4422004B46B4
:101F4000013431002020B847A542F7D1B0460B9E9E
:101F5000002E27D0444675195346AA1B013E985DB2
:101F600021004B46B847002EF6D123002C0098469E
:101F70000D9B9B070FD55B46E51A0C9BAB420AD91C
:101F80004646984622004B46310020200135B8478E
:101F900001344545F6D32000F0BCBB46B246A94605
:101FA000A046F8BD2C00E3E7F0B54F464646D646BE
:101FB000C0B584B098460EAB1B78129F99469446E4
:101FC0000D9C109B119EBA0725D4002E4BD19C422C
:101FD00000D3C1E001223A4092461F2C00D9BAE05A
:101FE0000C9A551E302201E0202C03D001342A55D2
:101FF000A342F9D85246002A0DD0A6420BD9202C74
:1020000044D00C9A551E302201E0202C3ED00134E1
:102010002A55B442F9D1FA064ED57A053FD4002CA0
:1020200039D10F9B102B00D17BE00F9B022B00D1ED
:102030008CE030230C9A012413704B46002B40D0C7
:102040002D230C9A135501340C9B62460093039781
:10205000434602960194FFF759FF04B0E0BCBA462C
:10206000B146A846F0BD012215003D40AA463A42BD
:1020700030D04A46002A02D10C323A4200D0013E0A
:102080009C42BAD21F2CABD9202E28D92024FA0684
:10209000DAD57A0503D4A3422ED0A6422CD00F9BCA
:1020A000102B34D00F9B022B20D0202CCCD03022F0
:1020B0000C9B1B191A700134202CC5D04B46002BE9
:1020C000BED17B070DD43B07BED520230C9A1355F8
:1020D0000134B9E79C429ED21F2C00D880E720240F
:1020E00099E72B230C9A13550134ADE7202CABD084
:1020F0000C9B1B1901343BE0631E012C91D00F9AFD
:10210000102A2BD00F9A022A2FD01C00CFE7BB0633
:102110000ED4202C98D00C9B1A19013478231370FC
:10212000C3E7BB060DD478230C9A01241370BEE7D5
:10213000202C00D188E758220C9B1B191A700134FF
:10214000B3E758230C9A01241370B0E70C9A60335C
:1021500001241370ABE7202400265CE7023CBA069A
:10216000E9D40C9A12191C00D8E70C9A92465344F1
:1021700062221A7099E7C046F0B54E46DE465746D1
:102180004546E0B593B09B461CAB20CB89461B78F7
:1021900092461E9E08900993002D08D11023219A83
:1021A00000249A431300219A2193520524D4219AA2
:1021B0006123920639D402AA94460A2252421F276A
:1021C0009046DBB200246744984408E03033DBB229
:1021D00001343B55B5420FD3202C0DD00500310002
:1021E000280001F07DF8CBB20929EFD94344DBB2D6
:1021F00001343B55B542EFD2219B52460693209BBA
:10220000494605931F9B08980493099B03960293E4
:102210000AAB009301945B46FFF7C6FE13B0F0BC17
:10222000BB46B246A946A046F0BD4123C3E7C0461F
:10223000F0B54E464546DE465746E0B595B09B465E
:1022400020AB1B781E9F0B93229B1F9D99463B0042
:102250008046239E09910A922B4308D1269A103377
:102260009A431300269A0024269352052CD4269ACA
:102270006123920642D40A2252429246DBB20024E3
:102280009A440EE01F21303204ABD2B201345B1805
:102290001A55AE4218D8AE4232D0202C14D00700C6
:1022A00065464A4633003800290001F057F8D2B29B
:1022B0008C46092AE6D91F21524404ABD2B201341C
:1022C0005B181A55AE42E6D9269B40460693259BDD
:1022D0000A9A0593249B099904934B4603930B9BFD
:1022E000019402930CAB00935B46FFF75DFE15B0C3
:1022F000F0BCBB46B246A946A046F0BD4123BAE7B2
:10230000B945CAD9E0E7C046F0B5DE4657464E4665
:102310004546E0B591B09A461A9B8B4699461B9B61
:1023200007909846089243464A464846414601F07F
:10233000A0FA002800D0A5E0012248464146D74B2C
:10234000524201F091FA002800D09BE00122484659
:102350004146D34B524201F071FA002800D091E07F
:10236000002200234846414601F068FA002800D0C8
:102370008BE14E46474680231E9ADB001A400D92A1
:102380001E9A1A4201D106231C9333000A960B971A
:102390003B4300D08FE01E9B1B0500D563E100236B
:1023A000042409931D9B00259C4200D21D1B02237F
:1023B0001E9A1A400C921E9A134203D06342634144
:1023C0005B421D40099B002B07D00A9A0B9B3000F3
:1023D000390001F0D2F906000F0000220023484620
:1023E000414601F02BFA002803D0802109067B1812
:1023F0001F001E9AAB4B009601971340079E049353
:102400001C9B089A03950293594653463000904608
:1024100000F078F90500002C45D01E9B2A00980694
:102420001F23C0179843594653466530B0470523CC
:1024300005930023099903930A330293CB0F019369
:10244000CB17C81858406F1C013C534600903A0007
:10245000594630000494FFF78FFE0C9B0500002BBB
:1024600021D04346C41A1D9BA3421CD937001E002D
:102470002A005346594620200134B8470135B4425A
:10248000F6D310E01E9B4A4604931D9B59460393C6
:102490001C9B079802934346009201935346089A67
:1024A00000F030F90500280011B0F0BCBB46B24680
:1024B000A946A046F0BD7C4B78009C46400D604488
:1024C00001F0EAF9794A7A4B01F075F9794A7A4BC9
:1024D00001F04AF9794A3B031B0B1A4304000D0033
:1024E0000A981100764B002201F035F9754A764BB7
:1024F00001F061F902000B002000290001F034F91D
:1025000001F0E2F9099001F0C7F9704A704B04003C
:102510000D0001F050F900226E4B01F025F901F099
:10252000D3F96D4A6D4B29000C90200001F043F95E
:1025300004000C980D0001F0AFF9694A694B01F0F5
:102540003AF902000B002000290001F004F9020012
:102550000B0004000D0001F02EF922002B000A9060
:102560000B912000290001F0FFF800220E900F913E
:102570000A980B995C4B01F000F900225B4B01F0CB
:10258000F3F802000B000A980B9901F0F6F800220C
:10259000574B01F0E9F802000B000A980B9901F083
:1025A000ECF80A900B91802122002B000020C90535
:1025B00001F0D1F802000B000A980B9901F0D4F851
:1025C00002000B000E980F9901F0D7F800223B4B48
:1025D00001F0CAF8474B0C9C9C466444230500223A
:1025E00001F0E9F832003B0004000D0001F03CF975
:1025F00000282CD10A940B95C624099B63339C4276
:10260000A4411E9B644204341B0500D4CAE60A9A06
:102610000B9B1100194328D030003900364A374B44
:1026200001F01AF9002807D0002230003900344B9D
:1026300001F004F9002818D11C9B002B00D1B1E651
:102640000D9B5A1E93411C9AD31A1C93AAE6099B10
:102650000022013B099320002900244B01F08DF852
:102660000A900B91C8E7002309931C9A099B9A4290
:1026700011DDD01A431E1C9380231E9ADB001A43DF
:10268000002300241E9209938CE680231B064344FA
:102690004E461F006FE600231C93EDE7FFFFEF7F20
:1026A000FFFFEFFFFFF7FFFF01FCFFFFFB799F50EC
:1026B0001344D33FB3C8608B288AC63F0000F03F65
:1026C0000000F83F61436F63A787D23F71A3790988
:1026D0004F930A400000E03F1655B5BBB16B024076
:1026E000EF39FAFE422EE63F00002C400000244065
:1026F00000001840FF0300002D431CEBE2361A3F98
:1027000080842E41F0B54E46DE4657464546E0B53C
:1027100097B09946209E219F229B83469846079119
:102720000C923B0032003000390001F0A2F8002882
:1027300000D0A9E1012230003900CA4B524201F019
:102740007DF8002800D0E1E0012230003900C64BBE
:10275000524201F089F8002800D0B7E00022300092
:102760003900C24B01F080F8002800D099E0002227
:1027700030003900BE4B01F061F8002800D090E035
:10278000002200233000390001F058F8002800D062
:10279000B1E000230D93249B5B0501D406239846EA
:1027A00008AB9C461722002430234146624404E0D3
:1027B000013413550139202C01D00929F8D8884655
:1027C0003000390001F080F84346DA00A94B0500DB
:1027D0009B181A685B680892099301F05DF8020083
:1027E0000B003000390000F0B6FF089A099B00F09A
:1027F000E2FF0A900B9101F08BF8824601F048F855
:1028000002000B000A980B9900F0A5FF00229A4BDA
:102810000A900B9101F028F8002800D1C0E00123B4
:102820009C46E244504601F033F802000B00089841
:10283000099901F009F8002802D000239A460135D1
:102840004346002B6AD008AB17269C460895664481
:10285000554614E001235B4243440A2128009A466E
:1028600000F03EFD013430313719397028000A215B
:1028700000F036FD092D00D8D0E0D0460500202C10
:10288000E8D10EAB98460323249A1340012B00D1C4
:1028900096E02023249A01930392239A43460292BE
:1028A0001EE0249B58460493239B009601970393B4
:1028B00043460C9A029307994B46FFF725FD17B044
:1028C000F0BCBB46B246A946A046F0BD249B5B07C0
:1028D0000ED40322694B249901920391239902910A
:1028E000009358464B460C9A0799FFF70FFBE6E713
:1028F0000422634BEFE73B0032000020002100F090
:102900002AFF012306000F000D9344E7249B039345
:10291000239B0293042301935A4BE1E7280000F024
:10292000BBFF02000B003000390000F014FF524BD7
:10293000002206000F0000F081FF0EAB9846002831
:102940000AD10022300039004B4B00F08DFF0028E7
:1029500002D1EB0700D50135202C94D008AA94466B
:102960001723280063440A2101341E1900F090FC4B
:102970003031280031700A2100F08AFC051EEBD1AD
:102980000323249A1340012B1BD0202C00D180E775
:102990000D9B002B35D02D224146631C0A5579E74B
:1029A00000220A980B99344B00F048FF002800D011
:1029B00046E75346002B51D101239C46E2443FE7B2
:1029C0002024239B002BE0D00D9B002B03D1249AC5
:1029D0000C33134202D0239B013B2393239BA3423E
:1029E000D3D908AB9C46172230236244202C00D157
:1029F0004FE72399013413558C42C6D0202CF8D1CF
:102A000047E7249B5B0724D4249A2300120700D4B1
:102A100040E72022414601330A553BE75746089DCF
:102A2000202C00D12DE7220030214046002F09D074
:102A30000132B154202A00D123E7D3431B191B18BC
:102A4000002BF5D10EAB98462E234146541C8B54D7
:102A500082E72B224146631C0A551BE7DB0700D4A3
:102A6000EEE6A9E7FFFFEFFFFFFFEF7F65CDCD416A
:102A700065CDCDC168A000100000E03F6C9E001045
:102A8000709E00107C9E0010249B0393239B029356
:102A900003230193004B23E7789E001010B5002814
:102AA00000D110BD01F0D4FBFBE7C0460B0010B510
:102AB000002802D049681B68984710BDF0B55746FA
:102AC000DE464E464546E0B595B01C001E9B91463D
:102AD0009B46C84AC84B82460F1E1A6000D1CFE100
:102AE000002320789846002800D1D1E11E005B46E3
:102AF0000B9309E032004B463900751CD0472E007D
:102B00000134207800284AD02528F3D110239B4691
:102B10000C3B9846023B00229C460134207825005D
:102B20000300203BDBB2102B03D8B4499B00CB58E9
:102B30009F460300303B092B55D9002398462A288D
:102B400064D000242E283FD00300683BDBB2122B58
:102B500008D8AB499B00CB589F4680235B00687820
:102B60001A4301350300253BDBB2532B57D8A54947
:102B70009B00CB589F46012301341A43CEE763469E
:102B800001341A43CAE7434601341A43C6E75B4699
:102B900001341A43C2E7082301341A43BEE7B046A2
:102BA0003400C14503D801235B424B4498464B4651
:102BB000424639000020D047200015B0F0BCBB468B
:102BC000B246A946A046F0BD687880230100DB002C
:102BD00030391A436B1C092900D85BE12A2800D13F
:102BE00068E11D00B0E700239846030041468800D5
:102BF000401801354000C0182B780100180030380B
:102C000030390928F3D9180088469AE70B9B02CB84
:102C1000884600290CDB60780B93651C91E7731CD8
:102C2000984632004B463900D04746466C1C68E750
:102C300002210A4341464942884660780B93651C4D
:102C40007FE7782800D16DE1582800D197E16F28FF
:102C500000D158E2622800D18CE210231100994380
:102C60000B00692800D0A6E2520500D533E20A2203
:102C70000C929A0500D5FEE1DA0500D55FE25A060E
:102C800000D52BE20B9A11001A0600D481E204C988
:102C90008C4612B2D11750184840614680B20B9151
:102CA0000593434604930C9BD20F03940293019225
:102CB000009032004B4639005046FFF75DFA6C1C1D
:102CC00006001EE780239B0068781A43013549E718
:102CD0006878682800D15EE1802301351A4341E716
:102CE00068786C2800D15BE180235B001A430135D2
:102CF00038E7462800D112E107210B9B04920733E5
:102D000042468B431900029403920CC9504600922C
:102D100001930B9132004B463900FFF7F3FC6C1C1A
:102D20000600EEE60B9B02CB0B910D93002C00D01E
:102D3000C9E00B789C46002B00D133E202235B42B2
:102D40000B990133C8180B0002E0984200D12DE125
:102D5000597801330029F8D10B995B1A0C93802321
:102D60001100DB0019400E911A4203D00C9BA342C4
:102D700000D90C940223190011400F91134200D185
:102D800054E16046002800D13BE10B9B32009E1BC2
:102D90004346AB46B8460E9D57460B93B2462600B7
:102DA00000E02200002D04D0731E002E00D101E1AE
:102DB0001E004B464146541CB8475346185D002838
:102DC000EFD10B9B5D46BA46A346474698460F9BFC
:102DD000002B00D014E10D9B5E466C1C0B9390E61B
:102DE000731C984632004B4639002520D047464692
:102DF0006C1C86E6BD2A0010101F0020849E001067
:102E0000C89E0010149F00100B9B0394984621232A
:102E10001A43193B04930833029300230592424658
:102E2000019308CA39009046009332004B46504641
:102E3000FFF7A2F9434606006C1C0B9361E693076B
:102E400000D4BEE00B9B320001CB39009B46C0B2E0
:102E50004B46D0474346741C4644012B00D84DE1F5
:102E6000A846554622004B46013439002020A84789
:102E7000B442F7D1AA465B4645460B936C1C40E62C
:102E8000CE4B20789A4600239846002800D02DE6A5
:102E9000002486E60100A00000190133400040181C
:102EA000197830380400080030380928F3D90800B0
:102EB0001D0049E60B9BA87810CB0235E143C917EA
:102EC0000C400B9340E60B9B1B789C46002B00D1DB
:102ED00067E1631E34E7202301009943472904D1A9
:102EE00080231B011A4302239843452801D1202344
:102EF0001A4307210B9B0492073342468B43190068
:102F0000029403920CC95046009201930B91320037
:102F10004B463900FFF7F8F96C1C0600F1E5202359
:102F20001A43E9E610230C930C23110099430B007C
:102F300052052DD4692800D19BE6642800D198E67B
:102F40008022180092001040134200D0E6E0DA051B
:102F500000D512E10B985A0600D5C8E01A0600D435
:102F600022E104C81204120C0B900593434604930B
:102F70000C9B0394029300230092019399E60C2387
:102F80001100994314330B4310210C915205D7D5EE
:102F900001229343CEE7C023A8781A430235E1E526
:102FA000C0239B00A8781A430235DBE50B9BC31AAC
:102FB0000C93D4E60B9B5D46BA469346474698462B
:102FC00005E74346012B00D8F3E0741E4444A846AD
:102FD000554632004B46013639002020A847A6420C
:102FE000F7D1AA4645460B9B220001CB39009846F3
:102FF000C0B24B46D0474346661C0B936C1C80E521
:103000005E460C9A904534D943469B199B1AA846B4
:103010001C00554632004B46013639002020A84797
:10302000A642F7D1AA46A3464546D4E60C9A531CBD
:10303000904500D8BBE043469B199B1A9B465346DC
:10304000A2465C46AB461D0032004B4601363900B5
:103050002020A847A642F7D1434601330C930B9B8F
:1030600054461B78AA469C465D466046002800D020
:103070008BE6B346AFE6082107208C460B9A073251
:103080008243944405CA0893434607930C9B6146C8
:10309000049300230593D30F0293D3171093119336
:1030A0000B910694109B119C190041401291210034
:1030B000514013911299139AC91AA24113000A00A0
:1030C00000920193390032004B465046FFF7B0F8AA
:1030D0006C1C060015E50A220C9259E70B9A01CAEE
:1030E0009446FF226146024010000B91D8E504C8C7
:1030F0009446FF2261460B900A4036E75B46260065
:103100000B936C1CFDE408230C9313001A00642835
:1031100000D009E75A0500D4ABE539E708934346E8
:1031200007200B9A07930C9B0732824304930023DA
:1031300011000694059302930CC90B91C0E70B9AFA
:10314000110004C9059343468B4604930C9B0394DA
:103150000293D30F0193D317D2185A4000924B46D3
:10316000320039005046FFF707F85B4606000B9324
:103170006C1CC6E402230C93C7E7059343460493F3
:103180000C9B0B9A03940293019008CA93460093F8
:10319000E5E704C98C46D1175018484061460B91A9
:1031A0007EE500230C93DAE504C80B90DDE60C9372
:1031B0005BE7340017E70A220C92A7E7091F00100B
:1031C00000B585B0039101210290009303481300DC
:1031D0004A4202A9FFF772FC05B000BDAD2A0010FB
:1031E00010B5094A0300146884B0002C08D00122ED
:1031F00000910648524203A9A047012004B010BD27
:1032000001F034F80020F9E7101F00209D2A00107B
:1032100001480421014B1847100B00204D320010CB
:10322000014B5B6818470000100B0020142310B5F9
:103230000100188804331B88984710BD162310B569
:103240000100188802331B88984710BDF8B547461F
:10325000CE4680B50F1E19D01423994604330400BE
:103260000025012698464B461888434621681B884E
:10327000984701C4431E9841013540420640AF4281
:10328000F1D13000C0BCB946B046F8BD0126F8E720
:10329000124A936F9B0815D29066D166002905D01B
:1032A000FFE7FFE7FFE7516F106F704704B580211C
:1032B0000906C2175140002800D0C84306F0C0FBE1
:1032C000002104BDF0B5146E556E576F166FFFF7F1
:1032D000E3FF1466556657671667F0BD000000D01F
:1032E000114A936F9B0813D210665166002905D0CE
:1032F000FFE7FFE7FFE7516F106F704704B5002845
:1033000001D00020C04306F09BFB002104BDC04655
:10331000F0B5146E556E576F166FFFF7E5FF146624
:10332000556657671667F0BD000000D094464A4ABC
:10333000926F9208624601D228E0C046F0B5464E30
:10334000346E756E776F366F00F020F89446424AFF
:1033500014665566576716676246F0BD94463E4A46
:10336000926F9208624601D254E0C046F0B53A4EE0
:10337000346E756E776F366F00F04CF89446364AAF
:1033800014665566576716676246F0BD002B24DB4E
:1033900011D000293EDA00B5C943404200D10131C5
:1033A00000F038F8C943404200D10131DB435242BA
:1033B00000D1013300BD002AEBD1002801D1002942
:1033C00005D00020C90FC90701D1C043410800B58D
:1033D00006F02EFB0022002300BD00B500290ADB09
:1033E000DB43524200D1013300F014F8C94340429C
:1033F00000D1013100BDC943404200D10131DB435E
:10340000524200D1013300F005F8DB43524200D1B3
:10341000013300BD002923D1002B18D1002A0CD084
:10342000BC460D4F38667A6600210023FFE7FFE7B0
:10343000FFE77A6F386F67467047002801D007486A
:10344000010000B506F0F4FA0022002300BD0200DE
:103450000B00002000217047000000D0FFFFFFFF9D
:10346000002B00D0BFE0130C28D1002AE7D080B495
:10347000114F39667A66FFE7FFE730B4040C7B6FC3
:10348000396F1B0423433B667A66FFE7FFE7FFE7DC
:10349000C04684B27B6F3D6F1B0423433B667A6654
:1034A000FFE7FFE7C04600232C042D0C7A6F386F2E
:1034B00000196941B0BC7047000000D0F0B59446D7
:1034C0000025140E01D112020835140F01D112018A
:1034D0000435940F01D192000235D40F01D152006E
:1034E0000135D40B0134254F7C66254C3C660E0C0F
:1034F00093B2FFE7FFE7FFE73C6F6643360C7703C5
:10350000BE467343DF0B5B04C01AB941130C73430F
:10351000DB18C91ACE086643360CB64493B273431F
:103520001F0F1B01C01AB941130C73431F0B1B055E
:10353000C01AB941860D8F023E436643360C092DF1
:1035400024DB520A7243801A7703460A6643360C1C
:1035500016235B1BDE40DF40BF1964466643821BB7
:103560007046043506330100D940A840C01900D385
:103570000131A24206D20023F0BD0000000000D0BD
:10358000FFFFFFFF121B0130F3D3F1E709277F1B79
:10359000FE406446A2B27243801A00D20139220C66
:1035A0007243130C1204821A99410B0070460435C1
:1035B00013370100F940A840801900D30131002BD6
:1035C00002D1A2420AD2F0BD013000D30131121B58
:1035D000FAD2013BF8D1A24200D2F0BD013000D3B3
:1035E0000131121BF7E7F0B51C0C00D080E00CB4E1
:1035F00000251C0A04D11B02160E334312020835A3
:103600001C0B04D11B01160F3343120104359C0B14
:1036100004D19B00960F334392000235DC0B02D19C
:1036200092185B4101351C00971864410134464FE4
:103630007C66464C3C660E0CFFE7FFE7FFE7C046A2
:103640003C6F6643360C7703BE4697B27743C01B88
:1036500000D20139C01B00D201399FB27743C91B88
:10366000C91B170C77437E04FF0B801BB941CE08A2
:103670006643360C0C2D33DBB644120B1F053A4360
:103680001B0B97B27743C01B00D201399FB277431F
:10369000C91B170C77433E043F0C801BB941860DB4
:1036A0008F023E43664329277F1BFE400C3D774631
:1036B000AF40BF1930BCA2B2ABB272437343801AA1
:1036C0009941220C7243130C1204801A9941020092
:1036D0000B000137001BA941F9D2781E0021F0BD73
:1036E0000C277F1BFE4077467F0BAF40FF19E0E7BA
:1036F00000245D1C07D0144F7D663966FFE7FFE7A5
:10370000FFE7FFE73C6F95B29EB265436643401BFF
:10371000B141150C1E0C6543664336042F0C3E4325
:103720002D04401BB141994204D202000B0020003D
:103730000021F0BD01D19042F7D3801A99410134A4
:103740009942F2D3F6E70000000000D0FFFFFFFF30
:1037500048404140484018B41B4B5B68FC4601930D
:1037600008BD04DFBB39001018B4174B1B68FC46BA
:10377000019308BD00DFC53900109446134A926FCB
:10378000920809D2624618B40F4BDB68FC460193DD
:1037900008BD0CDF7D3C00100C4AF0B5146E556E70
:1037A000576F166F6246FFF7EEFF084A14665566BC
:1037B00057671667F0BD18B4034B9B68FC4601932E
:1037C00008BD08DF213B0010D4210020000000D0FC
:1037D000FFB550404240504059404B40594000E0F6
:1037E000FFB5154F4C00640D03D0BC4204D10C034F
:1037F00014D80020090D09055C00640D03D0BC42FB
:1038000004D11C030AD800221B0D1B0501264B40C6
:1038100009D44B4003D58B4200D18242FFBD99426F
:10382000FCD19042FFBD0B43DB1803431343F5D09B
:10383000C9434918FFBD0000FF07000000B5FFF7AE
:10384000CFFF804100BDC04600B5FFF7C9FF01D9D9
:10385000002000BD012000BD00B5FFF7B9FF01D970
:10386000002000BD012000BD00B5FFF7B1FF804181
:1038700000BD012040054A00121804D85A00121851
:1038800001D80020704701207047002070470000D9
:103890000021002805D17047C1174840401AFAD0CE
:1038A000C90713B5064B1B6898470CBC441CA240C3
:1038B0001005120B0349091B09051943114310BDDB
:1038C000D42200201F04000010B54C00620D80239C
:1038D000D218DB00D21A5B057E2A10DD9E3A13DA7D
:1038E000CC170903490819435242D14064000134FE
:1038F0001532202A05DAD0400843604310BD00206D
:1039000010BD0846604310BDC80FC018013810BD77
:1039100018B4044B5B6AFC46019308BD24DF2D3EBE
:1039200000100000D4210020132370B51C78012C56
:1039300015D010DD0F48FFF781FC0F4D01008022EC
:10394000280000F06DFB022C06D00C48FFF76EFC3F
:103950000B4B186070BD084D0A4AAA64F5E7064D86
:10396000084A29002B00803104C38B42FCD1AA6491
:10397000EBE7C04653440000D42100204C33000044
:10398000D42200208939001007B5604601880A0A50
:103990000230DF2AFAD1C9B2820804D302884088F3
:1039A0000004104300E00068014A5050039007BD36
:1039B000D42100200FB403BC0CBCF0B50124E407F3
:1039C000634000E0F0B50C0DCF0F661E3605891B75
:1039D000640503D3C943404200D30131640D03D0D1
:1039E000661CF60A07D0E41B00207F00791C8907BB
:1039F0008912803C24031D0DDF0F6E1E36059B1BB4
:103A00006D0503D3DB43524200D301336D0D03D068
:103A10006E1CF60A07D0ED1B00227F007B1C9B0763
:103A20009B12803D2D032F1B661B58D4A446202ECD
:103A300046DA20371400BC401D00BD40F24033413F
:103A40002A4380185941CB0F05D0C943C0430022F7
:103A500064425041514162464D0D28D10D0D07D1B0
:103A600000281FD0241940414941013A0D0DF9D0D9
:103A7000640006D3013000D30131002C01D140088D
:103A80004000013A0BD4941CE40A04D112051144FD
:103A9000DB071944F0BDD907204B194300E0D907D3
:103AA0000020F0BD0029DDD1002CDBD1F0BD0132BA
:103AB000C6074008CD0728434908002EE1D0D9E7C2
:103AC0003C2E29DA203E40371400BC4000D00124AF
:103AD000F24014431A00BB401C43D317ACE7AC467A
:103AE000202F08DA20360400B4400D00B540F8401D
:103AF00039412843A5E73C2F0CDA203F403604002B
:103B0000B44000D00124F84004430800B1400C4305
:103B1000C117EAE710001900002494E70000F07FC5
:103B2000F0B50C0D661E3605891BE60A6405640DAA
:103B300002D0651CED0A04D0002001210905803C5B
:103B40002403A4461C0D671E3F05DB1BE70A640522
:103B5000640D02D0651CED0A04D0002201231B0570
:103B6000803C24037740644497B484B296B2744393
:103B7000070C7E43150C6F4380B26843361802D39E
:103B8000012000043F183004350C00197D418446A3
:103B900088B29AB250430C0C62431F0C7C438EB225
:103BA0007E43921902D301263604A4191604170C79
:103BB0003618674101BC81B29AB25143040C62438A
:103BC0001B0C5C4380B25843121802D3012000043E
:103BD00024181004130C401863412D185E41002076
:103BE000474106BC88B293B258430C0C6343120C95
:103BF000544389B251435B1802D30121090464186C
:103C000019041A0C091862416D18564100204741E9
:103C100018BCF902720D1143F0026A0D1043ED0257
:103C20000A0D03D16D1940414941013B124E9B1BC6
:103C30007600B3420ED26D0007D3013000267141E9
:103C40006646354301D1400840001B05C918E4070A
:103C50002144F0BD0BDA013306D1013004D101312A
:103C60004F0D01D04908F2E7E1070020F0BD013611
:103C700031050020EBE70000FF030000F0B51C0D4C
:103C8000671E3F05DB1BE70A6405640D02D0661C56
:103C9000F60A04D0002201231B05803C2403D02512
:103CA0002D060026F6432E661E096E66CE0FF61907
:103CB000B44649004F0D02D07E1CF60A03D0002006
:103CC0000021403F3F033E1BB600B444013F7F0547
:103CD000C91B49082E6F013676089C02950D2543B5
:103CE0007543ED137543AD1301356D10F603761B67
:103CF0000CB4CC02450D2C43A2B2B3B25A43270CEC
:103D00007B43350C6F43A4B26C431B1902D30124CF
:103D100024043F191C041D0CA4187D4124196D4175
:103D2000009A91B2ACB26143170C7C432B0C5F43F9
:103D300092B25A43A41802D301221204BF182204DB
:103D4000230C52187B41019C6C431B19520ED90164
:103D50000A434401A01A81B2B2B2514303145A4338
:103D6000360C734387B27743D617D21900277E41AA
:103D700036049B191704160C7F185E417316ED1854
:103D8000F301002680337541A90F06D16400690A4A
:103D9000E8055B0A184309D22FE0042294448033DB
:103DA0007541A90AA8059B0A184326D340414941F9
:103DB0002404009A019B0D005543641B4343E41AFD
:103DC00095B286B27543170C7E43030C5F4392B2E3
:103DD0005A43B61802D301221204BF183204330C1E
:103DE00052197B4152429C41002C02D400220130E6
:103DF00051414008CA071043490802B06246D7073C
:103E00009210084BD218084B9A4203D21205891817
:103E1000C919F0BD0020002A01DC3900F0BD0133D2
:103E20001905F5E7FD030000FE070000002200B5BC
:103E3000203200F004F8080000BD000000220B153D
:103E40000AD410B5944600F031F81414013400DAA5
:103E50000021CB17144C20470020002170476244FA
:103E6000343A0CD40C2A07DA0400914090405242B4
:103E70002032D440214310BDD843D94310BD203255
:103E800007D40C469440524220321141D040204386
:103E900010BD0800C917203203D45242203210410D
:103EA00010BD1800190010BD5F3E00100A0DCC0FA8
:103EB000531E1B05C91A520503D3C943404200D300
:103EC0000131520D03D0531CDB0A07D0121B002016
:103ED0006400611C89078912803A1203014BD21ACF
:103EE00070470000FF03000051434343C9188C464C
:103EF000110C83B24B4310B4040C614392B280B2F4
:103F0000504362431C041B0C001910BC594113049C
:103F1000120CC0185141614470470000132310B5C2
:103F200010481C78FFF78AF90100012C0AD003DD44
:103F300080220D4800F074F80C48FFF777F90C4B1D
:103F4000186010BD084C5422200000F069F82300CE
:103F50002100084A5433803104C38B42FCD12262D1
:103F6000E261E9E753460000D82200204C3300000C
:103F7000D4220020793F001007B5604601880A0A64
:103F80000230DF2AFAD1C9B2820804D302884088FD
:103F90000004104300E00068014A5050039007BD40
:103FA000D822002070B505000C000B4E300005F043
:103FB0007FFD2800210005F093F80500300005F092
:103FC0002FFD002D05D0054B2C199C4201D828004F
:103FD00070BD0348FDF774FFB813002000000420F3
:103FE000B8A0001070B50400054D280005F060FD74
:103FF000200005F0B9F8280005F012FD70BDC0469C
:10400000B813002001480421014B1847200B002061
:104010004D320010014B1B6818470000200B002098
:10402000014B5B6818470000200B0020030010B50F
:10403000080011001B68984710BDC046F0B5464601
:104040004F46D6468046C0B50E00171E3FDD4B1EBC
:104050009946214B0125002400209A460DE04B464D
:104060001B5D0D3B5A425341325DDBB20A2A0BD035
:104070002B00013401359F421ADD002CEFD143465D
:10408000325D1B7D0A2AF3D1002BF1D1A04204DA64
:104090004346211A1B6830189847434650461B6810
:1040A00002219847013428002B0001359F42E4DCAF
:1040B000874204DD4346391A1B6830189847F619C1
:1040C000013E33780D3B5A42534142461375E0BCE2
:1040D000BA46B146A846F0BD38A1001010B50B0095
:1040E000417D002903D01900FFF7A8FF10BD046827
:1040F00011001800A047F9E7F0B5C646144B0600BA
:104100001C6800B5002C19D0031D9846114F02E021
:104110002469002C12D02568002DF9D03B68002BB3
:1041200001D0A342F4D1637D3268002B0BD0200074
:104130004146FFF783FF2469002CECD10023336054
:1041400080BCB846F0BD11004046A847E0E7C04635
:10415000001B0020081B002070B50C00096805003A
:10416000802904D04B1C23606418257170BD200089
:10417000FFF7C2FF2168F5E7F0B5DE4657464E4629
:104180004546E0B585B017001C0006000D00FDF7A0
:10419000E5F90023274A12184B41002B45DB26493D
:1041A00008008A4605F05CFC01906B1C03D13000CE
:1041B00005F0BCFA0500002C30D1204B9946204B6D
:1041C0001C68002C20D01F4B98460A239B4602E017
:1041D0002469002C18D02368002BF9D043461B68B3
:1041E000002B01D0A342F3D12A0031002000C847A0
:1041F000002FEDD05A4602AB2000DA71D91D012202
:10420000C8472469002CE6D1019B002B09D105B0D9
:10421000F0BCBB46B246A946A046F0BD0A4B994643
:10422000CDE7504605F0FCFBF1E70122074B524277
:10423000B5E7C04640420F00C0130020DD4000102B
:10424000001B0020081B00202D400010FFFFFF7FF7
:1042500010B582B06B4604000022D81D0121002356
:104260000470FFF789FF200002B010BD70B5040094
:1042700005F05CFA00230100050001222000FFF791
:104280007BFF064B1C68002C06D06368002B00D017
:1042900098472469002CF8D1280070BD001B00202D
:1042A0000A4A1368002B05D10CE01A001B69103272
:1042B000002B07D09842F8D1002902D1036913607E
:1042C000016170470029FCD01060FAE7001B002054
:1042D000F0B5A3B004000D00FDF740F90023184A23
:1042E00012184B41002B27DB164E300005F0B8FBAF
:1042F00000230700019322002B00134801A9FEF7B9
:104300005FFF019B0500002B02D001A8FFF7F4FE20
:104310000E4B1C68002C06D06368002B00D0984719
:104320002469002CF8D1002F02D1280023B0F0BD61
:10433000300005F075FBF8E70122054B5242D3E748
:1043400040420F00C013002059410010001B002004
:10435000FFFFFF7F0FB400B583B004A901C901912D
:10436000FFF7B6FF03B008BC04B0184710B500F063
:10437000C5F8012010BDC046F0B50D1E15DD0E4B71
:104380000D271A680D4B4519D31859424B410C495A
:104390005B005E5E20210478A64207D09369194233
:1043A000FCD101301460A842F5D1F0BD93691942E7
:1043B000FCD11760F2E7C046F02300200080FCBF6C
:1043C000EC23002030B504000D1E26DD0020102156
:1043D0001B4B013C1A689369194219D1013093694A
:1043E0001942FCD1136823548542F4D1154B1B6844
:1043F000002B0CD050239363516B183B34320B408D
:104400001100802252010A431360002815D030BDEC
:104410000C4B1B68002BEDD1F7E70A4B1B68002BF8
:104420000BD050223821064B1B689A635A6B3433E9
:104430001140802252011343196003204042E6E7F5
:10444000F02300208C1A0020064B10B51B68002BAF
:1044500006D00021044A12689163044A1068984704
:1044600010BDC0468C1A0020F0230020901A0020B6
:104470001D4BF0B51A68C64698461C4B0E00D31863
:1044800059424B411A4F14331C00050000B53B68DC
:10449000002807D0002B11D0164B3D601E6080BC59
:1044A000B846F0BD002BF7D0906300212000FCF748
:1044B0006DFA20001049FCF7ADFBEDE720000E4936
:1044C000FCF78AFA01212000FCF760FA43465022EB
:1044D00038211B689A635A6B343311408022520191
:1044E00013431960D8E7C046F02300200080FCBFCA
:1044F0008C1A0020901A00204944001010B50C4B73
:104500000C4C1B780C4B02211B780C4B00202360B9
:10451000FCF776F902210120FCF772F9E12120680D
:104520004902FDF775FA01210548FFF7B9FE10BDF4
:10453000B0A30010F0230020B4A3001000400340FB
:10454000300B002001230121084A1360084A136040
:10455000084A080093689843FBD1074A11608021FC
:10456000490013680B42FCD07047C04600E0004091
:1045700000F0004000C0004000C0044010B50248F8
:1045800000F00CF810BDC046CC21002010B5082268
:104590000149FFF745FD10BDCC21002030B50025B5
:1045A00089B004000922002101A80095FFF732FD1F
:1045B0000922002105A80495FFF72CFD4B236A462C
:1045C0006846137004A90D2205F022FA152108226D
:1045D00020006944FFF724FD09B030BD7047C04694
:1045E0000BA10CC9126892009B581868203080F308
:1045F0000988022080F31488BFF36F8F3FBCAE465A
:1046000008BC04BC62B61847C046C046C046C04697
:10461000000000D0281F0020D0231B061A6DD207EF
:1046200004D501219A6D1A6D1142FBD1D023FF22CE
:104630001B061A658022024B52051A607047C0465D
:1046400004ED00E000000000000000000000000099
:10465000EFF309811AA00CC8106880001B181868B5
:1046600020390160F0C144464D4656465F46F0C1D0
:10467000146E556E566F176F3039F0C1106808B55B
:1046800072B601F0C5FD62B60CBC11680868103046
:10469000F0C8A046A946B246BB4680F309880D2261
:1046A00012073038F0C81466556656671767F0C8A9
:1046B0001847C046C046C046C046C046C046C04671
:1046C000000000D0281F002010B5EFF3108472B650
:1046D00002F09EF901F0A0FB002803D08022044BD9
:1046E00052051A6002F0A2F984F3108810BDC0468A
:1046F00004ED00E010B5FDF7FBFBC04610B58024CB
:10470000031F64041C60043B19600349043B1960E7
:10471000143B40381A6010BDF54600108022044B4F
:1047200052051A60BFF34F8FBFF36F8F7047C046BB
:1047300004ED00E0D0231B061B6808499B005A5873
:10474000002A08D00020585005495B58BFF35F8FFE
:10475000106083F3108862B67047C046C421002001
:10476000FC230220D02300221B065A657047C04656
:10477000002310B5084A094C052023601360FDF79B
:104780008FFAFA218900FEF7ABFD054B013818605E
:104790000723236010BDC04618E000E010E000E0F1
:1047A00014E000E070B5244B1A78D0231B061B6878
:1047B0009A4232D0FF230220204A1B041168404253
:1047C0000B4313601E4902F075FB05201D49404252
:1047D00002F070FBD023FF221B061A651A6DD20768
:1047E00004D501219A6D1A6D1142FBD1D0252D06F9
:1047F0002C68FF210F342000FCF7E4FA2000124956
:10480000FCF7EAF801212000FCF7C0F8FFF7E8FE0A
:10481000286801F0FDFCFDF76BFBFFF7A9FFFF2304
:104820000120064A1B06116840420B4313600749EA
:1048300002F040FBBEE7C046480B002020ED00E040
:1048400051460010DD45001019460010C946001001
:1048500010B5EFF3108372B6FFF7A4FF10B50E206A
:10486000FCF778F80F20FCF775F80022034B04489A
:104870001A7002F08BFBFFF795FFC046480B002033
:104880005148001010B50A4B1B78FF2B0CD0EFF3EA
:104890000580002805D0D0231B061B684000C018E7
:1048A00010BD01F08BFFFBE7D0231B061868F7E76C
:1048B000480B002000B5154B83B01B78FF2B09D1A6
:1048C0000368BFF35F8F00221A6081F3108820BF56
:1048D00003B000BDD0231B061A6803680C48920081
:1048E00013500C4811500C4A0221944663449B100B
:1048F000FF319940094B0122186801235B42009364
:10490000090A002300F0D8F8E2E7C046480B00206F
:10491000C4210020FC23022000FFFF2F702402206E
:1049200000B51C4A0B00127883B0FF2A29D01A491F
:1049300002688C46022162449210FF319140090ABC
:1049400040BF0068BFF35F8F0022026083F31088CE
:10495000EFF30583DBB2002B05D1104B186800F094
:1049600003F903B000BD0D4B0192186801AA00F0D5
:1049700047F9019B002BF4D08022094B52051A60A5
:10498000EFE740BF0268BFF35F8F0021116083F340
:104990001088E6E7480B002000FFFF2F702402205C
:1049A00004ED00E0F0B51D00314B07001B780E0050
:1049B000140083B0FF2B4ED0FCF7D0FD22002B005B
:1049C000121A8B4101212B48494280185941002974
:1049D00021DC1CD03B68BFF35F8F00221A6086F396
:1049E0001088254B5A6A95420AD98022234B5205DA
:1049F0001A60BFF34F8FBFF36F8F002003B0F0BD7D
:104A00009B6A0120A342F9D29542F7D1EDE7FA2340
:104A10009B009842DED3FA2200239200FEF786FC28
:104A2000021ED7D0D0231B06196815483B688900A1
:104A30000B5014480E5014498C46022163449B10BD
:104A4000FF319940114B090A186800920023012296
:104A500000F032F8C5E70368BFF35F8F00221A60E9
:104A600081F3108820002900FCF7D2FCC6E7C0467D
:104A7000480B002018FCFFFF0040054004ED00E05B
:104A8000C4210020FC23022000FFFF2F70240220FD
:104A900010B500F005F8014B186010BD702402201D
:104AA00010B51C2002F0C0FA041E03D0002308C079
:104AB00000F0B0F8200010BDF0B5C646060000B505
:104AC0000D0090461F0001F095F93468002F0AD1BF
:104AD00025420CD04346002B0CD02300AB4333605F
:104AE00001F052FB08E02B0023409D42F2D0069BD0
:104AF000002B05D101F048FB200080BCB846F0BD7A
:104B000041464B1E99410906002F10D1069A2943B0
:104B1000301D01F00FFD01F037FB00281BD001F024
:104B20009FFF0400830106D52402240AE4E78023C2
:104B3000DB041943EAE701F06BFF3468002F0DD165
:104B40002C4205D04346002B02D02300AB433360F8
:104B500001F06CFFE8E701F041FFE0E723002B40A4
:104B60009D42F5D1EEE7C046F8B5DE4657464E46C3
:104B70004546E0B505000F00060001F03BF9296845
:104B80002C6939430C362960A6422AD00023984666
:104B90008023DB049B4680235B049A4680239B048E
:104BA00099460EE019420AD057463A4202D0424690
:104BB0001A4390464B46194301F038FD2968A64236
:104BC0000DD020005F460268646813021B0A3A4257
:104BD000E8D00F001F409F42E6D0A642F1D14346E5
:104BE0009943296001F0D0FA2868F0BCBB46B24670
:104BF000A946A046F8BDC04610B5FFF7B5FF10BDE9
:104C000010B513000A000100014802F03FF910BD81
:104C1000F94B00100300083301224360C3600361B5
:104C200000235242826003607047C0460023036144
:104C30007047C04643689A684B608A609A685160C2
:104C4000996003680861013303607047030030B561
:104C50000C680833621C0DD01A005B681D68A54201
:104C6000FAD94B60996003688A600133516008612A
:104C7000036030BD02695368F3E7C04603694168C9
:104C800082688A6051605968814206D000220261C0
:104C90001A68013A1A60186870475A60F6E7C04609
:104CA00070B51600026C0400856B002A06D10668F8
:104CB000002E2AD001350020A56370BD002E0FD133
:104CC0004068FFF7ADF9226C63689446A2686344BC
:104CD00063609342EED32368002063600135EBE705
:104CE000C068FFF79DF9E168236C5A42CB1A21682E
:104CF000E3608B4203D2A3689C466244E260022ECA
:104D0000D8D1002DD7D10135D5E7806801F002FE5A
:104D10000135A660D0E7C046F0B5C64600B5846C44
:104D200082B0A36BE26B00260190934204D3300063
:104D300002B080BCB846F0BD4523226CE55CA76B91
:104D40006DB2002A16D0606801A9FFF769F9226CDC
:104D500063689446A2686344636093420ED32368F9
:104D600063600137A7636B1C0DD0452301356DB21D
:104D7000E554DCE723689846002B0FD00137002666
:104D8000A7636B1CF1D1636A002BD0D020002430C4
:104D900001F010FC0028CAD00126C8E7A06801F085
:104DA000B9FD43460600A360DBE7C04670B50500C9
:104DB00001F02EFE4523EC5C64B2002C1EDD2E00BB
:104DC000243609E02800FFF7A7FF00280FD1013C97
:104DD000E2B264B2002A11D0AB6C002BF2D16B6A44
:104DE000002B0BD0300001F0E5FB0028EFD0013C98
:104DF00001F0DAFCE2B264B2002AEDD14523FF22D1
:104E0000EA5401F013FE01F003FE4423EC5C64B2AB
:104E1000002C16DD2E00103604E0013CE2B264B234
:104E2000002A0ED02B69002B0BD0300001F0C2FB02
:104E30000028F2D0013C01F0B7FCE2B264B2002AD3
:104E4000F0D14423FF22EA5401F0F0FD70BDC046CA
:104E5000F8B506000800704354300D00170002F04A
:104E6000E3F8041E25D00300002D24D1236025641F
:104E7000E66301F0CDFD226CE36B21685343C81853
:104E80009B1ACB18E3600025FF234422A06020007A
:104E90006160A563A3540132A3541030FFF7BAFE3A
:104EA00020002430FFF7B6FE01F0C0FD5023E75488
:104EB000A5642000F8BD5433D8E7C046F0B5CE460F
:104EC000474604001E00002380B585B09946019234
:104ED000884601F09DFDA36BE26B002744259342B9
:104EE00035D3022E5DD0019B002B66D0002F54D00D
:104EF00001F09CFD00F07EFF01F08AFD625D52B280
:104F0000531C01D14B4663554523E25C52B201323A
:104F100001D14A46E25401F089FD01A902A801F03D
:104F2000D5FB002851D101F073FDA36BE26B9342D6
:104F300021D001F07BFD2000FFF738FF01F024F9BC
:104F4000012701F065FDA36BE26B9342C9D23200E9
:104F500041462000A56BFFF7A3FEA36C002B3BD0BE
:104F6000022E27D02000FFF7D7FE002839D101F00C
:104F70005DFD012024E001F059FD20000199103071
:104F800001F0C0FA2000FFF711FF01F0FDF8002842
:104F9000D6D101F023FD0127D3E702A801F08AFB57
:104FA000A6E7022241462000A56BFFF779FEA36C1D
:104FB000002B11D0002DD5D0D9E701F037FD00200E
:104FC00005B0C0BCB946B046F0BD2000FFF7EEFE0C
:104FD00001F0DAF80020F3E7636A002B04D100281F
:104FE000C5D001F0FBFCC2E72000243001F0E2FA5A
:104FF0000028BCD0F5E7C046020010B50021012012
:10500000FFF726FF041E07D0002300220021836043
:105010000360C360FFF752FF200010BDF8B557468C
:105020004E464546DE460400E0B5894692461D00E0
:10503000EFF3108772B601F0EBFCA36BE26B9342C7
:105040000DD30026022D0AD001F0F0FC87F3108862
:105050003000F0BCBB46B246A946A046F8BD452389
:10506000E65C9846A36B76B22A00494620009B4630
:10507000FFF716FE731C05D04346013676B2E654A0
:105080000126E1E7A36C002B11D0022D02D15B4673
:10509000002BF5D12000FFF73FFE0028F0D053464B
:1050A000002BEDD00123524601261360CCE7636A42
:1050B000002BE5D02000243001F07CFA0028EED14E
:1050C000DEE7C046F0B54746CE46040080B585B061
:1050D0008846019201F09CFCA76B002F5ED1019BDA
:1050E000002B3BD002A801F0E5FA002344269946A4
:1050F000452501F09BFC00F07DFE01F089FCA35DDD
:105100005BB2013301D14B46A355635D5BB2013302
:1051100001D14B46635501F089FC01A902A801F0B9
:10512000D5FA002822D101F073FCA36B002B2AD101
:1051300001F07CFC20000199243001F0E3F920000B
:10514000FFF734FE01F020F8002824D001F060FCC5
:10515000A76B002F22D1019B002BCAD101F066FC66
:10516000002005B0C0BCB946B046F0BD2000FFF736
:105170001DFE01F009F801F04BFCA36B002BEDD0F4
:1051800001F054FCE2E701F051FC2000FFF70EFEB5
:1051900000F0FAFFDAE701F021FCD7E7226C002AE1
:1051A00008D0E3689918A368E16099420BD24046A1
:1051B000FEF736FF013FA7632369002B06D101F0FC
:1051C00035FC0120CDE72168E160F0E720001030D8
:1051D00001F0F0F90028F2D001F000FCEFE7C04642
:1051E000F0B5C6460023040000B584B0984601918E
:1051F00001F00EFCA36B002600274425002B3CD1B8
:10520000019B002B00D178E0002F50D001F00EFC64
:1052100000F0F0FD01F0FCFB635D5BB2013301D1F6
:10522000434663554522A35C5BB2013301D143463B
:10523000A35401F0FBFB01A902A801F047FA0028E2
:1052400027D101F0E5FBA36B002B34D101F0EEFB7D
:105250002368002B55D020000199243001F052F929
:105260002000FFF7A3FD00F08FFF002835D00127B5
:1052700001F0CEFBA36B002BC2D0013BA3632368DC
:10528000002B50D02369002B44D101F0CFFB012625
:105290001EE02000FFF78AFD00F076FF01F0B8FB6A
:1052A000A36B002B10D001F0C1FB0127E0E702A89F
:1052B00001F000FAAAE701F0B9FB2000FFF776FD44
:1052C000012700F061FFD3E701F0B0FB002E08D109
:1052D000300004B080BCB846F0BD01F07FFB012770
:1052E000C6E701F095FB616A002903D02021236BFA
:1052F0001B68C91AA06801F039FB01F097FB002672
:10530000E6E701F085FBA06801F096FA060001F0DF
:105310008DFBA0E72000103001F04CF90028B4D03C
:1053200001F05CFBB1E701F0BFFBA060AAE7C0465B
:1053300030B5084C002322001568002D04D001333D
:105340000832082BF8D130BDDB00E150E31858607B
:10535000F9E7C046B424022070B5040016000D0021
:1053600001F056FB4422A35C5BB2013301D1002360
:10537000A3544522A35C5BB2013301D10023A354A3
:1053800001F054FBA36B002B03D02000FFF70EFDB0
:1053900070BD200032002900243001F0EFF8F4E75E
:1053A00010B5FFF7BBF9034C2368022BFCD9FFF7BC
:1053B000B5F9F9E7441F0020F0B5C646304B00B5FB
:1053C000040088461E68EFF3108172B6D0273F06AE
:1053D0003B682C4D9B00EA5881F310887D23002107
:1053E000D154EFF3108272B63B689B00E85882F309
:1053F00010880830FFF742FC631C30D03419EFF3FB
:10540000108172B6D022120613689B00EB5881F30C
:1054100010889C60A64214D81B4B1868EFF31086C6
:1054200072B613689B00E95886F310880831FFF7BD
:105430000DFC164B1A68A24200D91C6080BCB8460D
:10544000F0BD134B1868EFF3108472B613689B001D
:10545000E95884F310880831FFF7F8FBEEE743467C
:10546000002BCBD0EFF3108272B63B689B00E9585B
:1054700082F3108807480831FFF7DCFBDEE7C046FF
:1054800028250220281F0020341F00208824022005
:105490003C1F00200025022070B5EFF30583DBB22E
:1054A000002B11D0D0231B061B6898421BD0104D37
:1054B00084002B599B6B023305D0FFF753F902226E
:1054C0002B5952429A6370BD094D84002B599B6B36
:1054D0000233F8D0D0231B061B689842EDD101227D
:1054E000044B1A51EFE70122024B8000C250EAE759
:1054F000281F002034250220F8B54B4259410123D2
:105500005B429C46056B1B4B47466D1A9846002133
:105510000123CE46184A99468B0080B5D758D658F5
:10552000D458A46B012C10D9012906D16346012B54
:105530001CD9C0BCB946B046F8BD01218B00D75874
:10554000D658D458A46B012CEED844461B59002BD6
:10555000EAD13B6BF46B1B1BAB42E5DC4C468C4049
:1055600046682642E0D08C461D00DDE76046FFF726
:1055700093FFDEE734250220281F0020F8B5D02352
:105580005746DE4645464E461B061B68584A9B005A
:10559000D358E0B59846574B574F9A46574B9B46C2
:1055A00059E042461365D023524D1B061A682B78EA
:1055B000524C013BDBB22B70002B07D10121A35CC5
:1055C0008B43A354BFF35F8F4D4B1960D0231B0651
:1055D0001A686B78013BDBB26B70002B08D102219B
:1055E000A35C8B43A354BFF35F8F0122454B1A602A
:1055F000FFF7A0F8EFF3108372B6D0231B061A68EA
:10560000404B196800294ED0BFF35F8F0123022160
:105610006B70A35C0B43A354D0231B061A68384B52
:105620001968002938D0BFF35F8F012301212B7047
:10563000A35C0B43A354EFF3108172B6D022120681
:1056400013682B489B00C35881F310881E654B4696
:105650003B60002E34D043469B6B02332AD1434635
:105660001E6D3B68994600233B60002E99D1D023E4
:1056700055461B061A686B785C46013BDBB26B70C3
:10568000002BB5D10221A35C8B43A354BFF35F8FE2
:1056900001221C4B1A60ABE7A15CC90720D4196832
:1056A0000029C0D1FBE7A15C89071DD41968002936
:1056B000AAD1FBE7F0BCBB46B246A946A046F8BD5E
:1056C0002B781268013BDBB22B70002BC3D1012178
:1056D000A35C8B43A354BFF35F8F094B1960BAE7F8
:1056E0002B7801332B70A6E76B7801336B7093E74F
:1056F000281F0020F82302200C240220F42302207B
:10570000380100D03C0100D070B5EFF3108472B6C0
:10571000D023364A1B0618681368002B45D0344B3B
:10572000BFF35F8F01210225324A5170195C294372
:105730001954D02530492D060E682868002E3CD01B
:10574000BFF35F8F012101251170195C29431954A2
:105750002A490025086801300860D020000600684A
:10576000157001251A5CAA431A54BFF35F8F224BB0
:105770001D600B68012B02D084F3108870BDEFF31D
:10578000108272B6D0231B061B681D499B005B5814
:1057900082F310881B6D002BEED1EFF30583DBB293
:1057A000002BE9D1FFF7EAFEE6E7114B195C890708
:1057B0000AD411680029B3D1FBE71E5CF60708D4B0
:1057C0000D68002DBCD1FBE70A4A517801315170B8
:1057D000AFE71678711C117008490868013008603D
:1057E00028681670002EC4D1BBE7C0463C0100D02B
:1057F000F4230220F8230220380100D00C240220D8
:10580000281F002070B5EFF3108C72B6D021090666
:105810000B68354A980010588CF31088006D0028EA
:1058200012D1EFF30580C0B2002832D02F48304C9F
:1058300030490D68002D3ED0BFF35F8F01212170EC
:105840000124C15C2143C154EFF3108C72B6D02007
:10585000000603689B00D1588CF310880B6D013350
:105860000B65254B1B68002B0AD1EFF3108172B634
:1058700003689B00D35881F310881B6D012B00D067
:1058800070BDEFF30583DBB2002BF9D1FFF776FE95
:10589000F6E71A4C2068002818D01448BFF35F8F31
:1058A00001210225124C6170C15C2943C154D023EF
:1058B0001B061B68BCE7C55CED0703D40D68002D13
:1058C000BAD1FBE7237801332370BDE70748C55CF5
:1058D000AD0703D421680029E0D1FBE7044C6378CD
:1058E000013363700B68A3E7281F0020F423022014
:1058F000F8230220380100D00C2402203C0100D003
:1059000010B5EFF3108C72B6D02109060B68274A48
:105910009B0098588CF31088036D013B0365EFF3EF
:10592000108072B60B6899008A5880F31088126D47
:10593000002A00D010BD1E490A78013AD2B20A707E
:10594000002A08D101201B4CE25C8243E254BFF3E1
:105950005F8F194B1860EFF30583DBB2002BE9D1A1
:10596000D0231B061A684B78013BDBB24B70002B2F
:1059700009D102200F498B5C83438B54BFF35F8FA7
:1059800001220E4B1A60FEF7D5FEEFF3108272B6BD
:10599000D0231B061B680A499B005B5882F31088C2
:1059A000002BC7D0FEF7BAFEC4E7C046281F002070
:1059B000F8230220F4230220380100D03C0100D05B
:1059C00034250220F8B5DE4657464E464546E0B53A
:1059D000FEF7A4FE314B324E9846324B324C9A467B
:1059E000324B334F9B46D0231B0699462368002B2E
:1059F00035D0EFF3108372B63368002B01D0FFF778
:105A000001FF2368002B15D04346DB68DD68AB6BD4
:105A100001332BD128000830FFF730F93B68686B61
:105A2000013B3B602368013B236001F089FB2800B8
:105A300001F086FB3368002BD8D0EFF3108272B6EA
:105A40004B4651461B689B00CB5882F310881B6D58
:105A5000002BCBD0FFF754FF2368002BC9D15B4646
:105A60001B68022BC2D9FEF759FEBFE73368002B33
:105A7000F5D0EFF3108272B64B4651461B689B007F
:105A8000CB5882F310881B6D002BE8D0FFF738FF4E
:105A90005B461B68022BA9D9E5E7C0461425022006
:105AA000F4240220281F002008240220441F002084
:105AB00004240220F8B54E464546DE465746E0B57A
:105AC0009600804630000F00994601F0ADFA051EA1
:105AD00000D1A0E0802001F0A7FA041E00D1A5E0CB
